{
  "transactions": [
    {
      "hash": "0xb08a9a23221a7f2fcfc1630ae74b8358c35c038d627959871f0f026a472ae506",
      "transactionType": "CALL",
      "contractName": null,
      "contractAddress": "0x54d6dbc71d2e17e56456e3c11f696f96906b9927",
      "function": "whitelistToken(address,bool)",
      "arguments": [
        "0x61e101bA661c151042E96340514AD210D13A541C",
        "false"
      ],
      "transaction": {
        "from": "0xa0e87a70ae6652b5727217b8cca43898cb02f56e",
        "to": "0x54d6dbc71d2e17e56456e3c11f696f96906b9927",
        "gas": "0x8dc0",
        "value": "0x0",
        "input": "0x0ffb1d8b00000000000000000000000061e101ba661c151042e96340514ad210d13a541c0000000000000000000000000000000000000000000000000000000000000000",
        "nonce": "0x30",
        "chainId": "0x14a34"
      },
      "additionalContracts": [],
      "isFixedGasLimit": false
    }
  ],
  "receipts": [
    {
      "status": "0x1",
      "cumulativeGasUsed": "0x32a225",
      "logs": [
        {
          "address": "0x54d6dbc71d2e17e56456e3c11f696f96906b9927",
          "topics": [
            "0xe378e1213d34c753fdaaede6f2a814ce78a8e8df2d8a7ca93b940924d90880c4",
            "0x00000000000000000000000061e101ba661c151042e96340514ad210d13a541c",
            "0x0000000000000000000000000000000000000000000000000000000000000000",
            "0x000000000000000000000000000000000000000000000000000000006952709c"
          ],
          "data": "0x",
          "blockHash": "0xe712c8d31f24980eef190691afb84e4b903096c208936f136b0869f335edde35",
          "blockNumber": "0x21f88de",
          "blockTimestamp": "0x6952709c",
          "transactionHash": "0xb08a9a23221a7f2fcfc1630ae74b8358c35c038d627959871f0f026a472ae506",
          "transactionIndex": "0xa",
          "logIndex": "0x8b",
          "removed": false
        }
      ],
      "logsBloom": "0x80000000000400000000000000440000000000000000000000000000000000000000000000000000000000000000000000000000000000004000000000000000000000000000000000000000000000000000000000000000000000008000000000000000020000000000000000000800000000800000000000000000002000000000000000000000000000000000000000000000000000000000000000000000000000000000080000000000000000000000000000000000000000000000000060000000000000000000000000000000000020000000000000000000000020000000000000000000000000000000000000000000000000000000000000000000",
      "type": "0x2",
      "transactionHash": "0xb08a9a23221a7f2fcfc1630ae74b8358c35c038d627959871f0f026a472ae506",
      "transactionIndex": "0xa",
      "blockHash": "0xe712c8d31f24980eef190691afb84e4b903096c208936f136b0869f335edde35",
      "blockNumber": "0x21f88de",
      "gasUsed": "0x66a0",
      "effectiveGasPrice": "0x125341",
      "blobGasUsed": "0x79e0",
      "from": "0xa0e87a70ae6652b5727217b8cca43898cb02f56e",
      "to": "0x54d6dbc71d2e17e56456e3c11f696f96906b9927",
      "contractAddress": null,
      "daFootprintGasScalar": "0x138",
      "l1BaseFeeScalar": "0x44d",
      "l1BlobBaseFee": "0xb72",
      "l1BlobBaseFeeScalar": "0xa118b",
      "l1Fee": "0x4612a",
      "l1GasPrice": "0xcfbc",
      "l1GasUsed": "0x640"
    }
  ],
  "libraries": [],
  "pending": [],
  "returns": {},
  "timestamp": 1767010459,
  "chain": 84532,
  "commit": null
}