{
  "transactions": [
    {
      "hash": "0x5835b213b29022ce035b035df4b4b36263fd02282404ce9ab52034c6d8ca9e75",
      "transactionType": "CALL",
      "contractName": null,
      "contractAddress": "0xdb2d8e8ad3feefdf8429de1a3fa995b618421929",
      "function": "whitelistToken(address,bool)",
      "arguments": [
        "0x61e101bA661c151042E96340514AD210D13A541C",
        "true"
      ],
      "transaction": {
        "from": "0xa0e87a70ae6652b5727217b8cca43898cb02f56e",
        "to": "0xdb2d8e8ad3feefdf8429de1a3fa995b618421929",
        "gas": "0x103f9",
        "value": "0x0",
        "input": "0x0ffb1d8b00000000000000000000000061e101ba661c151042e96340514ad210d13a541c0000000000000000000000000000000000000000000000000000000000000001",
        "nonce": "0x89",
        "chainId": "0x14a34"
      },
      "additionalContracts": [],
      "isFixedGasLimit": false
    },
    {
      "hash": "0x5f58954ec1f84bda93e6154d2156dc17db8d81528409a8c70e642b3212010bc5",
      "transactionType": "CALL",
      "contractName": null,
      "contractAddress": "0xdb2d8e8ad3feefdf8429de1a3fa995b618421929",
      "function": "whitelistToken(address,bool)",
      "arguments": [
        "0xd401F418f15F734e05CC5015DD303e8262F8C368",
        "true"
      ],
      "transaction": {
        "from": "0xa0e87a70ae6652b5727217b8cca43898cb02f56e",
        "to": "0xdb2d8e8ad3feefdf8429de1a3fa995b618421929",
        "gas": "0x103f9",
        "value": "0x0",
        "input": "0x0ffb1d8b000000000000000000000000d401f418f15f734e05cc5015dd303e8262f8c3680000000000000000000000000000000000000000000000000000000000000001",
        "nonce": "0x8a",
        "chainId": "0x14a34"
      },
      "additionalContracts": [],
      "isFixedGasLimit": false
    },
    {
      "hash": "0x42d7ceb6dc3a14b14a16f9ca633b935b217029f8ee4dfafdd520b901cd223161",
      "transactionType": "CALL",
      "contractName": null,
      "contractAddress": "0xdb2d8e8ad3feefdf8429de1a3fa995b618421929",
      "function": "whitelistToken(address,bool)",
      "arguments": [
        "0x7f5226367954BB30AFc0DB5f12827C67CA6353e9",
        "true"
      ],
      "transaction": {
        "from": "0xa0e87a70ae6652b5727217b8cca43898cb02f56e",
        "to": "0xdb2d8e8ad3feefdf8429de1a3fa995b618421929",
        "gas": "0x103f9",
        "value": "0x0",
        "input": "0x0ffb1d8b0000000000000000000000007f5226367954bb30afc0db5f12827c67ca6353e90000000000000000000000000000000000000000000000000000000000000001",
        "nonce": "0x8b",
        "chainId": "0x14a34"
      },
      "additionalContracts": [],
      "isFixedGasLimit": false
    },
    {
      "hash": "0x2bb17ea92ab7eedd010a633e5f65f940e52c0b66a66b0947fa83df22bdd64e8f",
      "transactionType": "CALL",
      "contractName": null,
      "contractAddress": "0xdb2d8e8ad3feefdf8429de1a3fa995b618421929",
      "function": "whitelistToken(address,bool)",
      "arguments": [
        "0x1627bb547C9ce9A9DdB7010807880cCd46BDa91F",
        "true"
      ],
      "transaction": {
        "from": "0xa0e87a70ae6652b5727217b8cca43898cb02f56e",
        "to": "0xdb2d8e8ad3feefdf8429de1a3fa995b618421929",
        "gas": "0x103f9",
        "value": "0x0",
        "input": "0x0ffb1d8b0000000000000000000000001627bb547c9ce9a9ddb7010807880ccd46bda91f0000000000000000000000000000000000000000000000000000000000000001",
        "nonce": "0x8c",
        "chainId": "0x14a34"
      },
      "additionalContracts": [],
      "isFixedGasLimit": false
    },
    {
      "hash": "0xac2a30f17496461b2f833f94c99e625f529748d19c2f41bb0100b34d2b3a4926",
      "transactionType": "CALL",
      "contractName": null,
      "contractAddress": "0xdb2d8e8ad3feefdf8429de1a3fa995b618421929",
      "function": "whitelistToken(address,bool)",
      "arguments": [
        "0xf75b06eF8c9D77fc838d3903331E3587D2C4aeF6",
        "true"
      ],
      "transaction": {
        "from": "0xa0e87a70ae6652b5727217b8cca43898cb02f56e",
        "to": "0xdb2d8e8ad3feefdf8429de1a3fa995b618421929",
        "gas": "0x103f9",
        "value": "0x0",
        "input": "0x0ffb1d8b000000000000000000000000f75b06ef8c9d77fc838d3903331e3587d2c4aef60000000000000000000000000000000000000000000000000000000000000001",
        "nonce": "0x8d",
        "chainId": "0x14a34"
      },
      "additionalContracts": [],
      "isFixedGasLimit": false
    },
    {
      "hash": "0x330e00b6a21ffea0434aed1494f89b11cb4ca744c07cb6ae753a7cf0b97f157d",
      "transactionType": "CALL",
      "contractName": null,
      "contractAddress": "0xdb2d8e8ad3feefdf8429de1a3fa995b618421929",
      "function": "whitelistToken(address,bool)",
      "arguments": [
        "0x9c08e0058922B22eFd75e9fc0b7fB9615e303720",
        "true"
      ],
      "transaction": {
        "from": "0xa0e87a70ae6652b5727217b8cca43898cb02f56e",
        "to": "0xdb2d8e8ad3feefdf8429de1a3fa995b618421929",
        "gas": "0x103f9",
        "value": "0x0",
        "input": "0x0ffb1d8b0000000000000000000000009c08e0058922b22efd75e9fc0b7fb9615e3037200000000000000000000000000000000000000000000000000000000000000001",
        "nonce": "0x8e",
        "chainId": "0x14a34"
      },
      "additionalContracts": [],
      "isFixedGasLimit": false
    },
    {
      "hash": "0x53f205a6798ca3f189a5e2e57805e14fd0b1e69fe6c344431e5b44065b80ed3a",
      "transactionType": "CALL",
      "contractName": null,
      "contractAddress": "0xdb2d8e8ad3feefdf8429de1a3fa995b618421929",
      "function": "whitelistToken(address,bool)",
      "arguments": [
        "0x48362EF49d0fc86CbEbF2445684cCA2D925e01d8",
        "true"
      ],
      "transaction": {
        "from": "0xa0e87a70ae6652b5727217b8cca43898cb02f56e",
        "to": "0xdb2d8e8ad3feefdf8429de1a3fa995b618421929",
        "gas": "0x103f9",
        "value": "0x0",
        "input": "0x0ffb1d8b00000000000000000000000048362ef49d0fc86cbebf2445684cca2d925e01d80000000000000000000000000000000000000000000000000000000000000001",
        "nonce": "0x8f",
        "chainId": "0x14a34"
      },
      "additionalContracts": [],
      "isFixedGasLimit": false
    },
    {
      "hash": "0xab851f8f4b966af601168790373656f710d5ff6934e180cc41c284051c112285",
      "transactionType": "CALL",
      "contractName": null,
      "contractAddress": "0xdb2d8e8ad3feefdf8429de1a3fa995b618421929",
      "function": "whitelistToken(address,bool)",
      "arguments": [
        "0x23C542AA639c3D91112818D6da6Ee60289C6bfE3",
        "true"
      ],
      "transaction": {
        "from": "0xa0e87a70ae6652b5727217b8cca43898cb02f56e",
        "to": "0xdb2d8e8ad3feefdf8429de1a3fa995b618421929",
        "gas": "0x103f9",
        "value": "0x0",
        "input": "0x0ffb1d8b00000000000000000000000023c542aa639c3d91112818d6da6ee60289c6bfe30000000000000000000000000000000000000000000000000000000000000001",
        "nonce": "0x90",
        "chainId": "0x14a34"
      },
      "additionalContracts": [],
      "isFixedGasLimit": false
    },
    {
      "hash": "0x5a0374df7074264ecebb4bce19044cc2fa18830044c5fbe077768c2b36bd49cf",
      "transactionType": "CALL",
      "contractName": null,
      "contractAddress": "0xdb2d8e8ad3feefdf8429de1a3fa995b618421929",
      "function": "whitelistToken(address,bool)",
      "arguments": [
        "0xd0D02e7eF9c3eecee5e62E5E421DFC19c67AC6B4",
        "true"
      ],
      "transaction": {
        "from": "0xa0e87a70ae6652b5727217b8cca43898cb02f56e",
        "to": "0xdb2d8e8ad3feefdf8429de1a3fa995b618421929",
        "gas": "0x103f9",
        "value": "0x0",
        "input": "0x0ffb1d8b000000000000000000000000d0d02e7ef9c3eecee5e62e5e421dfc19c67ac6b40000000000000000000000000000000000000000000000000000000000000001",
        "nonce": "0x91",
        "chainId": "0x14a34"
      },
      "additionalContracts": [],
      "isFixedGasLimit": false
    },
    {
      "hash": "0x4c12ed586b565fc8c4b92731a62f3b0a2f66fb04a8f3b6c94d590fb6522b647b",
      "transactionType": "CALL",
      "contractName": null,
      "contractAddress": "0xdb2d8e8ad3feefdf8429de1a3fa995b618421929",
      "function": "whitelistToken(address,bool)",
      "arguments": [
        "0x05526D81979e0D80304aC64ED5690EAD3d9FfA76",
        "true"
      ],
      "transaction": {
        "from": "0xa0e87a70ae6652b5727217b8cca43898cb02f56e",
        "to": "0xdb2d8e8ad3feefdf8429de1a3fa995b618421929",
        "gas": "0x103f9",
        "value": "0x0",
        "input": "0x0ffb1d8b00000000000000000000000005526d81979e0d80304ac64ed5690ead3d9ffa760000000000000000000000000000000000000000000000000000000000000001",
        "nonce": "0x92",
        "chainId": "0x14a34"
      },
      "additionalContracts": [],
      "isFixedGasLimit": false
    }
  ],
  "receipts": [
    {
      "status": "0x1",
      "cumulativeGasUsed": "0x189889",
      "logs": [
        {
          "address": "0xdb2d8e8ad3feefdf8429de1a3fa995b618421929",
          "topics": [
            "0xe378e1213d34c753fdaaede6f2a814ce78a8e8df2d8a7ca93b940924d90880c4",
            "0x00000000000000000000000061e101ba661c151042e96340514ad210d13a541c",
            "0x0000000000000000000000000000000000000000000000000000000000000001",
            "0x000000000000000000000000000000000000000000000000000000006957b148"
          ],
          "data": "0x",
          "blockHash": "0x3f3a42609479ac9d733a4b4fb64b633786de144223ef686fdd839c6d5cca1e2d",
          "blockNumber": "0x2222934",
          "blockTimestamp": "0x6957b148",
          "transactionHash": "0x5835b213b29022ce035b035df4b4b36263fd02282404ce9ab52034c6d8ca9e75",
          "transactionIndex": "0x3",
          "logIndex": "0x2f",
          "removed": false
        }
      ],
      "logsBloom": "0x80000000000400000000000000400000000000000000000000000000000000000000000000000000000000020000000000100400000000000000000000040000000000000000000000000000000000000000000000040000000000008000000000000000000000000000000000000000000000000000000000000000002000000000000000000000000000000000000000000000200000000000000000000000000000000000000000000000000000000000000000000000000000000000000020000000000000000000000000000000000000000000000000000000000040002000000000040000000000000000000000000000000000000000000000000000",
      "type": "0x2",
      "transactionHash": "0x5835b213b29022ce035b035df4b4b36263fd02282404ce9ab52034c6d8ca9e75",
      "transactionIndex": "0x3",
      "blockHash": "0x3f3a42609479ac9d733a4b4fb64b633786de144223ef686fdd839c6d5cca1e2d",
      "blockNumber": "0x2222934",
      "gasUsed": "0xbc38",
      "effectiveGasPrice": "0x124f80",
      "blobGasUsed": "0x79e0",
      "from": "0xa0e87a70ae6652b5727217b8cca43898cb02f56e",
      "to": "0xdb2d8e8ad3feefdf8429de1a3fa995b618421929",
      "contractAddress": null,
      "daFootprintGasScalar": "0x138",
      "l1BaseFeeScalar": "0x44d",
      "l1BlobBaseFee": "0x1",
      "l1BlobBaseFeeScalar": "0xa118b",
      "l1Fee": "0x53",
      "l1GasPrice": "0xa",
      "l1GasUsed": "0x640"
    },
    {
      "status": "0x1",
      "cumulativeGasUsed": "0x1954c1",
      "logs": [
        {
          "address": "0xdb2d8e8ad3feefdf8429de1a3fa995b618421929",
          "topics": [
            "0xe378e1213d34c753fdaaede6f2a814ce78a8e8df2d8a7ca93b940924d90880c4",
            "0x000000000000000000000000d401f418f15f734e05cc5015dd303e8262f8c368",
            "0x0000000000000000000000000000000000000000000000000000000000000001",
            "0x000000000000000000000000000000000000000000000000000000006957b148"
          ],
          "data": "0x",
          "blockHash": "0x3f3a42609479ac9d733a4b4fb64b633786de144223ef686fdd839c6d5cca1e2d",
          "blockNumber": "0x2222934",
          "blockTimestamp": "0x6957b148",
          "transactionHash": "0x5f58954ec1f84bda93e6154d2156dc17db8d81528409a8c70e642b3212010bc5",
          "transactionIndex": "0x4",
          "logIndex": "0x30",
          "removed": false
        }
      ],
      "logsBloom": "0x00000000000400000000000000000000000000000200000000000000000000000000000000000000000000020000000000100400000000000000000000040000000000000000000002000000000000000000000000040000000000000000000000000000000000000000000000000000000000000000000000000000002000000000000000000000000000000000000000000000200000000000000000000000000000000000000000000000000000000000000000000000000000000000000020000000000004000000000000000000000000000000000000000000000040002000000000040000000000000000000000000000000000000000000000000000",
      "type": "0x2",
      "transactionHash": "0x5f58954ec1f84bda93e6154d2156dc17db8d81528409a8c70e642b3212010bc5",
      "transactionIndex": "0x4",
      "blockHash": "0x3f3a42609479ac9d733a4b4fb64b633786de144223ef686fdd839c6d5cca1e2d",
      "blockNumber": "0x2222934",
      "gasUsed": "0xbc38",
      "effectiveGasPrice": "0x124f80",
      "blobGasUsed": "0x79e0",
      "from": "0xa0e87a70ae6652b5727217b8cca43898cb02f56e",
      "to": "0xdb2d8e8ad3feefdf8429de1a3fa995b618421929",
      "contractAddress": null,
      "daFootprintGasScalar": "0x138",
      "l1BaseFeeScalar": "0x44d",
      "l1BlobBaseFee": "0x1",
      "l1BlobBaseFeeScalar": "0xa118b",
      "l1Fee": "0x53",
      "l1GasPrice": "0xa",
      "l1GasUsed": "0x640"
    },
    {
      "status": "0x1",
      "cumulativeGasUsed": "0x42b2bb",
      "logs": [
        {
          "address": "0xdb2d8e8ad3feefdf8429de1a3fa995b618421929",
          "topics": [
            "0xe378e1213d34c753fdaaede6f2a814ce78a8e8df2d8a7ca93b940924d90880c4",
            "0x0000000000000000000000007f5226367954bb30afc0db5f12827c67ca6353e9",
            "0x0000000000000000000000000000000000000000000000000000000000000001",
            "0x000000000000000000000000000000000000000000000000000000006957b148"
          ],
          "data": "0x",
          "blockHash": "0x3f3a42609479ac9d733a4b4fb64b633786de144223ef686fdd839c6d5cca1e2d",
          "blockNumber": "0x2222934",
          "blockTimestamp": "0x6957b148",
          "transactionHash": "0x42d7ceb6dc3a14b14a16f9ca633b935b217029f8ee4dfafdd520b901cd223161",
          "transactionIndex": "0xc",
          "logIndex": "0xce",
          "removed": false
        }
      ],
      "logsBloom": "0x00000000000400000000000000000002000000000000000000000000000000000000000000000000000000020000000000100400000000000000000000040000000000080000000000000000000000000000000000040000000000000000000000800000000000000000000000000000000000000000000000000000002000000000000000000000000000000000000000000000200000000000000000000000000000000000000000000000000000000000000000000000000000000000000020000000000000000000000000000000000000000000000000000000000040002000000000040000000000000000000000000000000000000000000000000000",
      "type": "0x2",
      "transactionHash": "0x42d7ceb6dc3a14b14a16f9ca633b935b217029f8ee4dfafdd520b901cd223161",
      "transactionIndex": "0xc",
      "blockHash": "0x3f3a42609479ac9d733a4b4fb64b633786de144223ef686fdd839c6d5cca1e2d",
      "blockNumber": "0x2222934",
      "gasUsed": "0xbc38",
      "effectiveGasPrice": "0x124f80",
      "blobGasUsed": "0x79e0",
      "from": "0xa0e87a70ae6652b5727217b8cca43898cb02f56e",
      "to": "0xdb2d8e8ad3feefdf8429de1a3fa995b618421929",
      "contractAddress": null,
      "daFootprintGasScalar": "0x138",
      "l1BaseFeeScalar": "0x44d",
      "l1BlobBaseFee": "0x1",
      "l1BlobBaseFeeScalar": "0xa118b",
      "l1Fee": "0x53",
      "l1GasPrice": "0xa",
      "l1GasUsed": "0x640"
    },
    {
      "status": "0x1",
      "cumulativeGasUsed": "0x436ef3",
      "logs": [
        {
          "address": "0xdb2d8e8ad3feefdf8429de1a3fa995b618421929",
          "topics": [
            "0xe378e1213d34c753fdaaede6f2a814ce78a8e8df2d8a7ca93b940924d90880c4",
            "0x0000000000000000000000001627bb547c9ce9a9ddb7010807880ccd46bda91f",
            "0x0000000000000000000000000000000000000000000000000000000000000001",
            "0x000000000000000000000000000000000000000000000000000000006957b148"
          ],
          "data": "0x",
          "blockHash": "0x3f3a42609479ac9d733a4b4fb64b633786de144223ef686fdd839c6d5cca1e2d",
          "blockNumber": "0x2222934",
          "blockTimestamp": "0x6957b148",
          "transactionHash": "0x2bb17ea92ab7eedd010a633e5f65f940e52c0b66a66b0947fa83df22bdd64e8f",
          "transactionIndex": "0xd",
          "logIndex": "0xcf",
          "removed": false
        }
      ],
      "logsBloom": "0x00000000000400000000000000000000000000000000000000000000000000000000000000000000000020020000000000100400000000000000000000040000000000000000000000000000000000000000000000040000000000000000000000000000000000000000000000000000000000000000080000000000002000000000000000000000000000000000000000000000208000000000000000000000000000000000000000000000000000000000000000000000000000000000000020000000000000000000000000000000000000000000000000000000000040002000000000040000000000000000000000000000000000000000000000000000",
      "type": "0x2",
      "transactionHash": "0x2bb17ea92ab7eedd010a633e5f65f940e52c0b66a66b0947fa83df22bdd64e8f",
      "transactionIndex": "0xd",
      "blockHash": "0x3f3a42609479ac9d733a4b4fb64b633786de144223ef686fdd839c6d5cca1e2d",
      "blockNumber": "0x2222934",
      "gasUsed": "0xbc38",
      "effectiveGasPrice": "0x124f80",
      "blobGasUsed": "0x79e0",
      "from": "0xa0e87a70ae6652b5727217b8cca43898cb02f56e",
      "to": "0xdb2d8e8ad3feefdf8429de1a3fa995b618421929",
      "contractAddress": null,
      "daFootprintGasScalar": "0x138",
      "l1BaseFeeScalar": "0x44d",
      "l1BlobBaseFee": "0x1",
      "l1BlobBaseFeeScalar": "0xa118b",
      "l1Fee": "0x53",
      "l1GasPrice": "0xa",
      "l1GasUsed": "0x640"
    },
    {
      "status": "0x1",
      "cumulativeGasUsed": "0x442b2b",
      "logs": [
        {
          "address": "0xdb2d8e8ad3feefdf8429de1a3fa995b618421929",
          "topics": [
            "0xe378e1213d34c753fdaaede6f2a814ce78a8e8df2d8a7ca93b940924d90880c4",
            "0x000000000000000000000000f75b06ef8c9d77fc838d3903331e3587d2c4aef6",
            "0x0000000000000000000000000000000000000000000000000000000000000001",
            "0x000000000000000000000000000000000000000000000000000000006957b148"
          ],
          "data": "0x",
          "blockHash": "0x3f3a42609479ac9d733a4b4fb64b633786de144223ef686fdd839c6d5cca1e2d",
          "blockNumber": "0x2222934",
          "blockTimestamp": "0x6957b148",
          "transactionHash": "0xac2a30f17496461b2f833f94c99e625f529748d19c2f41bb0100b34d2b3a4926",
          "transactionIndex": "0xe",
          "logIndex": "0xd0",
          "removed": false
        }
      ],
      "logsBloom": "0x00000000000400000000000000000000000000000000000000000000000000000000000000000000000000020000000000100400000000000004000000040000000000000000000000000000000000000000000000040000000000000000000000000000000000000000000000000000000000000000000000000000002000000000000000000008000000000000000000000000200000000000000000000000000000000000000000000000000000000000000000000000000000000000000020000000000000000000000000000000020000000000000000000000000040002000000000040000000000000000000000000000000000000000000000000000",
      "type": "0x2",
      "transactionHash": "0xac2a30f17496461b2f833f94c99e625f529748d19c2f41bb0100b34d2b3a4926",
      "transactionIndex": "0xe",
      "blockHash": "0x3f3a42609479ac9d733a4b4fb64b633786de144223ef686fdd839c6d5cca1e2d",
      "blockNumber": "0x2222934",
      "gasUsed": "0xbc38",
      "effectiveGasPrice": "0x124f80",
      "blobGasUsed": "0x79e0",
      "from": "0xa0e87a70ae6652b5727217b8cca43898cb02f56e",
      "to": "0xdb2d8e8ad3feefdf8429de1a3fa995b618421929",
      "contractAddress": null,
      "daFootprintGasScalar": "0x138",
      "l1BaseFeeScalar": "0x44d",
      "l1BlobBaseFee": "0x1",
      "l1BlobBaseFeeScalar": "0xa118b",
      "l1Fee": "0x53",
      "l1GasPrice": "0xa",
      "l1GasUsed": "0x640"
    },
    {
      "status": "0x1",
      "cumulativeGasUsed": "0x44e763",
      "logs": [
        {
          "address": "0xdb2d8e8ad3feefdf8429de1a3fa995b618421929",
          "topics": [
            "0xe378e1213d34c753fdaaede6f2a814ce78a8e8df2d8a7ca93b940924d90880c4",
            "0x0000000000000000000000009c08e0058922b22efd75e9fc0b7fb9615e303720",
            "0x0000000000000000000000000000000000000000000000000000000000000001",
            "0x000000000000000000000000000000000000000000000000000000006957b148"
          ],
          "data": "0x",
          "blockHash": "0x3f3a42609479ac9d733a4b4fb64b633786de144223ef686fdd839c6d5cca1e2d",
          "blockNumber": "0x2222934",
          "blockTimestamp": "0x6957b148",
          "transactionHash": "0x330e00b6a21ffea0434aed1494f89b11cb4ca744c07cb6ae753a7cf0b97f157d",
          "transactionIndex": "0xf",
          "logIndex": "0xd1",
          "removed": false
        }
      ],
      "logsBloom": "0x00000000000400000000000000000000000000000000000000000000000000000000000001000000000000020000000000100400000000000000000000040000000000000000000000000000000000000000000000040000000000000000000000000000000000000000000000000000000000000000000000000000002000000000000000000000000000000000000000000000200000000000000000000000000000000000000000000000000000000000000000000000000000000000000020000000000000000000000000000000000000000000000000000000000042002000000000040000000000000000000000000000000000000000000000000000",
      "type": "0x2",
      "transactionHash": "0x330e00b6a21ffea0434aed1494f89b11cb4ca744c07cb6ae753a7cf0b97f157d",
      "transactionIndex": "0xf",
      "blockHash": "0x3f3a42609479ac9d733a4b4fb64b633786de144223ef686fdd839c6d5cca1e2d",
      "blockNumber": "0x2222934",
      "gasUsed": "0xbc38",
      "effectiveGasPrice": "0x124f80",
      "blobGasUsed": "0x79e0",
      "from": "0xa0e87a70ae6652b5727217b8cca43898cb02f56e",
      "to": "0xdb2d8e8ad3feefdf8429de1a3fa995b618421929",
      "contractAddress": null,
      "daFootprintGasScalar": "0x138",
      "l1BaseFeeScalar": "0x44d",
      "l1BlobBaseFee": "0x1",
      "l1BlobBaseFeeScalar": "0xa118b",
      "l1Fee": "0x53",
      "l1GasPrice": "0xa",
      "l1GasUsed": "0x640"
    },
    {
      "status": "0x1",
      "cumulativeGasUsed": "0x45a39b",
      "logs": [
        {
          "address": "0xdb2d8e8ad3feefdf8429de1a3fa995b618421929",
          "topics": [
            "0xe378e1213d34c753fdaaede6f2a814ce78a8e8df2d8a7ca93b940924d90880c4",
            "0x00000000000000000000000048362ef49d0fc86cbebf2445684cca2d925e01d8",
            "0x0000000000000000000000000000000000000000000000000000000000000001",
            "0x000000000000000000000000000000000000000000000000000000006957b148"
          ],
          "data": "0x",
          "blockHash": "0x3f3a42609479ac9d733a4b4fb64b633786de144223ef686fdd839c6d5cca1e2d",
          "blockNumber": "0x2222934",
          "blockTimestamp": "0x6957b148",
          "transactionHash": "0x53f205a6798ca3f189a5e2e57805e14fd0b1e69fe6c344431e5b44065b80ed3a",
          "transactionIndex": "0x10",
          "logIndex": "0xd2",
          "removed": false
        }
      ],
      "logsBloom": "0x00000000000400000000000000000000000000000000000000000000000000000000000000000000000000020000000000100400000000000000000000040000000000000000000000000000000000000000000000040000000000000000000000000000000000000000000000000000800000000000800000000000002000000000000000000000000000000000000000000000200000000000000000000000000000000000000000000000000000000000000000000000000000000000000020000000000000000000000000000000000000000000000000000000000140002000000000040000000000000000000000000000000000000000000000000000",
      "type": "0x2",
      "transactionHash": "0x53f205a6798ca3f189a5e2e57805e14fd0b1e69fe6c344431e5b44065b80ed3a",
      "transactionIndex": "0x10",
      "blockHash": "0x3f3a42609479ac9d733a4b4fb64b633786de144223ef686fdd839c6d5cca1e2d",
      "blockNumber": "0x2222934",
      "gasUsed": "0xbc38",
      "effectiveGasPrice": "0x124f80",
      "blobGasUsed": "0x79e0",
      "from": "0xa0e87a70ae6652b5727217b8cca43898cb02f56e",
      "to": "0xdb2d8e8ad3feefdf8429de1a3fa995b618421929",
      "contractAddress": null,
      "daFootprintGasScalar": "0x138",
      "l1BaseFeeScalar": "0x44d",
      "l1BlobBaseFee": "0x1",
      "l1BlobBaseFeeScalar": "0xa118b",
      "l1Fee": "0x53",
      "l1GasPrice": "0xa",
      "l1GasUsed": "0x640"
    },
    {
      "status": "0x1",
      "cumulativeGasUsed": "0x465fd3",
      "logs": [
        {
          "address": "0xdb2d8e8ad3feefdf8429de1a3fa995b618421929",
          "topics": [
            "0xe378e1213d34c753fdaaede6f2a814ce78a8e8df2d8a7ca93b940924d90880c4",
            "0x00000000000000000000000023c542aa639c3d91112818d6da6ee60289c6bfe3",
            "0x0000000000000000000000000000000000000000000000000000000000000001",
            "0x000000000000000000000000000000000000000000000000000000006957b148"
          ],
          "data": "0x",
          "blockHash": "0x3f3a42609479ac9d733a4b4fb64b633786de144223ef686fdd839c6d5cca1e2d",
          "blockNumber": "0x2222934",
          "blockTimestamp": "0x6957b148",
          "transactionHash": "0xab851f8f4b966af601168790373656f710d5ff6934e180cc41c284051c112285",
          "transactionIndex": "0x11",
          "logIndex": "0xd3",
          "removed": false
        }
      ],
      "logsBloom": "0x00000000000400000000000000000000000000000000000000000000000000000000000000000000000000020000000000100400000000000000000000040000000000000000000000000000000000000000000000040000000000000000000000000000000000000000000000000000000000000000000000000000002000000000000000000000000000000000000000000000200000000000000000000000000000000000000000000000000000000000000000000000000000000001000020000000000000000000000000000000000000000000000000000000000040002020000000040000000000000000000000000000000000000000001000000000",
      "type": "0x2",
      "transactionHash": "0xab851f8f4b966af601168790373656f710d5ff6934e180cc41c284051c112285",
      "transactionIndex": "0x11",
      "blockHash": "0x3f3a42609479ac9d733a4b4fb64b633786de144223ef686fdd839c6d5cca1e2d",
      "blockNumber": "0x2222934",
      "gasUsed": "0xbc38",
      "effectiveGasPrice": "0x124f80",
      "blobGasUsed": "0x79e0",
      "from": "0xa0e87a70ae6652b5727217b8cca43898cb02f56e",
      "to": "0xdb2d8e8ad3feefdf8429de1a3fa995b618421929",
      "contractAddress": null,
      "daFootprintGasScalar": "0x138",
      "l1BaseFeeScalar": "0x44d",
      "l1BlobBaseFee": "0x1",
      "l1BlobBaseFeeScalar": "0xa118b",
      "l1Fee": "0x53",
      "l1GasPrice": "0xa",
      "l1GasUsed": "0x640"
    },
    {
      "status": "0x1",
      "cumulativeGasUsed": "0x8f13f1",
      "logs": [
        {
          "address": "0xdb2d8e8ad3feefdf8429de1a3fa995b618421929",
          "topics": [
            "0xe378e1213d34c753fdaaede6f2a814ce78a8e8df2d8a7ca93b940924d90880c4",
            "0x000000000000000000000000d0d02e7ef9c3eecee5e62e5e421dfc19c67ac6b4",
            "0x0000000000000000000000000000000000000000000000000000000000000001",
            "0x000000000000000000000000000000000000000000000000000000006957b148"
          ],
          "data": "0x",
          "blockHash": "0x3f3a42609479ac9d733a4b4fb64b633786de144223ef686fdd839c6d5cca1e2d",
          "blockNumber": "0x2222934",
          "blockTimestamp": "0x6957b148",
          "transactionHash": "0x5a0374df7074264ecebb4bce19044cc2fa18830044c5fbe077768c2b36bd49cf",
          "transactionIndex": "0x16",
          "logIndex": "0x126",
          "removed": false
        }
      ],
      "logsBloom": "0x00000000000400000000000000000000000000002000000000000000000000000000000000000000000000020000000000100400000000000000000000040000000000000000020000000000000000000000000000040000000000000000000000000000000000000000000000000000000000000000000000000000002000000000000000000000000000000000000000000000200000000000000000000000000000000000000000000000000000000000000000000000000000000000000020000000000000000000000000000000000000000000000000000000000040002000000000040000000000000000000000000000000000000000000000000020",
      "type": "0x2",
      "transactionHash": "0x5a0374df7074264ecebb4bce19044cc2fa18830044c5fbe077768c2b36bd49cf",
      "transactionIndex": "0x16",
      "blockHash": "0x3f3a42609479ac9d733a4b4fb64b633786de144223ef686fdd839c6d5cca1e2d",
      "blockNumber": "0x2222934",
      "gasUsed": "0xbc38",
      "effectiveGasPrice": "0x124f80",
      "blobGasUsed": "0x79e0",
      "from": "0xa0e87a70ae6652b5727217b8cca43898cb02f56e",
      "to": "0xdb2d8e8ad3feefdf8429de1a3fa995b618421929",
      "contractAddress": null,
      "daFootprintGasScalar": "0x138",
      "l1BaseFeeScalar": "0x44d",
      "l1BlobBaseFee": "0x1",
      "l1BlobBaseFeeScalar": "0xa118b",
      "l1Fee": "0x53",
      "l1GasPrice": "0xa",
      "l1GasUsed": "0x640"
    },
    {
      "status": "0x1",
      "cumulativeGasUsed": "0x9bb825",
      "logs": [
        {
          "address": "0xdb2d8e8ad3feefdf8429de1a3fa995b618421929",
          "topics": [
            "0xe378e1213d34c753fdaaede6f2a814ce78a8e8df2d8a7ca93b940924d90880c4",
            "0x00000000000000000000000005526d81979e0d80304ac64ed5690ead3d9ffa76",
            "0x0000000000000000000000000000000000000000000000000000000000000001",
            "0x000000000000000000000000000000000000000000000000000000006957b148"
          ],
          "data": "0x",
          "blockHash": "0x3f3a42609479ac9d733a4b4fb64b633786de144223ef686fdd839c6d5cca1e2d",
          "blockNumber": "0x2222934",
          "blockTimestamp": "0x6957b148",
          "transactionHash": "0x4c12ed586b565fc8c4b92731a62f3b0a2f66fb04a8f3b6c94d590fb6522b647b",
          "transactionIndex": "0x19",
          "logIndex": "0x154",
          "removed": false
        }
      ],
      "logsBloom": "0x00000000000400000000000000000000000002000000000000000000000000000000000000000000000000020000000000100400100000000000000000040000000000000000000000000000000000000000000000040000000000000000000000000000000000000000000000000000000000000000000000000000002000000000000000000000000000000000000000000000200000000000000000000000000000000000000000000000000000000000000000000000000000000000000020000000000000000000000000000000000000000000020000000000000040002000000000040000000000000000000000000000000000000000000000000000",
      "type": "0x2",
      "transactionHash": "0x4c12ed586b565fc8c4b92731a62f3b0a2f66fb04a8f3b6c94d590fb6522b647b",
      "transactionIndex": "0x19",
      "blockHash": "0x3f3a42609479ac9d733a4b4fb64b633786de144223ef686fdd839c6d5cca1e2d",
      "blockNumber": "0x2222934",
      "gasUsed": "0xbc38",
      "effectiveGasPrice": "0x124f80",
      "blobGasUsed": "0x79e0",
      "from": "0xa0e87a70ae6652b5727217b8cca43898cb02f56e",
      "to": "0xdb2d8e8ad3feefdf8429de1a3fa995b618421929",
      "contractAddress": null,
      "daFootprintGasScalar": "0x138",
      "l1BaseFeeScalar": "0x44d",
      "l1BlobBaseFee": "0x1",
      "l1BlobBaseFeeScalar": "0xa118b",
      "l1Fee": "0x53",
      "l1GasPrice": "0xa",
      "l1GasUsed": "0x640"
    }
  ],
  "libraries": [],
  "pending": [],
  "returns": {},
  "timestamp": 1767354697,
  "chain": 84532,
  "commit": null
}