{
  "transactions": [
    {
      "hash": "0xd48321f213f80aa41e9d0c4d46e8b4d9eb9c0617dd8989fda2aafc14fc7a04b0",
      "transactionType": "CALL",
      "contractName": null,
      "contractAddress": "0x54d6dbc71d2e17e56456e3c11f696f96906b9927",
      "function": "whitelistToken(address,bool)",
      "arguments": [
        "0x61e101bA661c151042E96340514AD210D13A541C",
        "true"
      ],
      "transaction": {
        "from": "0xa0e87a70ae6652b5727217b8cca43898cb02f56e",
        "to": "0x54d6dbc71d2e17e56456e3c11f696f96906b9927",
        "gas": "0x989a",
        "value": "0x0",
        "input": "0x0ffb1d8b00000000000000000000000061e101ba661c151042e96340514ad210d13a541c0000000000000000000000000000000000000000000000000000000000000001",
        "nonce": "0x2e",
        "chainId": "0x14a34"
      },
      "additionalContracts": [],
      "isFixedGasLimit": false
    }
  ],
  "receipts": [
    {
      "status": "0x1",
      "cumulativeGasUsed": "0x228814",
      "logs": [
        {
          "address": "0x54d6dbc71d2e17e56456e3c11f696f96906b9927",
          "topics": [
            "0xe378e1213d34c753fdaaede6f2a814ce78a8e8df2d8a7ca93b940924d90880c4",
            "0x00000000000000000000000061e101ba661c151042e96340514ad210d13a541c",
            "0x0000000000000000000000000000000000000000000000000000000000000001",
            "0x0000000000000000000000000000000000000000000000000000000069527038"
          ],
          "data": "0x",
          "blockHash": "0xc99b43b6cfcdab6407895caf311ea50823ce8757727c45174239f3a133bb982e",
          "blockNumber": "0x21f88ac",
          "blockTimestamp": "0x69527038",
          "transactionHash": "0xd48321f213f80aa41e9d0c4d46e8b4d9eb9c0617dd8989fda2aafc14fc7a04b0",
          "transactionIndex": "0x5",
          "logIndex": "0x58",
          "removed": false
        }
      ],
      "logsBloom": "0x80000000000400000000000200440000000000000000000000000000000000000000000000000000000000000000000000000000010000000000000000040000000000000000000000000000000000000000000000040000000000008000000000000000000000000000000000000000000000800000000000000000002000000000000000000000000000000000000000000000000000000000000000000000000000000040000000000000000000000000000000000000000000000000000060000000000000000000000000000000000000000000000000000000000040000000000000000000000000000000000000000000000000000000000000000000",
      "type": "0x2",
      "transactionHash": "0xd48321f213f80aa41e9d0c4d46e8b4d9eb9c0617dd8989fda2aafc14fc7a04b0",
      "transactionIndex": "0x5",
      "blockHash": "0xc99b43b6cfcdab6407895caf311ea50823ce8757727c45174239f3a133bb982e",
      "blockNumber": "0x21f88ac",
      "gasUsed": "0x6e7c",
      "effectiveGasPrice": "0x124f80",
      "blobGasUsed": "0x79e0",
      "from": "0xa0e87a70ae6652b5727217b8cca43898cb02f56e",
      "to": "0x54d6dbc71d2e17e56456e3c11f696f96906b9927",
      "contractAddress": null,
      "daFootprintGasScalar": "0x138",
      "l1BaseFeeScalar": "0x44d",
      "l1BlobBaseFee": "0xa31",
      "l1BlobBaseFeeScalar": "0xa118b",
      "l1Fee": "0x3f2ff",
      "l1GasPrice": "0xc02a",
      "l1GasUsed": "0x640"
    }
  ],
  "libraries": [],
  "pending": [],
  "returns": {},
  "timestamp": 1767010359,
  "chain": 84532,
  "commit": null
}