{
  "transactions": [
    {
      "hash": "0x3376f53ad2455c016576985ae9292280af218a53159c8df7de86e39dd99b5515",
      "transactionType": "CALL",
      "contractName": null,
      "contractAddress": "0x7f5226367954bb30afc0db5f12827c67ca6353e9",
      "function": "mint(address,uint256)",
      "arguments": [
        "0x30217A8C17EF5571639948D118D086c73f823058",
        "1000000000"
      ],
      "transaction": {
        "from": "0xa0e87a70ae6652b5727217b8cca43898cb02f56e",
        "to": "0x7f5226367954bb30afc0db5f12827c67ca6353e9",
        "gas": "0x12322",
        "value": "0x0",
        "input": "0x40c10f1900000000000000000000000030217a8c17ef5571639948d118d086c73f823058000000000000000000000000000000000000000000000000000000003b9aca00",
        "nonce": "0xe1",
        "chainId": "0x14a34"
      },
      "additionalContracts": [],
      "isFixedGasLimit": false
    }
  ],
  "receipts": [
    {
      "status": "0x1",
      "cumulativeGasUsed": "0x48d2b7",
      "logs": [
        {
          "address": "0x7f5226367954bb30afc0db5f12827c67ca6353e9",
          "topics": [
            "0xddf252ad1be2c89b69c2b068fc378daa952ba7f163c4a11628f55a4df523b3ef",
            "0x0000000000000000000000000000000000000000000000000000000000000000",
            "0x00000000000000000000000030217a8c17ef5571639948d118d086c73f823058"
          ],
          "data": "0x000000000000000000000000000000000000000000000000000000003b9aca00",
          "blockHash": "0x0000000000000000000000000000000000000000000000000000000000000000",
          "blockNumber": "0x23dc60a",
          "blockTimestamp": "0x698eeaf4",
          "transactionHash": "0x3376f53ad2455c016576985ae9292280af218a53159c8df7de86e39dd99b5515",
          "transactionIndex": "0x1d",
          "logIndex": "0xc0",
          "removed": false
        }
      ],
      "logsBloom": "0x00000100000000000000000000000000000000000000000000000000000000000000000000000000000800000000000000000000000000000000000000000000000000000000000000000008000000000000000000000000000000000000000000000000020000000000000000000800000000000000000000000010000000000000000000000000000000000000000000000000000000000000000004000000000000004000000000000000000000000000040000000000000000000000000000000002000000000000000000000000000002000000000000000000000020000000000000000000000000000000000000000000000000000000000000000000",
      "type": "0x2",
      "transactionHash": "0x3376f53ad2455c016576985ae9292280af218a53159c8df7de86e39dd99b5515",
      "transactionIndex": "0x1d",
      "blockHash": "0x0000000000000000000000000000000000000000000000000000000000000000",
      "blockNumber": "0x23dc60a",
      "gasUsed": "0xc711",
      "effectiveGasPrice": "0x2dc6c0",
      "blobGasUsed": "0x364c",
      "from": "0xa0e87a70ae6652b5727217b8cca43898cb02f56e",
      "to": "0x7f5226367954bb30afc0db5f12827c67ca6353e9",
      "contractAddress": null,
      "daFootprintGasScalar": "0x8b",
      "l1BaseFeeScalar": "0x44d",
      "l1BlobBaseFee": "0xf524629",
      "l1BlobBaseFeeScalar": "0xa118b",
      "l1Fee": "0x5af8ce54b",
      "l1GasPrice": "0xfc5d9d27",
      "l1GasUsed": "0x640"
    }
  ],
  "libraries": [],
  "pending": [],
  "returns": {},
  "timestamp": 1770973939,
  "chain": 84532,
  "commit": "1c53126"
}