{
  "transactions": [
    {
      "hash": "0x48eeebe38e3f72c5639039761a26c72d11079e6fc1eb6a40882c6b8a20c526db",
      "transactionType": "CALL",
      "contractName": null,
      "contractAddress": "0x54d6dbc71d2e17e56456e3c11f696f96906b9927",
      "function": "whitelistToken(address,bool)",
      "arguments": [
        "0x61e101bA661c151042E96340514AD210D13A541C",
        "true"
      ],
      "transaction": {
        "from": "0xa0e87a70ae6652b5727217b8cca43898cb02f56e",
        "to": "0x54d6dbc71d2e17e56456e3c11f696f96906b9927",
        "gas": "0x989a",
        "value": "0x0",
        "input": "0x0ffb1d8b00000000000000000000000061e101ba661c151042e96340514ad210d13a541c0000000000000000000000000000000000000000000000000000000000000001",
        "nonce": "0x2d",
        "chainId": "0x14a34"
      },
      "additionalContracts": [],
      "isFixedGasLimit": false
    }
  ],
  "receipts": [
    {
      "status": "0x1",
      "cumulativeGasUsed": "0xa78303",
      "logs": [
        {
          "address": "0x54d6dbc71d2e17e56456e3c11f696f96906b9927",
          "topics": [
            "0xe378e1213d34c753fdaaede6f2a814ce78a8e8df2d8a7ca93b940924d90880c4",
            "0x00000000000000000000000061e101ba661c151042e96340514ad210d13a541c",
            "0x0000000000000000000000000000000000000000000000000000000000000001",
            "0x0000000000000000000000000000000000000000000000000000000069526fe4"
          ],
          "data": "0x",
          "blockHash": "0xf08db714ea2ce0b6bd2f2f327df64a85842ce3337f928021eecd16c06e41d28b",
          "blockNumber": "0x21f8882",
          "blockTimestamp": "0x69526fe4",
          "transactionHash": "0x48eeebe38e3f72c5639039761a26c72d11079e6fc1eb6a40882c6b8a20c526db",
          "transactionIndex": "0x15",
          "logIndex": "0x193",
          "removed": false
        }
      ],
      "logsBloom": "0x80000800000400000000000000440000000000000000000000000000000000000000000000000000000000000000000000000000000000000000000000040000000000000000000000000000080000000000000000040000000000008000000000000000000000000000000000000000000000800000000000000000002000000000000000000000000000000000000000000000000000000000000000000000000000000000000000000000000000000000000000000000000000000000000060000000000000000000000000000000000000000000000000000000000040000000040000000000000000000000000000000000000000000000000000000000",
      "type": "0x2",
      "transactionHash": "0x48eeebe38e3f72c5639039761a26c72d11079e6fc1eb6a40882c6b8a20c526db",
      "transactionIndex": "0x15",
      "blockHash": "0xf08db714ea2ce0b6bd2f2f327df64a85842ce3337f928021eecd16c06e41d28b",
      "blockNumber": "0x21f8882",
      "gasUsed": "0x6e7c",
      "effectiveGasPrice": "0x124f80",
      "blobGasUsed": "0x79e0",
      "from": "0xa0e87a70ae6652b5727217b8cca43898cb02f56e",
      "to": "0x54d6dbc71d2e17e56456e3c11f696f96906b9927",
      "contractAddress": null,
      "daFootprintGasScalar": "0x138",
      "l1BaseFeeScalar": "0x44d",
      "l1BlobBaseFee": "0xa59",
      "l1BlobBaseFeeScalar": "0xa118b",
      "l1Fee": "0x40207",
      "l1GasPrice": "0xc2d8",
      "l1GasUsed": "0x640"
    }
  ],
  "libraries": [],
  "pending": [],
  "returns": {},
  "timestamp": 1767010276,
  "chain": 84532,
  "commit": null
}