{
  "transactions": [
    {
      "hash": "0x281d0ddac2c5dabf5ce24f1f17bd3981a738f9a85b2e47840ee3a208c81d7166",
      "transactionType": "CALL",
      "contractName": null,
      "contractAddress": "0xc8ac841b70abb20abff81e610c1459584e32383a",
      "function": "whitelistToken(address,bool)",
      "arguments": [
        "0x61e101bA661c151042E96340514AD210D13A541C",
        "true"
      ],
      "transaction": {
        "from": "0xa0e87a70ae6652b5727217b8cca43898cb02f56e",
        "to": "0xc8ac841b70abb20abff81e610c1459584e32383a",
        "gas": "0x103f9",
        "value": "0x0",
        "input": "0x0ffb1d8b00000000000000000000000061e101ba661c151042e96340514ad210d13a541c0000000000000000000000000000000000000000000000000000000000000001",
        "nonce": "0xd1",
        "chainId": "0x14a34"
      },
      "additionalContracts": [],
      "isFixedGasLimit": false
    },
    {
      "hash": "0xcfe992ac7a53b5e3084e4139448759af44a590fb4e23c1b588063920039c002d",
      "transactionType": "CALL",
      "contractName": null,
      "contractAddress": "0xc8ac841b70abb20abff81e610c1459584e32383a",
      "function": "whitelistToken(address,bool)",
      "arguments": [
        "0xd401F418f15F734e05CC5015DD303e8262F8C368",
        "true"
      ],
      "transaction": {
        "from": "0xa0e87a70ae6652b5727217b8cca43898cb02f56e",
        "to": "0xc8ac841b70abb20abff81e610c1459584e32383a",
        "gas": "0x103f9",
        "value": "0x0",
        "input": "0x0ffb1d8b000000000000000000000000d401f418f15f734e05cc5015dd303e8262f8c3680000000000000000000000000000000000000000000000000000000000000001",
        "nonce": "0xd2",
        "chainId": "0x14a34"
      },
      "additionalContracts": [],
      "isFixedGasLimit": false
    },
    {
      "hash": "0x9cde6d5aca8fbe9e0f046cacbaa73aaaa4ed2d667bff69f30136ffb9518e624d",
      "transactionType": "CALL",
      "contractName": null,
      "contractAddress": "0xc8ac841b70abb20abff81e610c1459584e32383a",
      "function": "whitelistToken(address,bool)",
      "arguments": [
        "0x7f5226367954BB30AFc0DB5f12827C67CA6353e9",
        "true"
      ],
      "transaction": {
        "from": "0xa0e87a70ae6652b5727217b8cca43898cb02f56e",
        "to": "0xc8ac841b70abb20abff81e610c1459584e32383a",
        "gas": "0x103f9",
        "value": "0x0",
        "input": "0x0ffb1d8b0000000000000000000000007f5226367954bb30afc0db5f12827c67ca6353e90000000000000000000000000000000000000000000000000000000000000001",
        "nonce": "0xd3",
        "chainId": "0x14a34"
      },
      "additionalContracts": [],
      "isFixedGasLimit": false
    },
    {
      "hash": "0x11845bdaf59b66ea6446b0facf13f21fb1360aef72bcd7fb1fb944d9b9fac85d",
      "transactionType": "CALL",
      "contractName": null,
      "contractAddress": "0xc8ac841b70abb20abff81e610c1459584e32383a",
      "function": "whitelistToken(address,bool)",
      "arguments": [
        "0x1627bb547C9ce9A9DdB7010807880cCd46BDa91F",
        "true"
      ],
      "transaction": {
        "from": "0xa0e87a70ae6652b5727217b8cca43898cb02f56e",
        "to": "0xc8ac841b70abb20abff81e610c1459584e32383a",
        "gas": "0x103f9",
        "value": "0x0",
        "input": "0x0ffb1d8b0000000000000000000000001627bb547c9ce9a9ddb7010807880ccd46bda91f0000000000000000000000000000000000000000000000000000000000000001",
        "nonce": "0xd4",
        "chainId": "0x14a34"
      },
      "additionalContracts": [],
      "isFixedGasLimit": false
    },
    {
      "hash": "0x395de57a1a1c03c2fbee8d0126826241b52bd90645deaeadc460102bb77a63ba",
      "transactionType": "CALL",
      "contractName": null,
      "contractAddress": "0xc8ac841b70abb20abff81e610c1459584e32383a",
      "function": "whitelistToken(address,bool)",
      "arguments": [
        "0xf75b06eF8c9D77fc838d3903331E3587D2C4aeF6",
        "true"
      ],
      "transaction": {
        "from": "0xa0e87a70ae6652b5727217b8cca43898cb02f56e",
        "to": "0xc8ac841b70abb20abff81e610c1459584e32383a",
        "gas": "0x103f9",
        "value": "0x0",
        "input": "0x0ffb1d8b000000000000000000000000f75b06ef8c9d77fc838d3903331e3587d2c4aef60000000000000000000000000000000000000000000000000000000000000001",
        "nonce": "0xd5",
        "chainId": "0x14a34"
      },
      "additionalContracts": [],
      "isFixedGasLimit": false
    },
    {
      "hash": "0x219fdf84d55c4cc59ae23938a8dd50c6d224b40eec6b5ca778cb9ff7e7456987",
      "transactionType": "CALL",
      "contractName": null,
      "contractAddress": "0xc8ac841b70abb20abff81e610c1459584e32383a",
      "function": "whitelistToken(address,bool)",
      "arguments": [
        "0x9c08e0058922B22eFd75e9fc0b7fB9615e303720",
        "true"
      ],
      "transaction": {
        "from": "0xa0e87a70ae6652b5727217b8cca43898cb02f56e",
        "to": "0xc8ac841b70abb20abff81e610c1459584e32383a",
        "gas": "0x103f9",
        "value": "0x0",
        "input": "0x0ffb1d8b0000000000000000000000009c08e0058922b22efd75e9fc0b7fb9615e3037200000000000000000000000000000000000000000000000000000000000000001",
        "nonce": "0xd6",
        "chainId": "0x14a34"
      },
      "additionalContracts": [],
      "isFixedGasLimit": false
    },
    {
      "hash": "0x133a4f41376132e0ec615a13db5856b1a167dd7431fdcbc9cf5266ff5e8ee105",
      "transactionType": "CALL",
      "contractName": null,
      "contractAddress": "0xc8ac841b70abb20abff81e610c1459584e32383a",
      "function": "whitelistToken(address,bool)",
      "arguments": [
        "0x48362EF49d0fc86CbEbF2445684cCA2D925e01d8",
        "true"
      ],
      "transaction": {
        "from": "0xa0e87a70ae6652b5727217b8cca43898cb02f56e",
        "to": "0xc8ac841b70abb20abff81e610c1459584e32383a",
        "gas": "0x103f9",
        "value": "0x0",
        "input": "0x0ffb1d8b00000000000000000000000048362ef49d0fc86cbebf2445684cca2d925e01d80000000000000000000000000000000000000000000000000000000000000001",
        "nonce": "0xd7",
        "chainId": "0x14a34"
      },
      "additionalContracts": [],
      "isFixedGasLimit": false
    },
    {
      "hash": "0x723f688b5851afca20f824a4a9223a31746d0101187bd6ce892663ea910661e3",
      "transactionType": "CALL",
      "contractName": null,
      "contractAddress": "0xc8ac841b70abb20abff81e610c1459584e32383a",
      "function": "whitelistToken(address,bool)",
      "arguments": [
        "0x23C542AA639c3D91112818D6da6Ee60289C6bfE3",
        "true"
      ],
      "transaction": {
        "from": "0xa0e87a70ae6652b5727217b8cca43898cb02f56e",
        "to": "0xc8ac841b70abb20abff81e610c1459584e32383a",
        "gas": "0x103f9",
        "value": "0x0",
        "input": "0x0ffb1d8b00000000000000000000000023c542aa639c3d91112818d6da6ee60289c6bfe30000000000000000000000000000000000000000000000000000000000000001",
        "nonce": "0xd8",
        "chainId": "0x14a34"
      },
      "additionalContracts": [],
      "isFixedGasLimit": false
    },
    {
      "hash": "0xce22dcca4af6adc174216074bee8e3bacf2c76faabc4e3284c2107b9e4019245",
      "transactionType": "CALL",
      "contractName": null,
      "contractAddress": "0xc8ac841b70abb20abff81e610c1459584e32383a",
      "function": "whitelistToken(address,bool)",
      "arguments": [
        "0xd0D02e7eF9c3eecee5e62E5E421DFC19c67AC6B4",
        "true"
      ],
      "transaction": {
        "from": "0xa0e87a70ae6652b5727217b8cca43898cb02f56e",
        "to": "0xc8ac841b70abb20abff81e610c1459584e32383a",
        "gas": "0x103f9",
        "value": "0x0",
        "input": "0x0ffb1d8b000000000000000000000000d0d02e7ef9c3eecee5e62e5e421dfc19c67ac6b40000000000000000000000000000000000000000000000000000000000000001",
        "nonce": "0xd9",
        "chainId": "0x14a34"
      },
      "additionalContracts": [],
      "isFixedGasLimit": false
    },
    {
      "hash": "0xb0c6997beabe20e4bc5eba5aafa55c7a5c7ff559928d6ac1d02e31036b7b992c",
      "transactionType": "CALL",
      "contractName": null,
      "contractAddress": "0xc8ac841b70abb20abff81e610c1459584e32383a",
      "function": "whitelistToken(address,bool)",
      "arguments": [
        "0x05526D81979e0D80304aC64ED5690EAD3d9FfA76",
        "true"
      ],
      "transaction": {
        "from": "0xa0e87a70ae6652b5727217b8cca43898cb02f56e",
        "to": "0xc8ac841b70abb20abff81e610c1459584e32383a",
        "gas": "0x103f9",
        "value": "0x0",
        "input": "0x0ffb1d8b00000000000000000000000005526d81979e0d80304ac64ed5690ead3d9ffa760000000000000000000000000000000000000000000000000000000000000001",
        "nonce": "0xda",
        "chainId": "0x14a34"
      },
      "additionalContracts": [],
      "isFixedGasLimit": false
    }
  ],
  "receipts": [
    {
      "status": "0x1",
      "cumulativeGasUsed": "0xaeb812",
      "logs": [
        {
          "address": "0xc8ac841b70abb20abff81e610c1459584e32383a",
          "topics": [
            "0xe378e1213d34c753fdaaede6f2a814ce78a8e8df2d8a7ca93b940924d90880c4",
            "0x00000000000000000000000061e101ba661c151042e96340514ad210d13a541c",
            "0x0000000000000000000000000000000000000000000000000000000000000001",
            "0x00000000000000000000000000000000000000000000000000000000695920aa"
          ],
          "data": "0x",
          "blockHash": "0x8e4ce9cc99a440ddd55d601d96971c277d67f741f22f8904a727223ddccb6756",
          "blockNumber": "0x222e0e5",
          "blockTimestamp": "0x695920aa",
          "transactionHash": "0x281d0ddac2c5dabf5ce24f1f17bd3981a738f9a85b2e47840ee3a208c81d7166",
          "transactionIndex": "0xc",
          "logIndex": "0x44",
          "removed": false
        }
      ],
      "logsBloom": "0x80000000000400000000000000400000000000000000000000000000000000000000000000000000000000000000000000000000000000000000000000040000000000000000000000000000000000000000000000040000000000008000000000000000000000000000000000000000000000000000000000040000002000000000000080000010000000000000000000800000000000000000000000000000000000000000000000000000000000800000000000000000000000000000000020000000000400000000000000000000000000000000000000000000000040000000000000000000000000000000000000000000000000000000000000000000",
      "type": "0x2",
      "transactionHash": "0x281d0ddac2c5dabf5ce24f1f17bd3981a738f9a85b2e47840ee3a208c81d7166",
      "transactionIndex": "0xc",
      "blockHash": "0x8e4ce9cc99a440ddd55d601d96971c277d67f741f22f8904a727223ddccb6756",
      "blockNumber": "0x222e0e5",
      "gasUsed": "0xbc38",
      "effectiveGasPrice": "0x124f80",
      "blobGasUsed": "0x79e0",
      "from": "0xa0e87a70ae6652b5727217b8cca43898cb02f56e",
      "to": "0xc8ac841b70abb20abff81e610c1459584e32383a",
      "contractAddress": null,
      "daFootprintGasScalar": "0x138",
      "l1BaseFeeScalar": "0x44d",
      "l1BlobBaseFee": "0x1",
      "l1BlobBaseFeeScalar": "0xa118b",
      "l1Fee": "0x51",
      "l1GasPrice": "0x9",
      "l1GasUsed": "0x640"
    },
    {
      "status": "0x1",
      "cumulativeGasUsed": "0xb3ebb5",
      "logs": [
        {
          "address": "0xc8ac841b70abb20abff81e610c1459584e32383a",
          "topics": [
            "0xe378e1213d34c753fdaaede6f2a814ce78a8e8df2d8a7ca93b940924d90880c4",
            "0x000000000000000000000000d401f418f15f734e05cc5015dd303e8262f8c368",
            "0x0000000000000000000000000000000000000000000000000000000000000001",
            "0x00000000000000000000000000000000000000000000000000000000695920aa"
          ],
          "data": "0x",
          "blockHash": "0x8e4ce9cc99a440ddd55d601d96971c277d67f741f22f8904a727223ddccb6756",
          "blockNumber": "0x222e0e5",
          "blockTimestamp": "0x695920aa",
          "transactionHash": "0xcfe992ac7a53b5e3084e4139448759af44a590fb4e23c1b588063920039c002d",
          "transactionIndex": "0x11",
          "logIndex": "0x4b",
          "removed": false
        }
      ],
      "logsBloom": "0x00000000000400000000000000000000000000000200000000000000000000000000000000000000000000000000000000000000000000000000000000040000000000000000000002000000000000000000000000040000000000000000000000000000000000000000000000000000000000000000000000040000002000000000000080000010000000000000000000800000000000000000000000000000000000000000000000000000000000800000000000000000000000000000000020000000000404000000000000000000000000000000000000000000000040000000000000000000000000000000000000000000000000000000000000000000",
      "type": "0x2",
      "transactionHash": "0xcfe992ac7a53b5e3084e4139448759af44a590fb4e23c1b588063920039c002d",
      "transactionIndex": "0x11",
      "blockHash": "0x8e4ce9cc99a440ddd55d601d96971c277d67f741f22f8904a727223ddccb6756",
      "blockNumber": "0x222e0e5",
      "gasUsed": "0xbc38",
      "effectiveGasPrice": "0x124f80",
      "blobGasUsed": "0x79e0",
      "from": "0xa0e87a70ae6652b5727217b8cca43898cb02f56e",
      "to": "0xc8ac841b70abb20abff81e610c1459584e32383a",
      "contractAddress": null,
      "daFootprintGasScalar": "0x138",
      "l1BaseFeeScalar": "0x44d",
      "l1BlobBaseFee": "0x1",
      "l1BlobBaseFeeScalar": "0xa118b",
      "l1Fee": "0x51",
      "l1GasPrice": "0x9",
      "l1GasUsed": "0x640"
    },
    {
      "status": "0x1",
      "cumulativeGasUsed": "0xb4a7ed",
      "logs": [
        {
          "address": "0xc8ac841b70abb20abff81e610c1459584e32383a",
          "topics": [
            "0xe378e1213d34c753fdaaede6f2a814ce78a8e8df2d8a7ca93b940924d90880c4",
            "0x0000000000000000000000007f5226367954bb30afc0db5f12827c67ca6353e9",
            "0x0000000000000000000000000000000000000000000000000000000000000001",
            "0x00000000000000000000000000000000000000000000000000000000695920aa"
          ],
          "data": "0x",
          "blockHash": "0x8e4ce9cc99a440ddd55d601d96971c277d67f741f22f8904a727223ddccb6756",
          "blockNumber": "0x222e0e5",
          "blockTimestamp": "0x695920aa",
          "transactionHash": "0x9cde6d5aca8fbe9e0f046cacbaa73aaaa4ed2d667bff69f30136ffb9518e624d",
          "transactionIndex": "0x12",
          "logIndex": "0x4c",
          "removed": false
        }
      ],
      "logsBloom": "0x00000000000400000000000000000002000000000000000000000000000000000000000000000000000000000000000000000000000000000000000000040000000000080000000000000000000000000000000000040000000000000000000000800000000000000000000000000000000000000000000000040000002000000000000080000010000000000000000000800000000000000000000000000000000000000000000000000000000000800000000000000000000000000000000020000000000400000000000000000000000000000000000000000000000040000000000000000000000000000000000000000000000000000000000000000000",
      "type": "0x2",
      "transactionHash": "0x9cde6d5aca8fbe9e0f046cacbaa73aaaa4ed2d667bff69f30136ffb9518e624d",
      "transactionIndex": "0x12",
      "blockHash": "0x8e4ce9cc99a440ddd55d601d96971c277d67f741f22f8904a727223ddccb6756",
      "blockNumber": "0x222e0e5",
      "gasUsed": "0xbc38",
      "effectiveGasPrice": "0x124f80",
      "blobGasUsed": "0x79e0",
      "from": "0xa0e87a70ae6652b5727217b8cca43898cb02f56e",
      "to": "0xc8ac841b70abb20abff81e610c1459584e32383a",
      "contractAddress": null,
      "daFootprintGasScalar": "0x138",
      "l1BaseFeeScalar": "0x44d",
      "l1BlobBaseFee": "0x1",
      "l1BlobBaseFeeScalar": "0xa118b",
      "l1Fee": "0x51",
      "l1GasPrice": "0x9",
      "l1GasUsed": "0x640"
    },
    {
      "status": "0x1",
      "cumulativeGasUsed": "0xb56425",
      "logs": [
        {
          "address": "0xc8ac841b70abb20abff81e610c1459584e32383a",
          "topics": [
            "0xe378e1213d34c753fdaaede6f2a814ce78a8e8df2d8a7ca93b940924d90880c4",
            "0x0000000000000000000000001627bb547c9ce9a9ddb7010807880ccd46bda91f",
            "0x0000000000000000000000000000000000000000000000000000000000000001",
            "0x00000000000000000000000000000000000000000000000000000000695920aa"
          ],
          "data": "0x",
          "blockHash": "0x8e4ce9cc99a440ddd55d601d96971c277d67f741f22f8904a727223ddccb6756",
          "blockNumber": "0x222e0e5",
          "blockTimestamp": "0x695920aa",
          "transactionHash": "0x11845bdaf59b66ea6446b0facf13f21fb1360aef72bcd7fb1fb944d9b9fac85d",
          "transactionIndex": "0x13",
          "logIndex": "0x4d",
          "removed": false
        }
      ],
      "logsBloom": "0x00000000000400000000000000000000000000000000000000000000000000000000000000000000000020000000000000000000000000000000000000040000000000000000000000000000000000000000000000040000000000000000000000000000000000000000000000000000000000000000080000040000002000000000000080000010000000000000000000800000008000000000000000000000000000000000000000000000000000800000000000000000000000000000000020000000000400000000000000000000000000000000000000000000000040000000000000000000000000000000000000000000000000000000000000000000",
      "type": "0x2",
      "transactionHash": "0x11845bdaf59b66ea6446b0facf13f21fb1360aef72bcd7fb1fb944d9b9fac85d",
      "transactionIndex": "0x13",
      "blockHash": "0x8e4ce9cc99a440ddd55d601d96971c277d67f741f22f8904a727223ddccb6756",
      "blockNumber": "0x222e0e5",
      "gasUsed": "0xbc38",
      "effectiveGasPrice": "0x124f80",
      "blobGasUsed": "0x79e0",
      "from": "0xa0e87a70ae6652b5727217b8cca43898cb02f56e",
      "to": "0xc8ac841b70abb20abff81e610c1459584e32383a",
      "contractAddress": null,
      "daFootprintGasScalar": "0x138",
      "l1BaseFeeScalar": "0x44d",
      "l1BlobBaseFee": "0x1",
      "l1BlobBaseFeeScalar": "0xa118b",
      "l1Fee": "0x51",
      "l1GasPrice": "0x9",
      "l1GasUsed": "0x640"
    },
    {
      "status": "0x1",
      "cumulativeGasUsed": "0xb6205d",
      "logs": [
        {
          "address": "0xc8ac841b70abb20abff81e610c1459584e32383a",
          "topics": [
            "0xe378e1213d34c753fdaaede6f2a814ce78a8e8df2d8a7ca93b940924d90880c4",
            "0x000000000000000000000000f75b06ef8c9d77fc838d3903331e3587d2c4aef6",
            "0x0000000000000000000000000000000000000000000000000000000000000001",
            "0x00000000000000000000000000000000000000000000000000000000695920aa"
          ],
          "data": "0x",
          "blockHash": "0x8e4ce9cc99a440ddd55d601d96971c277d67f741f22f8904a727223ddccb6756",
          "blockNumber": "0x222e0e5",
          "blockTimestamp": "0x695920aa",
          "transactionHash": "0x395de57a1a1c03c2fbee8d0126826241b52bd90645deaeadc460102bb77a63ba",
          "transactionIndex": "0x14",
          "logIndex": "0x4e",
          "removed": false
        }
      ],
      "logsBloom": "0x00000000000400000000000000000000000000000000000000000000000000000000000000000000000000000000000000000000000000000004000000040000000000000000000000000000000000000000000000040000000000000000000000000000000000000000000000000000000000000000000000040000002000000000000080000018000000000000000000800000000000000000000000000000000000000000000000000000000000800000000000000000000000000000000020000000000400000000000000000000020000000000000000000000000040000000000000000000000000000000000000000000000000000000000000000000",
      "type": "0x2",
      "transactionHash": "0x395de57a1a1c03c2fbee8d0126826241b52bd90645deaeadc460102bb77a63ba",
      "transactionIndex": "0x14",
      "blockHash": "0x8e4ce9cc99a440ddd55d601d96971c277d67f741f22f8904a727223ddccb6756",
      "blockNumber": "0x222e0e5",
      "gasUsed": "0xbc38",
      "effectiveGasPrice": "0x124f80",
      "blobGasUsed": "0x79e0",
      "from": "0xa0e87a70ae6652b5727217b8cca43898cb02f56e",
      "to": "0xc8ac841b70abb20abff81e610c1459584e32383a",
      "contractAddress": null,
      "daFootprintGasScalar": "0x138",
      "l1BaseFeeScalar": "0x44d",
      "l1BlobBaseFee": "0x1",
      "l1BlobBaseFeeScalar": "0xa118b",
      "l1Fee": "0x51",
      "l1GasPrice": "0x9",
      "l1GasUsed": "0x640"
    },
    {
      "status": "0x1",
      "cumulativeGasUsed": "0xb6dc95",
      "logs": [
        {
          "address": "0xc8ac841b70abb20abff81e610c1459584e32383a",
          "topics": [
            "0xe378e1213d34c753fdaaede6f2a814ce78a8e8df2d8a7ca93b940924d90880c4",
            "0x0000000000000000000000009c08e0058922b22efd75e9fc0b7fb9615e303720",
            "0x0000000000000000000000000000000000000000000000000000000000000001",
            "0x00000000000000000000000000000000000000000000000000000000695920aa"
          ],
          "data": "0x",
          "blockHash": "0x8e4ce9cc99a440ddd55d601d96971c277d67f741f22f8904a727223ddccb6756",
          "blockNumber": "0x222e0e5",
          "blockTimestamp": "0x695920aa",
          "transactionHash": "0x219fdf84d55c4cc59ae23938a8dd50c6d224b40eec6b5ca778cb9ff7e7456987",
          "transactionIndex": "0x15",
          "logIndex": "0x4f",
          "removed": false
        }
      ],
      "logsBloom": "0x00000000000400000000000000000000000000000000000000000000000000000000000001000000000000000000000000000000000000000000000000040000000000000000000000000000000000000000000000040000000000000000000000000000000000000000000000000000000000000000000000040000002000000000000080000010000000000000000000800000000000000000000000000000000000000000000000000000000000800000000000000000000000000000000020000000000400000000000000000000000000000000000000000000000042000000000000000000000000000000000000000000000000000000000000000000",
      "type": "0x2",
      "transactionHash": "0x219fdf84d55c4cc59ae23938a8dd50c6d224b40eec6b5ca778cb9ff7e7456987",
      "transactionIndex": "0x15",
      "blockHash": "0x8e4ce9cc99a440ddd55d601d96971c277d67f741f22f8904a727223ddccb6756",
      "blockNumber": "0x222e0e5",
      "gasUsed": "0xbc38",
      "effectiveGasPrice": "0x124f80",
      "blobGasUsed": "0x79e0",
      "from": "0xa0e87a70ae6652b5727217b8cca43898cb02f56e",
      "to": "0xc8ac841b70abb20abff81e610c1459584e32383a",
      "contractAddress": null,
      "daFootprintGasScalar": "0x138",
      "l1BaseFeeScalar": "0x44d",
      "l1BlobBaseFee": "0x1",
      "l1BlobBaseFeeScalar": "0xa118b",
      "l1Fee": "0x51",
      "l1GasPrice": "0x9",
      "l1GasUsed": "0x640"
    },
    {
      "status": "0x1",
      "cumulativeGasUsed": "0xb798cd",
      "logs": [
        {
          "address": "0xc8ac841b70abb20abff81e610c1459584e32383a",
          "topics": [
            "0xe378e1213d34c753fdaaede6f2a814ce78a8e8df2d8a7ca93b940924d90880c4",
            "0x00000000000000000000000048362ef49d0fc86cbebf2445684cca2d925e01d8",
            "0x0000000000000000000000000000000000000000000000000000000000000001",
            "0x00000000000000000000000000000000000000000000000000000000695920aa"
          ],
          "data": "0x",
          "blockHash": "0x8e4ce9cc99a440ddd55d601d96971c277d67f741f22f8904a727223ddccb6756",
          "blockNumber": "0x222e0e5",
          "blockTimestamp": "0x695920aa",
          "transactionHash": "0x133a4f41376132e0ec615a13db5856b1a167dd7431fdcbc9cf5266ff5e8ee105",
          "transactionIndex": "0x16",
          "logIndex": "0x50",
          "removed": false
        }
      ],
      "logsBloom": "0x00000000000400000000000000000000000000000000000000000000000000000000000000000000000000000000000000000000000000000000000000040000000000000000000000000000000000000000000000040000000000000000000000000000000000000000000000000000800000000000800000040000002000000000000080000010000000000000000000800000000000000000000000000000000000000000000000000000000000800000000000000000000000000000000020000000000400000000000000000000000000000000000000000000000140000000000000000000000000000000000000000000000000000000000000000000",
      "type": "0x2",
      "transactionHash": "0x133a4f41376132e0ec615a13db5856b1a167dd7431fdcbc9cf5266ff5e8ee105",
      "transactionIndex": "0x16",
      "blockHash": "0x8e4ce9cc99a440ddd55d601d96971c277d67f741f22f8904a727223ddccb6756",
      "blockNumber": "0x222e0e5",
      "gasUsed": "0xbc38",
      "effectiveGasPrice": "0x124f80",
      "blobGasUsed": "0x79e0",
      "from": "0xa0e87a70ae6652b5727217b8cca43898cb02f56e",
      "to": "0xc8ac841b70abb20abff81e610c1459584e32383a",
      "contractAddress": null,
      "daFootprintGasScalar": "0x138",
      "l1BaseFeeScalar": "0x44d",
      "l1BlobBaseFee": "0x1",
      "l1BlobBaseFeeScalar": "0xa118b",
      "l1Fee": "0x51",
      "l1GasPrice": "0x9",
      "l1GasUsed": "0x640"
    },
    {
      "status": "0x1",
      "cumulativeGasUsed": "0xb85505",
      "logs": [
        {
          "address": "0xc8ac841b70abb20abff81e610c1459584e32383a",
          "topics": [
            "0xe378e1213d34c753fdaaede6f2a814ce78a8e8df2d8a7ca93b940924d90880c4",
            "0x00000000000000000000000023c542aa639c3d91112818d6da6ee60289c6bfe3",
            "0x0000000000000000000000000000000000000000000000000000000000000001",
            "0x00000000000000000000000000000000000000000000000000000000695920aa"
          ],
          "data": "0x",
          "blockHash": "0x8e4ce9cc99a440ddd55d601d96971c277d67f741f22f8904a727223ddccb6756",
          "blockNumber": "0x222e0e5",
          "blockTimestamp": "0x695920aa",
          "transactionHash": "0x723f688b5851afca20f824a4a9223a31746d0101187bd6ce892663ea910661e3",
          "transactionIndex": "0x17",
          "logIndex": "0x51",
          "removed": false
        }
      ],
      "logsBloom": "0x00000000000400000000000000000000000000000000000000000000000000000000000000000000000000000000000000000000000000000000000000040000000000000000000000000000000000000000000000040000000000000000000000000000000000000000000000000000000000000000000000040000002000000000000080000010000000000000000000800000000000000000000000000000000000000000000000000000000000800000000000000000000000000001000020000000000400000000000000000000000000000000000000000000000040000020000000000000000000000000000000000000000000000000001000000000",
      "type": "0x2",
      "transactionHash": "0x723f688b5851afca20f824a4a9223a31746d0101187bd6ce892663ea910661e3",
      "transactionIndex": "0x17",
      "blockHash": "0x8e4ce9cc99a440ddd55d601d96971c277d67f741f22f8904a727223ddccb6756",
      "blockNumber": "0x222e0e5",
      "gasUsed": "0xbc38",
      "effectiveGasPrice": "0x124f80",
      "blobGasUsed": "0x79e0",
      "from": "0xa0e87a70ae6652b5727217b8cca43898cb02f56e",
      "to": "0xc8ac841b70abb20abff81e610c1459584e32383a",
      "contractAddress": null,
      "daFootprintGasScalar": "0x138",
      "l1BaseFeeScalar": "0x44d",
      "l1BlobBaseFee": "0x1",
      "l1BlobBaseFeeScalar": "0xa118b",
      "l1Fee": "0x51",
      "l1GasPrice": "0x9",
      "l1GasUsed": "0x640"
    },
    {
      "status": "0x1",
      "cumulativeGasUsed": "0x338b5",
      "logs": [
        {
          "address": "0xc8ac841b70abb20abff81e610c1459584e32383a",
          "topics": [
            "0xe378e1213d34c753fdaaede6f2a814ce78a8e8df2d8a7ca93b940924d90880c4",
            "0x000000000000000000000000d0d02e7ef9c3eecee5e62e5e421dfc19c67ac6b4",
            "0x0000000000000000000000000000000000000000000000000000000000000001",
            "0x00000000000000000000000000000000000000000000000000000000695920ac"
          ],
          "data": "0x",
          "blockHash": "0x62f5042f52e57190a1543315deae6cf6bd3b45bfd856324c5c2f23628bb90309",
          "blockNumber": "0x222e0e6",
          "blockTimestamp": "0x695920ac",
          "transactionHash": "0xce22dcca4af6adc174216074bee8e3bacf2c76faabc4e3284c2107b9e4019245",
          "transactionIndex": "0x2",
          "logIndex": "0x5",
          "removed": false
        }
      ],
      "logsBloom": "0x00000000000400000000000000000000000000002000000000000000000000000000000000000000000000000000000000000000000000000000000000040000000000000000020000000000000000000000000000040000000000000000000000000000000000000000000000000000000000000000000000040010002000000000000080000000000000000000000000800000000000000000000000000000000000000000000000000000000000000000000000000000000000000000000020000000000000000000000000000000020000000000000000000000000040000000000000000000000000000000000000000001000000000000000000000020",
      "type": "0x2",
      "transactionHash": "0xce22dcca4af6adc174216074bee8e3bacf2c76faabc4e3284c2107b9e4019245",
      "transactionIndex": "0x2",
      "blockHash": "0x62f5042f52e57190a1543315deae6cf6bd3b45bfd856324c5c2f23628bb90309",
      "blockNumber": "0x222e0e6",
      "gasUsed": "0xbc38",
      "effectiveGasPrice": "0x124f80",
      "blobGasUsed": "0x79e0",
      "from": "0xa0e87a70ae6652b5727217b8cca43898cb02f56e",
      "to": "0xc8ac841b70abb20abff81e610c1459584e32383a",
      "contractAddress": null,
      "daFootprintGasScalar": "0x138",
      "l1BaseFeeScalar": "0x44d",
      "l1BlobBaseFee": "0x1",
      "l1BlobBaseFeeScalar": "0xa118b",
      "l1Fee": "0x51",
      "l1GasPrice": "0x9",
      "l1GasUsed": "0x640"
    },
    {
      "status": "0x1",
      "cumulativeGasUsed": "0x3f4ed",
      "logs": [
        {
          "address": "0xc8ac841b70abb20abff81e610c1459584e32383a",
          "topics": [
            "0xe378e1213d34c753fdaaede6f2a814ce78a8e8df2d8a7ca93b940924d90880c4",
            "0x00000000000000000000000005526d81979e0d80304ac64ed5690ead3d9ffa76",
            "0x0000000000000000000000000000000000000000000000000000000000000001",
            "0x00000000000000000000000000000000000000000000000000000000695920ac"
          ],
          "data": "0x",
          "blockHash": "0x62f5042f52e57190a1543315deae6cf6bd3b45bfd856324c5c2f23628bb90309",
          "blockNumber": "0x222e0e6",
          "blockTimestamp": "0x695920ac",
          "transactionHash": "0xb0c6997beabe20e4bc5eba5aafa55c7a5c7ff559928d6ac1d02e31036b7b992c",
          "transactionIndex": "0x3",
          "logIndex": "0x6",
          "removed": false
        }
      ],
      "logsBloom": "0x00000000000400000000000000000000000002000000000000000000000000000000000000000000000000000000000000000000100000000000000000040000000000000000000000000000000000000000000000040000000000000000000000000000000000000000000000000000000000000000000000040010002000000000000080000000000000000000000000800000000000000000000000000000000000000000000000000000000000000000000000000000000000000000000020000000000000000000000000000000020000000000020000000000000040000000000000000000000000000000000000000001000000000000000000000000",
      "type": "0x2",
      "transactionHash": "0xb0c6997beabe20e4bc5eba5aafa55c7a5c7ff559928d6ac1d02e31036b7b992c",
      "transactionIndex": "0x3",
      "blockHash": "0x62f5042f52e57190a1543315deae6cf6bd3b45bfd856324c5c2f23628bb90309",
      "blockNumber": "0x222e0e6",
      "gasUsed": "0xbc38",
      "effectiveGasPrice": "0x124f80",
      "blobGasUsed": "0x79e0",
      "from": "0xa0e87a70ae6652b5727217b8cca43898cb02f56e",
      "to": "0xc8ac841b70abb20abff81e610c1459584e32383a",
      "contractAddress": null,
      "daFootprintGasScalar": "0x138",
      "l1BaseFeeScalar": "0x44d",
      "l1BlobBaseFee": "0x1",
      "l1BlobBaseFeeScalar": "0xa118b",
      "l1Fee": "0x51",
      "l1GasPrice": "0x9",
      "l1GasUsed": "0x640"
    }
  ],
  "libraries": [],
  "pending": [],
  "returns": {},
  "timestamp": 1767448749,
  "chain": 84532,
  "commit": "186a1b7"
}