{
  "transactions": [
    {
      "hash": "0x1a1eeb23ec88dc75d7392d75ace168c3312438d9f0ef5a31758bbdf3d2c2359a",
      "transactionType": "CALL",
      "contractName": null,
      "contractAddress": "0x54d6dbc71d2e17e56456e3c11f696f96906b9927",
      "function": "whitelistToken(address,bool)",
      "arguments": [
        "0x61e101bA661c151042E96340514AD210D13A541C",
        "true"
      ],
      "transaction": {
        "from": "0xa0e87a70ae6652b5727217b8cca43898cb02f56e",
        "to": "0x54d6dbc71d2e17e56456e3c11f696f96906b9927",
        "gas": "0x989a",
        "value": "0x0",
        "input": "0x0ffb1d8b00000000000000000000000061e101ba661c151042e96340514ad210d13a541c0000000000000000000000000000000000000000000000000000000000000001",
        "nonce": "0x2f",
        "chainId": "0x14a34"
      },
      "additionalContracts": [],
      "isFixedGasLimit": false
    }
  ],
  "receipts": [
    {
      "status": "0x1",
      "cumulativeGasUsed": "0x962c80",
      "logs": [
        {
          "address": "0x54d6dbc71d2e17e56456e3c11f696f96906b9927",
          "topics": [
            "0xe378e1213d34c753fdaaede6f2a814ce78a8e8df2d8a7ca93b940924d90880c4",
            "0x00000000000000000000000061e101ba661c151042e96340514ad210d13a541c",
            "0x0000000000000000000000000000000000000000000000000000000000000001",
            "0x0000000000000000000000000000000000000000000000000000000069527052"
          ],
          "data": "0x",
          "blockHash": "0xa80ad90e7f900aa8851c83983c861e65ed0c737d7051e16d0dde46040f69eb57",
          "blockNumber": "0x21f88b9",
          "blockTimestamp": "0x69527052",
          "transactionHash": "0x1a1eeb23ec88dc75d7392d75ace168c3312438d9f0ef5a31758bbdf3d2c2359a",
          "transactionIndex": "0x15",
          "logIndex": "0x18c",
          "removed": false
        }
      ],
      "logsBloom": "0x80000000000400000000000000440000000000000000000000000000000000000000000000000000000000000000000000000000000000000000000000048000000000000000000000000000000000000000000000040000000000008000000000000000000000000000000000000000000000800000008000000000002000000000000000000000000000000000000000000000000000000000000000000000000000000000000000000000000000000000000000000000000000000000000060000000000000000000000000000000000000000000000000000000000040000000000000000000000100000000000000000000000000000000000000000000",
      "type": "0x2",
      "transactionHash": "0x1a1eeb23ec88dc75d7392d75ace168c3312438d9f0ef5a31758bbdf3d2c2359a",
      "transactionIndex": "0x15",
      "blockHash": "0xa80ad90e7f900aa8851c83983c861e65ed0c737d7051e16d0dde46040f69eb57",
      "blockNumber": "0x21f88b9",
      "gasUsed": "0x6e7c",
      "effectiveGasPrice": "0x125064",
      "blobGasUsed": "0x79e0",
      "from": "0xa0e87a70ae6652b5727217b8cca43898cb02f56e",
      "to": "0x54d6dbc71d2e17e56456e3c11f696f96906b9927",
      "contractAddress": null,
      "daFootprintGasScalar": "0x138",
      "l1BaseFeeScalar": "0x44d",
      "l1BlobBaseFee": "0xb06",
      "l1BlobBaseFeeScalar": "0xa118b",
      "l1Fee": "0x42b31",
      "l1GasPrice": "0xc0e6",
      "l1GasUsed": "0x640"
    }
  ],
  "libraries": [],
  "pending": [],
  "returns": {},
  "timestamp": 1767010386,
  "chain": 84532,
  "commit": null
}