{
  "transactions": [
    {
      "hash": "0x24088f9370de7696296b6f70c6c886a7825c77db7874c99c3eaaf08745d17459",
      "transactionType": "CALL",
      "contractName": null,
      "contractAddress": "0xc8ac841b70abb20abff81e610c1459584e32383a",
      "function": "giveLoan(uint256,bytes32)",
      "arguments": [
        "0",
        "0x934bea3911b34b7c04040011b37021ae774419827036b5d09bb2a6179a930a73"
      ],
      "transaction": {
        "from": "0xa0e87a70ae6652b5727217b8cca43898cb02f56e",
        "to": "0xc8ac841b70abb20abff81e610c1459584e32383a",
        "gas": "0x32e95",
        "value": "0x0",
        "input": "0x7a599a610000000000000000000000000000000000000000000000000000000000000000934bea3911b34b7c04040011b37021ae774419827036b5d09bb2a6179a930a73",
        "nonce": "0xdf",
        "chainId": "0x14a34"
      },
      "additionalContracts": [],
      "isFixedGasLimit": false
    }
  ],
  "receipts": [
    {
      "status": "0x1",
      "cumulativeGasUsed": "0x2e13d",
      "logs": [
        {
          "address": "0xc8ac841b70abb20abff81e610c1459584e32383a",
          "topics": [
            "0x660fdd79247e0a59eeb02dfb39ca4adb6d063c3deed27daada9fb81434005111",
            "0x83bd38c209257695bfc796761a87e4fa3e5b1e3d813b3691f8afb470d24ee456",
            "0x00000000000000000000000000000000000000000000d3bcb0083cc87e9dc346",
            "0x0000000000000000000000000000000000000000000000000000000069592eb4"
          ],
          "data": "0x",
          "blockHash": "0x862c608eff8676a5c55ade52d089000558857624b9d4dc6233a1fca88e2a7b14",
          "blockNumber": "0x222e7ea",
          "blockTimestamp": "0x69592eb4",
          "transactionHash": "0x24088f9370de7696296b6f70c6c886a7825c77db7874c99c3eaaf08745d17459",
          "transactionIndex": "0x1",
          "logIndex": "0x0",
          "removed": false
        },
        {
          "address": "0xc8ac841b70abb20abff81e610c1459584e32383a",
          "topics": [
            "0x5d0c5776b8c52477936b6b38d56169ac2da40c92c610d1dde03ed723d8791948",
            "0x83bd38c209257695bfc796761a87e4fa3e5b1e3d813b3691f8afb470d24ee456",
            "0x0000000000000000000000000000000000000000000000000000000069592eb4"
          ],
          "data": "0x",
          "blockHash": "0x862c608eff8676a5c55ade52d089000558857624b9d4dc6233a1fca88e2a7b14",
          "blockNumber": "0x222e7ea",
          "blockTimestamp": "0x69592eb4",
          "transactionHash": "0x24088f9370de7696296b6f70c6c886a7825c77db7874c99c3eaaf08745d17459",
          "transactionIndex": "0x1",
          "logIndex": "0x1",
          "removed": false
        },
        {
          "address": "0xc8ac841b70abb20abff81e610c1459584e32383a",
          "topics": [
            "0x660fdd79247e0a59eeb02dfb39ca4adb6d063c3deed27daada9fb81434005111",
            "0x934bea3911b34b7c04040011b37021ae774419827036b5d09bb2a6179a930a73",
            "0x00000000000000000000000000000000000000000000d3bcb00695dff9dac6a9",
            "0x0000000000000000000000000000000000000000000000000000000069592eb4"
          ],
          "data": "0x",
          "blockHash": "0x862c608eff8676a5c55ade52d089000558857624b9d4dc6233a1fca88e2a7b14",
          "blockNumber": "0x222e7ea",
          "blockTimestamp": "0x69592eb4",
          "transactionHash": "0x24088f9370de7696296b6f70c6c886a7825c77db7874c99c3eaaf08745d17459",
          "transactionIndex": "0x1",
          "logIndex": "0x2",
          "removed": false
        },
        {
          "address": "0xc8ac841b70abb20abff81e610c1459584e32383a",
          "topics": [
            "0x5d0c5776b8c52477936b6b38d56169ac2da40c92c610d1dde03ed723d8791948",
            "0x934bea3911b34b7c04040011b37021ae774419827036b5d09bb2a6179a930a73",
            "0x0000000000000000000000000000000000000000000000000000000069592eb4"
          ],
          "data": "0x",
          "blockHash": "0x862c608eff8676a5c55ade52d089000558857624b9d4dc6233a1fca88e2a7b14",
          "blockNumber": "0x222e7ea",
          "blockTimestamp": "0x69592eb4",
          "transactionHash": "0x24088f9370de7696296b6f70c6c886a7825c77db7874c99c3eaaf08745d17459",
          "transactionIndex": "0x1",
          "logIndex": "0x3",
          "removed": false
        },
        {
          "address": "0x1627bb547c9ce9a9ddb7010807880ccd46bda91f",
          "topics": [
            "0xddf252ad1be2c89b69c2b068fc378daa952ba7f163c4a11628f55a4df523b3ef",
            "0x000000000000000000000000c8ac841b70abb20abff81e610c1459584e32383a",
            "0x000000000000000000000000a0e87a70ae6652b5727217b8cca43898cb02f56e"
          ],
          "data": "0x00000000000000000000000000000000000000000000000000000229ba164e28",
          "blockHash": "0x862c608eff8676a5c55ade52d089000558857624b9d4dc6233a1fca88e2a7b14",
          "blockNumber": "0x222e7ea",
          "blockTimestamp": "0x69592eb4",
          "transactionHash": "0x24088f9370de7696296b6f70c6c886a7825c77db7874c99c3eaaf08745d17459",
          "transactionIndex": "0x1",
          "logIndex": "0x4",
          "removed": false
        },
        {
          "address": "0xc8ac841b70abb20abff81e610c1459584e32383a",
          "topics": [
            "0x43fc0aeedfc489e3d215c62b2dc52d8dec7a513d6a2e83e0b4d231cc0479c2c8",
            "0x0000000000000000000000000000000000000000000000000000000000000000",
            "0x83bd38c209257695bfc796761a87e4fa3e5b1e3d813b3691f8afb470d24ee456",
            "0x934bea3911b34b7c04040011b37021ae774419827036b5d09bb2a6179a930a73"
          ],
          "data": "0x",
          "blockHash": "0x862c608eff8676a5c55ade52d089000558857624b9d4dc6233a1fca88e2a7b14",
          "blockNumber": "0x222e7ea",
          "blockTimestamp": "0x69592eb4",
          "transactionHash": "0x24088f9370de7696296b6f70c6c886a7825c77db7874c99c3eaaf08745d17459",
          "transactionIndex": "0x1",
          "logIndex": "0x5",
          "removed": false
        },
        {
          "address": "0xc8ac841b70abb20abff81e610c1459584e32383a",
          "topics": [
            "0x496c457854ab9c70c16d2e87969100e0beef07b89071a879e2d36634e5ccab7f",
            "0x0000000000000000000000000000000000000000000000000000000000000000",
            "0x0000000000000000000000000000000000000000000000000000000069592eb4"
          ],
          "data": "0x",
          "blockHash": "0x862c608eff8676a5c55ade52d089000558857624b9d4dc6233a1fca88e2a7b14",
          "blockNumber": "0x222e7ea",
          "blockTimestamp": "0x69592eb4",
          "transactionHash": "0x24088f9370de7696296b6f70c6c886a7825c77db7874c99c3eaaf08745d17459",
          "transactionIndex": "0x1",
          "logIndex": "0x6",
          "removed": false
        }
      ],
      "logsBloom": "0x00000000000000000020000080000000000000400000000000000000000000000000000000000000000080000000000004080000000002000400000000000000000000040000040000000008000000200000000000008200000001000000000010000000020000080000000204000804000000000000000000240010000000000000400080000000000000000000000000800000000000000000000000000000001000000000000000000000200000000000000000000000000080000000000000080002000000800002000000700000040000000800000000000000000020000100000000000000000010000000000000000400000000000000000001000000",
      "type": "0x2",
      "transactionHash": "0x24088f9370de7696296b6f70c6c886a7825c77db7874c99c3eaaf08745d17459",
      "transactionIndex": "0x1",
      "blockHash": "0x862c608eff8676a5c55ade52d089000558857624b9d4dc6233a1fca88e2a7b14",
      "blockNumber": "0x222e7ea",
      "gasUsed": "0x22cfb",
      "effectiveGasPrice": "0x124f80",
      "blobGasUsed": "0x79e0",
      "from": "0xa0e87a70ae6652b5727217b8cca43898cb02f56e",
      "to": "0xc8ac841b70abb20abff81e610c1459584e32383a",
      "contractAddress": null,
      "daFootprintGasScalar": "0x138",
      "l1BaseFeeScalar": "0x44d",
      "l1BlobBaseFee": "0x1",
      "l1BlobBaseFeeScalar": "0xa118b",
      "l1Fee": "0x5e",
      "l1GasPrice": "0x10",
      "l1GasUsed": "0x640"
    }
  ],
  "libraries": [],
  "pending": [],
  "returns": {},
  "timestamp": 1767452341,
  "chain": 84532,
  "commit": "186a1b7"
}