{
  "transactions": [
    {
      "hash": "0x8fb57665059d0c4d587240f8db7e3a1a148f01d11e61a1afbf33ce49db6c321d",
      "transactionType": "CALL",
      "contractName": null,
      "contractAddress": "0xc8ac841b70abb20abff81e610c1459584e32383a",
      "function": "giveLoan(uint256,bytes32)",
      "arguments": [
        "0",
        "0x83bd38c209257695bfc796761a87e4fa3e5b1e3d813b3691f8afb470d24ee456"
      ],
      "transaction": {
        "from": "0xa0e87a70ae6652b5727217b8cca43898cb02f56e",
        "to": "0xc8ac841b70abb20abff81e610c1459584e32383a",
        "gas": "0x2861e",
        "value": "0x0",
        "input": "0x7a599a61000000000000000000000000000000000000000000000000000000000000000083bd38c209257695bfc796761a87e4fa3e5b1e3d813b3691f8afb470d24ee456",
        "nonce": "0xde",
        "chainId": "0x14a34"
      },
      "additionalContracts": [],
      "isFixedGasLimit": false
    }
  ],
  "receipts": [
    {
      "status": "0x1",
      "cumulativeGasUsed": "0x6e0f10",
      "logs": [
        {
          "address": "0xc8ac841b70abb20abff81e610c1459584e32383a",
          "topics": [
            "0x660fdd79247e0a59eeb02dfb39ca4adb6d063c3deed27daada9fb81434005111",
            "0x83bd38c209257695bfc796761a87e4fa3e5b1e3d813b3691f8afb470d24ee456",
            "0x00000000000000000000000000000000000000000000d3bcb00813afaef5f64d",
            "0x0000000000000000000000000000000000000000000000000000000069592e1e"
          ],
          "data": "0x",
          "blockHash": "0x772af9f70eb0379fe50c7402343d3e5c6fe633280e087a6a326234f498ad4766",
          "blockNumber": "0x222e79f",
          "blockTimestamp": "0x69592e1e",
          "transactionHash": "0x8fb57665059d0c4d587240f8db7e3a1a148f01d11e61a1afbf33ce49db6c321d",
          "transactionIndex": "0xa",
          "logIndex": "0x15c",
          "removed": false
        },
        {
          "address": "0xc8ac841b70abb20abff81e610c1459584e32383a",
          "topics": [
            "0x5d0c5776b8c52477936b6b38d56169ac2da40c92c610d1dde03ed723d8791948",
            "0x83bd38c209257695bfc796761a87e4fa3e5b1e3d813b3691f8afb470d24ee456",
            "0x0000000000000000000000000000000000000000000000000000000069592e1e"
          ],
          "data": "0x",
          "blockHash": "0x772af9f70eb0379fe50c7402343d3e5c6fe633280e087a6a326234f498ad4766",
          "blockNumber": "0x222e79f",
          "blockTimestamp": "0x69592e1e",
          "transactionHash": "0x8fb57665059d0c4d587240f8db7e3a1a148f01d11e61a1afbf33ce49db6c321d",
          "transactionIndex": "0xa",
          "logIndex": "0x15d",
          "removed": false
        },
        {
          "address": "0xc8ac841b70abb20abff81e610c1459584e32383a",
          "topics": [
            "0x660fdd79247e0a59eeb02dfb39ca4adb6d063c3deed27daada9fb81434005111",
            "0x83bd38c209257695bfc796761a87e4fa3e5b1e3d813b3691f8afb470d24ee456",
            "0x00000000000000000000000000000000000000000000d3b7444007e4918ed817",
            "0x0000000000000000000000000000000000000000000000000000000069592e1e"
          ],
          "data": "0x",
          "blockHash": "0x772af9f70eb0379fe50c7402343d3e5c6fe633280e087a6a326234f498ad4766",
          "blockNumber": "0x222e79f",
          "blockTimestamp": "0x69592e1e",
          "transactionHash": "0x8fb57665059d0c4d587240f8db7e3a1a148f01d11e61a1afbf33ce49db6c321d",
          "transactionIndex": "0xa",
          "logIndex": "0x15e",
          "removed": false
        },
        {
          "address": "0xc8ac841b70abb20abff81e610c1459584e32383a",
          "topics": [
            "0x5d0c5776b8c52477936b6b38d56169ac2da40c92c610d1dde03ed723d8791948",
            "0x83bd38c209257695bfc796761a87e4fa3e5b1e3d813b3691f8afb470d24ee456",
            "0x0000000000000000000000000000000000000000000000000000000069592e1e"
          ],
          "data": "0x",
          "blockHash": "0x772af9f70eb0379fe50c7402343d3e5c6fe633280e087a6a326234f498ad4766",
          "blockNumber": "0x222e79f",
          "blockTimestamp": "0x69592e1e",
          "transactionHash": "0x8fb57665059d0c4d587240f8db7e3a1a148f01d11e61a1afbf33ce49db6c321d",
          "transactionIndex": "0xa",
          "logIndex": "0x15f",
          "removed": false
        },
        {
          "address": "0x1627bb547c9ce9a9ddb7010807880ccd46bda91f",
          "topics": [
            "0xddf252ad1be2c89b69c2b068fc378daa952ba7f163c4a11628f55a4df523b3ef",
            "0x000000000000000000000000c8ac841b70abb20abff81e610c1459584e32383a",
            "0x000000000000000000000000a0e87a70ae6652b5727217b8cca43898cb02f56e"
          ],
          "data": "0x000000000000000000000000000000000000000000000000000008ae495127e9",
          "blockHash": "0x772af9f70eb0379fe50c7402343d3e5c6fe633280e087a6a326234f498ad4766",
          "blockNumber": "0x222e79f",
          "blockTimestamp": "0x69592e1e",
          "transactionHash": "0x8fb57665059d0c4d587240f8db7e3a1a148f01d11e61a1afbf33ce49db6c321d",
          "transactionIndex": "0xa",
          "logIndex": "0x160",
          "removed": false
        },
        {
          "address": "0xc8ac841b70abb20abff81e610c1459584e32383a",
          "topics": [
            "0x43fc0aeedfc489e3d215c62b2dc52d8dec7a513d6a2e83e0b4d231cc0479c2c8",
            "0x0000000000000000000000000000000000000000000000000000000000000000",
            "0x83bd38c209257695bfc796761a87e4fa3e5b1e3d813b3691f8afb470d24ee456",
            "0x83bd38c209257695bfc796761a87e4fa3e5b1e3d813b3691f8afb470d24ee456"
          ],
          "data": "0x",
          "blockHash": "0x772af9f70eb0379fe50c7402343d3e5c6fe633280e087a6a326234f498ad4766",
          "blockNumber": "0x222e79f",
          "blockTimestamp": "0x69592e1e",
          "transactionHash": "0x8fb57665059d0c4d587240f8db7e3a1a148f01d11e61a1afbf33ce49db6c321d",
          "transactionIndex": "0xa",
          "logIndex": "0x161",
          "removed": false
        },
        {
          "address": "0xc8ac841b70abb20abff81e610c1459584e32383a",
          "topics": [
            "0x496c457854ab9c70c16d2e87969100e0beef07b89071a879e2d36634e5ccab7f",
            "0x0000000000000000000000000000000000000000000000000000000000000000",
            "0x0000000000000000000000000000000000000000000000000000000069592e1e"
          ],
          "data": "0x",
          "blockHash": "0x772af9f70eb0379fe50c7402343d3e5c6fe633280e087a6a326234f498ad4766",
          "blockNumber": "0x222e79f",
          "blockTimestamp": "0x69592e1e",
          "transactionHash": "0x8fb57665059d0c4d587240f8db7e3a1a148f01d11e61a1afbf33ce49db6c321d",
          "transactionIndex": "0xa",
          "logIndex": "0x162",
          "removed": false
        }
      ],
      "logsBloom": "0x00000000000000000000000080000040000000400000200000000000000000000000000000000000000080040000000000080000000002000000000000000000000000000000000000000008000000200000000000000000000000000000000010000000420000000000000304000814000000000000000400240010000000000000400080000000000000000000000001800000000000000000000000000000001000000000000000000000200000000000000000000000000080000000000000000002400000800000000000700000040000000000000000000000000020000100000000000000000010000000000000000400000000000000000001000000",
      "type": "0x2",
      "transactionHash": "0x8fb57665059d0c4d587240f8db7e3a1a148f01d11e61a1afbf33ce49db6c321d",
      "transactionIndex": "0xa",
      "blockHash": "0x772af9f70eb0379fe50c7402343d3e5c6fe633280e087a6a326234f498ad4766",
      "blockNumber": "0x222e79f",
      "gasUsed": "0x1b9cb",
      "effectiveGasPrice": "0x124f80",
      "blobGasUsed": "0x79e0",
      "from": "0xa0e87a70ae6652b5727217b8cca43898cb02f56e",
      "to": "0xc8ac841b70abb20abff81e610c1459584e32383a",
      "contractAddress": null,
      "daFootprintGasScalar": "0x138",
      "l1BaseFeeScalar": "0x44d",
      "l1BlobBaseFee": "0x1",
      "l1BlobBaseFeeScalar": "0xa118b",
      "l1Fee": "0x55",
      "l1GasPrice": "0xb",
      "l1GasUsed": "0x640"
    }
  ],
  "libraries": [],
  "pending": [],
  "returns": {},
  "timestamp": 1767452190,
  "chain": 84532,
  "commit": "186a1b7"
}