{
  "transactions": [
    {
      "hash": "0x9b0c91d9f975ab1a5c9d4d2d144099a67130cab17e113528d14d77e3210c4790",
      "transactionType": "CALL",
      "contractName": null,
      "contractAddress": "0xf75b06ef8c9d77fc838d3903331e3587d2c4aef6",
      "function": "mint(address,uint256)",
      "arguments": [
        "0xa0e87A70AE6652B5727217b8CCA43898Cb02f56e",
        "400000000"
      ],
      "transaction": {
        "from": "0xa0e87a70ae6652b5727217b8cca43898cb02f56e",
        "to": "0xf75b06ef8c9d77fc838d3903331e3587d2c4aef6",
        "gas": "0x12322",
        "value": "0x0",
        "input": "0x40c10f19000000000000000000000000a0e87a70ae6652b5727217b8cca43898cb02f56e0000000000000000000000000000000000000000000000000000000017d78400",
        "nonce": "0x76",
        "chainId": "0x14a34"
      },
      "additionalContracts": [],
      "isFixedGasLimit": false
    },
    {
      "hash": "0xf1b68bf083624c2451cd7f391caf27e682842be0f508ab07bcf6f4ed6bca076f",
      "transactionType": "CALL",
      "contractName": null,
      "contractAddress": "0xf75b06ef8c9d77fc838d3903331e3587d2c4aef6",
      "function": "approve(address,uint256)",
      "arguments": [
        "0x27BFedCdefeD39616428D69964B132Fa94932395",
        "400000000"
      ],
      "transaction": {
        "from": "0xa0e87a70ae6652b5727217b8cca43898cb02f56e",
        "to": "0xf75b06ef8c9d77fc838d3903331e3587d2c4aef6",
        "gas": "0x10657",
        "value": "0x0",
        "input": "0x095ea7b300000000000000000000000027bfedcdefed39616428d69964b132fa949323950000000000000000000000000000000000000000000000000000000017d78400",
        "nonce": "0x77",
        "chainId": "0x14a34"
      },
      "additionalContracts": [],
      "isFixedGasLimit": false
    },
    {
      "hash": "0x4208c5d51979e74bb746727c577b1379cbcbc962135e75d9fb0fed0b156eea21",
      "transactionType": "CALL",
      "contractName": null,
      "contractAddress": "0x27bfedcdefed39616428d69964b132fa94932395",
      "function": "borrow((bytes32,uint256,uint256))",
      "arguments": [
        "(0x8b794ac043f0ad293925b1ac2a32fe5aa67f78ff57955bbb598923c774beed6d, 100000000000000000000, 400000000)"
      ],
      "transaction": {
        "from": "0xa0e87a70ae6652b5727217b8cca43898cb02f56e",
        "to": "0x27bfedcdefed39616428d69964b132fa94932395",
        "gas": "0x73928",
        "value": "0x0",
        "input": "0x136b2eca8b794ac043f0ad293925b1ac2a32fe5aa67f78ff57955bbb598923c774beed6d0000000000000000000000000000000000000000000000056bc75e2d631000000000000000000000000000000000000000000000000000000000000017d78400",
        "nonce": "0x78",
        "chainId": "0x14a34"
      },
      "additionalContracts": [],
      "isFixedGasLimit": false
    }
  ],
  "receipts": [
    {
      "status": "0x1",
      "cumulativeGasUsed": "0x3a00b3",
      "logs": [
        {
          "address": "0xf75b06ef8c9d77fc838d3903331e3587d2c4aef6",
          "topics": [
            "0xddf252ad1be2c89b69c2b068fc378daa952ba7f163c4a11628f55a4df523b3ef",
            "0x0000000000000000000000000000000000000000000000000000000000000000",
            "0x000000000000000000000000a0e87a70ae6652b5727217b8cca43898cb02f56e"
          ],
          "data": "0x0000000000000000000000000000000000000000000000000000000017d78400",
          "blockHash": "0x237511d2661196b212b69985aff20ca8dda2a67da2cbf93f5c6440d93b3d0c65",
          "blockNumber": "0x22223dd",
          "blockTimestamp": "0x6957a69a",
          "transactionHash": "0x9b0c91d9f975ab1a5c9d4d2d144099a67130cab17e113528d14d77e3210c4790",
          "transactionIndex": "0xe",
          "logIndex": "0x93",
          "removed": false
        }
      ],
      "logsBloom": "0x00000000000000000000000000000000000000000000000000000000000000000000000000000000000000000000000000000000000000000000000000000000000000000000000000000008000000000000000000000008000000000000000050000000020000000000000000000800000000000000000000000010000000000000400000000000000000000000000000000000000000000000000000000000000000000000000000000000000000000000000000000000000080000000000000000002000000000000000000000000000000000000000000000000000020000000000000000000000000000000000000000000004000000000000000000000",
      "type": "0x2",
      "transactionHash": "0x9b0c91d9f975ab1a5c9d4d2d144099a67130cab17e113528d14d77e3210c4790",
      "transactionIndex": "0xe",
      "blockHash": "0x237511d2661196b212b69985aff20ca8dda2a67da2cbf93f5c6440d93b3d0c65",
      "blockNumber": "0x22223dd",
      "gasUsed": "0xc711",
      "effectiveGasPrice": "0x124f80",
      "blobGasUsed": "0x79e0",
      "from": "0xa0e87a70ae6652b5727217b8cca43898cb02f56e",
      "to": "0xf75b06ef8c9d77fc838d3903331e3587d2c4aef6",
      "contractAddress": null,
      "daFootprintGasScalar": "0x138",
      "l1BaseFeeScalar": "0x44d",
      "l1BlobBaseFee": "0x1",
      "l1BlobBaseFeeScalar": "0xa118b",
      "l1Fee": "0x50",
      "l1GasPrice": "0x8",
      "l1GasUsed": "0x640"
    },
    {
      "status": "0x1",
      "cumulativeGasUsed": "0x3ab414",
      "logs": [
        {
          "address": "0xf75b06ef8c9d77fc838d3903331e3587d2c4aef6",
          "topics": [
            "0x8c5be1e5ebec7d5bd14f71427d1e84f3dd0314c0f7b2291e5b200ac8c7c3b925",
            "0x000000000000000000000000a0e87a70ae6652b5727217b8cca43898cb02f56e",
            "0x00000000000000000000000027bfedcdefed39616428d69964b132fa94932395"
          ],
          "data": "0x0000000000000000000000000000000000000000000000000000000017d78400",
          "blockHash": "0x237511d2661196b212b69985aff20ca8dda2a67da2cbf93f5c6440d93b3d0c65",
          "blockNumber": "0x22223dd",
          "blockTimestamp": "0x6957a69a",
          "transactionHash": "0xf1b68bf083624c2451cd7f391caf27e682842be0f508ab07bcf6f4ed6bca076f",
          "transactionIndex": "0xf",
          "logIndex": "0x94",
          "removed": false
        }
      ],
      "logsBloom": "0x00000000000000000000000000000000000000000000000000000000000000000000000000000000000000000000000000000000000000000000000000200000000000000008000000000000000000000000000000000008000000000000000050000000000000000000000000000000000000000000000000000000000000000000400000000000000000000000000000000000000000000000000000000000020000000000000000000000000000000000000000000000000080000000000000000000000000000000000000000000000000000000000000000000000000400010000000000000000000000000000000000001004000000000000000000000",
      "type": "0x2",
      "transactionHash": "0xf1b68bf083624c2451cd7f391caf27e682842be0f508ab07bcf6f4ed6bca076f",
      "transactionIndex": "0xf",
      "blockHash": "0x237511d2661196b212b69985aff20ca8dda2a67da2cbf93f5c6440d93b3d0c65",
      "blockNumber": "0x22223dd",
      "gasUsed": "0xb361",
      "effectiveGasPrice": "0x124f80",
      "blobGasUsed": "0x79e0",
      "from": "0xa0e87a70ae6652b5727217b8cca43898cb02f56e",
      "to": "0xf75b06ef8c9d77fc838d3903331e3587d2c4aef6",
      "contractAddress": null,
      "daFootprintGasScalar": "0x138",
      "l1BaseFeeScalar": "0x44d",
      "l1BlobBaseFee": "0x1",
      "l1BlobBaseFeeScalar": "0xa118b",
      "l1Fee": "0x50",
      "l1GasPrice": "0x8",
      "l1GasUsed": "0x640"
    },
    {
      "status": "0x1",
      "cumulativeGasUsed": "0x3fa476",
      "logs": [
        {
          "address": "0x27bfedcdefed39616428d69964b132fa94932395",
          "topics": [
            "0x660fdd79247e0a59eeb02dfb39ca4adb6d063c3deed27daada9fb81434005111",
            "0x8b794ac043f0ad293925b1ac2a32fe5aa67f78ff57955bbb598923c774beed6d",
            "0x00000000000000000000000000000000000000000000002b5e3af16b18800000",
            "0x000000000000000000000000000000000000000000000000000000006957a69a"
          ],
          "data": "0x",
          "blockHash": "0x237511d2661196b212b69985aff20ca8dda2a67da2cbf93f5c6440d93b3d0c65",
          "blockNumber": "0x22223dd",
          "blockTimestamp": "0x6957a69a",
          "transactionHash": "0x4208c5d51979e74bb746727c577b1379cbcbc962135e75d9fb0fed0b156eea21",
          "transactionIndex": "0x10",
          "logIndex": "0x95",
          "removed": false
        },
        {
          "address": "0x27bfedcdefed39616428d69964b132fa94932395",
          "topics": [
            "0x5d0c5776b8c52477936b6b38d56169ac2da40c92c610d1dde03ed723d8791948",
            "0x8b794ac043f0ad293925b1ac2a32fe5aa67f78ff57955bbb598923c774beed6d",
            "0x000000000000000000000000000000000000000000000000000000006957a69a"
          ],
          "data": "0x",
          "blockHash": "0x237511d2661196b212b69985aff20ca8dda2a67da2cbf93f5c6440d93b3d0c65",
          "blockNumber": "0x22223dd",
          "blockTimestamp": "0x6957a69a",
          "transactionHash": "0x4208c5d51979e74bb746727c577b1379cbcbc962135e75d9fb0fed0b156eea21",
          "transactionIndex": "0x10",
          "logIndex": "0x96",
          "removed": false
        },
        {
          "address": "0xf75b06ef8c9d77fc838d3903331e3587d2c4aef6",
          "topics": [
            "0xddf252ad1be2c89b69c2b068fc378daa952ba7f163c4a11628f55a4df523b3ef",
            "0x000000000000000000000000a0e87a70ae6652b5727217b8cca43898cb02f56e",
            "0x00000000000000000000000027bfedcdefed39616428d69964b132fa94932395"
          ],
          "data": "0x0000000000000000000000000000000000000000000000000000000017d78400",
          "blockHash": "0x237511d2661196b212b69985aff20ca8dda2a67da2cbf93f5c6440d93b3d0c65",
          "blockNumber": "0x22223dd",
          "blockTimestamp": "0x6957a69a",
          "transactionHash": "0x4208c5d51979e74bb746727c577b1379cbcbc962135e75d9fb0fed0b156eea21",
          "transactionIndex": "0x10",
          "logIndex": "0x97",
          "removed": false
        },
        {
          "address": "0x1627bb547c9ce9a9ddb7010807880ccd46bda91f",
          "topics": [
            "0xddf252ad1be2c89b69c2b068fc378daa952ba7f163c4a11628f55a4df523b3ef",
            "0x00000000000000000000000027bfedcdefed39616428d69964b132fa94932395",
            "0x000000000000000000000000a0e87a70ae6652b5727217b8cca43898cb02f56e"
          ],
          "data": "0x000000000000000000000000000000000000000000000001158e460913d00000",
          "blockHash": "0x237511d2661196b212b69985aff20ca8dda2a67da2cbf93f5c6440d93b3d0c65",
          "blockNumber": "0x22223dd",
          "blockTimestamp": "0x6957a69a",
          "transactionHash": "0x4208c5d51979e74bb746727c577b1379cbcbc962135e75d9fb0fed0b156eea21",
          "transactionIndex": "0x10",
          "logIndex": "0x98",
          "removed": false
        },
        {
          "address": "0x1627bb547c9ce9a9ddb7010807880ccd46bda91f",
          "topics": [
            "0xddf252ad1be2c89b69c2b068fc378daa952ba7f163c4a11628f55a4df523b3ef",
            "0x00000000000000000000000027bfedcdefed39616428d69964b132fa94932395",
            "0x000000000000000000000000a0e87a70ae6652b5727217b8cca43898cb02f56e"
          ],
          "data": "0x000000000000000000000000000000000000000000000004563918244f400000",
          "blockHash": "0x237511d2661196b212b69985aff20ca8dda2a67da2cbf93f5c6440d93b3d0c65",
          "blockNumber": "0x22223dd",
          "blockTimestamp": "0x6957a69a",
          "transactionHash": "0x4208c5d51979e74bb746727c577b1379cbcbc962135e75d9fb0fed0b156eea21",
          "transactionIndex": "0x10",
          "logIndex": "0x99",
          "removed": false
        },
        {
          "address": "0x27bfedcdefed39616428d69964b132fa94932395",
          "topics": [
            "0x9eaa3cf31177f1a5ddad8576b63320fb2e319ed06ac0a9c801b82eae6b70f386",
            "0x1fc3d9504cbbe326b997dd5b9e3e0c94acab632412c4f7a85c705b7784620bad",
            "0x000000000000000000000000000000000000000000000000000000006957a69a"
          ],
          "data": "0x8b794ac043f0ad293925b1ac2a32fe5aa67f78ff57955bbb598923c774beed6d",
          "blockHash": "0x237511d2661196b212b69985aff20ca8dda2a67da2cbf93f5c6440d93b3d0c65",
          "blockNumber": "0x22223dd",
          "blockTimestamp": "0x6957a69a",
          "transactionHash": "0x4208c5d51979e74bb746727c577b1379cbcbc962135e75d9fb0fed0b156eea21",
          "transactionIndex": "0x10",
          "logIndex": "0x9a",
          "removed": false
        }
      ],
      "logsBloom": "0x80000000000000000000000000000000000000000000000040000000000000000000000020000000000000000004000200000400000000000000000000000000000000000008002000000008000000200000000000200008040000000020000050000000000000800100000204000000800000000000000000000010000000000000400000000000000000000000000000000000000000000000000000000000000080000020000000000000000000000000000000000000000080000000000001000002000000800000000000300000040000000000000000000000080000400000000000000000000010000000000000000001004002000000000001000000",
      "type": "0x2",
      "transactionHash": "0x4208c5d51979e74bb746727c577b1379cbcbc962135e75d9fb0fed0b156eea21",
      "transactionIndex": "0x10",
      "blockHash": "0x237511d2661196b212b69985aff20ca8dda2a67da2cbf93f5c6440d93b3d0c65",
      "blockNumber": "0x22223dd",
      "gasUsed": "0x4f062",
      "effectiveGasPrice": "0x124f80",
      "blobGasUsed": "0x7d88",
      "from": "0xa0e87a70ae6652b5727217b8cca43898cb02f56e",
      "to": "0x27bfedcdefed39616428d69964b132fa94932395",
      "contractAddress": null,
      "daFootprintGasScalar": "0x138",
      "l1BaseFeeScalar": "0x44d",
      "l1BlobBaseFee": "0x1",
      "l1BlobBaseFeeScalar": "0xa118b",
      "l1Fee": "0x53",
      "l1GasPrice": "0x8",
      "l1GasUsed": "0x67c"
    }
  ],
  "libraries": [],
  "pending": [],
  "returns": {},
  "timestamp": 1767351962,
  "chain": 84532,
  "commit": null
}