{
  "transactions": [
    {
      "hash": "0x15e10b90c8d6a2532b14ddba17249d8957f387ae50ef244bd26f5fde0dd980f0",
      "transactionType": "CALL",
      "contractName": null,
      "contractAddress": "0x05526d81979e0d80304ac64ed5690ead3d9ffa76",
      "function": "mint(address,uint256)",
      "arguments": [
        "0xa0e87A70AE6652B5727217b8CCA43898Cb02f56e",
        "100000000000000000000"
      ],
      "transaction": {
        "from": "0xa0e87a70ae6652b5727217b8cca43898cb02f56e",
        "to": "0x05526d81979e0d80304ac64ed5690ead3d9ffa76",
        "gas": "0x12368",
        "value": "0x0",
        "input": "0x40c10f19000000000000000000000000a0e87a70ae6652b5727217b8cca43898cb02f56e0000000000000000000000000000000000000000000000056bc75e2d63100000",
        "nonce": "0x4b",
        "chainId": "0x14a34"
      },
      "additionalContracts": [],
      "isFixedGasLimit": false
    },
    {
      "hash": "0x4f4eae144d09dbd7622a9ac15833dcbd0895577cd5f46353dad9b24217356b99",
      "transactionType": "CALL",
      "contractName": null,
      "contractAddress": "0x05526d81979e0d80304ac64ed5690ead3d9ffa76",
      "function": "approve(address,uint256)",
      "arguments": [
        "0x7c3Ce376717E9F2f2f94F66863c43D95626e02E5",
        "100000000000000000000"
      ],
      "transaction": {
        "from": "0xa0e87a70ae6652b5727217b8cca43898cb02f56e",
        "to": "0x05526d81979e0d80304ac64ed5690ead3d9ffa76",
        "gas": "0x1069d",
        "value": "0x0",
        "input": "0x095ea7b30000000000000000000000007c3ce376717e9f2f2f94f66863c43d95626e02e50000000000000000000000000000000000000000000000056bc75e2d63100000",
        "nonce": "0x4c",
        "chainId": "0x14a34"
      },
      "additionalContracts": [],
      "isFixedGasLimit": false
    },
    {
      "hash": "0x54a1db04ca79c44f88d7238fd1b1b613fffb4135deaf3dd8a13ae3938e4d64b6",
      "transactionType": "CALL",
      "contractName": null,
      "contractAddress": "0x7c3ce376717e9f2f2f94f66863c43d95626e02e5",
      "function": "createPool((address,address,address,uint256,uint256,uint256,uint256,uint256,uint256))",
      "arguments": [
        "(0xa0e87A70AE6652B5727217b8CCA43898Cb02f56e, 0x05526D81979e0D80304aC64ED5690EAD3d9FfA76, 0xf75b06eF8c9D77fc838d3903331E3587D2C4aeF6, 20000000000000000000, 100000000000000000000, 1000000000000000000000, 172800, 1000, 0)"
      ],
      "transaction": {
        "from": "0xa0e87a70ae6652b5727217b8cca43898cb02f56e",
        "to": "0x7c3ce376717e9f2f2f94f66863c43d95626e02e5",
        "gas": "0x51903",
        "value": "0x0",
        "input": "0x7124c55f000000000000000000000000a0e87a70ae6652b5727217b8cca43898cb02f56e00000000000000000000000005526d81979e0d80304ac64ed5690ead3d9ffa76000000000000000000000000f75b06ef8c9d77fc838d3903331e3587d2c4aef6000000000000000000000000000000000000000000000001158e460913d000000000000000000000000000000000000000000000000000056bc75e2d6310000000000000000000000000000000000000000000000000003635c9adc5dea00000000000000000000000000000000000000000000000000000000000000002a30000000000000000000000000000000000000000000000000000000000000003e80000000000000000000000000000000000000000000000000000000000000000",
        "nonce": "0x4d",
        "chainId": "0x14a34"
      },
      "additionalContracts": [],
      "isFixedGasLimit": false
    }
  ],
  "receipts": [
    {
      "status": "0x1",
      "cumulativeGasUsed": "0x4b47fb",
      "logs": [
        {
          "address": "0x05526d81979e0d80304ac64ed5690ead3d9ffa76",
          "topics": [
            "0xddf252ad1be2c89b69c2b068fc378daa952ba7f163c4a11628f55a4df523b3ef",
            "0x0000000000000000000000000000000000000000000000000000000000000000",
            "0x000000000000000000000000a0e87a70ae6652b5727217b8cca43898cb02f56e"
          ],
          "data": "0x0000000000000000000000000000000000000000000000056bc75e2d63100000",
          "blockHash": "0xab4b49041b665c39a40ca996b32bf02c9faf6c45fbac6a6bafad9694154cefe0",
          "blockNumber": "0x2218a90",
          "blockTimestamp": "0x69567400",
          "transactionHash": "0x15e10b90c8d6a2532b14ddba17249d8957f387ae50ef244bd26f5fde0dd980f0",
          "transactionIndex": "0xa",
          "logIndex": "0x5c",
          "removed": false
        }
      ],
      "logsBloom": "0x00000000000000000000000000000000000000000000000000000000000000000000000000000000000000000000000000000000000000000000008000000000000000000000000000000008000000000000000000000000000000000800000010000000020000000000000000000800000000000000000000000010000000000000400000000000000000000000000000000000000000000000000000000000000000000000000000000000000000000000020000000000000080000000000000000002000000000000000000000000000000000000000000000000000020000000000000000000000000000000000000000000000000000000000000000000",
      "type": "0x2",
      "transactionHash": "0x15e10b90c8d6a2532b14ddba17249d8957f387ae50ef244bd26f5fde0dd980f0",
      "transactionIndex": "0xa",
      "blockHash": "0xab4b49041b665c39a40ca996b32bf02c9faf6c45fbac6a6bafad9694154cefe0",
      "blockNumber": "0x2218a90",
      "gasUsed": "0xc741",
      "effectiveGasPrice": "0x124f80",
      "blobGasUsed": "0x79e0",
      "from": "0xa0e87a70ae6652b5727217b8cca43898cb02f56e",
      "to": "0x05526d81979e0d80304ac64ed5690ead3d9ffa76",
      "contractAddress": null,
      "daFootprintGasScalar": "0x138",
      "l1BaseFeeScalar": "0x44d",
      "l1BlobBaseFee": "0x96",
      "l1BlobBaseFeeScalar": "0xa118b",
      "l1Fee": "0x37a1",
      "l1GasPrice": "0x9a2",
      "l1GasUsed": "0x640"
    },
    {
      "status": "0x1",
      "cumulativeGasUsed": "0x4bfb8c",
      "logs": [
        {
          "address": "0x05526d81979e0d80304ac64ed5690ead3d9ffa76",
          "topics": [
            "0x8c5be1e5ebec7d5bd14f71427d1e84f3dd0314c0f7b2291e5b200ac8c7c3b925",
            "0x000000000000000000000000a0e87a70ae6652b5727217b8cca43898cb02f56e",
            "0x0000000000000000000000007c3ce376717e9f2f2f94f66863c43d95626e02e5"
          ],
          "data": "0x0000000000000000000000000000000000000000000000056bc75e2d63100000",
          "blockHash": "0xab4b49041b665c39a40ca996b32bf02c9faf6c45fbac6a6bafad9694154cefe0",
          "blockNumber": "0x2218a90",
          "blockTimestamp": "0x69567400",
          "transactionHash": "0x4f4eae144d09dbd7622a9ac15833dcbd0895577cd5f46353dad9b24217356b99",
          "transactionIndex": "0xb",
          "logIndex": "0x5d",
          "removed": false
        }
      ],
      "logsBloom": "0x00000000000000000000000000000000000000000000000000000000000000000000000000000000000000000000000000000000000000400000008000200000000000000000000000000000000000000000000000000000000000000800000010000000000000000000000000000000000000000000000000000000020000000000400000000000000000000000000000000000000000000000000000000000020000000000000000000000000000000000020000000000000080000000000000000000000000000000000000000000000000001000000000000000000000000010000000000000000000000000000000000000000000000000000000000000",
      "type": "0x2",
      "transactionHash": "0x4f4eae144d09dbd7622a9ac15833dcbd0895577cd5f46353dad9b24217356b99",
      "transactionIndex": "0xb",
      "blockHash": "0xab4b49041b665c39a40ca996b32bf02c9faf6c45fbac6a6bafad9694154cefe0",
      "blockNumber": "0x2218a90",
      "gasUsed": "0xb391",
      "effectiveGasPrice": "0x124f80",
      "blobGasUsed": "0x79e0",
      "from": "0xa0e87a70ae6652b5727217b8cca43898cb02f56e",
      "to": "0x05526d81979e0d80304ac64ed5690ead3d9ffa76",
      "contractAddress": null,
      "daFootprintGasScalar": "0x138",
      "l1BaseFeeScalar": "0x44d",
      "l1BlobBaseFee": "0x96",
      "l1BlobBaseFeeScalar": "0xa118b",
      "l1Fee": "0x37a1",
      "l1GasPrice": "0x9a2",
      "l1GasUsed": "0x640"
    },
    {
      "status": "0x1",
      "cumulativeGasUsed": "0x4fac5b",
      "logs": [
        {
          "address": "0x05526d81979e0d80304ac64ed5690ead3d9ffa76",
          "topics": [
            "0xddf252ad1be2c89b69c2b068fc378daa952ba7f163c4a11628f55a4df523b3ef",
            "0x000000000000000000000000a0e87a70ae6652b5727217b8cca43898cb02f56e",
            "0x0000000000000000000000007c3ce376717e9f2f2f94f66863c43d95626e02e5"
          ],
          "data": "0x0000000000000000000000000000000000000000000000056bc75e2d63100000",
          "blockHash": "0xab4b49041b665c39a40ca996b32bf02c9faf6c45fbac6a6bafad9694154cefe0",
          "blockNumber": "0x2218a90",
          "blockTimestamp": "0x69567400",
          "transactionHash": "0x54a1db04ca79c44f88d7238fd1b1b613fffb4135deaf3dd8a13ae3938e4d64b6",
          "transactionIndex": "0xc",
          "logIndex": "0x5e",
          "removed": false
        },
        {
          "address": "0x7c3ce376717e9f2f2f94f66863c43d95626e02e5",
          "topics": [
            "0x3fbefbcbe89a8215cd4eed0234b07327d18e984324c67e8fd568e9894555ac39",
            "0xe7d6fc997de917a4f8c643884419e275e5e9a045c3a81e49ee7c717e93d483b9",
            "0x52597250b6cfc0737cd0663703a2d0a81af4d7fc69b02dda6ec2b907e5a94a62",
            "0x0000000000000000000000000000000000000000000000000000000069567400"
          ],
          "data": "0x",
          "blockHash": "0xab4b49041b665c39a40ca996b32bf02c9faf6c45fbac6a6bafad9694154cefe0",
          "blockNumber": "0x2218a90",
          "blockTimestamp": "0x69567400",
          "transactionHash": "0x54a1db04ca79c44f88d7238fd1b1b613fffb4135deaf3dd8a13ae3938e4d64b6",
          "transactionIndex": "0xc",
          "logIndex": "0x5f",
          "removed": false
        }
      ],
      "logsBloom": "0x00000000000000000000000000000000000000000000000000000000000000000000000000000000000000000000000000000000000000400000008000000000000000000000000400000208000000000000000000000000000000000800000010000000000000000004000000000000000000001200000000000010028000040000400000000800000000000000000000000000000000000000000000000000000000000000000000000000000000008000020000000000000280000000000000000002000000000000000000000000000000001300000000000000000000000000000000000000200000000000000000000000000000010000000000000000",
      "type": "0x2",
      "transactionHash": "0x54a1db04ca79c44f88d7238fd1b1b613fffb4135deaf3dd8a13ae3938e4d64b6",
      "transactionIndex": "0xc",
      "blockHash": "0xab4b49041b665c39a40ca996b32bf02c9faf6c45fbac6a6bafad9694154cefe0",
      "blockNumber": "0x2218a90",
      "gasUsed": "0x3b0cf",
      "effectiveGasPrice": "0x124f80",
      "blobGasUsed": "0xda28",
      "from": "0xa0e87a70ae6652b5727217b8cca43898cb02f56e",
      "to": "0x7c3ce376717e9f2f2f94f66863c43d95626e02e5",
      "contractAddress": null,
      "daFootprintGasScalar": "0x138",
      "l1BaseFeeScalar": "0x44d",
      "l1BlobBaseFee": "0x96",
      "l1BlobBaseFeeScalar": "0xa118b",
      "l1Fee": "0x63a1",
      "l1GasPrice": "0x9a2",
      "l1GasUsed": "0xb31"
    }
  ],
  "libraries": [],
  "pending": [],
  "returns": {},
  "timestamp": 1767273473,
  "chain": 84532,
  "commit": null
}