{
  "transactions": [
    {
      "hash": "0xf6f818891b8f3b16ec6eca132ba9cfacce55d4d4b4c4804f8c2b49946296e064",
      "transactionType": "CALL",
      "contractName": null,
      "contractAddress": "0x27bfedcdefed39616428d69964b132fa94932395",
      "function": "updatePool((address,address,address,uint256,uint256,uint256,uint256,uint256,uint256))",
      "arguments": [
        "(0xa0e87A70AE6652B5727217b8CCA43898Cb02f56e, 0x1627bb547C9ce9A9DdB7010807880cCd46BDa91F, 0xf75b06eF8c9D77fc838d3903331E3587D2C4aeF6, 40000000000000000000, 300000000, 1000000000000000000000, 172800, 1000, 0)"
      ],
      "transaction": {
        "from": "0xa0e87a70ae6652b5727217b8cca43898cb02f56e",
        "to": "0x27bfedcdefed39616428d69964b132fa94932395",
        "gas": "0x1f220",
        "value": "0x0",
        "input": "0xe4917e3f000000000000000000000000a0e87a70ae6652b5727217b8cca43898cb02f56e0000000000000000000000001627bb547c9ce9a9ddb7010807880ccd46bda91f000000000000000000000000f75b06ef8c9d77fc838d3903331e3587d2c4aef60000000000000000000000000000000000000000000000022b1c8c1227a000000000000000000000000000000000000000000000000000000000000011e1a30000000000000000000000000000000000000000000000003635c9adc5dea00000000000000000000000000000000000000000000000000000000000000002a30000000000000000000000000000000000000000000000000000000000000003e80000000000000000000000000000000000000000000000000000000000000000",
        "nonce": "0x6f",
        "chainId": "0x14a34"
      },
      "additionalContracts": [],
      "isFixedGasLimit": false
    }
  ],
  "receipts": [
    {
      "status": "0x1",
      "cumulativeGasUsed": "0xb535ef",
      "logs": [
        {
          "address": "0x1627bb547c9ce9a9ddb7010807880ccd46bda91f",
          "topics": [
            "0xddf252ad1be2c89b69c2b068fc378daa952ba7f163c4a11628f55a4df523b3ef",
            "0x00000000000000000000000027bfedcdefed39616428d69964b132fa94932395",
            "0x000000000000000000000000a0e87a70ae6652b5727217b8cca43898cb02f56e"
          ],
          "data": "0x00000000000000000000000000000000000000000000000000000002422a4100",
          "blockHash": "0x1ba3ce1a6b8cec1cb04e7a49d3675430c6820f6583df663c6ea064b0a5d98327",
          "blockNumber": "0x222230f",
          "blockTimestamp": "0x6957a4fe",
          "transactionHash": "0xf6f818891b8f3b16ec6eca132ba9cfacce55d4d4b4c4804f8c2b49946296e064",
          "transactionIndex": "0x17",
          "logIndex": "0x9a",
          "removed": false
        },
        {
          "address": "0x27bfedcdefed39616428d69964b132fa94932395",
          "topics": [
            "0x5d0c5776b8c52477936b6b38d56169ac2da40c92c610d1dde03ed723d8791948",
            "0x8b794ac043f0ad293925b1ac2a32fe5aa67f78ff57955bbb598923c774beed6d",
            "0x000000000000000000000000000000000000000000000000000000006957a4fe"
          ],
          "data": "0x",
          "blockHash": "0x1ba3ce1a6b8cec1cb04e7a49d3675430c6820f6583df663c6ea064b0a5d98327",
          "blockNumber": "0x222230f",
          "blockTimestamp": "0x6957a4fe",
          "transactionHash": "0xf6f818891b8f3b16ec6eca132ba9cfacce55d4d4b4c4804f8c2b49946296e064",
          "transactionIndex": "0x17",
          "logIndex": "0x9b",
          "removed": false
        }
      ],
      "logsBloom": "0x0000000000000000000000000000000000000000000000000000000000000000000000000000000000000100000400000000040000000000000000000004000000000000000800000000000800000020000000000000000004000000000000001000000000000000000000020c000000000000000000000000000010000000000000400000000000000000000000000000000000000000000000000000000000000000000020000000000000000000000000000000000000000080000000000001000002000000800000000000200000040000000000000000000000000000400000000000000000000000000000000000000001000002000000000000000000",
      "type": "0x2",
      "transactionHash": "0xf6f818891b8f3b16ec6eca132ba9cfacce55d4d4b4c4804f8c2b49946296e064",
      "transactionIndex": "0x17",
      "blockHash": "0x1ba3ce1a6b8cec1cb04e7a49d3675430c6820f6583df663c6ea064b0a5d98327",
      "blockNumber": "0x222230f",
      "gasUsed": "0x1549a",
      "effectiveGasPrice": "0x124f6d",
      "blobGasUsed": "0xcdf8",
      "from": "0xa0e87a70ae6652b5727217b8cca43898cb02f56e",
      "to": "0x27bfedcdefed39616428d69964b132fa94932395",
      "contractAddress": null,
      "daFootprintGasScalar": "0x138",
      "l1BaseFeeScalar": "0x44d",
      "l1BlobBaseFee": "0x1",
      "l1BlobBaseFeeScalar": "0xa118b",
      "l1Fee": "0x88",
      "l1GasPrice": "0x8",
      "l1GasUsed": "0xa9e"
    }
  ],
  "libraries": [],
  "pending": [],
  "returns": {},
  "timestamp": 1767351550,
  "chain": 84532,
  "commit": null
}