{
  "transactions": [
    {
      "hash": "0xe46139f63474cace7c53ab834590a34940e0172e330aa5491bee684fb6ec1b41",
      "transactionType": "CALL",
      "contractName": null,
      "contractAddress": "0xf75b06ef8c9d77fc838d3903331e3587d2c4aef6",
      "function": "mint(address,uint256)",
      "arguments": [
        "0xa0e87A70AE6652B5727217b8CCA43898Cb02f56e",
        "400000000"
      ],
      "transaction": {
        "from": "0xa0e87a70ae6652b5727217b8cca43898cb02f56e",
        "to": "0xf75b06ef8c9d77fc838d3903331e3587d2c4aef6",
        "gas": "0x12322",
        "value": "0x0",
        "input": "0x40c10f19000000000000000000000000a0e87a70ae6652b5727217b8cca43898cb02f56e0000000000000000000000000000000000000000000000000000000017d78400",
        "nonce": "0x7c",
        "chainId": "0x14a34"
      },
      "additionalContracts": [],
      "isFixedGasLimit": false
    },
    {
      "hash": "0xd7f973c3e646af92a2eb9337f1cb58fb5a991a9975c794237215a7900ee2e5ca",
      "transactionType": "CALL",
      "contractName": null,
      "contractAddress": "0xf75b06ef8c9d77fc838d3903331e3587d2c4aef6",
      "function": "approve(address,uint256)",
      "arguments": [
        "0x27BFedCdefeD39616428D69964B132Fa94932395",
        "400000000"
      ],
      "transaction": {
        "from": "0xa0e87a70ae6652b5727217b8cca43898cb02f56e",
        "to": "0xf75b06ef8c9d77fc838d3903331e3587d2c4aef6",
        "gas": "0x10657",
        "value": "0x0",
        "input": "0x095ea7b300000000000000000000000027bfedcdefed39616428d69964b132fa949323950000000000000000000000000000000000000000000000000000000017d78400",
        "nonce": "0x7d",
        "chainId": "0x14a34"
      },
      "additionalContracts": [],
      "isFixedGasLimit": false
    },
    {
      "hash": "0x6d49cd69c9fefa65f67b0df2dd422cf47d7b414cc971692693974d6fdb655455",
      "transactionType": "CALL",
      "contractName": null,
      "contractAddress": "0x27bfedcdefed39616428d69964b132fa94932395",
      "function": "borrow((bytes32,uint256,uint256))",
      "arguments": [
        "(0x8b794ac043f0ad293925b1ac2a32fe5aa67f78ff57955bbb598923c774beed6d, 100000000000000000000, 400000000)"
      ],
      "transaction": {
        "from": "0xa0e87a70ae6652b5727217b8cca43898cb02f56e",
        "to": "0x27bfedcdefed39616428d69964b132fa94932395",
        "gas": "0x73928",
        "value": "0x0",
        "input": "0x136b2eca8b794ac043f0ad293925b1ac2a32fe5aa67f78ff57955bbb598923c774beed6d0000000000000000000000000000000000000000000000056bc75e2d631000000000000000000000000000000000000000000000000000000000000017d78400",
        "nonce": "0x7e",
        "chainId": "0x14a34"
      },
      "additionalContracts": [],
      "isFixedGasLimit": false
    }
  ],
  "receipts": [
    {
      "status": "0x1",
      "cumulativeGasUsed": "0x534c85",
      "logs": [
        {
          "address": "0xf75b06ef8c9d77fc838d3903331e3587d2c4aef6",
          "topics": [
            "0xddf252ad1be2c89b69c2b068fc378daa952ba7f163c4a11628f55a4df523b3ef",
            "0x0000000000000000000000000000000000000000000000000000000000000000",
            "0x000000000000000000000000a0e87a70ae6652b5727217b8cca43898cb02f56e"
          ],
          "data": "0x0000000000000000000000000000000000000000000000000000000017d78400",
          "blockHash": "0x5b390c5cf30eda34a8c8303c893cf61d1bd58bba0f8be2a5b581926fddb43130",
          "blockNumber": "0x2222484",
          "blockTimestamp": "0x6957a7e8",
          "transactionHash": "0xe46139f63474cace7c53ab834590a34940e0172e330aa5491bee684fb6ec1b41",
          "transactionIndex": "0x7",
          "logIndex": "0x109",
          "removed": false
        }
      ],
      "logsBloom": "0x00000000000000000000000000000000000000000000000000000000000000000000000000000000000000000000000000000000000000000000000000000000000000000000000000000008000000000000000000000008000000000000000050000000020000000000000000000800000000000000000000000010000000000000400000000000000000000000000000000000000000000000000000000000000000000000000000000000000000000000000000000000000080000000000000000002000000000000000000000000000000000000000000000000000020000000000000000000000000000000000000000000004000000000000000000000",
      "type": "0x2",
      "transactionHash": "0xe46139f63474cace7c53ab834590a34940e0172e330aa5491bee684fb6ec1b41",
      "transactionIndex": "0x7",
      "blockHash": "0x5b390c5cf30eda34a8c8303c893cf61d1bd58bba0f8be2a5b581926fddb43130",
      "blockNumber": "0x2222484",
      "gasUsed": "0xc711",
      "effectiveGasPrice": "0x124f80",
      "blobGasUsed": "0x79e0",
      "from": "0xa0e87a70ae6652b5727217b8cca43898cb02f56e",
      "to": "0xf75b06ef8c9d77fc838d3903331e3587d2c4aef6",
      "contractAddress": null,
      "daFootprintGasScalar": "0x138",
      "l1BaseFeeScalar": "0x44d",
      "l1BlobBaseFee": "0x1",
      "l1BlobBaseFeeScalar": "0xa118b",
      "l1Fee": "0x51",
      "l1GasPrice": "0x9",
      "l1GasUsed": "0x640"
    },
    {
      "status": "0x1",
      "cumulativeGasUsed": "0x53ffe6",
      "logs": [
        {
          "address": "0xf75b06ef8c9d77fc838d3903331e3587d2c4aef6",
          "topics": [
            "0x8c5be1e5ebec7d5bd14f71427d1e84f3dd0314c0f7b2291e5b200ac8c7c3b925",
            "0x000000000000000000000000a0e87a70ae6652b5727217b8cca43898cb02f56e",
            "0x00000000000000000000000027bfedcdefed39616428d69964b132fa94932395"
          ],
          "data": "0x0000000000000000000000000000000000000000000000000000000017d78400",
          "blockHash": "0x5b390c5cf30eda34a8c8303c893cf61d1bd58bba0f8be2a5b581926fddb43130",
          "blockNumber": "0x2222484",
          "blockTimestamp": "0x6957a7e8",
          "transactionHash": "0xd7f973c3e646af92a2eb9337f1cb58fb5a991a9975c794237215a7900ee2e5ca",
          "transactionIndex": "0x8",
          "logIndex": "0x10a",
          "removed": false
        }
      ],
      "logsBloom": "0x00000000000000000000000000000000000000000000000000000000000000000000000000000000000000000000000000000000000000000000000000200000000000000008000000000000000000000000000000000008000000000000000050000000000000000000000000000000000000000000000000000000000000000000400000000000000000000000000000000000000000000000000000000000020000000000000000000000000000000000000000000000000080000000000000000000000000000000000000000000000000000000000000000000000000400010000000000000000000000000000000000001004000000000000000000000",
      "type": "0x2",
      "transactionHash": "0xd7f973c3e646af92a2eb9337f1cb58fb5a991a9975c794237215a7900ee2e5ca",
      "transactionIndex": "0x8",
      "blockHash": "0x5b390c5cf30eda34a8c8303c893cf61d1bd58bba0f8be2a5b581926fddb43130",
      "blockNumber": "0x2222484",
      "gasUsed": "0xb361",
      "effectiveGasPrice": "0x124f80",
      "blobGasUsed": "0x79e0",
      "from": "0xa0e87a70ae6652b5727217b8cca43898cb02f56e",
      "to": "0xf75b06ef8c9d77fc838d3903331e3587d2c4aef6",
      "contractAddress": null,
      "daFootprintGasScalar": "0x138",
      "l1BaseFeeScalar": "0x44d",
      "l1BlobBaseFee": "0x1",
      "l1BlobBaseFeeScalar": "0xa118b",
      "l1Fee": "0x51",
      "l1GasPrice": "0x9",
      "l1GasUsed": "0x640"
    },
    {
      "status": "0x1",
      "cumulativeGasUsed": "0x58f048",
      "logs": [
        {
          "address": "0x27bfedcdefed39616428d69964b132fa94932395",
          "topics": [
            "0x660fdd79247e0a59eeb02dfb39ca4adb6d063c3deed27daada9fb81434005111",
            "0x8b794ac043f0ad293925b1ac2a32fe5aa67f78ff57955bbb598923c774beed6d",
            "0x00000000000000000000000000000000000000000000002086ac351052600000",
            "0x000000000000000000000000000000000000000000000000000000006957a7e8"
          ],
          "data": "0x",
          "blockHash": "0x5b390c5cf30eda34a8c8303c893cf61d1bd58bba0f8be2a5b581926fddb43130",
          "blockNumber": "0x2222484",
          "blockTimestamp": "0x6957a7e8",
          "transactionHash": "0x6d49cd69c9fefa65f67b0df2dd422cf47d7b414cc971692693974d6fdb655455",
          "transactionIndex": "0x9",
          "logIndex": "0x10b",
          "removed": false
        },
        {
          "address": "0x27bfedcdefed39616428d69964b132fa94932395",
          "topics": [
            "0x5d0c5776b8c52477936b6b38d56169ac2da40c92c610d1dde03ed723d8791948",
            "0x8b794ac043f0ad293925b1ac2a32fe5aa67f78ff57955bbb598923c774beed6d",
            "0x000000000000000000000000000000000000000000000000000000006957a7e8"
          ],
          "data": "0x",
          "blockHash": "0x5b390c5cf30eda34a8c8303c893cf61d1bd58bba0f8be2a5b581926fddb43130",
          "blockNumber": "0x2222484",
          "blockTimestamp": "0x6957a7e8",
          "transactionHash": "0x6d49cd69c9fefa65f67b0df2dd422cf47d7b414cc971692693974d6fdb655455",
          "transactionIndex": "0x9",
          "logIndex": "0x10c",
          "removed": false
        },
        {
          "address": "0xf75b06ef8c9d77fc838d3903331e3587d2c4aef6",
          "topics": [
            "0xddf252ad1be2c89b69c2b068fc378daa952ba7f163c4a11628f55a4df523b3ef",
            "0x000000000000000000000000a0e87a70ae6652b5727217b8cca43898cb02f56e",
            "0x00000000000000000000000027bfedcdefed39616428d69964b132fa94932395"
          ],
          "data": "0x0000000000000000000000000000000000000000000000000000000017d78400",
          "blockHash": "0x5b390c5cf30eda34a8c8303c893cf61d1bd58bba0f8be2a5b581926fddb43130",
          "blockNumber": "0x2222484",
          "blockTimestamp": "0x6957a7e8",
          "transactionHash": "0x6d49cd69c9fefa65f67b0df2dd422cf47d7b414cc971692693974d6fdb655455",
          "transactionIndex": "0x9",
          "logIndex": "0x10d",
          "removed": false
        },
        {
          "address": "0x1627bb547c9ce9a9ddb7010807880ccd46bda91f",
          "topics": [
            "0xddf252ad1be2c89b69c2b068fc378daa952ba7f163c4a11628f55a4df523b3ef",
            "0x00000000000000000000000027bfedcdefed39616428d69964b132fa94932395",
            "0x000000000000000000000000a0e87a70ae6652b5727217b8cca43898cb02f56e"
          ],
          "data": "0x000000000000000000000000000000000000000000000001158e460913d00000",
          "blockHash": "0x5b390c5cf30eda34a8c8303c893cf61d1bd58bba0f8be2a5b581926fddb43130",
          "blockNumber": "0x2222484",
          "blockTimestamp": "0x6957a7e8",
          "transactionHash": "0x6d49cd69c9fefa65f67b0df2dd422cf47d7b414cc971692693974d6fdb655455",
          "transactionIndex": "0x9",
          "logIndex": "0x10e",
          "removed": false
        },
        {
          "address": "0x1627bb547c9ce9a9ddb7010807880ccd46bda91f",
          "topics": [
            "0xddf252ad1be2c89b69c2b068fc378daa952ba7f163c4a11628f55a4df523b3ef",
            "0x00000000000000000000000027bfedcdefed39616428d69964b132fa94932395",
            "0x000000000000000000000000a0e87a70ae6652b5727217b8cca43898cb02f56e"
          ],
          "data": "0x000000000000000000000000000000000000000000000004563918244f400000",
          "blockHash": "0x5b390c5cf30eda34a8c8303c893cf61d1bd58bba0f8be2a5b581926fddb43130",
          "blockNumber": "0x2222484",
          "blockTimestamp": "0x6957a7e8",
          "transactionHash": "0x6d49cd69c9fefa65f67b0df2dd422cf47d7b414cc971692693974d6fdb655455",
          "transactionIndex": "0x9",
          "logIndex": "0x10f",
          "removed": false
        },
        {
          "address": "0x27bfedcdefed39616428d69964b132fa94932395",
          "topics": [
            "0x9eaa3cf31177f1a5ddad8576b63320fb2e319ed06ac0a9c801b82eae6b70f386",
            "0xbf7fdea887f406373fffa8059c0e6e06894e19bd4359785d7f9f18c580c721a2",
            "0x000000000000000000000000000000000000000000000000000000006957a7e8"
          ],
          "data": "0x8b794ac043f0ad293925b1ac2a32fe5aa67f78ff57955bbb598923c774beed6d",
          "blockHash": "0x5b390c5cf30eda34a8c8303c893cf61d1bd58bba0f8be2a5b581926fddb43130",
          "blockNumber": "0x2222484",
          "blockTimestamp": "0x6957a7e8",
          "transactionHash": "0x6d49cd69c9fefa65f67b0df2dd422cf47d7b414cc971692693974d6fdb655455",
          "transactionIndex": "0x9",
          "logIndex": "0x110",
          "removed": false
        }
      ],
      "logsBloom": "0x00000000000000000040000000000000000000000000000000000000000000000000000800000000000000000004080000000400020000000000000000000004000000000008000000000008000000200000000000000008040000000020000050000000200000800100000204000000000000000000000000000010000000000000400000000000000000001000000000000000000000000000000000000000000000000020000000000000000000000000000000000000000080000000000001000002000000800020000000300000040000000000000000000000000001400000000000000000000010000000000000000001004002000000000001000000",
      "type": "0x2",
      "transactionHash": "0x6d49cd69c9fefa65f67b0df2dd422cf47d7b414cc971692693974d6fdb655455",
      "transactionIndex": "0x9",
      "blockHash": "0x5b390c5cf30eda34a8c8303c893cf61d1bd58bba0f8be2a5b581926fddb43130",
      "blockNumber": "0x2222484",
      "gasUsed": "0x4f062",
      "effectiveGasPrice": "0x124f80",
      "blobGasUsed": "0x7d88",
      "from": "0xa0e87a70ae6652b5727217b8cca43898cb02f56e",
      "to": "0x27bfedcdefed39616428d69964b132fa94932395",
      "contractAddress": null,
      "daFootprintGasScalar": "0x138",
      "l1BaseFeeScalar": "0x44d",
      "l1BlobBaseFee": "0x1",
      "l1BlobBaseFeeScalar": "0xa118b",
      "l1Fee": "0x54",
      "l1GasPrice": "0x9",
      "l1GasUsed": "0x67c"
    }
  ],
  "libraries": [],
  "pending": [],
  "returns": {},
  "timestamp": 1767352296,
  "chain": 84532,
  "commit": null
}