{
  "transactions": [
    {
      "hash": "0x7cb9fcf404b8d11e0ccc9dcdcd9aa02b8ccf43ddb1d57ca74a436a2dd960ffcb",
      "transactionType": "CALL",
      "contractName": null,
      "contractAddress": "0x61e101ba661c151042e96340514ad210d13a541c",
      "function": "mint(address,uint256)",
      "arguments": [
        "0xa0e87A70AE6652B5727217b8CCA43898Cb02f56e",
        "4000000000000000000"
      ],
      "transaction": {
        "from": "0xa0e87a70ae6652b5727217b8cca43898cb02f56e",
        "to": "0x61e101ba661c151042e96340514ad210d13a541c",
        "gas": "0x11327",
        "value": "0x0",
        "input": "0x40c10f19000000000000000000000000a0e87a70ae6652b5727217b8cca43898cb02f56e0000000000000000000000000000000000000000000000003782dace9d900000",
        "nonce": "0x96",
        "chainId": "0x14a34"
      },
      "additionalContracts": [],
      "isFixedGasLimit": false
    },
    {
      "hash": "0xd8429894044785d58df2fdb601392dd9138370285df8c1bdb565f011dbc3383d",
      "transactionType": "CALL",
      "contractName": null,
      "contractAddress": "0x61e101ba661c151042e96340514ad210d13a541c",
      "function": "approve(address,uint256)",
      "arguments": [
        "0xdB2D8E8AD3feEFDf8429de1a3FA995b618421929",
        "4000000000000000000"
      ],
      "transaction": {
        "from": "0xa0e87a70ae6652b5727217b8cca43898cb02f56e",
        "to": "0x61e101ba661c151042e96340514ad210d13a541c",
        "gas": "0xf7f5",
        "value": "0x0",
        "input": "0x095ea7b3000000000000000000000000db2d8e8ad3feefdf8429de1a3fa995b6184219290000000000000000000000000000000000000000000000003782dace9d900000",
        "nonce": "0x97",
        "chainId": "0x14a34"
      },
      "additionalContracts": [],
      "isFixedGasLimit": false
    },
    {
      "hash": "0xbd02a4fcbaec307270cbf6ddbb7500c82ba30fd8e99c66d163651c4f74dabaea",
      "transactionType": "CALL",
      "contractName": null,
      "contractAddress": "0xdb2d8e8ad3feefdf8429de1a3fa995b618421929",
      "function": "borrow((bytes32,uint256,uint256))",
      "arguments": [
        "(0x83bd38c209257695bfc796761a87e4fa3e5b1e3d813b3691f8afb470d24ee456, 100000000000000000000, 4000000000000000000)"
      ],
      "transaction": {
        "from": "0xa0e87a70ae6652b5727217b8cca43898cb02f56e",
        "to": "0xdb2d8e8ad3feefdf8429de1a3fa995b618421929",
        "gas": "0x7b50c",
        "value": "0x0",
        "input": "0x136b2eca83bd38c209257695bfc796761a87e4fa3e5b1e3d813b3691f8afb470d24ee4560000000000000000000000000000000000000000000000056bc75e2d631000000000000000000000000000000000000000000000000000003782dace9d900000",
        "nonce": "0x98",
        "chainId": "0x14a34"
      },
      "additionalContracts": [],
      "isFixedGasLimit": false
    }
  ],
  "receipts": [
    {
      "status": "0x1",
      "cumulativeGasUsed": "0x11e8b4",
      "logs": [
        {
          "address": "0x61e101ba661c151042e96340514ad210d13a541c",
          "topics": [
            "0xddf252ad1be2c89b69c2b068fc378daa952ba7f163c4a11628f55a4df523b3ef",
            "0x0000000000000000000000000000000000000000000000000000000000000000",
            "0x000000000000000000000000a0e87a70ae6652b5727217b8cca43898cb02f56e"
          ],
          "data": "0x0000000000000000000000000000000000000000000000003782dace9d900000",
          "blockHash": "0xc4b98042d7226ded6eae38c53bbc87b11bc4a44819b89f0454e9f3e9f534eaf9",
          "blockNumber": "0x2222a2c",
          "blockTimestamp": "0x6957b338",
          "transactionHash": "0x7cb9fcf404b8d11e0ccc9dcdcd9aa02b8ccf43ddb1d57ca74a436a2dd960ffcb",
          "transactionIndex": "0x9",
          "logIndex": "0x2e",
          "removed": false
        }
      ],
      "logsBloom": "0x00000000080000000000000000000000000000000000000000000000000000000000000000000000000000000000000000000000000000000000000000000000000000000000000000000008000020000000000000000000000000000000000010000000020000000000000000000800000000000000000000000010000000000000400000000000000000000000000000000200000000000000000000000000000000000000000000000000000000000000000000000000000080000000000000000002000000000000000000000000000000000000000000000000000020000000000000000000000000000000000000000000000000000000000000000000",
      "type": "0x2",
      "transactionHash": "0x7cb9fcf404b8d11e0ccc9dcdcd9aa02b8ccf43ddb1d57ca74a436a2dd960ffcb",
      "transactionIndex": "0x9",
      "blockHash": "0xc4b98042d7226ded6eae38c53bbc87b11bc4a44819b89f0454e9f3e9f534eaf9",
      "blockNumber": "0x2222a2c",
      "gasUsed": "0xc735",
      "effectiveGasPrice": "0x124f80",
      "blobGasUsed": "0x79e0",
      "from": "0xa0e87a70ae6652b5727217b8cca43898cb02f56e",
      "to": "0x61e101ba661c151042e96340514ad210d13a541c",
      "contractAddress": null,
      "daFootprintGasScalar": "0x138",
      "l1BaseFeeScalar": "0x44d",
      "l1BlobBaseFee": "0x1",
      "l1BlobBaseFeeScalar": "0xa118b",
      "l1Fee": "0x53",
      "l1GasPrice": "0xa",
      "l1GasUsed": "0x640"
    },
    {
      "status": "0x1",
      "cumulativeGasUsed": "0x129c39",
      "logs": [
        {
          "address": "0x61e101ba661c151042e96340514ad210d13a541c",
          "topics": [
            "0x8c5be1e5ebec7d5bd14f71427d1e84f3dd0314c0f7b2291e5b200ac8c7c3b925",
            "0x000000000000000000000000a0e87a70ae6652b5727217b8cca43898cb02f56e",
            "0x000000000000000000000000db2d8e8ad3feefdf8429de1a3fa995b618421929"
          ],
          "data": "0x0000000000000000000000000000000000000000000000003782dace9d900000",
          "blockHash": "0xc4b98042d7226ded6eae38c53bbc87b11bc4a44819b89f0454e9f3e9f534eaf9",
          "blockNumber": "0x2222a2c",
          "blockTimestamp": "0x6957b338",
          "transactionHash": "0xd8429894044785d58df2fdb601392dd9138370285df8c1bdb565f011dbc3383d",
          "transactionIndex": "0xa",
          "logIndex": "0x2f",
          "removed": false
        }
      ],
      "logsBloom": "0x00000000080000000000000000000000000000000000000000000000000000000000000000000000000000000000000000000000000000000000010000200000080000000000000000000000000020000000000000000000000000000000000010000000000000000000000000000000000000000000000000000000000000000000400000000000000000000000000000000200000000000000000000000000020000000000000000000000000000000000000000000000000080000000000000000000000000000000000000000000000000000000000000000000000000000010000000000000000000010000000000000000000000000000000000000000",
      "type": "0x2",
      "transactionHash": "0xd8429894044785d58df2fdb601392dd9138370285df8c1bdb565f011dbc3383d",
      "transactionIndex": "0xa",
      "blockHash": "0xc4b98042d7226ded6eae38c53bbc87b11bc4a44819b89f0454e9f3e9f534eaf9",
      "blockNumber": "0x2222a2c",
      "gasUsed": "0xb385",
      "effectiveGasPrice": "0x124f80",
      "blobGasUsed": "0x79e0",
      "from": "0xa0e87a70ae6652b5727217b8cca43898cb02f56e",
      "to": "0x61e101ba661c151042e96340514ad210d13a541c",
      "contractAddress": null,
      "daFootprintGasScalar": "0x138",
      "l1BaseFeeScalar": "0x44d",
      "l1BlobBaseFee": "0x1",
      "l1BlobBaseFeeScalar": "0xa118b",
      "l1Fee": "0x53",
      "l1GasPrice": "0xa",
      "l1GasUsed": "0x640"
    },
    {
      "status": "0x1",
      "cumulativeGasUsed": "0x1830ad",
      "logs": [
        {
          "address": "0xdb2d8e8ad3feefdf8429de1a3fa995b618421929",
          "topics": [
            "0x660fdd79247e0a59eeb02dfb39ca4adb6d063c3deed27daada9fb81434005111",
            "0x83bd38c209257695bfc796761a87e4fa3e5b1e3d813b3691f8afb470d24ee456",
            "0x0000000000000000000000000000000000000000000000000000000000000000",
            "0x000000000000000000000000000000000000000000000000000000006957b338"
          ],
          "data": "0x",
          "blockHash": "0xc4b98042d7226ded6eae38c53bbc87b11bc4a44819b89f0454e9f3e9f534eaf9",
          "blockNumber": "0x2222a2c",
          "blockTimestamp": "0x6957b338",
          "transactionHash": "0xbd02a4fcbaec307270cbf6ddbb7500c82ba30fd8e99c66d163651c4f74dabaea",
          "transactionIndex": "0xb",
          "logIndex": "0x30",
          "removed": false
        },
        {
          "address": "0xdb2d8e8ad3feefdf8429de1a3fa995b618421929",
          "topics": [
            "0x5d0c5776b8c52477936b6b38d56169ac2da40c92c610d1dde03ed723d8791948",
            "0x83bd38c209257695bfc796761a87e4fa3e5b1e3d813b3691f8afb470d24ee456",
            "0x000000000000000000000000000000000000000000000000000000006957b338"
          ],
          "data": "0x",
          "blockHash": "0xc4b98042d7226ded6eae38c53bbc87b11bc4a44819b89f0454e9f3e9f534eaf9",
          "blockNumber": "0x2222a2c",
          "blockTimestamp": "0x6957b338",
          "transactionHash": "0xbd02a4fcbaec307270cbf6ddbb7500c82ba30fd8e99c66d163651c4f74dabaea",
          "transactionIndex": "0xb",
          "logIndex": "0x31",
          "removed": false
        },
        {
          "address": "0x61e101ba661c151042e96340514ad210d13a541c",
          "topics": [
            "0xddf252ad1be2c89b69c2b068fc378daa952ba7f163c4a11628f55a4df523b3ef",
            "0x000000000000000000000000a0e87a70ae6652b5727217b8cca43898cb02f56e",
            "0x000000000000000000000000db2d8e8ad3feefdf8429de1a3fa995b618421929"
          ],
          "data": "0x0000000000000000000000000000000000000000000000003782dace9d900000",
          "blockHash": "0xc4b98042d7226ded6eae38c53bbc87b11bc4a44819b89f0454e9f3e9f534eaf9",
          "blockNumber": "0x2222a2c",
          "blockTimestamp": "0x6957b338",
          "transactionHash": "0xbd02a4fcbaec307270cbf6ddbb7500c82ba30fd8e99c66d163651c4f74dabaea",
          "transactionIndex": "0xb",
          "logIndex": "0x32",
          "removed": false
        },
        {
          "address": "0x1627bb547c9ce9a9ddb7010807880ccd46bda91f",
          "topics": [
            "0xddf252ad1be2c89b69c2b068fc378daa952ba7f163c4a11628f55a4df523b3ef",
            "0x000000000000000000000000db2d8e8ad3feefdf8429de1a3fa995b618421929",
            "0x000000000000000000000000a0e87a70ae6652b5727217b8cca43898cb02f56e"
          ],
          "data": "0x000000000000000000000000000000000000000000000001158e460913d00000",
          "blockHash": "0xc4b98042d7226ded6eae38c53bbc87b11bc4a44819b89f0454e9f3e9f534eaf9",
          "blockNumber": "0x2222a2c",
          "blockTimestamp": "0x6957b338",
          "transactionHash": "0xbd02a4fcbaec307270cbf6ddbb7500c82ba30fd8e99c66d163651c4f74dabaea",
          "transactionIndex": "0xb",
          "logIndex": "0x33",
          "removed": false
        },
        {
          "address": "0x1627bb547c9ce9a9ddb7010807880ccd46bda91f",
          "topics": [
            "0xddf252ad1be2c89b69c2b068fc378daa952ba7f163c4a11628f55a4df523b3ef",
            "0x000000000000000000000000db2d8e8ad3feefdf8429de1a3fa995b618421929",
            "0x000000000000000000000000a0e87a70ae6652b5727217b8cca43898cb02f56e"
          ],
          "data": "0x000000000000000000000000000000000000000000000004563918244f400000",
          "blockHash": "0xc4b98042d7226ded6eae38c53bbc87b11bc4a44819b89f0454e9f3e9f534eaf9",
          "blockNumber": "0x2222a2c",
          "blockTimestamp": "0x6957b338",
          "transactionHash": "0xbd02a4fcbaec307270cbf6ddbb7500c82ba30fd8e99c66d163651c4f74dabaea",
          "transactionIndex": "0xb",
          "logIndex": "0x34",
          "removed": false
        },
        {
          "address": "0xdb2d8e8ad3feefdf8429de1a3fa995b618421929",
          "topics": [
            "0x43f0bb8bb9b6fbee7fc8ea5c87fd8830dc9d4586325918337b3b803e19e7b030",
            "0x575b575a8df970f11ca8a3a07eb3e032c5607ff965045319bf53c61477ff4b7f",
            "0x0000000000000000000000000000000000000000000000000000000000000000"
          ],
          "data": "0x83bd38c209257695bfc796761a87e4fa3e5b1e3d813b3691f8afb470d24ee456000000000000000000000000000000000000000000000000000000006957b338",
          "blockHash": "0xc4b98042d7226ded6eae38c53bbc87b11bc4a44819b89f0454e9f3e9f534eaf9",
          "blockNumber": "0x2222a2c",
          "blockTimestamp": "0x6957b338",
          "transactionHash": "0xbd02a4fcbaec307270cbf6ddbb7500c82ba30fd8e99c66d163651c4f74dabaea",
          "transactionIndex": "0xb",
          "logIndex": "0x35",
          "removed": false
        }
      ],
      "logsBloom": "0x00000000080000000000000008000000000000020000000000000000000000000000000000000000200080020000000000000000000000000000010000000000080000000000000000000008000020200000000000000000000000000001000010000000020000000000000204000800004000000000000000200010000000000000400000000000010000000000000000000200200000000000000000000000000000000000000040000000000000000000000000400000000080000000000000000002000000800000000000300000040000000000000000000000000020000100000000040000000010010000000000000000000000000000000081000000",
      "type": "0x2",
      "transactionHash": "0xbd02a4fcbaec307270cbf6ddbb7500c82ba30fd8e99c66d163651c4f74dabaea",
      "transactionIndex": "0xb",
      "blockHash": "0xc4b98042d7226ded6eae38c53bbc87b11bc4a44819b89f0454e9f3e9f534eaf9",
      "blockNumber": "0x2222a2c",
      "gasUsed": "0x59474",
      "effectiveGasPrice": "0x124f80",
      "blobGasUsed": "0x8268",
      "from": "0xa0e87a70ae6652b5727217b8cca43898cb02f56e",
      "to": "0xdb2d8e8ad3feefdf8429de1a3fa995b618421929",
      "contractAddress": null,
      "daFootprintGasScalar": "0x138",
      "l1BaseFeeScalar": "0x44d",
      "l1BlobBaseFee": "0x1",
      "l1BlobBaseFeeScalar": "0xa118b",
      "l1Fee": "0x5a",
      "l1GasPrice": "0xa",
      "l1GasUsed": "0x6bf"
    }
  ],
  "libraries": [],
  "pending": [],
  "returns": {},
  "timestamp": 1767355192,
  "chain": 84532,
  "commit": null
}