{
  "transactions": [
    {
      "hash": "0xc669b488448af613aa72fe4127222857aca7618a766b5b92066ca1a0c0321eb5",
      "transactionType": "CALL",
      "contractName": null,
      "contractAddress": "0x1d5f2de119c1014a22fbf3d962e402fbdad9b61b",
      "function": "giveLoan(uint256,bytes32)",
      "arguments": [
        "0",
        "0x83bd38c209257695bfc796761a87e4fa3e5b1e3d813b3691f8afb470d24ee456"
      ],
      "transaction": {
        "from": "0x4c9b70b6cc1fcfd2aaa41d705fbb9bb962be0245",
        "to": "0x1d5f2de119c1014a22fbf3d962e402fbdad9b61b",
        "gas": "0x2dd6f",
        "value": "0x0",
        "input": "0x7a599a61000000000000000000000000000000000000000000000000000000000000000083bd38c209257695bfc796761a87e4fa3e5b1e3d813b3691f8afb470d24ee456",
        "nonce": "0x23",
        "chainId": "0x14a34"
      },
      "additionalContracts": [],
      "isFixedGasLimit": false
    }
  ],
  "receipts": [
    {
      "status": "0x1",
      "cumulativeGasUsed": "0x2dd9c3",
      "logs": [
        {
          "address": "0x1d5f2de119c1014a22fbf3d962e402fbdad9b61b",
          "topics": [
            "0x660fdd79247e0a59eeb02dfb39ca4adb6d063c3deed27daada9fb81434005111",
            "0x934bea3911b34b7c04040011b37021ae774419827036b5d09bb2a6179a930a73",
            "0x00000000000000000000000000000000000000000000d3c21bd542aad1c3592f",
            "0x000000000000000000000000000000000000000000000000000000006958ea02"
          ],
          "data": "0x",
          "blockHash": "0xb1c86bc4c07196324b5c1b39ecfb66765e90733cbc16d85e1fd83ca525794695",
          "blockNumber": "0x222c591",
          "blockTimestamp": "0x6958ea02",
          "transactionHash": "0xc669b488448af613aa72fe4127222857aca7618a766b5b92066ca1a0c0321eb5",
          "transactionIndex": "0xe",
          "logIndex": "0x86",
          "removed": false
        },
        {
          "address": "0x1d5f2de119c1014a22fbf3d962e402fbdad9b61b",
          "topics": [
            "0x5d0c5776b8c52477936b6b38d56169ac2da40c92c610d1dde03ed723d8791948",
            "0x934bea3911b34b7c04040011b37021ae774419827036b5d09bb2a6179a930a73",
            "0x000000000000000000000000000000000000000000000000000000006958ea02"
          ],
          "data": "0x",
          "blockHash": "0xb1c86bc4c07196324b5c1b39ecfb66765e90733cbc16d85e1fd83ca525794695",
          "blockNumber": "0x222c591",
          "blockTimestamp": "0x6958ea02",
          "transactionHash": "0xc669b488448af613aa72fe4127222857aca7618a766b5b92066ca1a0c0321eb5",
          "transactionIndex": "0xe",
          "logIndex": "0x87",
          "removed": false
        },
        {
          "address": "0x1d5f2de119c1014a22fbf3d962e402fbdad9b61b",
          "topics": [
            "0x660fdd79247e0a59eeb02dfb39ca4adb6d063c3deed27daada9fb81434005111",
            "0x83bd38c209257695bfc796761a87e4fa3e5b1e3d813b3691f8afb470d24ee456",
            "0x00000000000000000000000000000000000000000000d3bcb0009ec5946ee38b",
            "0x000000000000000000000000000000000000000000000000000000006958ea02"
          ],
          "data": "0x",
          "blockHash": "0xb1c86bc4c07196324b5c1b39ecfb66765e90733cbc16d85e1fd83ca525794695",
          "blockNumber": "0x222c591",
          "blockTimestamp": "0x6958ea02",
          "transactionHash": "0xc669b488448af613aa72fe4127222857aca7618a766b5b92066ca1a0c0321eb5",
          "transactionIndex": "0xe",
          "logIndex": "0x88",
          "removed": false
        },
        {
          "address": "0x1d5f2de119c1014a22fbf3d962e402fbdad9b61b",
          "topics": [
            "0x5d0c5776b8c52477936b6b38d56169ac2da40c92c610d1dde03ed723d8791948",
            "0x83bd38c209257695bfc796761a87e4fa3e5b1e3d813b3691f8afb470d24ee456",
            "0x000000000000000000000000000000000000000000000000000000006958ea02"
          ],
          "data": "0x",
          "blockHash": "0xb1c86bc4c07196324b5c1b39ecfb66765e90733cbc16d85e1fd83ca525794695",
          "blockNumber": "0x222c591",
          "blockTimestamp": "0x6958ea02",
          "transactionHash": "0xc669b488448af613aa72fe4127222857aca7618a766b5b92066ca1a0c0321eb5",
          "transactionIndex": "0xe",
          "logIndex": "0x89",
          "removed": false
        },
        {
          "address": "0x1627bb547c9ce9a9ddb7010807880ccd46bda91f",
          "topics": [
            "0xddf252ad1be2c89b69c2b068fc378daa952ba7f163c4a11628f55a4df523b3ef",
            "0x0000000000000000000000001d5f2de119c1014a22fbf3d962e402fbdad9b61b",
            "0x000000000000000000000000a0e87a70ae6652b5727217b8cca43898cb02f56e"
          ],
          "data": "0x000000000000000000000000000000000000000000000000000000c75860bcc4",
          "blockHash": "0xb1c86bc4c07196324b5c1b39ecfb66765e90733cbc16d85e1fd83ca525794695",
          "blockNumber": "0x222c591",
          "blockTimestamp": "0x6958ea02",
          "transactionHash": "0xc669b488448af613aa72fe4127222857aca7618a766b5b92066ca1a0c0321eb5",
          "transactionIndex": "0xe",
          "logIndex": "0x8a",
          "removed": false
        },
        {
          "address": "0x1d5f2de119c1014a22fbf3d962e402fbdad9b61b",
          "topics": [
            "0x496c457854ab9c70c16d2e87969100e0beef07b89071a879e2d36634e5ccab7f",
            "0x0000000000000000000000000000000000000000000000000000000000000000",
            "0x000000000000000000000000000000000000000000000000000000006958ea02"
          ],
          "data": "0x",
          "blockHash": "0xb1c86bc4c07196324b5c1b39ecfb66765e90733cbc16d85e1fd83ca525794695",
          "blockNumber": "0x222c591",
          "blockTimestamp": "0x6958ea02",
          "transactionHash": "0xc669b488448af613aa72fe4127222857aca7618a766b5b92066ca1a0c0321eb5",
          "transactionIndex": "0xe",
          "logIndex": "0x8b",
          "removed": false
        }
      ],
      "logsBloom": "0x00000000000000000000000080000000000000000000000000000000000000000000000000000000000080000000000000080000000002000000000000000000000000000000000000000008000000200000000002000000000000000000000010000000020000000000000204000800000000000000000000200814000000000000400100000000000000000000000000000000000000000002000000000000000000020020000000000000008000000000000000000000000080000000000000180022000000800002020000300001040000000800000000000080000021000100000000000000000010000000000800000000000000000000000001000000",
      "type": "0x2",
      "transactionHash": "0xc669b488448af613aa72fe4127222857aca7618a766b5b92066ca1a0c0321eb5",
      "transactionIndex": "0xe",
      "blockHash": "0xb1c86bc4c07196324b5c1b39ecfb66765e90733cbc16d85e1fd83ca525794695",
      "blockNumber": "0x222c591",
      "gasUsed": "0x212ff",
      "effectiveGasPrice": "0x124f80",
      "blobGasUsed": "0x79e0",
      "from": "0x4c9b70b6cc1fcfd2aaa41d705fbb9bb962be0245",
      "to": "0x1d5f2de119c1014a22fbf3d962e402fbdad9b61b",
      "contractAddress": null,
      "daFootprintGasScalar": "0x138",
      "l1BaseFeeScalar": "0x44d",
      "l1BlobBaseFee": "0x1",
      "l1BlobBaseFeeScalar": "0xa118b",
      "l1Fee": "0x50",
      "l1GasPrice": "0x8",
      "l1GasUsed": "0x640"
    }
  ],
  "libraries": [],
  "pending": [],
  "returns": {},
  "timestamp": 1767434754,
  "chain": 84532,
  "commit": null
}