{
  "transactions": [
    {
      "hash": "0xc7557126a48b8f6cc34478358bbdc191d13f167eb1b5eb70a8dac215c8d88b66",
      "transactionType": "CALL",
      "contractName": null,
      "contractAddress": "0xf75b06ef8c9d77fc838d3903331e3587d2c4aef6",
      "function": "mint(address,uint256)",
      "arguments": [
        "0xa0e87A70AE6652B5727217b8CCA43898Cb02f56e",
        "400000000"
      ],
      "transaction": {
        "from": "0xa0e87a70ae6652b5727217b8cca43898cb02f56e",
        "to": "0xf75b06ef8c9d77fc838d3903331e3587d2c4aef6",
        "gas": "0x12322",
        "value": "0x0",
        "input": "0x40c10f19000000000000000000000000a0e87a70ae6652b5727217b8cca43898cb02f56e0000000000000000000000000000000000000000000000000000000017d78400",
        "nonce": "0x82",
        "chainId": "0x14a34"
      },
      "additionalContracts": [],
      "isFixedGasLimit": false
    },
    {
      "hash": "0xd355267722c8f456f598d06f44ff1b8cfd3128f8d4eca89d130aa7e6da84021c",
      "transactionType": "CALL",
      "contractName": null,
      "contractAddress": "0xf75b06ef8c9d77fc838d3903331e3587d2c4aef6",
      "function": "approve(address,uint256)",
      "arguments": [
        "0x27BFedCdefeD39616428D69964B132Fa94932395",
        "400000000"
      ],
      "transaction": {
        "from": "0xa0e87a70ae6652b5727217b8cca43898cb02f56e",
        "to": "0xf75b06ef8c9d77fc838d3903331e3587d2c4aef6",
        "gas": "0x10657",
        "value": "0x0",
        "input": "0x095ea7b300000000000000000000000027bfedcdefed39616428d69964b132fa949323950000000000000000000000000000000000000000000000000000000017d78400",
        "nonce": "0x83",
        "chainId": "0x14a34"
      },
      "additionalContracts": [],
      "isFixedGasLimit": false
    },
    {
      "hash": "0x323a60d7824537e1cec703e396df31a78a230056a27aeb6e9b5d333237f99233",
      "transactionType": "CALL",
      "contractName": null,
      "contractAddress": "0x27bfedcdefed39616428d69964b132fa94932395",
      "function": "borrow((bytes32,uint256,uint256))",
      "arguments": [
        "(0x8b794ac043f0ad293925b1ac2a32fe5aa67f78ff57955bbb598923c774beed6d, 100000000000000000000, 400000000)"
      ],
      "transaction": {
        "from": "0xa0e87a70ae6652b5727217b8cca43898cb02f56e",
        "to": "0x27bfedcdefed39616428d69964b132fa94932395",
        "gas": "0x73928",
        "value": "0x0",
        "input": "0x136b2eca8b794ac043f0ad293925b1ac2a32fe5aa67f78ff57955bbb598923c774beed6d0000000000000000000000000000000000000000000000056bc75e2d631000000000000000000000000000000000000000000000000000000000000017d78400",
        "nonce": "0x84",
        "chainId": "0x14a34"
      },
      "additionalContracts": [],
      "isFixedGasLimit": false
    }
  ],
  "receipts": [
    {
      "status": "0x1",
      "cumulativeGasUsed": "0x293a24",
      "logs": [
        {
          "address": "0xf75b06ef8c9d77fc838d3903331e3587d2c4aef6",
          "topics": [
            "0xddf252ad1be2c89b69c2b068fc378daa952ba7f163c4a11628f55a4df523b3ef",
            "0x0000000000000000000000000000000000000000000000000000000000000000",
            "0x000000000000000000000000a0e87a70ae6652b5727217b8cca43898cb02f56e"
          ],
          "data": "0x0000000000000000000000000000000000000000000000000000000017d78400",
          "blockHash": "0x2ffaaf25b2b606d117a2ae62f097a8ea238c9bfaf9e0cbdf3a02ecc36d14c45e",
          "blockNumber": "0x22227cb",
          "blockTimestamp": "0x6957ae76",
          "transactionHash": "0xc7557126a48b8f6cc34478358bbdc191d13f167eb1b5eb70a8dac215c8d88b66",
          "transactionIndex": "0xe",
          "logIndex": "0x6d",
          "removed": false
        }
      ],
      "logsBloom": "0x00000000000000000000000000000000000000000000000000000000000000000000000000000000000000000000000000000000000000000000000000000000000000000000000000000008000000000000000000000008000000000000000050000000020000000000000000000800000000000000000000000010000000000000400000000000000000000000000000000000000000000000000000000000000000000000000000000000000000000000000000000000000080000000000000000002000000000000000000000000000000000000000000000000000020000000000000000000000000000000000000000000004000000000000000000000",
      "type": "0x2",
      "transactionHash": "0xc7557126a48b8f6cc34478358bbdc191d13f167eb1b5eb70a8dac215c8d88b66",
      "transactionIndex": "0xe",
      "blockHash": "0x2ffaaf25b2b606d117a2ae62f097a8ea238c9bfaf9e0cbdf3a02ecc36d14c45e",
      "blockNumber": "0x22227cb",
      "gasUsed": "0xc711",
      "effectiveGasPrice": "0x12533e",
      "blobGasUsed": "0x79e0",
      "from": "0xa0e87a70ae6652b5727217b8cca43898cb02f56e",
      "to": "0xf75b06ef8c9d77fc838d3903331e3587d2c4aef6",
      "contractAddress": null,
      "daFootprintGasScalar": "0x138",
      "l1BaseFeeScalar": "0x44d",
      "l1BlobBaseFee": "0x1",
      "l1BlobBaseFeeScalar": "0xa118b",
      "l1Fee": "0x53",
      "l1GasPrice": "0xa",
      "l1GasUsed": "0x640"
    },
    {
      "status": "0x1",
      "cumulativeGasUsed": "0x29ed85",
      "logs": [
        {
          "address": "0xf75b06ef8c9d77fc838d3903331e3587d2c4aef6",
          "topics": [
            "0x8c5be1e5ebec7d5bd14f71427d1e84f3dd0314c0f7b2291e5b200ac8c7c3b925",
            "0x000000000000000000000000a0e87a70ae6652b5727217b8cca43898cb02f56e",
            "0x00000000000000000000000027bfedcdefed39616428d69964b132fa94932395"
          ],
          "data": "0x0000000000000000000000000000000000000000000000000000000017d78400",
          "blockHash": "0x2ffaaf25b2b606d117a2ae62f097a8ea238c9bfaf9e0cbdf3a02ecc36d14c45e",
          "blockNumber": "0x22227cb",
          "blockTimestamp": "0x6957ae76",
          "transactionHash": "0xd355267722c8f456f598d06f44ff1b8cfd3128f8d4eca89d130aa7e6da84021c",
          "transactionIndex": "0xf",
          "logIndex": "0x6e",
          "removed": false
        }
      ],
      "logsBloom": "0x00000000000000000000000000000000000000000000000000000000000000000000000000000000000000000000000000000000000000000000000000200000000000000008000000000000000000000000000000000008000000000000000050000000000000000000000000000000000000000000000000000000000000000000400000000000000000000000000000000000000000000000000000000000020000000000000000000000000000000000000000000000000080000000000000000000000000000000000000000000000000000000000000000000000000400010000000000000000000000000000000000001004000000000000000000000",
      "type": "0x2",
      "transactionHash": "0xd355267722c8f456f598d06f44ff1b8cfd3128f8d4eca89d130aa7e6da84021c",
      "transactionIndex": "0xf",
      "blockHash": "0x2ffaaf25b2b606d117a2ae62f097a8ea238c9bfaf9e0cbdf3a02ecc36d14c45e",
      "blockNumber": "0x22227cb",
      "gasUsed": "0xb361",
      "effectiveGasPrice": "0x12533e",
      "blobGasUsed": "0x79e0",
      "from": "0xa0e87a70ae6652b5727217b8cca43898cb02f56e",
      "to": "0xf75b06ef8c9d77fc838d3903331e3587d2c4aef6",
      "contractAddress": null,
      "daFootprintGasScalar": "0x138",
      "l1BaseFeeScalar": "0x44d",
      "l1BlobBaseFee": "0x1",
      "l1BlobBaseFeeScalar": "0xa118b",
      "l1Fee": "0x53",
      "l1GasPrice": "0xa",
      "l1GasUsed": "0x640"
    },
    {
      "status": "0x1",
      "cumulativeGasUsed": "0x2edde7",
      "logs": [
        {
          "address": "0x27bfedcdefed39616428d69964b132fa94932395",
          "topics": [
            "0x660fdd79247e0a59eeb02dfb39ca4adb6d063c3deed27daada9fb81434005111",
            "0x8b794ac043f0ad293925b1ac2a32fe5aa67f78ff57955bbb598923c774beed6d",
            "0x000000000000000000000000000000000000000000000015af1d78b58c400000",
            "0x000000000000000000000000000000000000000000000000000000006957ae76"
          ],
          "data": "0x",
          "blockHash": "0x2ffaaf25b2b606d117a2ae62f097a8ea238c9bfaf9e0cbdf3a02ecc36d14c45e",
          "blockNumber": "0x22227cb",
          "blockTimestamp": "0x6957ae76",
          "transactionHash": "0x323a60d7824537e1cec703e396df31a78a230056a27aeb6e9b5d333237f99233",
          "transactionIndex": "0x10",
          "logIndex": "0x6f",
          "removed": false
        },
        {
          "address": "0x27bfedcdefed39616428d69964b132fa94932395",
          "topics": [
            "0x5d0c5776b8c52477936b6b38d56169ac2da40c92c610d1dde03ed723d8791948",
            "0x8b794ac043f0ad293925b1ac2a32fe5aa67f78ff57955bbb598923c774beed6d",
            "0x000000000000000000000000000000000000000000000000000000006957ae76"
          ],
          "data": "0x",
          "blockHash": "0x2ffaaf25b2b606d117a2ae62f097a8ea238c9bfaf9e0cbdf3a02ecc36d14c45e",
          "blockNumber": "0x22227cb",
          "blockTimestamp": "0x6957ae76",
          "transactionHash": "0x323a60d7824537e1cec703e396df31a78a230056a27aeb6e9b5d333237f99233",
          "transactionIndex": "0x10",
          "logIndex": "0x70",
          "removed": false
        },
        {
          "address": "0xf75b06ef8c9d77fc838d3903331e3587d2c4aef6",
          "topics": [
            "0xddf252ad1be2c89b69c2b068fc378daa952ba7f163c4a11628f55a4df523b3ef",
            "0x000000000000000000000000a0e87a70ae6652b5727217b8cca43898cb02f56e",
            "0x00000000000000000000000027bfedcdefed39616428d69964b132fa94932395"
          ],
          "data": "0x0000000000000000000000000000000000000000000000000000000017d78400",
          "blockHash": "0x2ffaaf25b2b606d117a2ae62f097a8ea238c9bfaf9e0cbdf3a02ecc36d14c45e",
          "blockNumber": "0x22227cb",
          "blockTimestamp": "0x6957ae76",
          "transactionHash": "0x323a60d7824537e1cec703e396df31a78a230056a27aeb6e9b5d333237f99233",
          "transactionIndex": "0x10",
          "logIndex": "0x71",
          "removed": false
        },
        {
          "address": "0x1627bb547c9ce9a9ddb7010807880ccd46bda91f",
          "topics": [
            "0xddf252ad1be2c89b69c2b068fc378daa952ba7f163c4a11628f55a4df523b3ef",
            "0x00000000000000000000000027bfedcdefed39616428d69964b132fa94932395",
            "0x000000000000000000000000a0e87a70ae6652b5727217b8cca43898cb02f56e"
          ],
          "data": "0x000000000000000000000000000000000000000000000001158e460913d00000",
          "blockHash": "0x2ffaaf25b2b606d117a2ae62f097a8ea238c9bfaf9e0cbdf3a02ecc36d14c45e",
          "blockNumber": "0x22227cb",
          "blockTimestamp": "0x6957ae76",
          "transactionHash": "0x323a60d7824537e1cec703e396df31a78a230056a27aeb6e9b5d333237f99233",
          "transactionIndex": "0x10",
          "logIndex": "0x72",
          "removed": false
        },
        {
          "address": "0x1627bb547c9ce9a9ddb7010807880ccd46bda91f",
          "topics": [
            "0xddf252ad1be2c89b69c2b068fc378daa952ba7f163c4a11628f55a4df523b3ef",
            "0x00000000000000000000000027bfedcdefed39616428d69964b132fa94932395",
            "0x000000000000000000000000a0e87a70ae6652b5727217b8cca43898cb02f56e"
          ],
          "data": "0x000000000000000000000000000000000000000000000004563918244f400000",
          "blockHash": "0x2ffaaf25b2b606d117a2ae62f097a8ea238c9bfaf9e0cbdf3a02ecc36d14c45e",
          "blockNumber": "0x22227cb",
          "blockTimestamp": "0x6957ae76",
          "transactionHash": "0x323a60d7824537e1cec703e396df31a78a230056a27aeb6e9b5d333237f99233",
          "transactionIndex": "0x10",
          "logIndex": "0x73",
          "removed": false
        },
        {
          "address": "0x27bfedcdefed39616428d69964b132fa94932395",
          "topics": [
            "0x9eaa3cf31177f1a5ddad8576b63320fb2e319ed06ac0a9c801b82eae6b70f386",
            "0x80faf7fa53ac6fb1917df6d3d873f5812468dc281b8914330d5416b44e368bdc",
            "0x000000000000000000000000000000000000000000000000000000006957ae76"
          ],
          "data": "0x8b794ac043f0ad293925b1ac2a32fe5aa67f78ff57955bbb598923c774beed6d",
          "blockHash": "0x2ffaaf25b2b606d117a2ae62f097a8ea238c9bfaf9e0cbdf3a02ecc36d14c45e",
          "blockNumber": "0x22227cb",
          "blockTimestamp": "0x6957ae76",
          "transactionHash": "0x323a60d7824537e1cec703e396df31a78a230056a27aeb6e9b5d333237f99233",
          "transactionIndex": "0x10",
          "logIndex": "0x74",
          "removed": false
        }
      ],
      "logsBloom": "0x00000004000000000000000000000000000000000000000000000000000000000000000000100000000000000004000000000400000000000000000000000000000000000008000000000008000000200000000000000008040000000020000050000000000000800100000204400000000400000000000000000010000000000000400000040000000000000000000000000000000000000000000000000000000200000020000000000000000000000000000000000000000080000000000001000007000000800000000000300000040000000000000000000000000000400000000000000000000010000000000000020001004002000000000001000000",
      "type": "0x2",
      "transactionHash": "0x323a60d7824537e1cec703e396df31a78a230056a27aeb6e9b5d333237f99233",
      "transactionIndex": "0x10",
      "blockHash": "0x2ffaaf25b2b606d117a2ae62f097a8ea238c9bfaf9e0cbdf3a02ecc36d14c45e",
      "blockNumber": "0x22227cb",
      "gasUsed": "0x4f062",
      "effectiveGasPrice": "0x12533e",
      "blobGasUsed": "0x7ec0",
      "from": "0xa0e87a70ae6652b5727217b8cca43898cb02f56e",
      "to": "0x27bfedcdefed39616428d69964b132fa94932395",
      "contractAddress": null,
      "daFootprintGasScalar": "0x138",
      "l1BaseFeeScalar": "0x44d",
      "l1BlobBaseFee": "0x1",
      "l1BlobBaseFeeScalar": "0xa118b",
      "l1Fee": "0x57",
      "l1GasPrice": "0xa",
      "l1GasUsed": "0x68a"
    }
  ],
  "libraries": [],
  "pending": [],
  "returns": {},
  "timestamp": 1767353974,
  "chain": 84532,
  "commit": null
}