{
  "transactions": [
    {
      "hash": "0xca372cbcb2b0209c8e1130454ab9bca5839f005dc47956875dbb4574302deea5",
      "transactionType": "CALL",
      "contractName": null,
      "contractAddress": "0x1627bb547c9ce9a9ddb7010807880ccd46bda91f",
      "function": "mint(address,uint256)",
      "arguments": [
        "0xa0e87A70AE6652B5727217b8CCA43898Cb02f56e",
        "100000000000000000000"
      ],
      "transaction": {
        "from": "0xa0e87a70ae6652b5727217b8cca43898cb02f56e",
        "to": "0x1627bb547c9ce9a9ddb7010807880ccd46bda91f",
        "gas": "0xb6f4",
        "value": "0x0",
        "input": "0x40c10f19000000000000000000000000a0e87a70ae6652b5727217b8cca43898cb02f56e0000000000000000000000000000000000000000000000056bc75e2d63100000",
        "nonce": "0x93",
        "chainId": "0x14a34"
      },
      "additionalContracts": [],
      "isFixedGasLimit": false
    },
    {
      "hash": "0xd340fae4b206e1da4c279e2f5e72a30263e48ac5f5760090707adf6e05f644d9",
      "transactionType": "CALL",
      "contractName": null,
      "contractAddress": "0x1627bb547c9ce9a9ddb7010807880ccd46bda91f",
      "function": "approve(address,uint256)",
      "arguments": [
        "0xdB2D8E8AD3feEFDf8429de1a3FA995b618421929",
        "100000000000000000000"
      ],
      "transaction": {
        "from": "0xa0e87a70ae6652b5727217b8cca43898cb02f56e",
        "to": "0x1627bb547c9ce9a9ddb7010807880ccd46bda91f",
        "gas": "0x1069d",
        "value": "0x0",
        "input": "0x095ea7b3000000000000000000000000db2d8e8ad3feefdf8429de1a3fa995b6184219290000000000000000000000000000000000000000000000056bc75e2d63100000",
        "nonce": "0x94",
        "chainId": "0x14a34"
      },
      "additionalContracts": [],
      "isFixedGasLimit": false
    },
    {
      "hash": "0xef188cb79a22b0bae12cef178fdd48cee6fdc9de60f63f167b27cad764a5af28",
      "transactionType": "CALL",
      "contractName": null,
      "contractAddress": "0xdb2d8e8ad3feefdf8429de1a3fa995b618421929",
      "function": "createPool((address,address,address,uint256,uint256,uint256,uint256,uint256,uint256))",
      "arguments": [
        "(0xa0e87A70AE6652B5727217b8CCA43898Cb02f56e, 0x1627bb547C9ce9A9DdB7010807880cCd46BDa91F, 0x61e101bA661c151042E96340514AD210D13A541C, 20000000000000000000, 100000000000000000000, 1000000000000000000000, 172800, 1000, 0)"
      ],
      "transaction": {
        "from": "0xa0e87a70ae6652b5727217b8cca43898cb02f56e",
        "to": "0xdb2d8e8ad3feefdf8429de1a3fa995b618421929",
        "gas": "0x532e9",
        "value": "0x0",
        "input": "0x7124c55f000000000000000000000000a0e87a70ae6652b5727217b8cca43898cb02f56e0000000000000000000000001627bb547c9ce9a9ddb7010807880ccd46bda91f00000000000000000000000061e101ba661c151042e96340514ad210d13a541c000000000000000000000000000000000000000000000001158e460913d000000000000000000000000000000000000000000000000000056bc75e2d6310000000000000000000000000000000000000000000000000003635c9adc5dea00000000000000000000000000000000000000000000000000000000000000002a30000000000000000000000000000000000000000000000000000000000000003e80000000000000000000000000000000000000000000000000000000000000000",
        "nonce": "0x95",
        "chainId": "0x14a34"
      },
      "additionalContracts": [],
      "isFixedGasLimit": false
    }
  ],
  "receipts": [
    {
      "status": "0x1",
      "cumulativeGasUsed": "0x53bf1c",
      "logs": [
        {
          "address": "0x1627bb547c9ce9a9ddb7010807880ccd46bda91f",
          "topics": [
            "0xddf252ad1be2c89b69c2b068fc378daa952ba7f163c4a11628f55a4df523b3ef",
            "0x0000000000000000000000000000000000000000000000000000000000000000",
            "0x000000000000000000000000a0e87a70ae6652b5727217b8cca43898cb02f56e"
          ],
          "data": "0x0000000000000000000000000000000000000000000000056bc75e2d63100000",
          "blockHash": "0x73a643d63c252160d68c47a9654e3f337f9c0fad26bcc1d07d60c984b2d3314d",
          "blockNumber": "0x22229df",
          "blockTimestamp": "0x6957b29e",
          "transactionHash": "0xca372cbcb2b0209c8e1130454ab9bca5839f005dc47956875dbb4574302deea5",
          "transactionIndex": "0x16",
          "logIndex": "0x111",
          "removed": false
        }
      ],
      "logsBloom": "0x00000000000000000000000000000000000000000000000000000000000000000000000000000000000000000000000000000000000000000000000000000000000000000000000000000008000000200000000000000000000000000000000010000000020000000000000004000800000000000000000000000010000000000000400000000000000000000000000000000000000000000000000000000000000000000000000000000000000000000000000000000000000080000000000000000002000000000000000000000000040000000000000000000000000020000000000000000000000000000000000000000000000000000000000000000000",
      "type": "0x2",
      "transactionHash": "0xca372cbcb2b0209c8e1130454ab9bca5839f005dc47956875dbb4574302deea5",
      "transactionIndex": "0x16",
      "blockHash": "0x73a643d63c252160d68c47a9654e3f337f9c0fad26bcc1d07d60c984b2d3314d",
      "blockNumber": "0x22229df",
      "gasUsed": "0x8475",
      "effectiveGasPrice": "0x124f80",
      "blobGasUsed": "0x79e0",
      "from": "0xa0e87a70ae6652b5727217b8cca43898cb02f56e",
      "to": "0x1627bb547c9ce9a9ddb7010807880ccd46bda91f",
      "contractAddress": null,
      "daFootprintGasScalar": "0x138",
      "l1BaseFeeScalar": "0x44d",
      "l1BlobBaseFee": "0x1",
      "l1BlobBaseFeeScalar": "0xa118b",
      "l1Fee": "0x53",
      "l1GasPrice": "0xa",
      "l1GasUsed": "0x640"
    },
    {
      "status": "0x1",
      "cumulativeGasUsed": "0x5472ad",
      "logs": [
        {
          "address": "0x1627bb547c9ce9a9ddb7010807880ccd46bda91f",
          "topics": [
            "0x8c5be1e5ebec7d5bd14f71427d1e84f3dd0314c0f7b2291e5b200ac8c7c3b925",
            "0x000000000000000000000000a0e87a70ae6652b5727217b8cca43898cb02f56e",
            "0x000000000000000000000000db2d8e8ad3feefdf8429de1a3fa995b618421929"
          ],
          "data": "0x0000000000000000000000000000000000000000000000056bc75e2d63100000",
          "blockHash": "0x73a643d63c252160d68c47a9654e3f337f9c0fad26bcc1d07d60c984b2d3314d",
          "blockNumber": "0x22229df",
          "blockTimestamp": "0x6957b29e",
          "transactionHash": "0xd340fae4b206e1da4c279e2f5e72a30263e48ac5f5760090707adf6e05f644d9",
          "transactionIndex": "0x17",
          "logIndex": "0x112",
          "removed": false
        }
      ],
      "logsBloom": "0x00000000000000000000000000000000000000000000000000000000000000000000000000000000000000000000000000000000000000000000010000200000080000000000000000000000000000200000000000000000000000000000000010000000000000000000000004000000000000000000000000000000000000000000400000000000000000000000000000000000000000000000000000000000020000000000000000000000000000000000000000000000000080000000000000000000000000000000000000000000040000000000000000000000000000000010000000000000000000010000000000000000000000000000000000000000",
      "type": "0x2",
      "transactionHash": "0xd340fae4b206e1da4c279e2f5e72a30263e48ac5f5760090707adf6e05f644d9",
      "transactionIndex": "0x17",
      "blockHash": "0x73a643d63c252160d68c47a9654e3f337f9c0fad26bcc1d07d60c984b2d3314d",
      "blockNumber": "0x22229df",
      "gasUsed": "0xb391",
      "effectiveGasPrice": "0x124f80",
      "blobGasUsed": "0x79e0",
      "from": "0xa0e87a70ae6652b5727217b8cca43898cb02f56e",
      "to": "0x1627bb547c9ce9a9ddb7010807880ccd46bda91f",
      "contractAddress": null,
      "daFootprintGasScalar": "0x138",
      "l1BaseFeeScalar": "0x44d",
      "l1BlobBaseFee": "0x1",
      "l1BlobBaseFeeScalar": "0xa118b",
      "l1Fee": "0x53",
      "l1GasPrice": "0xa",
      "l1GasUsed": "0x640"
    },
    {
      "status": "0x1",
      "cumulativeGasUsed": "0x58363c",
      "logs": [
        {
          "address": "0x1627bb547c9ce9a9ddb7010807880ccd46bda91f",
          "topics": [
            "0xddf252ad1be2c89b69c2b068fc378daa952ba7f163c4a11628f55a4df523b3ef",
            "0x000000000000000000000000a0e87a70ae6652b5727217b8cca43898cb02f56e",
            "0x000000000000000000000000db2d8e8ad3feefdf8429de1a3fa995b618421929"
          ],
          "data": "0x0000000000000000000000000000000000000000000000056bc75e2d63100000",
          "blockHash": "0x73a643d63c252160d68c47a9654e3f337f9c0fad26bcc1d07d60c984b2d3314d",
          "blockNumber": "0x22229df",
          "blockTimestamp": "0x6957b29e",
          "transactionHash": "0xef188cb79a22b0bae12cef178fdd48cee6fdc9de60f63f167b27cad764a5af28",
          "transactionIndex": "0x18",
          "logIndex": "0x113",
          "removed": false
        },
        {
          "address": "0xdb2d8e8ad3feefdf8429de1a3fa995b618421929",
          "topics": [
            "0x3fbefbcbe89a8215cd4eed0234b07327d18e984324c67e8fd568e9894555ac39",
            "0x075f5265ee34ab3f7959e4375c9a4df918662315bb95d09fbe43f98158eaa7ff",
            "0x83bd38c209257695bfc796761a87e4fa3e5b1e3d813b3691f8afb470d24ee456",
            "0x000000000000000000000000000000000000000000000000000000006957b29e"
          ],
          "data": "0x",
          "blockHash": "0x73a643d63c252160d68c47a9654e3f337f9c0fad26bcc1d07d60c984b2d3314d",
          "blockNumber": "0x22229df",
          "blockTimestamp": "0x6957b29e",
          "transactionHash": "0xef188cb79a22b0bae12cef178fdd48cee6fdc9de60f63f167b27cad764a5af28",
          "transactionIndex": "0x18",
          "logIndex": "0x114",
          "removed": false
        }
      ],
      "logsBloom": "0x00000000000000000000000000000000000000000000000000000000000000000000000000000000000080020000000000000000000000000000010000000000080000000000000000000008000000200000000000000000000000000100000010000000000000000000000004000000080000001000000000200010000000040000400000000000000000000000000000000000200000000000000000000000000000000000000000000000000000000000000000000000000080000000000044000002000000200000000000000000040000000000000008000000000000000100000000040000000000010000000000000000000000010000000000000000",
      "type": "0x2",
      "transactionHash": "0xef188cb79a22b0bae12cef178fdd48cee6fdc9de60f63f167b27cad764a5af28",
      "transactionIndex": "0x18",
      "blockHash": "0x73a643d63c252160d68c47a9654e3f337f9c0fad26bcc1d07d60c984b2d3314d",
      "blockNumber": "0x22229df",
      "gasUsed": "0x3c38f",
      "effectiveGasPrice": "0x124f80",
      "blobGasUsed": "0xda28",
      "from": "0xa0e87a70ae6652b5727217b8cca43898cb02f56e",
      "to": "0xdb2d8e8ad3feefdf8429de1a3fa995b618421929",
      "contractAddress": null,
      "daFootprintGasScalar": "0x138",
      "l1BaseFeeScalar": "0x44d",
      "l1BlobBaseFee": "0x1",
      "l1BlobBaseFeeScalar": "0xa118b",
      "l1Fee": "0x96",
      "l1GasPrice": "0xa",
      "l1GasUsed": "0xb3e"
    }
  ],
  "libraries": [],
  "pending": [],
  "returns": {},
  "timestamp": 1767355039,
  "chain": 84532,
  "commit": null
}