{
  "transactions": [
    {
      "hash": "0x679a394e2256f4241c393c65466e709efbf82d38e0d63c5af0ee7b0816ca4b10",
      "transactionType": "CALL",
      "contractName": null,
      "contractAddress": "0x1627bb547c9ce9a9ddb7010807880ccd46bda91f",
      "function": "mint(address,uint256)",
      "arguments": [
        "0xa0e87A70AE6652B5727217b8CCA43898Cb02f56e",
        "1000000000000000000000"
      ],
      "transaction": {
        "from": "0xa0e87a70ae6652b5727217b8cca43898cb02f56e",
        "to": "0x1627bb547c9ce9a9ddb7010807880ccd46bda91f",
        "gas": "0xb6f4",
        "value": "0x0",
        "input": "0x40c10f19000000000000000000000000a0e87a70ae6652b5727217b8cca43898cb02f56e00000000000000000000000000000000000000000000003635c9adc5dea00000",
        "nonce": "0x99",
        "chainId": "0x14a34"
      },
      "additionalContracts": [],
      "isFixedGasLimit": false
    },
    {
      "hash": "0x155ef742dbd17f3a335c33e8fdac262a1ca4a6d67935af3129552170acde9691",
      "transactionType": "CALL",
      "contractName": null,
      "contractAddress": "0x1627bb547c9ce9a9ddb7010807880ccd46bda91f",
      "function": "approve(address,uint256)",
      "arguments": [
        "0xdB2D8E8AD3feEFDf8429de1a3FA995b618421929",
        "1000000000000000000000"
      ],
      "transaction": {
        "from": "0xa0e87a70ae6652b5727217b8cca43898cb02f56e",
        "to": "0x1627bb547c9ce9a9ddb7010807880ccd46bda91f",
        "gas": "0x1069d",
        "value": "0x0",
        "input": "0x095ea7b3000000000000000000000000db2d8e8ad3feefdf8429de1a3fa995b61842192900000000000000000000000000000000000000000000003635c9adc5dea00000",
        "nonce": "0x9a",
        "chainId": "0x14a34"
      },
      "additionalContracts": [],
      "isFixedGasLimit": false
    },
    {
      "hash": "0x7399f1b1152a4d30933cb3713e05c62df1555fddab6070c7c2a6b6dbabb56a3d",
      "transactionType": "CALL",
      "contractName": null,
      "contractAddress": "0xdb2d8e8ad3feefdf8429de1a3fa995b618421929",
      "function": "updatePool((address,address,address,uint256,uint256,uint256,uint256,uint256,uint256))",
      "arguments": [
        "(0xa0e87A70AE6652B5727217b8CCA43898Cb02f56e, 0x1627bb547C9ce9A9DdB7010807880cCd46BDa91F, 0x61e101bA661c151042E96340514AD210D13A541C, 40000000000000000000, 1000000000000000000000, 1000000000000000000000, 172800, 1000, 100000000000000000000)"
      ],
      "transaction": {
        "from": "0xa0e87a70ae6652b5727217b8cca43898cb02f56e",
        "to": "0xdb2d8e8ad3feefdf8429de1a3fa995b618421929",
        "gas": "0x23698",
        "value": "0x0",
        "input": "0xe4917e3f000000000000000000000000a0e87a70ae6652b5727217b8cca43898cb02f56e0000000000000000000000001627bb547c9ce9a9ddb7010807880ccd46bda91f00000000000000000000000061e101ba661c151042e96340514ad210d13a541c0000000000000000000000000000000000000000000000022b1c8c1227a0000000000000000000000000000000000000000000000000003635c9adc5dea0000000000000000000000000000000000000000000000000003635c9adc5dea00000000000000000000000000000000000000000000000000000000000000002a30000000000000000000000000000000000000000000000000000000000000003e80000000000000000000000000000000000000000000000056bc75e2d63100000",
        "nonce": "0x9b",
        "chainId": "0x14a34"
      },
      "additionalContracts": [],
      "isFixedGasLimit": false
    }
  ],
  "receipts": [
    {
      "status": "0x1",
      "cumulativeGasUsed": "0x19416d",
      "logs": [
        {
          "address": "0x1627bb547c9ce9a9ddb7010807880ccd46bda91f",
          "topics": [
            "0xddf252ad1be2c89b69c2b068fc378daa952ba7f163c4a11628f55a4df523b3ef",
            "0x0000000000000000000000000000000000000000000000000000000000000000",
            "0x000000000000000000000000a0e87a70ae6652b5727217b8cca43898cb02f56e"
          ],
          "data": "0x00000000000000000000000000000000000000000000003635c9adc5dea00000",
          "blockHash": "0xc877e81c96943be2364765a16c67fd1c8bbc8e1774ea330e8f7ae97a739ca974",
          "blockNumber": "0x222ae40",
          "blockTimestamp": "0x6958bb60",
          "transactionHash": "0x679a394e2256f4241c393c65466e709efbf82d38e0d63c5af0ee7b0816ca4b10",
          "transactionIndex": "0x4",
          "logIndex": "0x3",
          "removed": false
        }
      ],
      "logsBloom": "0x00000000000000000000000000000000000000000000000000000000000000000000000000000000000000000000000000000000000000000000000000000000000000000000000000000008000000200000000000000000000000000000000010000000020000000000000004000800000000000000000000000010000000000000400000000000000000000000000000000000000000000000000000000000000000000000000000000000000000000000000000000000000080000000000000000002000000000000000000000000040000000000000000000000000020000000000000000000000000000000000000000000000000000000000000000000",
      "type": "0x2",
      "transactionHash": "0x679a394e2256f4241c393c65466e709efbf82d38e0d63c5af0ee7b0816ca4b10",
      "transactionIndex": "0x4",
      "blockHash": "0xc877e81c96943be2364765a16c67fd1c8bbc8e1774ea330e8f7ae97a739ca974",
      "blockNumber": "0x222ae40",
      "gasUsed": "0x8475",
      "effectiveGasPrice": "0x124f80",
      "blobGasUsed": "0x79e0",
      "from": "0xa0e87a70ae6652b5727217b8cca43898cb02f56e",
      "to": "0x1627bb547c9ce9a9ddb7010807880ccd46bda91f",
      "contractAddress": null,
      "daFootprintGasScalar": "0x138",
      "l1BaseFeeScalar": "0x44d",
      "l1BlobBaseFee": "0x1",
      "l1BlobBaseFeeScalar": "0xa118b",
      "l1Fee": "0x51",
      "l1GasPrice": "0x9",
      "l1GasUsed": "0x640"
    },
    {
      "status": "0x1",
      "cumulativeGasUsed": "0x19f4fe",
      "logs": [
        {
          "address": "0x1627bb547c9ce9a9ddb7010807880ccd46bda91f",
          "topics": [
            "0x8c5be1e5ebec7d5bd14f71427d1e84f3dd0314c0f7b2291e5b200ac8c7c3b925",
            "0x000000000000000000000000a0e87a70ae6652b5727217b8cca43898cb02f56e",
            "0x000000000000000000000000db2d8e8ad3feefdf8429de1a3fa995b618421929"
          ],
          "data": "0x00000000000000000000000000000000000000000000003635c9adc5dea00000",
          "blockHash": "0xc877e81c96943be2364765a16c67fd1c8bbc8e1774ea330e8f7ae97a739ca974",
          "blockNumber": "0x222ae40",
          "blockTimestamp": "0x6958bb60",
          "transactionHash": "0x155ef742dbd17f3a335c33e8fdac262a1ca4a6d67935af3129552170acde9691",
          "transactionIndex": "0x5",
          "logIndex": "0x4",
          "removed": false
        }
      ],
      "logsBloom": "0x00000000000000000000000000000000000000000000000000000000000000000000000000000000000000000000000000000000000000000000010000200000080000000000000000000000000000200000000000000000000000000000000010000000000000000000000004000000000000000000000000000000000000000000400000000000000000000000000000000000000000000000000000000000020000000000000000000000000000000000000000000000000080000000000000000000000000000000000000000000040000000000000000000000000000000010000000000000000000010000000000000000000000000000000000000000",
      "type": "0x2",
      "transactionHash": "0x155ef742dbd17f3a335c33e8fdac262a1ca4a6d67935af3129552170acde9691",
      "transactionIndex": "0x5",
      "blockHash": "0xc877e81c96943be2364765a16c67fd1c8bbc8e1774ea330e8f7ae97a739ca974",
      "blockNumber": "0x222ae40",
      "gasUsed": "0xb391",
      "effectiveGasPrice": "0x124f80",
      "blobGasUsed": "0x79e0",
      "from": "0xa0e87a70ae6652b5727217b8cca43898cb02f56e",
      "to": "0x1627bb547c9ce9a9ddb7010807880ccd46bda91f",
      "contractAddress": null,
      "daFootprintGasScalar": "0x138",
      "l1BaseFeeScalar": "0x44d",
      "l1BlobBaseFee": "0x1",
      "l1BlobBaseFeeScalar": "0xa118b",
      "l1Fee": "0x51",
      "l1GasPrice": "0x9",
      "l1GasUsed": "0x640"
    },
    {
      "status": "0x1",
      "cumulativeGasUsed": "0x2cd033",
      "logs": [
        {
          "address": "0x1627bb547c9ce9a9ddb7010807880ccd46bda91f",
          "topics": [
            "0xddf252ad1be2c89b69c2b068fc378daa952ba7f163c4a11628f55a4df523b3ef",
            "0x000000000000000000000000a0e87a70ae6652b5727217b8cca43898cb02f56e",
            "0x000000000000000000000000db2d8e8ad3feefdf8429de1a3fa995b618421929"
          ],
          "data": "0x00000000000000000000000000000000000000000000003635c9adc5dea00000",
          "blockHash": "0xc877e81c96943be2364765a16c67fd1c8bbc8e1774ea330e8f7ae97a739ca974",
          "blockNumber": "0x222ae40",
          "blockTimestamp": "0x6958bb60",
          "transactionHash": "0x7399f1b1152a4d30933cb3713e05c62df1555fddab6070c7c2a6b6dbabb56a3d",
          "transactionIndex": "0x9",
          "logIndex": "0x34",
          "removed": false
        },
        {
          "address": "0xdb2d8e8ad3feefdf8429de1a3fa995b618421929",
          "topics": [
            "0x5d0c5776b8c52477936b6b38d56169ac2da40c92c610d1dde03ed723d8791948",
            "0x83bd38c209257695bfc796761a87e4fa3e5b1e3d813b3691f8afb470d24ee456",
            "0x000000000000000000000000000000000000000000000000000000006958bb60"
          ],
          "data": "0x",
          "blockHash": "0xc877e81c96943be2364765a16c67fd1c8bbc8e1774ea330e8f7ae97a739ca974",
          "blockNumber": "0x222ae40",
          "blockTimestamp": "0x6958bb60",
          "transactionHash": "0x7399f1b1152a4d30933cb3713e05c62df1555fddab6070c7c2a6b6dbabb56a3d",
          "transactionIndex": "0x9",
          "logIndex": "0x35",
          "removed": false
        }
      ],
      "logsBloom": "0x00000000000000000000000000000000000000000000000000000000000000800000000000000000000080020000000000000000000000000000010000000000080000000000000000000008002000200000000000000000000000000000000010000000000000000000000204000000000000000000000000200010000000000000400000000000000000000000000000000000200000000000000000000000000040000000000000000000000000000000000000000000000080000000000000000002000000800000000000200000040000000000000000000000000000000100000000040000000000010000000000000000000000000000000000000000",
      "type": "0x2",
      "transactionHash": "0x7399f1b1152a4d30933cb3713e05c62df1555fddab6070c7c2a6b6dbabb56a3d",
      "transactionIndex": "0x9",
      "blockHash": "0xc877e81c96943be2364765a16c67fd1c8bbc8e1774ea330e8f7ae97a739ca974",
      "blockNumber": "0x222ae40",
      "gasUsed": "0x19a35",
      "effectiveGasPrice": "0x124f80",
      "blobGasUsed": "0xcf30",
      "from": "0xa0e87a70ae6652b5727217b8cca43898cb02f56e",
      "to": "0xdb2d8e8ad3feefdf8429de1a3fa995b618421929",
      "contractAddress": null,
      "daFootprintGasScalar": "0x138",
      "l1BaseFeeScalar": "0x44d",
      "l1BlobBaseFee": "0x1",
      "l1BlobBaseFeeScalar": "0xa118b",
      "l1Fee": "0x8b",
      "l1GasPrice": "0x9",
      "l1GasUsed": "0xaab"
    }
  ],
  "libraries": [],
  "pending": [],
  "returns": {},
  "timestamp": 1767422817,
  "chain": 84532,
  "commit": null
}