{
  "transactions": [
    {
      "hash": "0x122f2cc6ca0060feedc7f3c946c2a47f5f2076b4e58b434904c4959356d89169",
      "transactionType": "CALL",
      "contractName": null,
      "contractAddress": "0xd401f418f15f734e05cc5015dd303e8262f8c368",
      "function": "mint(address,uint256)",
      "arguments": [
        "0xa0e87A70AE6652B5727217b8CCA43898Cb02f56e",
        "10000000000"
      ],
      "transaction": {
        "from": "0xa0e87a70ae6652b5727217b8cca43898cb02f56e",
        "to": "0xd401f418f15f734e05cc5015dd303e8262f8c368",
        "gas": "0x11305",
        "value": "0x0",
        "input": "0x40c10f19000000000000000000000000a0e87a70ae6652b5727217b8cca43898cb02f56e00000000000000000000000000000000000000000000000000000002540be400",
        "nonce": "0x57",
        "chainId": "0x14a34"
      },
      "additionalContracts": [],
      "isFixedGasLimit": false
    },
    {
      "hash": "0x0968d855e438fa4ca9f556121ca03967d58bb53726cffba1b86e2cd9aec01fef",
      "transactionType": "CALL",
      "contractName": null,
      "contractAddress": "0xd401f418f15f734e05cc5015dd303e8262f8c368",
      "function": "approve(address,uint256)",
      "arguments": [
        "0x7c3Ce376717E9F2f2f94F66863c43D95626e02E5",
        "10000000000"
      ],
      "transaction": {
        "from": "0xa0e87a70ae6652b5727217b8cca43898cb02f56e",
        "to": "0xd401f418f15f734e05cc5015dd303e8262f8c368",
        "gas": "0xf7d3",
        "value": "0x0",
        "input": "0x095ea7b30000000000000000000000007c3ce376717e9f2f2f94f66863c43d95626e02e500000000000000000000000000000000000000000000000000000002540be400",
        "nonce": "0x58",
        "chainId": "0x14a34"
      },
      "additionalContracts": [],
      "isFixedGasLimit": false
    },
    {
      "hash": "0x2ceb7ef769cc5d55432766b5ec0acacee48ebba2ede53be4d43a8ecab7013087",
      "transactionType": "CALL",
      "contractName": null,
      "contractAddress": "0x7c3ce376717e9f2f2f94f66863c43d95626e02e5",
      "function": "updatePool((address,address,address,uint256,uint256,uint256,uint256,uint256,uint256))",
      "arguments": [
        "(0xa0e87A70AE6652B5727217b8CCA43898Cb02f56e, 0xd401F418f15F734e05CC5015DD303e8262F8C368, 0xf75b06eF8c9D77fc838d3903331E3587D2C4aeF6, 20000000000000000000, 20000000000, 1000000000000000000000, 172800, 1000, 0)"
      ],
      "transaction": {
        "from": "0xa0e87a70ae6652b5727217b8cca43898cb02f56e",
        "to": "0x7c3ce376717e9f2f2f94f66863c43d95626e02e5",
        "gas": "0x11821",
        "value": "0x0",
        "input": "0xe4917e3f000000000000000000000000a0e87a70ae6652b5727217b8cca43898cb02f56e000000000000000000000000d401f418f15f734e05cc5015dd303e8262f8c368000000000000000000000000f75b06ef8c9d77fc838d3903331e3587d2c4aef6000000000000000000000000000000000000000000000001158e460913d0000000000000000000000000000000000000000000000000000000000004a817c80000000000000000000000000000000000000000000000003635c9adc5dea00000000000000000000000000000000000000000000000000000000000000002a30000000000000000000000000000000000000000000000000000000000000003e80000000000000000000000000000000000000000000000000000000000000000",
        "nonce": "0x59",
        "chainId": "0x14a34"
      },
      "additionalContracts": [],
      "isFixedGasLimit": false
    }
  ],
  "receipts": [
    {
      "status": "0x1",
      "cumulativeGasUsed": "0x525b99",
      "logs": [
        {
          "address": "0xd401f418f15f734e05cc5015dd303e8262f8c368",
          "topics": [
            "0xddf252ad1be2c89b69c2b068fc378daa952ba7f163c4a11628f55a4df523b3ef",
            "0x0000000000000000000000000000000000000000000000000000000000000000",
            "0x000000000000000000000000a0e87a70ae6652b5727217b8cca43898cb02f56e"
          ],
          "data": "0x00000000000000000000000000000000000000000000000000000002540be400",
          "blockHash": "0x1a5c1f9007ae4e3726b1b07f03704e37331af44863d8cb75c33717a72feb09a3",
          "blockNumber": "0x2220f5f",
          "blockTimestamp": "0x69577d9e",
          "transactionHash": "0x122f2cc6ca0060feedc7f3c946c2a47f5f2076b4e58b434904c4959356d89169",
          "transactionIndex": "0x10",
          "logIndex": "0x47",
          "removed": false
        }
      ],
      "logsBloom": "0x00000000000000000000000000000000000000000000000000000000000000000000000000000000000000000000000000000000000000000000000000000000000000000000000000000008000000000000000000000000000000000000000010000000020000000000000000000800000000800000000000000010000000000000400000000000000000000000000100000000000000000000000000000000000000000000000000000000000000000000000000000000000080000000000000000002000000000000000000000000000000000000000000000000000020000000000000000000000000000000000000000400000000000000000000000000",
      "type": "0x2",
      "transactionHash": "0x122f2cc6ca0060feedc7f3c946c2a47f5f2076b4e58b434904c4959356d89169",
      "transactionIndex": "0x10",
      "blockHash": "0x1a5c1f9007ae4e3726b1b07f03704e37331af44863d8cb75c33717a72feb09a3",
      "blockNumber": "0x2220f5f",
      "gasUsed": "0xc71d",
      "effectiveGasPrice": "0x124f80",
      "blobGasUsed": "0x79e0",
      "from": "0xa0e87a70ae6652b5727217b8cca43898cb02f56e",
      "to": "0xd401f418f15f734e05cc5015dd303e8262f8c368",
      "contractAddress": null,
      "daFootprintGasScalar": "0x138",
      "l1BaseFeeScalar": "0x44d",
      "l1BlobBaseFee": "0x1",
      "l1BlobBaseFeeScalar": "0xa118b",
      "l1Fee": "0x53",
      "l1GasPrice": "0xa",
      "l1GasUsed": "0x640"
    },
    {
      "status": "0x1",
      "cumulativeGasUsed": "0x530f06",
      "logs": [
        {
          "address": "0xd401f418f15f734e05cc5015dd303e8262f8c368",
          "topics": [
            "0x8c5be1e5ebec7d5bd14f71427d1e84f3dd0314c0f7b2291e5b200ac8c7c3b925",
            "0x000000000000000000000000a0e87a70ae6652b5727217b8cca43898cb02f56e",
            "0x0000000000000000000000007c3ce376717e9f2f2f94f66863c43d95626e02e5"
          ],
          "data": "0x00000000000000000000000000000000000000000000000000000002540be400",
          "blockHash": "0x1a5c1f9007ae4e3726b1b07f03704e37331af44863d8cb75c33717a72feb09a3",
          "blockNumber": "0x2220f5f",
          "blockTimestamp": "0x69577d9e",
          "transactionHash": "0x0968d855e438fa4ca9f556121ca03967d58bb53726cffba1b86e2cd9aec01fef",
          "transactionIndex": "0x11",
          "logIndex": "0x48",
          "removed": false
        }
      ],
      "logsBloom": "0x00000000000000000000000000000000000000000000000000000000000000000000000000000000000000000000000000000000000000400000000000200000000000000000000000000000000000000000000000000000000000000000000010000000000000000000000000000000000000800000000000000000020000000000400000000000000000000000000100000000000000000000000000000000020000000000000000000000000000000000000000000000000080000000000000000000000000000000000000000000000000001000000000000000000000000010000000000000000000000000000000000400000000000000000000000000",
      "type": "0x2",
      "transactionHash": "0x0968d855e438fa4ca9f556121ca03967d58bb53726cffba1b86e2cd9aec01fef",
      "transactionIndex": "0x11",
      "blockHash": "0x1a5c1f9007ae4e3726b1b07f03704e37331af44863d8cb75c33717a72feb09a3",
      "blockNumber": "0x2220f5f",
      "gasUsed": "0xb36d",
      "effectiveGasPrice": "0x124f80",
      "blobGasUsed": "0x79e0",
      "from": "0xa0e87a70ae6652b5727217b8cca43898cb02f56e",
      "to": "0xd401f418f15f734e05cc5015dd303e8262f8c368",
      "contractAddress": null,
      "daFootprintGasScalar": "0x138",
      "l1BaseFeeScalar": "0x44d",
      "l1BlobBaseFee": "0x1",
      "l1BlobBaseFeeScalar": "0xa118b",
      "l1Fee": "0x53",
      "l1GasPrice": "0xa",
      "l1GasUsed": "0x640"
    },
    {
      "status": "0x1",
      "cumulativeGasUsed": "0x53ce91",
      "logs": [
        {
          "address": "0x7c3ce376717e9f2f2f94f66863c43d95626e02e5",
          "topics": [
            "0x5d0c5776b8c52477936b6b38d56169ac2da40c92c610d1dde03ed723d8791948",
            "0x0a5833e7d465669255dd43689326ec557b1371f2bd45bdee2be00b3ae6c384f5",
            "0x0000000000000000000000000000000000000000000000000000000069577d9e"
          ],
          "data": "0x",
          "blockHash": "0x1a5c1f9007ae4e3726b1b07f03704e37331af44863d8cb75c33717a72feb09a3",
          "blockNumber": "0x2220f5f",
          "blockTimestamp": "0x69577d9e",
          "transactionHash": "0x2ceb7ef769cc5d55432766b5ec0acacee48ebba2ede53be4d43a8ecab7013087",
          "transactionIndex": "0x12",
          "logIndex": "0x49",
          "removed": false
        }
      ],
      "logsBloom": "0x00000000000000040000000000000000000000000000000000000000000000000000000000000000000000000000000000000040000000000000000000000000000000000000000000000200000000000000000000000000000000000000000000000000000000000004000200000000000000000000000000000000000000000000000000000000000000010040000000000000000000000000000000000000000000000000080000000000000000000000000000000000000000000000000000000000000000800000000000200000000000000100000000000000000000000000001000000000000000000000000000000000000000000000000000000000",
      "type": "0x2",
      "transactionHash": "0x2ceb7ef769cc5d55432766b5ec0acacee48ebba2ede53be4d43a8ecab7013087",
      "transactionIndex": "0x12",
      "blockHash": "0x1a5c1f9007ae4e3726b1b07f03704e37331af44863d8cb75c33717a72feb09a3",
      "blockNumber": "0x2220f5f",
      "gasUsed": "0xbf8b",
      "effectiveGasPrice": "0x124f80",
      "blobGasUsed": "0xd680",
      "from": "0xa0e87a70ae6652b5727217b8cca43898cb02f56e",
      "to": "0x7c3ce376717e9f2f2f94f66863c43d95626e02e5",
      "contractAddress": null,
      "daFootprintGasScalar": "0x138",
      "l1BaseFeeScalar": "0x44d",
      "l1BlobBaseFee": "0x1",
      "l1BlobBaseFeeScalar": "0xa118b",
      "l1Fee": "0x93",
      "l1GasPrice": "0xa",
      "l1GasUsed": "0xb09"
    }
  ],
  "libraries": [],
  "pending": [],
  "returns": {},
  "timestamp": 1767341471,
  "chain": 84532,
  "commit": null
}