{
  "transactions": [
    {
      "hash": "0x4c3f7c28675c00b0bd82bc25bebd3746d8e3c49a9e031e4a0bdda4538c90e1fc",
      "transactionType": "CALL",
      "contractName": null,
      "contractAddress": "0x7f5226367954bb30afc0db5f12827c67ca6353e9",
      "function": "mint(address,uint256)",
      "arguments": [
        "0xa0e87A70AE6652B5727217b8CCA43898Cb02f56e",
        "10000000000"
      ],
      "transaction": {
        "from": "0xa0e87a70ae6652b5727217b8cca43898cb02f56e",
        "to": "0x7f5226367954bb30afc0db5f12827c67ca6353e9",
        "gas": "0x11305",
        "value": "0x0",
        "input": "0x40c10f19000000000000000000000000a0e87a70ae6652b5727217b8cca43898cb02f56e00000000000000000000000000000000000000000000000000000002540be400",
        "nonce": "0x4e",
        "chainId": "0x14a34"
      },
      "additionalContracts": [],
      "isFixedGasLimit": false
    },
    {
      "hash": "0x6f80f2a5f27958ac8990f3343823be6dac99e1a2349a45aae8c736ea2519e56c",
      "transactionType": "CALL",
      "contractName": null,
      "contractAddress": "0x7f5226367954bb30afc0db5f12827c67ca6353e9",
      "function": "approve(address,uint256)",
      "arguments": [
        "0x7c3Ce376717E9F2f2f94F66863c43D95626e02E5",
        "10000000000"
      ],
      "transaction": {
        "from": "0xa0e87a70ae6652b5727217b8cca43898cb02f56e",
        "to": "0x7f5226367954bb30afc0db5f12827c67ca6353e9",
        "gas": "0xf7d3",
        "value": "0x0",
        "input": "0x095ea7b30000000000000000000000007c3ce376717e9f2f2f94f66863c43d95626e02e500000000000000000000000000000000000000000000000000000002540be400",
        "nonce": "0x4f",
        "chainId": "0x14a34"
      },
      "additionalContracts": [],
      "isFixedGasLimit": false
    },
    {
      "hash": "0xd21796a7094ed3780aa8104ee5d39d3de6b95b8337893771b1a3af3c84b57ffe",
      "transactionType": "CALL",
      "contractName": null,
      "contractAddress": "0x7c3ce376717e9f2f2f94f66863c43d95626e02e5",
      "function": "createPool((address,address,address,uint256,uint256,uint256,uint256,uint256,uint256))",
      "arguments": [
        "(0xa0e87A70AE6652B5727217b8CCA43898Cb02f56e, 0x7f5226367954BB30AFc0DB5f12827C67CA6353e9, 0xf75b06eF8c9D77fc838d3903331E3587D2C4aeF6, 20000000000000000000, 10000000000, 1000000000000000000000, 172800, 1000, 0)"
      ],
      "transaction": {
        "from": "0xa0e87a70ae6652b5727217b8cca43898cb02f56e",
        "to": "0x7c3ce376717e9f2f2f94f66863c43d95626e02e5",
        "gas": "0x56593",
        "value": "0x0",
        "input": "0x7124c55f000000000000000000000000a0e87a70ae6652b5727217b8cca43898cb02f56e0000000000000000000000007f5226367954bb30afc0db5f12827c67ca6353e9000000000000000000000000f75b06ef8c9d77fc838d3903331e3587d2c4aef6000000000000000000000000000000000000000000000001158e460913d0000000000000000000000000000000000000000000000000000000000002540be40000000000000000000000000000000000000000000000003635c9adc5dea00000000000000000000000000000000000000000000000000000000000000002a30000000000000000000000000000000000000000000000000000000000000003e80000000000000000000000000000000000000000000000000000000000000000",
        "nonce": "0x50",
        "chainId": "0x14a34"
      },
      "additionalContracts": [],
      "isFixedGasLimit": false
    }
  ],
  "receipts": [
    {
      "status": "0x1",
      "cumulativeGasUsed": "0x6b2bb7",
      "logs": [
        {
          "address": "0x7f5226367954bb30afc0db5f12827c67ca6353e9",
          "topics": [
            "0xddf252ad1be2c89b69c2b068fc378daa952ba7f163c4a11628f55a4df523b3ef",
            "0x0000000000000000000000000000000000000000000000000000000000000000",
            "0x000000000000000000000000a0e87a70ae6652b5727217b8cca43898cb02f56e"
          ],
          "data": "0x00000000000000000000000000000000000000000000000000000002540be400",
          "blockHash": "0xa7719c028df6ffa926362d3811bff28240e067fd541ec58f4b9744402aa01720",
          "blockNumber": "0x2218ae9",
          "blockTimestamp": "0x695674b2",
          "transactionHash": "0x4c3f7c28675c00b0bd82bc25bebd3746d8e3c49a9e031e4a0bdda4538c90e1fc",
          "transactionIndex": "0x15",
          "logIndex": "0x4f",
          "removed": false
        }
      ],
      "logsBloom": "0x00000100000000000000000000000000000000000000000000000000000000000000000000000000000000000000000000000000000000000000000000000000000000000000000000000008000000000000000000000000000000000000000010000000020000000000000000000800000000000000000000000010000000000000400000000000000000000000000000000000000000000000000004000000000000000000000000000000000000000000040000000000000080000000000000000002000000000000000000000000000000000000000000000000000020000000000000000000000000000000000000000000000000000000000000000000",
      "type": "0x2",
      "transactionHash": "0x4c3f7c28675c00b0bd82bc25bebd3746d8e3c49a9e031e4a0bdda4538c90e1fc",
      "transactionIndex": "0x15",
      "blockHash": "0xa7719c028df6ffa926362d3811bff28240e067fd541ec58f4b9744402aa01720",
      "blockNumber": "0x2218ae9",
      "gasUsed": "0xc71d",
      "effectiveGasPrice": "0x124f80",
      "blobGasUsed": "0x79e0",
      "from": "0xa0e87a70ae6652b5727217b8cca43898cb02f56e",
      "to": "0x7f5226367954bb30afc0db5f12827c67ca6353e9",
      "contractAddress": null,
      "daFootprintGasScalar": "0x138",
      "l1BaseFeeScalar": "0x44d",
      "l1BlobBaseFee": "0x77",
      "l1BlobBaseFeeScalar": "0xa118b",
      "l1Fee": "0x2a5e",
      "l1GasPrice": "0x6a4",
      "l1GasUsed": "0x640"
    },
    {
      "status": "0x1",
      "cumulativeGasUsed": "0x6bdf24",
      "logs": [
        {
          "address": "0x7f5226367954bb30afc0db5f12827c67ca6353e9",
          "topics": [
            "0x8c5be1e5ebec7d5bd14f71427d1e84f3dd0314c0f7b2291e5b200ac8c7c3b925",
            "0x000000000000000000000000a0e87a70ae6652b5727217b8cca43898cb02f56e",
            "0x0000000000000000000000007c3ce376717e9f2f2f94f66863c43d95626e02e5"
          ],
          "data": "0x00000000000000000000000000000000000000000000000000000002540be400",
          "blockHash": "0xa7719c028df6ffa926362d3811bff28240e067fd541ec58f4b9744402aa01720",
          "blockNumber": "0x2218ae9",
          "blockTimestamp": "0x695674b2",
          "transactionHash": "0x6f80f2a5f27958ac8990f3343823be6dac99e1a2349a45aae8c736ea2519e56c",
          "transactionIndex": "0x16",
          "logIndex": "0x50",
          "removed": false
        }
      ],
      "logsBloom": "0x00000100000000000000000000000000000000000000000000000000000000000000000000000000000000000000000000000000000000400000000000200000000000000000000000000000000000000000000000000000000000000000000010000000000000000000000000000000000000000000000000000000020000000000400000000000000000000000000000000000000000000000000004000000020000000000000000000000000000000000040000000000000080000000000000000000000000000000000000000000000000001000000000000000000000000010000000000000000000000000000000000000000000000000000000000000",
      "type": "0x2",
      "transactionHash": "0x6f80f2a5f27958ac8990f3343823be6dac99e1a2349a45aae8c736ea2519e56c",
      "transactionIndex": "0x16",
      "blockHash": "0xa7719c028df6ffa926362d3811bff28240e067fd541ec58f4b9744402aa01720",
      "blockNumber": "0x2218ae9",
      "gasUsed": "0xb36d",
      "effectiveGasPrice": "0x124f80",
      "blobGasUsed": "0x79e0",
      "from": "0xa0e87a70ae6652b5727217b8cca43898cb02f56e",
      "to": "0x7f5226367954bb30afc0db5f12827c67ca6353e9",
      "contractAddress": null,
      "daFootprintGasScalar": "0x138",
      "l1BaseFeeScalar": "0x44d",
      "l1BlobBaseFee": "0x77",
      "l1BlobBaseFeeScalar": "0xa118b",
      "l1Fee": "0x2a5e",
      "l1GasPrice": "0x6a4",
      "l1GasUsed": "0x640"
    },
    {
      "status": "0x1",
      "cumulativeGasUsed": "0x6f8fcf",
      "logs": [
        {
          "address": "0x7f5226367954bb30afc0db5f12827c67ca6353e9",
          "topics": [
            "0xddf252ad1be2c89b69c2b068fc378daa952ba7f163c4a11628f55a4df523b3ef",
            "0x000000000000000000000000a0e87a70ae6652b5727217b8cca43898cb02f56e",
            "0x0000000000000000000000007c3ce376717e9f2f2f94f66863c43d95626e02e5"
          ],
          "data": "0x00000000000000000000000000000000000000000000000000000002540be400",
          "blockHash": "0xa7719c028df6ffa926362d3811bff28240e067fd541ec58f4b9744402aa01720",
          "blockNumber": "0x2218ae9",
          "blockTimestamp": "0x695674b2",
          "transactionHash": "0xd21796a7094ed3780aa8104ee5d39d3de6b95b8337893771b1a3af3c84b57ffe",
          "transactionIndex": "0x17",
          "logIndex": "0x51",
          "removed": false
        },
        {
          "address": "0x7c3ce376717e9f2f2f94f66863c43d95626e02e5",
          "topics": [
            "0x3fbefbcbe89a8215cd4eed0234b07327d18e984324c67e8fd568e9894555ac39",
            "0x2305a3b99b2f14f7e2226c053fdb32dfff0aeb5b75597ef1d7f3eb64276caa1b",
            "0x45c1b7d17217f0d0eda0a076ea03a9674efe36cb79dc48ef595b6026170eac9f",
            "0x00000000000000000000000000000000000000000000000000000000695674b2"
          ],
          "data": "0x",
          "blockHash": "0xa7719c028df6ffa926362d3811bff28240e067fd541ec58f4b9744402aa01720",
          "blockNumber": "0x2218ae9",
          "blockTimestamp": "0x695674b2",
          "transactionHash": "0xd21796a7094ed3780aa8104ee5d39d3de6b95b8337893771b1a3af3c84b57ffe",
          "transactionIndex": "0x17",
          "logIndex": "0x52",
          "removed": false
        }
      ],
      "logsBloom": "0x00000100000000000000000000000000000000000000800000000000000000000000000000000004000000000000000000000000000000400010000000000000080000000000000000000208000000000000000040000000000000000000000010000000000000000004000000000000000000001000000000000010020000040000400000000000000000000000000000000000000000000000000004100001000000000000000000040000000000000000060000000000000080000000000000000002000000000000000000000000000000001100000000000000000000000000000000000000000000000000000000000000000000010000000000000000",
      "type": "0x2",
      "transactionHash": "0xd21796a7094ed3780aa8104ee5d39d3de6b95b8337893771b1a3af3c84b57ffe",
      "transactionIndex": "0x17",
      "blockHash": "0xa7719c028df6ffa926362d3811bff28240e067fd541ec58f4b9744402aa01720",
      "blockNumber": "0x2218ae9",
      "gasUsed": "0x3b0ab",
      "effectiveGasPrice": "0x124f80",
      "blobGasUsed": "0xd680",
      "from": "0xa0e87a70ae6652b5727217b8cca43898cb02f56e",
      "to": "0x7c3ce376717e9f2f2f94f66863c43d95626e02e5",
      "contractAddress": null,
      "daFootprintGasScalar": "0x138",
      "l1BaseFeeScalar": "0x44d",
      "l1BlobBaseFee": "0x77",
      "l1BlobBaseFeeScalar": "0xa118b",
      "l1Fee": "0x4ad1",
      "l1GasPrice": "0x6a4",
      "l1GasUsed": "0xb09"
    }
  ],
  "libraries": [],
  "pending": [],
  "returns": {},
  "timestamp": 1767273651,
  "chain": 84532,
  "commit": null
}