{
  "transactions": [
    {
      "hash": "0x28d4d6089c632f13cfbeaf289cd6a61fa59b6c3609b063faa4c623df1890d889",
      "transactionType": "CALL",
      "contractName": null,
      "contractAddress": "0x1d5f2de119c1014a22fbf3d962e402fbdad9b61b",
      "function": "giveLoan(uint256,bytes32)",
      "arguments": [
        "0",
        "0x934bea3911b34b7c04040011b37021ae774419827036b5d09bb2a6179a930a73"
      ],
      "transaction": {
        "from": "0xa0e87a70ae6652b5727217b8cca43898cb02f56e",
        "to": "0x1d5f2de119c1014a22fbf3d962e402fbdad9b61b",
        "gas": "0x30882",
        "value": "0x0",
        "input": "0x7a599a610000000000000000000000000000000000000000000000000000000000000000934bea3911b34b7c04040011b37021ae774419827036b5d09bb2a6179a930a73",
        "nonce": "0xce",
        "chainId": "0x14a34"
      },
      "additionalContracts": [],
      "isFixedGasLimit": false
    }
  ],
  "receipts": [
    {
      "status": "0x1",
      "cumulativeGasUsed": "0x63cd64",
      "logs": [
        {
          "address": "0x1d5f2de119c1014a22fbf3d962e402fbdad9b61b",
          "topics": [
            "0x660fdd79247e0a59eeb02dfb39ca4adb6d063c3deed27daada9fb81434005111",
            "0x83bd38c209257695bfc796761a87e4fa3e5b1e3d813b3691f8afb470d24ee456",
            "0x00000000000000000000000000000000000000000000d3c21bcf09c066522540",
            "0x000000000000000000000000000000000000000000000000000000006958d26e"
          ],
          "data": "0x",
          "blockHash": "0x3501db3a45640d2bf5989063f16da8c4a4d03f3b30003b7567aafde5f2706166",
          "blockNumber": "0x222b9c7",
          "blockTimestamp": "0x6958d26e",
          "transactionHash": "0x28d4d6089c632f13cfbeaf289cd6a61fa59b6c3609b063faa4c623df1890d889",
          "transactionIndex": "0x11",
          "logIndex": "0x11a",
          "removed": false
        },
        {
          "address": "0x1d5f2de119c1014a22fbf3d962e402fbdad9b61b",
          "topics": [
            "0x5d0c5776b8c52477936b6b38d56169ac2da40c92c610d1dde03ed723d8791948",
            "0x83bd38c209257695bfc796761a87e4fa3e5b1e3d813b3691f8afb470d24ee456",
            "0x000000000000000000000000000000000000000000000000000000006958d26e"
          ],
          "data": "0x",
          "blockHash": "0x3501db3a45640d2bf5989063f16da8c4a4d03f3b30003b7567aafde5f2706166",
          "blockNumber": "0x222b9c7",
          "blockTimestamp": "0x6958d26e",
          "transactionHash": "0x28d4d6089c632f13cfbeaf289cd6a61fa59b6c3609b063faa4c623df1890d889",
          "transactionIndex": "0x11",
          "logIndex": "0x11b",
          "removed": false
        },
        {
          "address": "0x1d5f2de119c1014a22fbf3d962e402fbdad9b61b",
          "topics": [
            "0x660fdd79247e0a59eeb02dfb39ca4adb6d063c3deed27daada9fb81434005111",
            "0x934bea3911b34b7c04040011b37021ae774419827036b5d09bb2a6179a930a73",
            "0x00000000000000000000000000000000000000000000d3bcb0072eb9f4f7d8cb",
            "0x000000000000000000000000000000000000000000000000000000006958d26e"
          ],
          "data": "0x",
          "blockHash": "0x3501db3a45640d2bf5989063f16da8c4a4d03f3b30003b7567aafde5f2706166",
          "blockNumber": "0x222b9c7",
          "blockTimestamp": "0x6958d26e",
          "transactionHash": "0x28d4d6089c632f13cfbeaf289cd6a61fa59b6c3609b063faa4c623df1890d889",
          "transactionIndex": "0x11",
          "logIndex": "0x11c",
          "removed": false
        },
        {
          "address": "0x1d5f2de119c1014a22fbf3d962e402fbdad9b61b",
          "topics": [
            "0x5d0c5776b8c52477936b6b38d56169ac2da40c92c610d1dde03ed723d8791948",
            "0x934bea3911b34b7c04040011b37021ae774419827036b5d09bb2a6179a930a73",
            "0x000000000000000000000000000000000000000000000000000000006958d26e"
          ],
          "data": "0x",
          "blockHash": "0x3501db3a45640d2bf5989063f16da8c4a4d03f3b30003b7567aafde5f2706166",
          "blockNumber": "0x222b9c7",
          "blockTimestamp": "0x6958d26e",
          "transactionHash": "0x28d4d6089c632f13cfbeaf289cd6a61fa59b6c3609b063faa4c623df1890d889",
          "transactionIndex": "0x11",
          "logIndex": "0x11d",
          "removed": false
        },
        {
          "address": "0x1627bb547c9ce9a9ddb7010807880ccd46bda91f",
          "topics": [
            "0xddf252ad1be2c89b69c2b068fc378daa952ba7f163c4a11628f55a4df523b3ef",
            "0x0000000000000000000000001d5f2de119c1014a22fbf3d962e402fbdad9b61b",
            "0x000000000000000000000000a0e87a70ae6652b5727217b8cca43898cb02f56e"
          ],
          "data": "0x0000000000000000000000000000000000000000000000000000033383a601f5",
          "blockHash": "0x3501db3a45640d2bf5989063f16da8c4a4d03f3b30003b7567aafde5f2706166",
          "blockNumber": "0x222b9c7",
          "blockTimestamp": "0x6958d26e",
          "transactionHash": "0x28d4d6089c632f13cfbeaf289cd6a61fa59b6c3609b063faa4c623df1890d889",
          "transactionIndex": "0x11",
          "logIndex": "0x11e",
          "removed": false
        },
        {
          "address": "0x1d5f2de119c1014a22fbf3d962e402fbdad9b61b",
          "topics": [
            "0x496c457854ab9c70c16d2e87969100e0beef07b89071a879e2d36634e5ccab7f",
            "0x0000000000000000000000000000000000000000000000000000000000000000",
            "0x000000000000000000000000000000000000000000000000000000006958d26e"
          ],
          "data": "0x",
          "blockHash": "0x3501db3a45640d2bf5989063f16da8c4a4d03f3b30003b7567aafde5f2706166",
          "blockNumber": "0x222b9c7",
          "blockTimestamp": "0x6958d26e",
          "transactionHash": "0x28d4d6089c632f13cfbeaf289cd6a61fa59b6c3609b063faa4c623df1890d889",
          "transactionIndex": "0x11",
          "logIndex": "0x11f",
          "removed": false
        }
      ],
      "logsBloom": "0x00000000000000000000000080000000000000000000000000000000000000000000000000000000000080000000000000082000000002000000000000000000000000000000000000000008000000200000000000000000000000001000000110000000020000000000000204000800000000010000000000200014000000000000400000000000000000000000000000000000000000000002000000000000000000000000000000000000008000000002000000000100000280000000000000180002000000800002020000300200040000000800000000000000000020000100000000000000000010000000000800000000000000000000000001000000",
      "type": "0x2",
      "transactionHash": "0x28d4d6089c632f13cfbeaf289cd6a61fa59b6c3609b063faa4c623df1890d889",
      "transactionIndex": "0x11",
      "blockHash": "0x3501db3a45640d2bf5989063f16da8c4a4d03f3b30003b7567aafde5f2706166",
      "blockNumber": "0x222b9c7",
      "gasUsed": "0x212f3",
      "effectiveGasPrice": "0x124f80",
      "blobGasUsed": "0x79e0",
      "from": "0xa0e87a70ae6652b5727217b8cca43898cb02f56e",
      "to": "0x1d5f2de119c1014a22fbf3d962e402fbdad9b61b",
      "contractAddress": null,
      "daFootprintGasScalar": "0x138",
      "l1BaseFeeScalar": "0x44d",
      "l1BlobBaseFee": "0x1",
      "l1BlobBaseFeeScalar": "0xa118b",
      "l1Fee": "0x51",
      "l1GasPrice": "0x9",
      "l1GasUsed": "0x640"
    }
  ],
  "libraries": [],
  "pending": [],
  "returns": {},
  "timestamp": 1767428719,
  "chain": 84532,
  "commit": null
}