{
  "transactions": [
    {
      "hash": "0xecb048bcae5c425a6529e8f78f611357c219387b5d1f76145fcaebaab0384bd3",
      "transactionType": "CALL",
      "contractName": null,
      "contractAddress": "0x1627bb547c9ce9a9ddb7010807880ccd46bda91f",
      "function": "mint(address,uint256)",
      "arguments": [
        "0x4c9b70b6cC1FcFd2Aaa41d705FbB9BB962BE0245",
        "100000000000000000000"
      ],
      "transaction": {
        "from": "0x4c9b70b6cc1fcfd2aaa41d705fbb9bb962be0245",
        "to": "0x1627bb547c9ce9a9ddb7010807880ccd46bda91f",
        "gas": "0x12368",
        "value": "0x0",
        "input": "0x40c10f190000000000000000000000004c9b70b6cc1fcfd2aaa41d705fbb9bb962be02450000000000000000000000000000000000000000000000056bc75e2d63100000",
        "nonce": "0x17",
        "chainId": "0x14a34"
      },
      "additionalContracts": [],
      "isFixedGasLimit": false
    },
    {
      "hash": "0x46d5f012e7fa34e671d7235c2d5890267f89845ab52ea8173be467dc334dd998",
      "transactionType": "CALL",
      "contractName": null,
      "contractAddress": "0x1627bb547c9ce9a9ddb7010807880ccd46bda91f",
      "function": "approve(address,uint256)",
      "arguments": [
        "0x3ebF287b6141E636e4A29aEcD1a83e5E057B4554",
        "100000000000000000000"
      ],
      "transaction": {
        "from": "0x4c9b70b6cc1fcfd2aaa41d705fbb9bb962be0245",
        "to": "0x1627bb547c9ce9a9ddb7010807880ccd46bda91f",
        "gas": "0x1069d",
        "value": "0x0",
        "input": "0x095ea7b30000000000000000000000003ebf287b6141e636e4a29aecd1a83e5e057b45540000000000000000000000000000000000000000000000056bc75e2d63100000",
        "nonce": "0x18",
        "chainId": "0x14a34"
      },
      "additionalContracts": [],
      "isFixedGasLimit": false
    },
    {
      "hash": "0x84ec4995bf7543642f9581b6c31f47c87e0d5154657b3bf951db0cef4693d729",
      "transactionType": "CALL",
      "contractName": null,
      "contractAddress": "0x3ebf287b6141e636e4a29aecd1a83e5e057b4554",
      "function": "createPool((address,address,address,uint256,uint256,uint256,uint256,uint256,uint256))",
      "arguments": [
        "(0x4c9b70b6cC1FcFd2Aaa41d705FbB9BB962BE0245, 0x1627bb547C9ce9A9DdB7010807880cCd46BDa91F, 0x61e101bA661c151042E96340514AD210D13A541C, 20000000000000000000, 100000000000000000000, 1000000000000000000000, 172800, 1000, 0)"
      ],
      "transaction": {
        "from": "0x4c9b70b6cc1fcfd2aaa41d705fbb9bb962be0245",
        "to": "0x3ebf287b6141e636e4a29aecd1a83e5e057b4554",
        "gas": "0x50417",
        "value": "0x0",
        "input": "0x7124c55f0000000000000000000000004c9b70b6cc1fcfd2aaa41d705fbb9bb962be02450000000000000000000000001627bb547c9ce9a9ddb7010807880ccd46bda91f00000000000000000000000061e101ba661c151042e96340514ad210d13a541c000000000000000000000000000000000000000000000001158e460913d000000000000000000000000000000000000000000000000000056bc75e2d6310000000000000000000000000000000000000000000000000003635c9adc5dea00000000000000000000000000000000000000000000000000000000000000002a30000000000000000000000000000000000000000000000000000000000000003e80000000000000000000000000000000000000000000000000000000000000000",
        "nonce": "0x19",
        "chainId": "0x14a34"
      },
      "additionalContracts": [],
      "isFixedGasLimit": false
    }
  ],
  "receipts": [
    {
      "status": "0x1",
      "cumulativeGasUsed": "0x94b7f",
      "logs": [
        {
          "address": "0x1627bb547c9ce9a9ddb7010807880ccd46bda91f",
          "topics": [
            "0xddf252ad1be2c89b69c2b068fc378daa952ba7f163c4a11628f55a4df523b3ef",
            "0x0000000000000000000000000000000000000000000000000000000000000000",
            "0x0000000000000000000000004c9b70b6cc1fcfd2aaa41d705fbb9bb962be0245"
          ],
          "data": "0x0000000000000000000000000000000000000000000000056bc75e2d63100000",
          "blockHash": "0xa42c7a2bd0ef84ac43f3b5298b926b8ca5aba05f7c6e8f618e820e76a1121def",
          "blockNumber": "0x222b34a",
          "blockTimestamp": "0x6958c574",
          "transactionHash": "0xecb048bcae5c425a6529e8f78f611357c219387b5d1f76145fcaebaab0384bd3",
          "transactionIndex": "0x4",
          "logIndex": "0x7",
          "removed": false
        }
      ],
      "logsBloom": "0x00000000000000000000000000000000000000000000000000000000000000000000000000000000000000000000000000000000000000000000000000000000010004000000000000000008000000200000000000000000000000000000000000000000820000000000000004000800000000000000000000000010000000000000000000000000000000000000000000000000000000000000000000000000000000000000000000000000000000000000000000000000000000000000000000000002000000000000000000000000040000000000000000000000000020000000000000000000000000000000000000000000000000000000000000000000",
      "type": "0x2",
      "transactionHash": "0xecb048bcae5c425a6529e8f78f611357c219387b5d1f76145fcaebaab0384bd3",
      "transactionIndex": "0x4",
      "blockHash": "0xa42c7a2bd0ef84ac43f3b5298b926b8ca5aba05f7c6e8f618e820e76a1121def",
      "blockNumber": "0x222b34a",
      "gasUsed": "0xc741",
      "effectiveGasPrice": "0x124f80",
      "blobGasUsed": "0x79e0",
      "from": "0x4c9b70b6cc1fcfd2aaa41d705fbb9bb962be0245",
      "to": "0x1627bb547c9ce9a9ddb7010807880ccd46bda91f",
      "contractAddress": null,
      "daFootprintGasScalar": "0x138",
      "l1BaseFeeScalar": "0x44d",
      "l1BlobBaseFee": "0x1",
      "l1BlobBaseFeeScalar": "0xa118b",
      "l1Fee": "0x51",
      "l1GasPrice": "0x9",
      "l1GasUsed": "0x640"
    },
    {
      "status": "0x1",
      "cumulativeGasUsed": "0x24a598",
      "logs": [
        {
          "address": "0x1627bb547c9ce9a9ddb7010807880ccd46bda91f",
          "topics": [
            "0x8c5be1e5ebec7d5bd14f71427d1e84f3dd0314c0f7b2291e5b200ac8c7c3b925",
            "0x0000000000000000000000004c9b70b6cc1fcfd2aaa41d705fbb9bb962be0245",
            "0x0000000000000000000000003ebf287b6141e636e4a29aecd1a83e5e057b4554"
          ],
          "data": "0x0000000000000000000000000000000000000000000000056bc75e2d63100000",
          "blockHash": "0xa42c7a2bd0ef84ac43f3b5298b926b8ca5aba05f7c6e8f618e820e76a1121def",
          "blockNumber": "0x222b34a",
          "blockTimestamp": "0x6958c574",
          "transactionHash": "0x46d5f012e7fa34e671d7235c2d5890267f89845ab52ea8173be467dc334dd998",
          "transactionIndex": "0xa",
          "logIndex": "0x3d",
          "removed": false
        }
      ],
      "logsBloom": "0x00000000000000000000000000000000000000000000000000000000000000000000000000000000000000000000000000000000000000000000000000204000010004000000000000000000000000200000000000000000000000000000000000000000800000000000000004000000000000000000000000000000000000000000000000000008000000000000000000000000000000000000000000000000220000000000000000000000000000000000000000000000000000000000000000000000000000000000000000000000040000000000000000000000000000000010000000000000000000000000000000000000000000000000000000000000",
      "type": "0x2",
      "transactionHash": "0x46d5f012e7fa34e671d7235c2d5890267f89845ab52ea8173be467dc334dd998",
      "transactionIndex": "0xa",
      "blockHash": "0xa42c7a2bd0ef84ac43f3b5298b926b8ca5aba05f7c6e8f618e820e76a1121def",
      "blockNumber": "0x222b34a",
      "gasUsed": "0xb391",
      "effectiveGasPrice": "0x124f80",
      "blobGasUsed": "0x79e0",
      "from": "0x4c9b70b6cc1fcfd2aaa41d705fbb9bb962be0245",
      "to": "0x1627bb547c9ce9a9ddb7010807880ccd46bda91f",
      "contractAddress": null,
      "daFootprintGasScalar": "0x138",
      "l1BaseFeeScalar": "0x44d",
      "l1BlobBaseFee": "0x1",
      "l1BlobBaseFeeScalar": "0xa118b",
      "l1Fee": "0x51",
      "l1GasPrice": "0x9",
      "l1GasUsed": "0x640"
    },
    {
      "status": "0x1",
      "cumulativeGasUsed": "0x28139b",
      "logs": [
        {
          "address": "0x1627bb547c9ce9a9ddb7010807880ccd46bda91f",
          "topics": [
            "0xddf252ad1be2c89b69c2b068fc378daa952ba7f163c4a11628f55a4df523b3ef",
            "0x0000000000000000000000004c9b70b6cc1fcfd2aaa41d705fbb9bb962be0245",
            "0x0000000000000000000000003ebf287b6141e636e4a29aecd1a83e5e057b4554"
          ],
          "data": "0x0000000000000000000000000000000000000000000000056bc75e2d63100000",
          "blockHash": "0xa42c7a2bd0ef84ac43f3b5298b926b8ca5aba05f7c6e8f618e820e76a1121def",
          "blockNumber": "0x222b34a",
          "blockTimestamp": "0x6958c574",
          "transactionHash": "0x84ec4995bf7543642f9581b6c31f47c87e0d5154657b3bf951db0cef4693d729",
          "transactionIndex": "0xb",
          "logIndex": "0x3e",
          "removed": false
        },
        {
          "address": "0x3ebf287b6141e636e4a29aecd1a83e5e057b4554",
          "topics": [
            "0x3fbefbcbe89a8215cd4eed0234b07327d18e984324c67e8fd568e9894555ac39",
            "0x766abb48f4ab52d2c603b3325b6c189b72912612653f2a8be9837c2b16ffe98a",
            "0x934bea3911b34b7c04040011b37021ae774419827036b5d09bb2a6179a930a73",
            "0x000000000000000000000000000000000000000000000000000000006958c574"
          ],
          "data": "0x",
          "blockHash": "0xa42c7a2bd0ef84ac43f3b5298b926b8ca5aba05f7c6e8f618e820e76a1121def",
          "blockNumber": "0x222b34a",
          "blockTimestamp": "0x6958c574",
          "transactionHash": "0x84ec4995bf7543642f9581b6c31f47c87e0d5154657b3bf951db0cef4693d729",
          "transactionIndex": "0xb",
          "logIndex": "0x3f",
          "removed": false
        }
      ],
      "logsBloom": "0x00000000200000000000000000000000000000000100000000000000000000000000000000000000000000000000000000001000000000000000000000004000010004000000001000000008000000200000000000000000000000000000000000000000800000000100000004000000000000001000000000000010000000040000000000000008000000000000000000000000000000000000000001000000200000000400000000000000000000000000000000000000000000000000000000080002000000000002000000000000040000000800000000000000000000000000000000000000000000000000010000000000000000010000800000000000",
      "type": "0x2",
      "transactionHash": "0x84ec4995bf7543642f9581b6c31f47c87e0d5154657b3bf951db0cef4693d729",
      "transactionIndex": "0xb",
      "blockHash": "0xa42c7a2bd0ef84ac43f3b5298b926b8ca5aba05f7c6e8f618e820e76a1121def",
      "blockNumber": "0x222b34a",
      "gasUsed": "0x36e03",
      "effectiveGasPrice": "0x124f80",
      "blobGasUsed": "0xda28",
      "from": "0x4c9b70b6cc1fcfd2aaa41d705fbb9bb962be0245",
      "to": "0x3ebf287b6141e636e4a29aecd1a83e5e057b4554",
      "contractAddress": null,
      "daFootprintGasScalar": "0x138",
      "l1BaseFeeScalar": "0x44d",
      "l1BlobBaseFee": "0x1",
      "l1BlobBaseFeeScalar": "0xa118b",
      "l1Fee": "0x92",
      "l1GasPrice": "0x9",
      "l1GasUsed": "0xb31"
    }
  ],
  "libraries": [],
  "pending": [],
  "returns": {},
  "timestamp": 1767425396,
  "chain": 84532,
  "commit": null
}