{
  "transactions": [
    {
      "hash": "0x05e5d3b72be3826c247338a59b5dfd3b2d5047a0b0e8886f2e05589c298798af",
      "transactionType": "CALL",
      "contractName": null,
      "contractAddress": "0x1627bb547c9ce9a9ddb7010807880ccd46bda91f",
      "function": "mint(address,uint256)",
      "arguments": [
        "0xa0e87A70AE6652B5727217b8CCA43898Cb02f56e",
        "10000000000"
      ],
      "transaction": {
        "from": "0xa0e87a70ae6652b5727217b8cca43898cb02f56e",
        "to": "0x1627bb547c9ce9a9ddb7010807880ccd46bda91f",
        "gas": "0x11305",
        "value": "0x0",
        "input": "0x40c10f19000000000000000000000000a0e87a70ae6652b5727217b8cca43898cb02f56e00000000000000000000000000000000000000000000000000000002540be400",
        "nonce": "0x6c",
        "chainId": "0x14a34"
      },
      "additionalContracts": [],
      "isFixedGasLimit": false
    },
    {
      "hash": "0x0bcf1f834f5e2c6b7c4e1e44a40640215bf45de1845ae3fea60aaa7b5458d0a3",
      "transactionType": "CALL",
      "contractName": null,
      "contractAddress": "0x1627bb547c9ce9a9ddb7010807880ccd46bda91f",
      "function": "approve(address,uint256)",
      "arguments": [
        "0x27BFedCdefeD39616428D69964B132Fa94932395",
        "10000000000"
      ],
      "transaction": {
        "from": "0xa0e87a70ae6652b5727217b8cca43898cb02f56e",
        "to": "0x1627bb547c9ce9a9ddb7010807880ccd46bda91f",
        "gas": "0xf7d3",
        "value": "0x0",
        "input": "0x095ea7b300000000000000000000000027bfedcdefed39616428d69964b132fa9493239500000000000000000000000000000000000000000000000000000002540be400",
        "nonce": "0x6d",
        "chainId": "0x14a34"
      },
      "additionalContracts": [],
      "isFixedGasLimit": false
    },
    {
      "hash": "0x5db0bc193cd5cac04e323c3066a80e52b57e4dde56b32d4bda4fc3e705a75900",
      "transactionType": "CALL",
      "contractName": null,
      "contractAddress": "0x27bfedcdefed39616428d69964b132fa94932395",
      "function": "createPool((address,address,address,uint256,uint256,uint256,uint256,uint256,uint256))",
      "arguments": [
        "(0xa0e87A70AE6652B5727217b8CCA43898Cb02f56e, 0x1627bb547C9ce9A9DdB7010807880cCd46BDa91F, 0xf75b06eF8c9D77fc838d3903331E3587D2C4aeF6, 20000000000000000000, 10000000000, 1000000000000000000000, 172800, 1000, 0)"
      ],
      "transaction": {
        "from": "0xa0e87a70ae6652b5727217b8cca43898cb02f56e",
        "to": "0x27bfedcdefed39616428d69964b132fa94932395",
        "gas": "0x4bc8e",
        "value": "0x0",
        "input": "0x7124c55f000000000000000000000000a0e87a70ae6652b5727217b8cca43898cb02f56e0000000000000000000000001627bb547c9ce9a9ddb7010807880ccd46bda91f000000000000000000000000f75b06ef8c9d77fc838d3903331e3587d2c4aef6000000000000000000000000000000000000000000000001158e460913d0000000000000000000000000000000000000000000000000000000000002540be40000000000000000000000000000000000000000000000003635c9adc5dea00000000000000000000000000000000000000000000000000000000000000002a30000000000000000000000000000000000000000000000000000000000000003e80000000000000000000000000000000000000000000000000000000000000000",
        "nonce": "0x6e",
        "chainId": "0x14a34"
      },
      "additionalContracts": [],
      "isFixedGasLimit": false
    }
  ],
  "receipts": [
    {
      "status": "0x1",
      "cumulativeGasUsed": "0x2ab99e",
      "logs": [
        {
          "address": "0x1627bb547c9ce9a9ddb7010807880ccd46bda91f",
          "topics": [
            "0xddf252ad1be2c89b69c2b068fc378daa952ba7f163c4a11628f55a4df523b3ef",
            "0x0000000000000000000000000000000000000000000000000000000000000000",
            "0x000000000000000000000000a0e87a70ae6652b5727217b8cca43898cb02f56e"
          ],
          "data": "0x00000000000000000000000000000000000000000000000000000002540be400",
          "blockHash": "0x1b15321f101754304af846b8e1974c8d6f9dfb18b6c5877e0028c3a40802c249",
          "blockNumber": "0x22222e8",
          "blockTimestamp": "0x6957a4b0",
          "transactionHash": "0x05e5d3b72be3826c247338a59b5dfd3b2d5047a0b0e8886f2e05589c298798af",
          "transactionIndex": "0x10",
          "logIndex": "0x34",
          "removed": false
        }
      ],
      "logsBloom": "0x00000000000000000000000000000000000000000000000000000000000000000000000000000000000000000000000000000000000000000000000000000000000000000000000000000008000000200000000000000000000000000000000010000000020000000000000004000800000000000000000000000010000000000000400000000000000000000000000000000000000000000000000000000000000000000000000000000000000000000000000000000000000080000000000000000002000000000000000000000000040000000000000000000000000020000000000000000000000000000000000000000000000000000000000000000000",
      "type": "0x2",
      "transactionHash": "0x05e5d3b72be3826c247338a59b5dfd3b2d5047a0b0e8886f2e05589c298798af",
      "transactionIndex": "0x10",
      "blockHash": "0x1b15321f101754304af846b8e1974c8d6f9dfb18b6c5877e0028c3a40802c249",
      "blockNumber": "0x22222e8",
      "gasUsed": "0xc71d",
      "effectiveGasPrice": "0x124f80",
      "blobGasUsed": "0x79e0",
      "from": "0xa0e87a70ae6652b5727217b8cca43898cb02f56e",
      "to": "0x1627bb547c9ce9a9ddb7010807880ccd46bda91f",
      "contractAddress": null,
      "daFootprintGasScalar": "0x138",
      "l1BaseFeeScalar": "0x44d",
      "l1BlobBaseFee": "0x1",
      "l1BlobBaseFeeScalar": "0xa118b",
      "l1Fee": "0x50",
      "l1GasPrice": "0x8",
      "l1GasUsed": "0x640"
    },
    {
      "status": "0x1",
      "cumulativeGasUsed": "0x2b6d0b",
      "logs": [
        {
          "address": "0x1627bb547c9ce9a9ddb7010807880ccd46bda91f",
          "topics": [
            "0x8c5be1e5ebec7d5bd14f71427d1e84f3dd0314c0f7b2291e5b200ac8c7c3b925",
            "0x000000000000000000000000a0e87a70ae6652b5727217b8cca43898cb02f56e",
            "0x00000000000000000000000027bfedcdefed39616428d69964b132fa94932395"
          ],
          "data": "0x00000000000000000000000000000000000000000000000000000002540be400",
          "blockHash": "0x1b15321f101754304af846b8e1974c8d6f9dfb18b6c5877e0028c3a40802c249",
          "blockNumber": "0x22222e8",
          "blockTimestamp": "0x6957a4b0",
          "transactionHash": "0x0bcf1f834f5e2c6b7c4e1e44a40640215bf45de1845ae3fea60aaa7b5458d0a3",
          "transactionIndex": "0x11",
          "logIndex": "0x35",
          "removed": false
        }
      ],
      "logsBloom": "0x00000000000000000000000000000000000000000000000000000000000000000000000000000000000000000000000000000000000000000000000000200000000000000008000000000000000000200000000000000000000000000000000010000000000000000000000004000000000000000000000000000000000000000000400000000000000000000000000000000000000000000000000000000000020000000000000000000000000000000000000000000000000080000000000000000000000000000000000000000000040000000000000000000000000000400010000000000000000000000000000000000001000000000000000000000000",
      "type": "0x2",
      "transactionHash": "0x0bcf1f834f5e2c6b7c4e1e44a40640215bf45de1845ae3fea60aaa7b5458d0a3",
      "transactionIndex": "0x11",
      "blockHash": "0x1b15321f101754304af846b8e1974c8d6f9dfb18b6c5877e0028c3a40802c249",
      "blockNumber": "0x22222e8",
      "gasUsed": "0xb36d",
      "effectiveGasPrice": "0x124f80",
      "blobGasUsed": "0x79e0",
      "from": "0xa0e87a70ae6652b5727217b8cca43898cb02f56e",
      "to": "0x1627bb547c9ce9a9ddb7010807880ccd46bda91f",
      "contractAddress": null,
      "daFootprintGasScalar": "0x138",
      "l1BaseFeeScalar": "0x44d",
      "l1BlobBaseFee": "0x1",
      "l1BlobBaseFeeScalar": "0xa118b",
      "l1Fee": "0x50",
      "l1GasPrice": "0x8",
      "l1GasUsed": "0x640"
    },
    {
      "status": "0x1",
      "cumulativeGasUsed": "0x2edaea",
      "logs": [
        {
          "address": "0x1627bb547c9ce9a9ddb7010807880ccd46bda91f",
          "topics": [
            "0xddf252ad1be2c89b69c2b068fc378daa952ba7f163c4a11628f55a4df523b3ef",
            "0x000000000000000000000000a0e87a70ae6652b5727217b8cca43898cb02f56e",
            "0x00000000000000000000000027bfedcdefed39616428d69964b132fa94932395"
          ],
          "data": "0x00000000000000000000000000000000000000000000000000000002540be400",
          "blockHash": "0x1b15321f101754304af846b8e1974c8d6f9dfb18b6c5877e0028c3a40802c249",
          "blockNumber": "0x22222e8",
          "blockTimestamp": "0x6957a4b0",
          "transactionHash": "0x5db0bc193cd5cac04e323c3066a80e52b57e4dde56b32d4bda4fc3e705a75900",
          "transactionIndex": "0x12",
          "logIndex": "0x36",
          "removed": false
        },
        {
          "address": "0x27bfedcdefed39616428d69964b132fa94932395",
          "topics": [
            "0x3fbefbcbe89a8215cd4eed0234b07327d18e984324c67e8fd568e9894555ac39",
            "0x38df6f2517ba452804ddbe70569b0cade96f09f9daebd24541a402b09b0b3206",
            "0x8b794ac043f0ad293925b1ac2a32fe5aa67f78ff57955bbb598923c774beed6d",
            "0x000000000000000000000000000000000000000000000000000000006957a4b0"
          ],
          "data": "0x",
          "blockHash": "0x1b15321f101754304af846b8e1974c8d6f9dfb18b6c5877e0028c3a40802c249",
          "blockNumber": "0x22222e8",
          "blockTimestamp": "0x6957a4b0",
          "transactionHash": "0x5db0bc193cd5cac04e323c3066a80e52b57e4dde56b32d4bda4fc3e705a75900",
          "transactionIndex": "0x12",
          "logIndex": "0x37",
          "removed": false
        }
      ],
      "logsBloom": "0x00000000000000000000000000000100000000000000000000000000000000000000000000000000000000000004000000000400000000000000000000000000000000000008000000000008000000200000000000080000040000000000000010000000000000000000000004000000000010001000000000000010000000040000400000000000000000000000000000000000000000000000000000000000000000000020000000000000000000000000000000000000000080000000000001000002000000000000400400000000040000000000000000000000000000400000000000000000000000000000000000000001000002010000000080000000",
      "type": "0x2",
      "transactionHash": "0x5db0bc193cd5cac04e323c3066a80e52b57e4dde56b32d4bda4fc3e705a75900",
      "transactionIndex": "0x12",
      "blockHash": "0x1b15321f101754304af846b8e1974c8d6f9dfb18b6c5877e0028c3a40802c249",
      "blockNumber": "0x22222e8",
      "gasUsed": "0x36ddf",
      "effectiveGasPrice": "0x124f80",
      "blobGasUsed": "0xd680",
      "from": "0xa0e87a70ae6652b5727217b8cca43898cb02f56e",
      "to": "0x27bfedcdefed39616428d69964b132fa94932395",
      "contractAddress": null,
      "daFootprintGasScalar": "0x138",
      "l1BaseFeeScalar": "0x44d",
      "l1BlobBaseFee": "0x1",
      "l1BlobBaseFeeScalar": "0xa118b",
      "l1Fee": "0x8d",
      "l1GasPrice": "0x8",
      "l1GasUsed": "0xb09"
    }
  ],
  "libraries": [],
  "pending": [],
  "returns": {},
  "timestamp": 1767351473,
  "chain": 84532,
  "commit": null
}