{
  "transactions": [
    {
      "hash": "0xc635c9048f1979562d20edd92913f3cfe32201accb6cfefef3f266fccf605f78",
      "transactionType": "CALL",
      "contractName": null,
      "contractAddress": "0x9c08e0058922b22efd75e9fc0b7fb9615e303720",
      "function": "approve(address,uint256)",
      "arguments": [
        "0x7c3Ce376717E9F2f2f94F66863c43D95626e02E5",
        "20000000000000000000"
      ],
      "transaction": {
        "from": "0xa0e87a70ae6652b5727217b8cca43898cb02f56e",
        "to": "0x9c08e0058922b22efd75e9fc0b7fb9615e303720",
        "gas": "0x1069d",
        "value": "0x0",
        "input": "0x095ea7b30000000000000000000000007c3ce376717e9f2f2f94f66863c43d95626e02e5000000000000000000000000000000000000000000000001158e460913d00000",
        "nonce": "0x40",
        "chainId": "0x14a34"
      },
      "additionalContracts": [],
      "isFixedGasLimit": false
    },
    {
      "hash": "0x8450afaea12a6f68f49a816892a69b8c619826e39df1877e3689ea4cccfd8d38",
      "transactionType": "CALL",
      "contractName": null,
      "contractAddress": "0x7c3ce376717e9f2f2f94f66863c43d95626e02e5",
      "function": "createPool((address,address,address,uint256,uint256,uint256,uint256,uint256,uint256))",
      "arguments": [
        "(0xa0e87A70AE6652B5727217b8CCA43898Cb02f56e, 0x9c08e0058922B22eFd75e9fc0b7fB9615e303720, 0xf75b06eF8c9D77fc838d3903331E3587D2C4aeF6, 20000000000000000000, 20000000000000000000, 1000000000000000000000, 172800, 1000, 0)"
      ],
      "transaction": {
        "from": "0xa0e87a70ae6652b5727217b8cca43898cb02f56e",
        "to": "0x7c3ce376717e9f2f2f94f66863c43d95626e02e5",
        "gas": "0x532e9",
        "value": "0x0",
        "input": "0x7124c55f000000000000000000000000a0e87a70ae6652b5727217b8cca43898cb02f56e0000000000000000000000009c08e0058922b22efd75e9fc0b7fb9615e303720000000000000000000000000f75b06ef8c9d77fc838d3903331e3587d2c4aef6000000000000000000000000000000000000000000000001158e460913d00000000000000000000000000000000000000000000000000001158e460913d0000000000000000000000000000000000000000000000000003635c9adc5dea00000000000000000000000000000000000000000000000000000000000000002a30000000000000000000000000000000000000000000000000000000000000003e80000000000000000000000000000000000000000000000000000000000000000",
        "nonce": "0x41",
        "chainId": "0x14a34"
      },
      "additionalContracts": [],
      "isFixedGasLimit": false
    }
  ],
  "receipts": [
    {
      "status": "0x1",
      "cumulativeGasUsed": "0xe8ac7",
      "logs": [
        {
          "address": "0x9c08e0058922b22efd75e9fc0b7fb9615e303720",
          "topics": [
            "0x8c5be1e5ebec7d5bd14f71427d1e84f3dd0314c0f7b2291e5b200ac8c7c3b925",
            "0x000000000000000000000000a0e87a70ae6652b5727217b8cca43898cb02f56e",
            "0x0000000000000000000000007c3ce376717e9f2f2f94f66863c43d95626e02e5"
          ],
          "data": "0x000000000000000000000000000000000000000000000001158e460913d00000",
          "blockHash": "0xe885b6debe380188e10d71aefeb4f294e9ab1557cf473d5be9859b26731f7466",
          "blockNumber": "0x2218935",
          "blockTimestamp": "0x6956714a",
          "transactionHash": "0xc635c9048f1979562d20edd92913f3cfe32201accb6cfefef3f266fccf605f78",
          "transactionIndex": "0x6",
          "logIndex": "0x2f",
          "removed": false
        }
      ],
      "logsBloom": "0x00000000000000000000000000000000000200000000000000000000000000000000001000000000000000000000000000000000000000400000000000200000000000000000000000000000000000000000000000000100000000000000000010000000000000000000000000000000000000000000000000000000020000000000400000000000000000000000000000000000000000000000000000000000020000000000000000000000000000000000000000000000000080000000000000000000000000000000000000000000000000001000000000000000000000000010000000000000000000000000000000000000000000000000000000000000",
      "type": "0x2",
      "transactionHash": "0xc635c9048f1979562d20edd92913f3cfe32201accb6cfefef3f266fccf605f78",
      "transactionIndex": "0x6",
      "blockHash": "0xe885b6debe380188e10d71aefeb4f294e9ab1557cf473d5be9859b26731f7466",
      "blockNumber": "0x2218935",
      "gasUsed": "0xb391",
      "effectiveGasPrice": "0x124f80",
      "blobGasUsed": "0x79e0",
      "from": "0xa0e87a70ae6652b5727217b8cca43898cb02f56e",
      "to": "0x9c08e0058922b22efd75e9fc0b7fb9615e303720",
      "contractAddress": null,
      "daFootprintGasScalar": "0x138",
      "l1BaseFeeScalar": "0x44d",
      "l1BlobBaseFee": "0x4f",
      "l1BlobBaseFeeScalar": "0xa118b",
      "l1Fee": "0x1e17",
      "l1GasPrice": "0x586",
      "l1GasUsed": "0x640"
    },
    {
      "status": "0x1",
      "cumulativeGasUsed": "0x124e56",
      "logs": [
        {
          "address": "0x9c08e0058922b22efd75e9fc0b7fb9615e303720",
          "topics": [
            "0xddf252ad1be2c89b69c2b068fc378daa952ba7f163c4a11628f55a4df523b3ef",
            "0x000000000000000000000000a0e87a70ae6652b5727217b8cca43898cb02f56e",
            "0x0000000000000000000000007c3ce376717e9f2f2f94f66863c43d95626e02e5"
          ],
          "data": "0x000000000000000000000000000000000000000000000001158e460913d00000",
          "blockHash": "0xe885b6debe380188e10d71aefeb4f294e9ab1557cf473d5be9859b26731f7466",
          "blockNumber": "0x2218935",
          "blockTimestamp": "0x6956714a",
          "transactionHash": "0x8450afaea12a6f68f49a816892a69b8c619826e39df1877e3689ea4cccfd8d38",
          "transactionIndex": "0x7",
          "logIndex": "0x30",
          "removed": false
        },
        {
          "address": "0x7c3ce376717e9f2f2f94f66863c43d95626e02e5",
          "topics": [
            "0x3fbefbcbe89a8215cd4eed0234b07327d18e984324c67e8fd568e9894555ac39",
            "0x21d4b657a68cf73390b0edb16f7dbb8d41d03c56dda98288dab546d0afbe5f86",
            "0xd072794bf8b98ee0248c821bed0ee0c2b1c20f87984da9bd11e8c35b0b6f1905",
            "0x000000000000000000000000000000000000000000000000000000006956714a"
          ],
          "data": "0x",
          "blockHash": "0xe885b6debe380188e10d71aefeb4f294e9ab1557cf473d5be9859b26731f7466",
          "blockNumber": "0x2218935",
          "blockTimestamp": "0x6956714a",
          "transactionHash": "0x8450afaea12a6f68f49a816892a69b8c619826e39df1877e3689ea4cccfd8d38",
          "transactionIndex": "0x7",
          "logIndex": "0x31",
          "removed": false
        }
      ],
      "logsBloom": "0x00000000000000000000000000000000000208000000000001080000000000200000001000000000000000000000000000000000000000400000000000000200000000000000000000000208000000000000000000000100000008000000000010000000000000000004000000000000000000001000000000000010020000040000400000000000000000000000000000000000000000002000000000000000000000000000000000000000000000000000000000000000000080000000000000000002000000000000000000000000000000001100000000000000010000000000000000000000400000000000000000000000000000010000000000000000",
      "type": "0x2",
      "transactionHash": "0x8450afaea12a6f68f49a816892a69b8c619826e39df1877e3689ea4cccfd8d38",
      "transactionIndex": "0x7",
      "blockHash": "0xe885b6debe380188e10d71aefeb4f294e9ab1557cf473d5be9859b26731f7466",
      "blockNumber": "0x2218935",
      "gasUsed": "0x3c38f",
      "effectiveGasPrice": "0x124f80",
      "blobGasUsed": "0xcdf8",
      "from": "0xa0e87a70ae6652b5727217b8cca43898cb02f56e",
      "to": "0x7c3ce376717e9f2f2f94f66863c43d95626e02e5",
      "contractAddress": null,
      "daFootprintGasScalar": "0x138",
      "l1BaseFeeScalar": "0x44d",
      "l1BlobBaseFee": "0x4f",
      "l1BlobBaseFeeScalar": "0xa118b",
      "l1Fee": "0x331f",
      "l1GasPrice": "0x586",
      "l1GasUsed": "0xa9e"
    }
  ],
  "libraries": [],
  "pending": [],
  "returns": {},
  "timestamp": 1767272779,
  "chain": 84532,
  "commit": null
}