{
  "transactions": [
    {
      "hash": "0x17e379090198c69f8ec9dc5961e8bfc9786d4a7014310acd7527c11ef6cf6d7c",
      "transactionType": "CALL",
      "contractName": null,
      "contractAddress": "0x23c542aa639c3d91112818d6da6ee60289c6bfe3",
      "function": "mint(address,uint256)",
      "arguments": [
        "0xa0e87A70AE6652B5727217b8CCA43898Cb02f56e",
        "100000000000000000000"
      ],
      "transaction": {
        "from": "0xa0e87a70ae6652b5727217b8cca43898cb02f56e",
        "to": "0x23c542aa639c3d91112818d6da6ee60289c6bfe3",
        "gas": "0x16f7a",
        "value": "0x0",
        "input": "0x40c10f19000000000000000000000000a0e87a70ae6652b5727217b8cca43898cb02f56e0000000000000000000000000000000000000000000000056bc75e2d63100000",
        "nonce": "0x45",
        "chainId": "0x14a34"
      },
      "additionalContracts": [],
      "isFixedGasLimit": false
    },
    {
      "hash": "0x7830a372cb8893c8e322c5285728cf7210706ddc23042edfb0e58b1bc49c7efb",
      "transactionType": "CALL",
      "contractName": null,
      "contractAddress": "0x23c542aa639c3d91112818d6da6ee60289c6bfe3",
      "function": "approve(address,uint256)",
      "arguments": [
        "0x7c3Ce376717E9F2f2f94F66863c43D95626e02E5",
        "100000000000000000000"
      ],
      "transaction": {
        "from": "0xa0e87a70ae6652b5727217b8cca43898cb02f56e",
        "to": "0x23c542aa639c3d91112818d6da6ee60289c6bfe3",
        "gas": "0x1069d",
        "value": "0x0",
        "input": "0x095ea7b30000000000000000000000007c3ce376717e9f2f2f94f66863c43d95626e02e50000000000000000000000000000000000000000000000056bc75e2d63100000",
        "nonce": "0x46",
        "chainId": "0x14a34"
      },
      "additionalContracts": [],
      "isFixedGasLimit": false
    },
    {
      "hash": "0x66fd9f8e8355f80744bfd1715212f2492bcbf7379af32f45bd31cf3a25c42185",
      "transactionType": "CALL",
      "contractName": null,
      "contractAddress": "0x7c3ce376717e9f2f2f94f66863c43d95626e02e5",
      "function": "createPool((address,address,address,uint256,uint256,uint256,uint256,uint256,uint256))",
      "arguments": [
        "(0xa0e87A70AE6652B5727217b8CCA43898Cb02f56e, 0x23C542AA639c3D91112818D6da6Ee60289C6bfE3, 0xf75b06eF8c9D77fc838d3903331E3587D2C4aeF6, 20000000000000000000, 100000000000000000000, 1000000000000000000000, 172800, 1000, 0)"
      ],
      "transaction": {
        "from": "0xa0e87a70ae6652b5727217b8cca43898cb02f56e",
        "to": "0x7c3ce376717e9f2f2f94f66863c43d95626e02e5",
        "gas": "0x51903",
        "value": "0x0",
        "input": "0x7124c55f000000000000000000000000a0e87a70ae6652b5727217b8cca43898cb02f56e00000000000000000000000023c542aa639c3d91112818d6da6ee60289c6bfe3000000000000000000000000f75b06ef8c9d77fc838d3903331e3587d2c4aef6000000000000000000000000000000000000000000000001158e460913d000000000000000000000000000000000000000000000000000056bc75e2d6310000000000000000000000000000000000000000000000000003635c9adc5dea00000000000000000000000000000000000000000000000000000000000000002a30000000000000000000000000000000000000000000000000000000000000003e80000000000000000000000000000000000000000000000000000000000000000",
        "nonce": "0x47",
        "chainId": "0x14a34"
      },
      "additionalContracts": [],
      "isFixedGasLimit": false
    }
  ],
  "receipts": [
    {
      "status": "0x1",
      "cumulativeGasUsed": "0xb8570",
      "logs": [
        {
          "address": "0x23c542aa639c3d91112818d6da6ee60289c6bfe3",
          "topics": [
            "0xddf252ad1be2c89b69c2b068fc378daa952ba7f163c4a11628f55a4df523b3ef",
            "0x0000000000000000000000000000000000000000000000000000000000000000",
            "0x000000000000000000000000a0e87a70ae6652b5727217b8cca43898cb02f56e"
          ],
          "data": "0x0000000000000000000000000000000000000000000000056bc75e2d63100000",
          "blockHash": "0xfac7477da18a9a6c8229beb251e7ca85c0490c862d8bb0b88fe1cfee8fffcef8",
          "blockNumber": "0x2218a07",
          "blockTimestamp": "0x695672ee",
          "transactionHash": "0x17e379090198c69f8ec9dc5961e8bfc9786d4a7014310acd7527c11ef6cf6d7c",
          "transactionIndex": "0x2",
          "logIndex": "0x28",
          "removed": false
        }
      ],
      "logsBloom": "0x00000000000000000000000000000000000000000000000000000000000000000000000000000000000000000000000000000000000000000000000000000000000000000000000000000008000000000000000000000000000000000000000010000000020000000000000000000800000000000000000000000010000000000000400000000000000000000000000000000000000000000000000000000000000000000000000000000000000000000000000000000000000080000000000000000002000000000000000000000000000000000000200000000000000020000000000000000000000000000000000000000000000000000000200000000000",
      "type": "0x2",
      "transactionHash": "0x17e379090198c69f8ec9dc5961e8bfc9786d4a7014310acd7527c11ef6cf6d7c",
      "transactionIndex": "0x2",
      "blockHash": "0xfac7477da18a9a6c8229beb251e7ca85c0490c862d8bb0b88fe1cfee8fffcef8",
      "blockNumber": "0x2218a07",
      "gasUsed": "0x10a0d",
      "effectiveGasPrice": "0x124f80",
      "blobGasUsed": "0x79e0",
      "from": "0xa0e87a70ae6652b5727217b8cca43898cb02f56e",
      "to": "0x23c542aa639c3d91112818d6da6ee60289c6bfe3",
      "contractAddress": null,
      "daFootprintGasScalar": "0x138",
      "l1BaseFeeScalar": "0x44d",
      "l1BlobBaseFee": "0x80",
      "l1BlobBaseFeeScalar": "0xa118b",
      "l1Fee": "0x316e",
      "l1GasPrice": "0x955",
      "l1GasUsed": "0x640"
    },
    {
      "status": "0x1",
      "cumulativeGasUsed": "0xc3901",
      "logs": [
        {
          "address": "0x23c542aa639c3d91112818d6da6ee60289c6bfe3",
          "topics": [
            "0x8c5be1e5ebec7d5bd14f71427d1e84f3dd0314c0f7b2291e5b200ac8c7c3b925",
            "0x000000000000000000000000a0e87a70ae6652b5727217b8cca43898cb02f56e",
            "0x0000000000000000000000007c3ce376717e9f2f2f94f66863c43d95626e02e5"
          ],
          "data": "0x0000000000000000000000000000000000000000000000056bc75e2d63100000",
          "blockHash": "0xfac7477da18a9a6c8229beb251e7ca85c0490c862d8bb0b88fe1cfee8fffcef8",
          "blockNumber": "0x2218a07",
          "blockTimestamp": "0x695672ee",
          "transactionHash": "0x7830a372cb8893c8e322c5285728cf7210706ddc23042edfb0e58b1bc49c7efb",
          "transactionIndex": "0x3",
          "logIndex": "0x29",
          "removed": false
        }
      ],
      "logsBloom": "0x00000000000000000000000000000000000000000000000000000000000000000000000000000000000000000000000000000000000000400000000000200000000000000000000000000000000000000000000000000000000000000000000010000000020000000000000000000000000000000000000000000000020000000000400000000000000000000000000000000000000000000000000000000000020000000000000000000000000000000000000000000000000080000000000000000000000000000000000000000000000000001000200000000000000000000010000000000000000000000000000000000000000000000000200000000000",
      "type": "0x2",
      "transactionHash": "0x7830a372cb8893c8e322c5285728cf7210706ddc23042edfb0e58b1bc49c7efb",
      "transactionIndex": "0x3",
      "blockHash": "0xfac7477da18a9a6c8229beb251e7ca85c0490c862d8bb0b88fe1cfee8fffcef8",
      "blockNumber": "0x2218a07",
      "gasUsed": "0xb391",
      "effectiveGasPrice": "0x124f80",
      "blobGasUsed": "0x79e0",
      "from": "0xa0e87a70ae6652b5727217b8cca43898cb02f56e",
      "to": "0x23c542aa639c3d91112818d6da6ee60289c6bfe3",
      "contractAddress": null,
      "daFootprintGasScalar": "0x138",
      "l1BaseFeeScalar": "0x44d",
      "l1BlobBaseFee": "0x80",
      "l1BlobBaseFeeScalar": "0xa118b",
      "l1Fee": "0x316e",
      "l1GasPrice": "0x955",
      "l1GasUsed": "0x640"
    },
    {
      "status": "0x1",
      "cumulativeGasUsed": "0xfe9d0",
      "logs": [
        {
          "address": "0x23c542aa639c3d91112818d6da6ee60289c6bfe3",
          "topics": [
            "0xddf252ad1be2c89b69c2b068fc378daa952ba7f163c4a11628f55a4df523b3ef",
            "0x000000000000000000000000a0e87a70ae6652b5727217b8cca43898cb02f56e",
            "0x0000000000000000000000007c3ce376717e9f2f2f94f66863c43d95626e02e5"
          ],
          "data": "0x0000000000000000000000000000000000000000000000056bc75e2d63100000",
          "blockHash": "0xfac7477da18a9a6c8229beb251e7ca85c0490c862d8bb0b88fe1cfee8fffcef8",
          "blockNumber": "0x2218a07",
          "blockTimestamp": "0x695672ee",
          "transactionHash": "0x66fd9f8e8355f80744bfd1715212f2492bcbf7379af32f45bd31cf3a25c42185",
          "transactionIndex": "0x4",
          "logIndex": "0x2a",
          "removed": false
        },
        {
          "address": "0x7c3ce376717e9f2f2f94f66863c43d95626e02e5",
          "topics": [
            "0x3fbefbcbe89a8215cd4eed0234b07327d18e984324c67e8fd568e9894555ac39",
            "0xd1ae6ec306a56bd328441e77209dcc48024c3c98020309df261ecfb094e1f00b",
            "0xf808aa75f5b721c32be087f7694b9ff2dc7520671cb181994e0e6816f09eb1fb",
            "0x00000000000000000000000000000000000000000000000000000000695672ee"
          ],
          "data": "0x",
          "blockHash": "0xfac7477da18a9a6c8229beb251e7ca85c0490c862d8bb0b88fe1cfee8fffcef8",
          "blockNumber": "0x2218a07",
          "blockTimestamp": "0x695672ee",
          "transactionHash": "0x66fd9f8e8355f80744bfd1715212f2492bcbf7379af32f45bd31cf3a25c42185",
          "transactionIndex": "0x4",
          "logIndex": "0x2b",
          "removed": false
        }
      ],
      "logsBloom": "0x00002000000000000000000000000000000000000000000000000000000000000000000000000000000000010000000000000000000000400000000000000000000000000000000000000208000000000000000000000000000000000000000010000000020000000004000400000000000000001000000000000010020000040000400000000000000400000000000000000000000000000000000000000000000000000400000000000000000000000000000000000000000080000000000000000002100000000000000000000000000000001100200000000000040000020000000000000000000000000000000000000000000400010000200000000000",
      "type": "0x2",
      "transactionHash": "0x66fd9f8e8355f80744bfd1715212f2492bcbf7379af32f45bd31cf3a25c42185",
      "transactionIndex": "0x4",
      "blockHash": "0xfac7477da18a9a6c8229beb251e7ca85c0490c862d8bb0b88fe1cfee8fffcef8",
      "blockNumber": "0x2218a07",
      "gasUsed": "0x3b0cf",
      "effectiveGasPrice": "0x124f80",
      "blobGasUsed": "0xda28",
      "from": "0xa0e87a70ae6652b5727217b8cca43898cb02f56e",
      "to": "0x7c3ce376717e9f2f2f94f66863c43d95626e02e5",
      "contractAddress": null,
      "daFootprintGasScalar": "0x138",
      "l1BaseFeeScalar": "0x44d",
      "l1BlobBaseFee": "0x80",
      "l1BlobBaseFeeScalar": "0xa118b",
      "l1Fee": "0x5886",
      "l1GasPrice": "0x955",
      "l1GasUsed": "0xb31"
    }
  ],
  "libraries": [],
  "pending": [],
  "returns": {},
  "timestamp": 1767273198,
  "chain": 84532,
  "commit": null
}