{
  "transactions": [
    {
      "hash": "0x670275d9cf07fde16c77b0ad85de25c8ce237e7100e25e722e25c8d51bc5569f",
      "transactionType": "CALL",
      "contractName": null,
      "contractAddress": "0x61e101ba661c151042e96340514ad210d13a541c",
      "function": "mint(address,uint256)",
      "arguments": [
        "0xa0e87A70AE6652B5727217b8CCA43898Cb02f56e",
        "4000000000000000000"
      ],
      "transaction": {
        "from": "0xa0e87a70ae6652b5727217b8cca43898cb02f56e",
        "to": "0x61e101ba661c151042e96340514ad210d13a541c",
        "gas": "0x11327",
        "value": "0x0",
        "input": "0x40c10f19000000000000000000000000a0e87a70ae6652b5727217b8cca43898cb02f56e0000000000000000000000000000000000000000000000003782dace9d900000",
        "nonce": "0xb7",
        "chainId": "0x14a34"
      },
      "additionalContracts": [],
      "isFixedGasLimit": false
    },
    {
      "hash": "0x6a8e3db9c7dc504a166e6603bc93da98c7f356b78bb2b22c579f38798a2f5214",
      "transactionType": "CALL",
      "contractName": null,
      "contractAddress": "0x61e101ba661c151042e96340514ad210d13a541c",
      "function": "approve(address,uint256)",
      "arguments": [
        "0x3ebF287b6141E636e4A29aEcD1a83e5E057B4554",
        "4000000000000000000"
      ],
      "transaction": {
        "from": "0xa0e87a70ae6652b5727217b8cca43898cb02f56e",
        "to": "0x61e101ba661c151042e96340514ad210d13a541c",
        "gas": "0xf7f5",
        "value": "0x0",
        "input": "0x095ea7b30000000000000000000000003ebf287b6141e636e4a29aecd1a83e5e057b45540000000000000000000000000000000000000000000000003782dace9d900000",
        "nonce": "0xb8",
        "chainId": "0x14a34"
      },
      "additionalContracts": [],
      "isFixedGasLimit": false
    },
    {
      "hash": "0x08fc7752547bc47bc5b35d8dead3f5334fbab70cb3e5157999e1fb3107541fd8",
      "transactionType": "CALL",
      "contractName": null,
      "contractAddress": "0x3ebf287b6141e636e4a29aecd1a83e5e057b4554",
      "function": "borrow((bytes32,uint256,uint256))",
      "arguments": [
        "(0x83bd38c209257695bfc796761a87e4fa3e5b1e3d813b3691f8afb470d24ee456, 100000000000000000000, 4000000000000000000)"
      ],
      "transaction": {
        "from": "0xa0e87a70ae6652b5727217b8cca43898cb02f56e",
        "to": "0x3ebf287b6141e636e4a29aecd1a83e5e057b4554",
        "gas": "0x7b50c",
        "value": "0x0",
        "input": "0x136b2eca83bd38c209257695bfc796761a87e4fa3e5b1e3d813b3691f8afb470d24ee4560000000000000000000000000000000000000000000000056bc75e2d631000000000000000000000000000000000000000000000000000003782dace9d900000",
        "nonce": "0xb9",
        "chainId": "0x14a34"
      },
      "additionalContracts": [],
      "isFixedGasLimit": false
    }
  ],
  "receipts": [
    {
      "status": "0x1",
      "cumulativeGasUsed": "0x5711b9",
      "logs": [
        {
          "address": "0x61e101ba661c151042e96340514ad210d13a541c",
          "topics": [
            "0xddf252ad1be2c89b69c2b068fc378daa952ba7f163c4a11628f55a4df523b3ef",
            "0x0000000000000000000000000000000000000000000000000000000000000000",
            "0x000000000000000000000000a0e87a70ae6652b5727217b8cca43898cb02f56e"
          ],
          "data": "0x0000000000000000000000000000000000000000000000003782dace9d900000",
          "blockHash": "0x5a322c939954c1c907be3555be6049c88c2a9b2937cb9b7a807a46f6b0eb11f0",
          "blockNumber": "0x222b13d",
          "blockTimestamp": "0x6958c15a",
          "transactionHash": "0x670275d9cf07fde16c77b0ad85de25c8ce237e7100e25e722e25c8d51bc5569f",
          "transactionIndex": "0xa",
          "logIndex": "0x77",
          "removed": false
        }
      ],
      "logsBloom": "0x00000000080000000000000000000000000000000000000000000000000000000000000000000000000000000000000000000000000000000000000000000000000000000000000000000008000020000000000000000000000000000000000010000000020000000000000000000800000000000000000000000010000000000000400000000000000000000000000000000200000000000000000000000000000000000000000000000000000000000000000000000000000080000000000000000002000000000000000000000000000000000000000000000000000020000000000000000000000000000000000000000000000000000000000000000000",
      "type": "0x2",
      "transactionHash": "0x670275d9cf07fde16c77b0ad85de25c8ce237e7100e25e722e25c8d51bc5569f",
      "transactionIndex": "0xa",
      "blockHash": "0x5a322c939954c1c907be3555be6049c88c2a9b2937cb9b7a807a46f6b0eb11f0",
      "blockNumber": "0x222b13d",
      "gasUsed": "0xc735",
      "effectiveGasPrice": "0x124f80",
      "blobGasUsed": "0x79e0",
      "from": "0xa0e87a70ae6652b5727217b8cca43898cb02f56e",
      "to": "0x61e101ba661c151042e96340514ad210d13a541c",
      "contractAddress": null,
      "daFootprintGasScalar": "0x138",
      "l1BaseFeeScalar": "0x44d",
      "l1BlobBaseFee": "0x1",
      "l1BlobBaseFeeScalar": "0xa118b",
      "l1Fee": "0x51",
      "l1GasPrice": "0x9",
      "l1GasUsed": "0x640"
    },
    {
      "status": "0x1",
      "cumulativeGasUsed": "0x57c53e",
      "logs": [
        {
          "address": "0x61e101ba661c151042e96340514ad210d13a541c",
          "topics": [
            "0x8c5be1e5ebec7d5bd14f71427d1e84f3dd0314c0f7b2291e5b200ac8c7c3b925",
            "0x000000000000000000000000a0e87a70ae6652b5727217b8cca43898cb02f56e",
            "0x0000000000000000000000003ebf287b6141e636e4a29aecd1a83e5e057b4554"
          ],
          "data": "0x0000000000000000000000000000000000000000000000003782dace9d900000",
          "blockHash": "0x5a322c939954c1c907be3555be6049c88c2a9b2937cb9b7a807a46f6b0eb11f0",
          "blockNumber": "0x222b13d",
          "blockTimestamp": "0x6958c15a",
          "transactionHash": "0x6a8e3db9c7dc504a166e6603bc93da98c7f356b78bb2b22c579f38798a2f5214",
          "transactionIndex": "0xb",
          "logIndex": "0x78",
          "removed": false
        }
      ],
      "logsBloom": "0x00000000080000000000000000000000000000000000000000000000000000000000000000000000000000000000000000000000000000000000000000204000000000000000000000000000000020000000000000000000000000000000000010000000000000000000000000000000000000000000000000000000000000000000400000000008000000000000000000000200000000000000000000000000220000000000000000000000000000000000000000000000000080000000000000000000000000000000000000000000000000000000000000000000000000000010000000000000000000000000000000000000000000000000000000000000",
      "type": "0x2",
      "transactionHash": "0x6a8e3db9c7dc504a166e6603bc93da98c7f356b78bb2b22c579f38798a2f5214",
      "transactionIndex": "0xb",
      "blockHash": "0x5a322c939954c1c907be3555be6049c88c2a9b2937cb9b7a807a46f6b0eb11f0",
      "blockNumber": "0x222b13d",
      "gasUsed": "0xb385",
      "effectiveGasPrice": "0x124f80",
      "blobGasUsed": "0x79e0",
      "from": "0xa0e87a70ae6652b5727217b8cca43898cb02f56e",
      "to": "0x61e101ba661c151042e96340514ad210d13a541c",
      "contractAddress": null,
      "daFootprintGasScalar": "0x138",
      "l1BaseFeeScalar": "0x44d",
      "l1BlobBaseFee": "0x1",
      "l1BlobBaseFeeScalar": "0xa118b",
      "l1Fee": "0x51",
      "l1GasPrice": "0x9",
      "l1GasUsed": "0x640"
    },
    {
      "status": "0x1",
      "cumulativeGasUsed": "0x5d59b2",
      "logs": [
        {
          "address": "0x3ebf287b6141e636e4a29aecd1a83e5e057b4554",
          "topics": [
            "0x660fdd79247e0a59eeb02dfb39ca4adb6d063c3deed27daada9fb81434005111",
            "0x83bd38c209257695bfc796761a87e4fa3e5b1e3d813b3691f8afb470d24ee456",
            "0x0000000000000000000000000000000000000000000000000000000000000000",
            "0x000000000000000000000000000000000000000000000000000000006958c15a"
          ],
          "data": "0x",
          "blockHash": "0x5a322c939954c1c907be3555be6049c88c2a9b2937cb9b7a807a46f6b0eb11f0",
          "blockNumber": "0x222b13d",
          "blockTimestamp": "0x6958c15a",
          "transactionHash": "0x08fc7752547bc47bc5b35d8dead3f5334fbab70cb3e5157999e1fb3107541fd8",
          "transactionIndex": "0xc",
          "logIndex": "0x79",
          "removed": false
        },
        {
          "address": "0x3ebf287b6141e636e4a29aecd1a83e5e057b4554",
          "topics": [
            "0x5d0c5776b8c52477936b6b38d56169ac2da40c92c610d1dde03ed723d8791948",
            "0x83bd38c209257695bfc796761a87e4fa3e5b1e3d813b3691f8afb470d24ee456",
            "0x000000000000000000000000000000000000000000000000000000006958c15a"
          ],
          "data": "0x",
          "blockHash": "0x5a322c939954c1c907be3555be6049c88c2a9b2937cb9b7a807a46f6b0eb11f0",
          "blockNumber": "0x222b13d",
          "blockTimestamp": "0x6958c15a",
          "transactionHash": "0x08fc7752547bc47bc5b35d8dead3f5334fbab70cb3e5157999e1fb3107541fd8",
          "transactionIndex": "0xc",
          "logIndex": "0x7a",
          "removed": false
        },
        {
          "address": "0x61e101ba661c151042e96340514ad210d13a541c",
          "topics": [
            "0xddf252ad1be2c89b69c2b068fc378daa952ba7f163c4a11628f55a4df523b3ef",
            "0x000000000000000000000000a0e87a70ae6652b5727217b8cca43898cb02f56e",
            "0x0000000000000000000000003ebf287b6141e636e4a29aecd1a83e5e057b4554"
          ],
          "data": "0x0000000000000000000000000000000000000000000000003782dace9d900000",
          "blockHash": "0x5a322c939954c1c907be3555be6049c88c2a9b2937cb9b7a807a46f6b0eb11f0",
          "blockNumber": "0x222b13d",
          "blockTimestamp": "0x6958c15a",
          "transactionHash": "0x08fc7752547bc47bc5b35d8dead3f5334fbab70cb3e5157999e1fb3107541fd8",
          "transactionIndex": "0xc",
          "logIndex": "0x7b",
          "removed": false
        },
        {
          "address": "0x1627bb547c9ce9a9ddb7010807880ccd46bda91f",
          "topics": [
            "0xddf252ad1be2c89b69c2b068fc378daa952ba7f163c4a11628f55a4df523b3ef",
            "0x0000000000000000000000003ebf287b6141e636e4a29aecd1a83e5e057b4554",
            "0x000000000000000000000000a0e87a70ae6652b5727217b8cca43898cb02f56e"
          ],
          "data": "0x000000000000000000000000000000000000000000000001158e460913d00000",
          "blockHash": "0x5a322c939954c1c907be3555be6049c88c2a9b2937cb9b7a807a46f6b0eb11f0",
          "blockNumber": "0x222b13d",
          "blockTimestamp": "0x6958c15a",
          "transactionHash": "0x08fc7752547bc47bc5b35d8dead3f5334fbab70cb3e5157999e1fb3107541fd8",
          "transactionIndex": "0xc",
          "logIndex": "0x7c",
          "removed": false
        },
        {
          "address": "0x1627bb547c9ce9a9ddb7010807880ccd46bda91f",
          "topics": [
            "0xddf252ad1be2c89b69c2b068fc378daa952ba7f163c4a11628f55a4df523b3ef",
            "0x0000000000000000000000003ebf287b6141e636e4a29aecd1a83e5e057b4554",
            "0x000000000000000000000000a0e87a70ae6652b5727217b8cca43898cb02f56e"
          ],
          "data": "0x000000000000000000000000000000000000000000000004563918244f400000",
          "blockHash": "0x5a322c939954c1c907be3555be6049c88c2a9b2937cb9b7a807a46f6b0eb11f0",
          "blockNumber": "0x222b13d",
          "blockTimestamp": "0x6958c15a",
          "transactionHash": "0x08fc7752547bc47bc5b35d8dead3f5334fbab70cb3e5157999e1fb3107541fd8",
          "transactionIndex": "0xc",
          "logIndex": "0x7d",
          "removed": false
        },
        {
          "address": "0x3ebf287b6141e636e4a29aecd1a83e5e057b4554",
          "topics": [
            "0x43f0bb8bb9b6fbee7fc8ea5c87fd8830dc9d4586325918337b3b803e19e7b030",
            "0x37574728f2497beba5b7abdf9768c2b73db9464778172c97219b30b4cd1d794d",
            "0x0000000000000000000000000000000000000000000000000000000000000000"
          ],
          "data": "0x83bd38c209257695bfc796761a87e4fa3e5b1e3d813b3691f8afb470d24ee456000000000000000000000000000000000000000000000000000000006958c15a",
          "blockHash": "0x5a322c939954c1c907be3555be6049c88c2a9b2937cb9b7a807a46f6b0eb11f0",
          "blockNumber": "0x222b13d",
          "blockTimestamp": "0x6958c15a",
          "transactionHash": "0x08fc7752547bc47bc5b35d8dead3f5334fbab70cb3e5157999e1fb3107541fd8",
          "transactionIndex": "0xc",
          "logIndex": "0x7e",
          "removed": false
        }
      ],
      "logsBloom": "0x00000000080000000000000000000000000000000100000000000000000000000000000000000000200080000000000000003000000000000000000000004000000000000000000000000008000020200040000000000000000000000005000010000000020000000100000204000800004000000000000000200010000000000000400000000008000000000000000000000200000000000000000000000000200000000000000000000000000000000000000000000000000080000000000000000002000000800000000000300000040000000100000000000000000020000100000000000000000011000000000000000000000000000020000001000000",
      "type": "0x2",
      "transactionHash": "0x08fc7752547bc47bc5b35d8dead3f5334fbab70cb3e5157999e1fb3107541fd8",
      "transactionIndex": "0xc",
      "blockHash": "0x5a322c939954c1c907be3555be6049c88c2a9b2937cb9b7a807a46f6b0eb11f0",
      "blockNumber": "0x222b13d",
      "gasUsed": "0x59474",
      "effectiveGasPrice": "0x124f80",
      "blobGasUsed": "0x8268",
      "from": "0xa0e87a70ae6652b5727217b8cca43898cb02f56e",
      "to": "0x3ebf287b6141e636e4a29aecd1a83e5e057b4554",
      "contractAddress": null,
      "daFootprintGasScalar": "0x138",
      "l1BaseFeeScalar": "0x44d",
      "l1BlobBaseFee": "0x1",
      "l1BlobBaseFeeScalar": "0xa118b",
      "l1Fee": "0x58",
      "l1GasPrice": "0x9",
      "l1GasUsed": "0x6bf"
    }
  ],
  "libraries": [],
  "pending": [],
  "returns": {},
  "timestamp": 1767424346,
  "chain": 84532,
  "commit": null
}