{
  "transactions": [
    {
      "hash": "0xefa3601ac8f64b30f90bebd741c537e0192402fe1a1e9342b1f247a45035704a",
      "transactionType": "CALL",
      "contractName": null,
      "contractAddress": "0x7c3ce376717e9f2f2f94f66863c43d95626e02e5",
      "function": "removeFromPool(bytes32,uint256)",
      "arguments": [
        "0x0a5833e7d465669255dd43689326ec557b1371f2bd45bdee2be00b3ae6c384f5",
        "100000000"
      ],
      "transaction": {
        "from": "0xa0e87a70ae6652b5727217b8cca43898cb02f56e",
        "to": "0x7c3ce376717e9f2f2f94f66863c43d95626e02e5",
        "gas": "0x1c167",
        "value": "0x0",
        "input": "0xa891a87f0a5833e7d465669255dd43689326ec557b1371f2bd45bdee2be00b3ae6c384f50000000000000000000000000000000000000000000000000000000005f5e100",
        "nonce": "0x5b",
        "chainId": "0x14a34"
      },
      "additionalContracts": [],
      "isFixedGasLimit": false
    }
  ],
  "receipts": [
    {
      "status": "0x1",
      "cumulativeGasUsed": "0xc44bc",
      "logs": [
        {
          "address": "0x7c3ce376717e9f2f2f94f66863c43d95626e02e5",
          "topics": [
            "0x660fdd79247e0a59eeb02dfb39ca4adb6d063c3deed27daada9fb81434005111",
            "0x0a5833e7d465669255dd43689326ec557b1371f2bd45bdee2be00b3ae6c384f5",
            "0x00000000000000000000000000000000000000000000000000000006f62dcb00",
            "0x0000000000000000000000000000000000000000000000000000000069577fb2"
          ],
          "data": "0x",
          "blockHash": "0xbb520e63baaf8adfd19b7a0eead425caa62aee81834087f9e9f4ca8c884c56b7",
          "blockNumber": "0x2221069",
          "blockTimestamp": "0x69577fb2",
          "transactionHash": "0xefa3601ac8f64b30f90bebd741c537e0192402fe1a1e9342b1f247a45035704a",
          "transactionIndex": "0x2",
          "logIndex": "0x28",
          "removed": false
        },
        {
          "address": "0xd401f418f15f734e05cc5015dd303e8262f8c368",
          "topics": [
            "0xddf252ad1be2c89b69c2b068fc378daa952ba7f163c4a11628f55a4df523b3ef",
            "0x0000000000000000000000007c3ce376717e9f2f2f94f66863c43d95626e02e5",
            "0x000000000000000000000000a0e87a70ae6652b5727217b8cca43898cb02f56e"
          ],
          "data": "0x0000000000000000000000000000000000000000000000000000000005f5e100",
          "blockHash": "0xbb520e63baaf8adfd19b7a0eead425caa62aee81834087f9e9f4ca8c884c56b7",
          "blockNumber": "0x2221069",
          "blockTimestamp": "0x69577fb2",
          "transactionHash": "0xefa3601ac8f64b30f90bebd741c537e0192402fe1a1e9342b1f247a45035704a",
          "transactionIndex": "0x2",
          "logIndex": "0x29",
          "removed": false
        },
        {
          "address": "0x7c3ce376717e9f2f2f94f66863c43d95626e02e5",
          "topics": [
            "0x5d0c5776b8c52477936b6b38d56169ac2da40c92c610d1dde03ed723d8791948",
            "0x0a5833e7d465669255dd43689326ec557b1371f2bd45bdee2be00b3ae6c384f5",
            "0x0000000000000000000000000000000000000000000000000000000069577fb2"
          ],
          "data": "0x",
          "blockHash": "0xbb520e63baaf8adfd19b7a0eead425caa62aee81834087f9e9f4ca8c884c56b7",
          "blockNumber": "0x2221069",
          "blockTimestamp": "0x69577fb2",
          "transactionHash": "0xefa3601ac8f64b30f90bebd741c537e0192402fe1a1e9342b1f247a45035704a",
          "transactionIndex": "0x2",
          "logIndex": "0x2a",
          "removed": false
        }
      ],
      "logsBloom": "0x0000000000000004000000000000000000000000000000000000000000000000000000000000000000000000000000000000a040000000400000000000000000000004000000000000000208000000000000000000000000000000000000000010000000000000000004000200000000000000808000000000004010020000000000400000800000000000010000000100000000000000000000000000000000000000000000000000000000000000000000000000000000000080000000000000000002000000800000000000300000000000001100000000000000000000000000000000000000000010000000000000000400000000000000000001000000",
      "type": "0x2",
      "transactionHash": "0xefa3601ac8f64b30f90bebd741c537e0192402fe1a1e9342b1f247a45035704a",
      "transactionIndex": "0x2",
      "blockHash": "0xbb520e63baaf8adfd19b7a0eead425caa62aee81834087f9e9f4ca8c884c56b7",
      "blockNumber": "0x2221069",
      "gasUsed": "0x1455d",
      "effectiveGasPrice": "0x124f80",
      "blobGasUsed": "0x79e0",
      "from": "0xa0e87a70ae6652b5727217b8cca43898cb02f56e",
      "to": "0x7c3ce376717e9f2f2f94f66863c43d95626e02e5",
      "contractAddress": null,
      "daFootprintGasScalar": "0x138",
      "l1BaseFeeScalar": "0x44d",
      "l1BlobBaseFee": "0x1",
      "l1BlobBaseFeeScalar": "0xa118b",
      "l1Fee": "0x53",
      "l1GasPrice": "0xa",
      "l1GasUsed": "0x640"
    }
  ],
  "libraries": [],
  "pending": [],
  "returns": {},
  "timestamp": 1767342003,
  "chain": 84532,
  "commit": null
}