{
  "transactions": [
    {
      "hash": "0x9cfeeb9c41d3abc04bf25d8a973b4296fc5133627012a55ee549ae73c10653bd",
      "transactionType": "CALL",
      "contractName": null,
      "contractAddress": "0x61e101ba661c151042e96340514ad210d13a541c",
      "function": "mint(address,uint256)",
      "arguments": [
        "0x4c9b70b6cC1FcFd2Aaa41d705FbB9BB962BE0245",
        "4000000000000000000"
      ],
      "transaction": {
        "from": "0x4c9b70b6cc1fcfd2aaa41d705fbb9bb962be0245",
        "to": "0x61e101ba661c151042e96340514ad210d13a541c",
        "gas": "0xc1a6",
        "value": "0x0",
        "input": "0x40c10f190000000000000000000000004c9b70b6cc1fcfd2aaa41d705fbb9bb962be02450000000000000000000000000000000000000000000000003782dace9d900000",
        "nonce": "0x27",
        "chainId": "0x14a34"
      },
      "additionalContracts": [],
      "isFixedGasLimit": false
    },
    {
      "hash": "0xf799b46f0b504229d735631cb8ddb381ec98deef07ec613cbe67dbf93e8321b8",
      "transactionType": "CALL",
      "contractName": null,
      "contractAddress": "0x61e101ba661c151042e96340514ad210d13a541c",
      "function": "approve(address,uint256)",
      "arguments": [
        "0xc8AC841B70ABB20ABFF81e610C1459584e32383a",
        "4000000000000000000"
      ],
      "transaction": {
        "from": "0x4c9b70b6cc1fcfd2aaa41d705fbb9bb962be0245",
        "to": "0x61e101ba661c151042e96340514ad210d13a541c",
        "gas": "0xf7f5",
        "value": "0x0",
        "input": "0x095ea7b3000000000000000000000000c8ac841b70abb20abff81e610c1459584e32383a0000000000000000000000000000000000000000000000003782dace9d900000",
        "nonce": "0x28",
        "chainId": "0x14a34"
      },
      "additionalContracts": [],
      "isFixedGasLimit": false
    },
    {
      "hash": "0xe8e76c322eb9c044795bf421e8b7cdb82929a3f0f1882b6d0e35c3c8888479aa",
      "transactionType": "CALL",
      "contractName": null,
      "contractAddress": "0xc8ac841b70abb20abff81e610c1459584e32383a",
      "function": "borrow((bytes32,uint256,uint256))",
      "arguments": [
        "(0x83bd38c209257695bfc796761a87e4fa3e5b1e3d813b3691f8afb470d24ee456, 100000000000000000000, 4000000000000000000)"
      ],
      "transaction": {
        "from": "0x4c9b70b6cc1fcfd2aaa41d705fbb9bb962be0245",
        "to": "0xc8ac841b70abb20abff81e610c1459584e32383a",
        "gas": "0x81ca4",
        "value": "0x0",
        "input": "0x136b2eca83bd38c209257695bfc796761a87e4fa3e5b1e3d813b3691f8afb470d24ee4560000000000000000000000000000000000000000000000056bc75e2d631000000000000000000000000000000000000000000000000000003782dace9d900000",
        "nonce": "0x29",
        "chainId": "0x14a34"
      },
      "additionalContracts": [],
      "isFixedGasLimit": false
    }
  ],
  "receipts": [
    {
      "status": "0x1",
      "cumulativeGasUsed": "0x125ae5",
      "logs": [
        {
          "address": "0x61e101ba661c151042e96340514ad210d13a541c",
          "topics": [
            "0xddf252ad1be2c89b69c2b068fc378daa952ba7f163c4a11628f55a4df523b3ef",
            "0x0000000000000000000000000000000000000000000000000000000000000000",
            "0x0000000000000000000000004c9b70b6cc1fcfd2aaa41d705fbb9bb962be0245"
          ],
          "data": "0x0000000000000000000000000000000000000000000000003782dace9d900000",
          "blockHash": "0x9bda80b2aa09f425bb828b41e6264d43e04efd567d58fb3a8c02943d284d9f3d",
          "blockNumber": "0x222e672",
          "blockTimestamp": "0x69592bc4",
          "transactionHash": "0x9cfeeb9c41d3abc04bf25d8a973b4296fc5133627012a55ee549ae73c10653bd",
          "transactionIndex": "0xa",
          "logIndex": "0x11",
          "removed": false
        }
      ],
      "logsBloom": "0x00000000080000000000000000000000000000000000000000000000000000000000000000000000000000000000000000000000000000000000000000000000010004000000000000000008000020000000000000000000000000000000000000000000820000000000000000000800000000000000000000000010000000000000000000000000000000000000000000000200000000000000000000000000000000000000000000000000000000000000000000000000000000000000000000000002000000000000000000000000000000000000000000000000000020000000000000000000000000000000000000000000000000000000000000000000",
      "type": "0x2",
      "transactionHash": "0x9cfeeb9c41d3abc04bf25d8a973b4296fc5133627012a55ee549ae73c10653bd",
      "transactionIndex": "0xa",
      "blockHash": "0x9bda80b2aa09f425bb828b41e6264d43e04efd567d58fb3a8c02943d284d9f3d",
      "blockNumber": "0x222e672",
      "gasUsed": "0x8469",
      "effectiveGasPrice": "0x124f80",
      "blobGasUsed": "0x79e0",
      "from": "0x4c9b70b6cc1fcfd2aaa41d705fbb9bb962be0245",
      "to": "0x61e101ba661c151042e96340514ad210d13a541c",
      "contractAddress": null,
      "daFootprintGasScalar": "0x138",
      "l1BaseFeeScalar": "0x44d",
      "l1BlobBaseFee": "0x1",
      "l1BlobBaseFeeScalar": "0xa118b",
      "l1Fee": "0x51",
      "l1GasPrice": "0x9",
      "l1GasUsed": "0x640"
    },
    {
      "status": "0x1",
      "cumulativeGasUsed": "0x130e6a",
      "logs": [
        {
          "address": "0x61e101ba661c151042e96340514ad210d13a541c",
          "topics": [
            "0x8c5be1e5ebec7d5bd14f71427d1e84f3dd0314c0f7b2291e5b200ac8c7c3b925",
            "0x0000000000000000000000004c9b70b6cc1fcfd2aaa41d705fbb9bb962be0245",
            "0x000000000000000000000000c8ac841b70abb20abff81e610c1459584e32383a"
          ],
          "data": "0x0000000000000000000000000000000000000000000000003782dace9d900000",
          "blockHash": "0x9bda80b2aa09f425bb828b41e6264d43e04efd567d58fb3a8c02943d284d9f3d",
          "blockNumber": "0x222e672",
          "blockTimestamp": "0x69592bc4",
          "transactionHash": "0xf799b46f0b504229d735631cb8ddb381ec98deef07ec613cbe67dbf93e8321b8",
          "transactionIndex": "0xb",
          "logIndex": "0x12",
          "removed": false
        }
      ],
      "logsBloom": "0x00000000080000000000000000000000000000000000000000000000000000000000000000000000000000000000000000000000000000000000000000200000010004000000000000000000000020000000000000000000000000000000000000000000800000000000000000000000000000000000000000000000000000000000000000000000000000000000000000000200000000000000000000000000020000000000000000000000200000000000000000000000000000000000000000000000000000000000000000400000000000000000000000000000000000000010000000000000000000000000000000000400000000000000000000000000",
      "type": "0x2",
      "transactionHash": "0xf799b46f0b504229d735631cb8ddb381ec98deef07ec613cbe67dbf93e8321b8",
      "transactionIndex": "0xb",
      "blockHash": "0x9bda80b2aa09f425bb828b41e6264d43e04efd567d58fb3a8c02943d284d9f3d",
      "blockNumber": "0x222e672",
      "gasUsed": "0xb385",
      "effectiveGasPrice": "0x124f80",
      "blobGasUsed": "0x79e0",
      "from": "0x4c9b70b6cc1fcfd2aaa41d705fbb9bb962be0245",
      "to": "0x61e101ba661c151042e96340514ad210d13a541c",
      "contractAddress": null,
      "daFootprintGasScalar": "0x138",
      "l1BaseFeeScalar": "0x44d",
      "l1BlobBaseFee": "0x1",
      "l1BlobBaseFeeScalar": "0xa118b",
      "l1Fee": "0x51",
      "l1GasPrice": "0x9",
      "l1GasUsed": "0x640"
    },
    {
      "status": "0x1",
      "cumulativeGasUsed": "0x18edde",
      "logs": [
        {
          "address": "0xc8ac841b70abb20abff81e610c1459584e32383a",
          "topics": [
            "0x660fdd79247e0a59eeb02dfb39ca4adb6d063c3deed27daada9fb81434005111",
            "0x83bd38c209257695bfc796761a87e4fa3e5b1e3d813b3691f8afb470d24ee456",
            "0x00000000000000000000000000000000000000000000d3bcb0076ec03df00000",
            "0x0000000000000000000000000000000000000000000000000000000069592bc4"
          ],
          "data": "0x",
          "blockHash": "0x9bda80b2aa09f425bb828b41e6264d43e04efd567d58fb3a8c02943d284d9f3d",
          "blockNumber": "0x222e672",
          "blockTimestamp": "0x69592bc4",
          "transactionHash": "0xe8e76c322eb9c044795bf421e8b7cdb82929a3f0f1882b6d0e35c3c8888479aa",
          "transactionIndex": "0xc",
          "logIndex": "0x13",
          "removed": false
        },
        {
          "address": "0xc8ac841b70abb20abff81e610c1459584e32383a",
          "topics": [
            "0x5d0c5776b8c52477936b6b38d56169ac2da40c92c610d1dde03ed723d8791948",
            "0x83bd38c209257695bfc796761a87e4fa3e5b1e3d813b3691f8afb470d24ee456",
            "0x0000000000000000000000000000000000000000000000000000000069592bc4"
          ],
          "data": "0x",
          "blockHash": "0x9bda80b2aa09f425bb828b41e6264d43e04efd567d58fb3a8c02943d284d9f3d",
          "blockNumber": "0x222e672",
          "blockTimestamp": "0x69592bc4",
          "transactionHash": "0xe8e76c322eb9c044795bf421e8b7cdb82929a3f0f1882b6d0e35c3c8888479aa",
          "transactionIndex": "0xc",
          "logIndex": "0x14",
          "removed": false
        },
        {
          "address": "0x61e101ba661c151042e96340514ad210d13a541c",
          "topics": [
            "0xddf252ad1be2c89b69c2b068fc378daa952ba7f163c4a11628f55a4df523b3ef",
            "0x0000000000000000000000004c9b70b6cc1fcfd2aaa41d705fbb9bb962be0245",
            "0x000000000000000000000000c8ac841b70abb20abff81e610c1459584e32383a"
          ],
          "data": "0x0000000000000000000000000000000000000000000000003782dace9d900000",
          "blockHash": "0x9bda80b2aa09f425bb828b41e6264d43e04efd567d58fb3a8c02943d284d9f3d",
          "blockNumber": "0x222e672",
          "blockTimestamp": "0x69592bc4",
          "transactionHash": "0xe8e76c322eb9c044795bf421e8b7cdb82929a3f0f1882b6d0e35c3c8888479aa",
          "transactionIndex": "0xc",
          "logIndex": "0x15",
          "removed": false
        },
        {
          "address": "0x1627bb547c9ce9a9ddb7010807880ccd46bda91f",
          "topics": [
            "0xddf252ad1be2c89b69c2b068fc378daa952ba7f163c4a11628f55a4df523b3ef",
            "0x000000000000000000000000c8ac841b70abb20abff81e610c1459584e32383a",
            "0x000000000000000000000000a0e87a70ae6652b5727217b8cca43898cb02f56e"
          ],
          "data": "0x000000000000000000000000000000000000000000000001158e460913d00000",
          "blockHash": "0x9bda80b2aa09f425bb828b41e6264d43e04efd567d58fb3a8c02943d284d9f3d",
          "blockNumber": "0x222e672",
          "blockTimestamp": "0x69592bc4",
          "transactionHash": "0xe8e76c322eb9c044795bf421e8b7cdb82929a3f0f1882b6d0e35c3c8888479aa",
          "transactionIndex": "0xc",
          "logIndex": "0x16",
          "removed": false
        },
        {
          "address": "0x1627bb547c9ce9a9ddb7010807880ccd46bda91f",
          "topics": [
            "0xddf252ad1be2c89b69c2b068fc378daa952ba7f163c4a11628f55a4df523b3ef",
            "0x000000000000000000000000c8ac841b70abb20abff81e610c1459584e32383a",
            "0x0000000000000000000000004c9b70b6cc1fcfd2aaa41d705fbb9bb962be0245"
          ],
          "data": "0x000000000000000000000000000000000000000000000004563918244f400000",
          "blockHash": "0x9bda80b2aa09f425bb828b41e6264d43e04efd567d58fb3a8c02943d284d9f3d",
          "blockNumber": "0x222e672",
          "blockTimestamp": "0x69592bc4",
          "transactionHash": "0xe8e76c322eb9c044795bf421e8b7cdb82929a3f0f1882b6d0e35c3c8888479aa",
          "transactionIndex": "0xc",
          "logIndex": "0x17",
          "removed": false
        },
        {
          "address": "0xc8ac841b70abb20abff81e610c1459584e32383a",
          "topics": [
            "0x43f0bb8bb9b6fbee7fc8ea5c87fd8830dc9d4586325918337b3b803e19e7b030",
            "0x91a2f134b63c2b2e3d6188f582a7e814828b416ece65a993225bc5bc99d10580",
            "0x0000000000000000000000000000000000000000000000000000000000000000"
          ],
          "data": "0x83bd38c209257695bfc796761a87e4fa3e5b1e3d813b3691f8afb470d24ee4560000000000000000000000000000000000000000000000000000000069592bc4",
          "blockHash": "0x9bda80b2aa09f425bb828b41e6264d43e04efd567d58fb3a8c02943d284d9f3d",
          "blockNumber": "0x222e672",
          "blockTimestamp": "0x69592bc4",
          "transactionHash": "0xe8e76c322eb9c044795bf421e8b7cdb82929a3f0f1882b6d0e35c3c8888479aa",
          "transactionIndex": "0xc",
          "logIndex": "0x18",
          "removed": false
        }
      ],
      "logsBloom": "0x00000000080000000000000000000000000000000000000000002000000000000000000008000000200080000000000000000000000000000000400000000000010004000000000000000008000020200000000000000000000000000001000010000000820008000000000204000800004000000000000000240010000000000000400080000000000000000000000000800200000000000000000000000000210000000000000010000000200000000000000000000000000081000000000000000002000000800000000000700000040000000000000000000040000020000100000000000000000010000000000000000400000000000000000001000000",
      "type": "0x2",
      "transactionHash": "0xe8e76c322eb9c044795bf421e8b7cdb82929a3f0f1882b6d0e35c3c8888479aa",
      "transactionIndex": "0xc",
      "blockHash": "0x9bda80b2aa09f425bb828b41e6264d43e04efd567d58fb3a8c02943d284d9f3d",
      "blockNumber": "0x222e672",
      "gasUsed": "0x5df74",
      "effectiveGasPrice": "0x124f80",
      "blobGasUsed": "0x8130",
      "from": "0x4c9b70b6cc1fcfd2aaa41d705fbb9bb962be0245",
      "to": "0xc8ac841b70abb20abff81e610c1459584e32383a",
      "contractAddress": null,
      "daFootprintGasScalar": "0x138",
      "l1BaseFeeScalar": "0x44d",
      "l1BlobBaseFee": "0x1",
      "l1BlobBaseFeeScalar": "0xa118b",
      "l1Fee": "0x57",
      "l1GasPrice": "0x9",
      "l1GasUsed": "0x6a4"
    }
  ],
  "libraries": [],
  "pending": [],
  "returns": {},
  "timestamp": 1767451588,
  "chain": 84532,
  "commit": "186a1b7"
}