{
  "transactions": [
    {
      "hash": "0x5dfa4c44fe3d7ee916549f3e85fe87add0bb6140ad7dbf6b69126f823edefcce",
      "transactionType": "CALL",
      "contractName": null,
      "contractAddress": "0x1627bb547c9ce9a9ddb7010807880ccd46bda91f",
      "function": "mint(address,uint256)",
      "arguments": [
        "0xa0e87A70AE6652B5727217b8CCA43898Cb02f56e",
        "100000000000000000000000"
      ],
      "transaction": {
        "from": "0xa0e87a70ae6652b5727217b8cca43898cb02f56e",
        "to": "0x1627bb547c9ce9a9ddb7010807880ccd46bda91f",
        "gas": "0xc1c9",
        "value": "0x0",
        "input": "0x40c10f19000000000000000000000000a0e87a70ae6652b5727217b8cca43898cb02f56e00000000000000000000000000000000000000000000152d02c7e14af6800000",
        "nonce": "0xba",
        "chainId": "0x14a34"
      },
      "additionalContracts": [],
      "isFixedGasLimit": false
    },
    {
      "hash": "0x903192910b363161998dc461bcabdd0b3ee9a8ffeb87fdc1dce648c969a34fcb",
      "transactionType": "CALL",
      "contractName": null,
      "contractAddress": "0x1627bb547c9ce9a9ddb7010807880ccd46bda91f",
      "function": "approve(address,uint256)",
      "arguments": [
        "0x3ebF287b6141E636e4A29aEcD1a83e5E057B4554",
        "100000000000000000000000"
      ],
      "transaction": {
        "from": "0xa0e87a70ae6652b5727217b8cca43898cb02f56e",
        "to": "0x1627bb547c9ce9a9ddb7010807880ccd46bda91f",
        "gas": "0xf816",
        "value": "0x0",
        "input": "0x095ea7b30000000000000000000000003ebf287b6141e636e4a29aecd1a83e5e057b455400000000000000000000000000000000000000000000152d02c7e14af6800000",
        "nonce": "0xbb",
        "chainId": "0x14a34"
      },
      "additionalContracts": [],
      "isFixedGasLimit": false
    },
    {
      "hash": "0x86fcac381dd53d95090208ab02c98a3434bafa0c4e34f7a96916a5efce58b0fe",
      "transactionType": "CALL",
      "contractName": null,
      "contractAddress": "0x3ebf287b6141e636e4a29aecd1a83e5e057b4554",
      "function": "updatePool((address,address,address,uint256,uint256,uint256,uint256,uint256,uint256))",
      "arguments": [
        "(0xa0e87A70AE6652B5727217b8CCA43898Cb02f56e, 0x1627bb547C9ce9A9DdB7010807880cCd46BDa91F, 0x61e101bA661c151042E96340514AD210D13A541C, 40000000000000000000, 100000000000000000000000, 1000000000000000000000, 172800, 1000, 100000000000000000000)"
      ],
      "transaction": {
        "from": "0xa0e87a70ae6652b5727217b8cca43898cb02f56e",
        "to": "0x3ebf287b6141e636e4a29aecd1a83e5e057b4554",
        "gas": "0x257fe",
        "value": "0x0",
        "input": "0xe4917e3f000000000000000000000000a0e87a70ae6652b5727217b8cca43898cb02f56e0000000000000000000000001627bb547c9ce9a9ddb7010807880ccd46bda91f00000000000000000000000061e101ba661c151042e96340514ad210d13a541c0000000000000000000000000000000000000000000000022b1c8c1227a0000000000000000000000000000000000000000000000000152d02c7e14af680000000000000000000000000000000000000000000000000003635c9adc5dea00000000000000000000000000000000000000000000000000000000000000002a30000000000000000000000000000000000000000000000000000000000000003e80000000000000000000000000000000000000000000000056bc75e2d63100000",
        "nonce": "0xbc",
        "chainId": "0x14a34"
      },
      "additionalContracts": [],
      "isFixedGasLimit": false
    }
  ],
  "receipts": [
    {
      "status": "0x1",
      "cumulativeGasUsed": "0x56b4a9",
      "logs": [
        {
          "address": "0x1627bb547c9ce9a9ddb7010807880ccd46bda91f",
          "topics": [
            "0xddf252ad1be2c89b69c2b068fc378daa952ba7f163c4a11628f55a4df523b3ef",
            "0x0000000000000000000000000000000000000000000000000000000000000000",
            "0x000000000000000000000000a0e87a70ae6652b5727217b8cca43898cb02f56e"
          ],
          "data": "0x00000000000000000000000000000000000000000000152d02c7e14af6800000",
          "blockHash": "0x2c6c9c93f82790d1abbd88db86bee7fc6b8ce990618e2989a2ca7932afb2a373",
          "blockNumber": "0x222b17c",
          "blockTimestamp": "0x6958c1d8",
          "transactionHash": "0x5dfa4c44fe3d7ee916549f3e85fe87add0bb6140ad7dbf6b69126f823edefcce",
          "transactionIndex": "0x11",
          "logIndex": "0xa7",
          "removed": false
        }
      ],
      "logsBloom": "0x00000000000000000000000000000000000000000000000000000000000000000000000000000000000000000000000000000000000000000000000000000000000000000000000000000008000000200000000000000000000000000000000010000000020000000000000004000800000000000000000000000010000000000000400000000000000000000000000000000000000000000000000000000000000000000000000000000000000000000000000000000000000080000000000000000002000000000000000000000000040000000000000000000000000020000000000000000000000000000000000000000000000000000000000000000000",
      "type": "0x2",
      "transactionHash": "0x5dfa4c44fe3d7ee916549f3e85fe87add0bb6140ad7dbf6b69126f823edefcce",
      "transactionIndex": "0x11",
      "blockHash": "0x2c6c9c93f82790d1abbd88db86bee7fc6b8ce990618e2989a2ca7932afb2a373",
      "blockNumber": "0x222b17c",
      "gasUsed": "0x8481",
      "effectiveGasPrice": "0x124f80",
      "blobGasUsed": "0x79e0",
      "from": "0xa0e87a70ae6652b5727217b8cca43898cb02f56e",
      "to": "0x1627bb547c9ce9a9ddb7010807880ccd46bda91f",
      "contractAddress": null,
      "daFootprintGasScalar": "0x138",
      "l1BaseFeeScalar": "0x44d",
      "l1BlobBaseFee": "0x1",
      "l1BlobBaseFeeScalar": "0xa118b",
      "l1Fee": "0x51",
      "l1GasPrice": "0x9",
      "l1GasUsed": "0x640"
    },
    {
      "status": "0x1",
      "cumulativeGasUsed": "0x576846",
      "logs": [
        {
          "address": "0x1627bb547c9ce9a9ddb7010807880ccd46bda91f",
          "topics": [
            "0x8c5be1e5ebec7d5bd14f71427d1e84f3dd0314c0f7b2291e5b200ac8c7c3b925",
            "0x000000000000000000000000a0e87a70ae6652b5727217b8cca43898cb02f56e",
            "0x0000000000000000000000003ebf287b6141e636e4a29aecd1a83e5e057b4554"
          ],
          "data": "0x00000000000000000000000000000000000000000000152d02c7e14af6800000",
          "blockHash": "0x2c6c9c93f82790d1abbd88db86bee7fc6b8ce990618e2989a2ca7932afb2a373",
          "blockNumber": "0x222b17c",
          "blockTimestamp": "0x6958c1d8",
          "transactionHash": "0x903192910b363161998dc461bcabdd0b3ee9a8ffeb87fdc1dce648c969a34fcb",
          "transactionIndex": "0x12",
          "logIndex": "0xa8",
          "removed": false
        }
      ],
      "logsBloom": "0x00000000000000000000000000000000000000000000000000000000000000000000000000000000000000000000000000000000000000000000000000204000000000000000000000000000000000200000000000000000000000000000000010000000000000000000000004000000000000000000000000000000000000000000400000000008000000000000000000000000000000000000000000000000220000000000000000000000000000000000000000000000000080000000000000000000000000000000000000000000040000000000000000000000000000000010000000000000000000000000000000000000000000000000000000000000",
      "type": "0x2",
      "transactionHash": "0x903192910b363161998dc461bcabdd0b3ee9a8ffeb87fdc1dce648c969a34fcb",
      "transactionIndex": "0x12",
      "blockHash": "0x2c6c9c93f82790d1abbd88db86bee7fc6b8ce990618e2989a2ca7932afb2a373",
      "blockNumber": "0x222b17c",
      "gasUsed": "0xb39d",
      "effectiveGasPrice": "0x124f80",
      "blobGasUsed": "0x79e0",
      "from": "0xa0e87a70ae6652b5727217b8cca43898cb02f56e",
      "to": "0x1627bb547c9ce9a9ddb7010807880ccd46bda91f",
      "contractAddress": null,
      "daFootprintGasScalar": "0x138",
      "l1BaseFeeScalar": "0x44d",
      "l1BlobBaseFee": "0x1",
      "l1BlobBaseFeeScalar": "0xa118b",
      "l1Fee": "0x51",
      "l1GasPrice": "0x9",
      "l1GasUsed": "0x640"
    },
    {
      "status": "0x1",
      "cumulativeGasUsed": "0x590287",
      "logs": [
        {
          "address": "0x1627bb547c9ce9a9ddb7010807880ccd46bda91f",
          "topics": [
            "0xddf252ad1be2c89b69c2b068fc378daa952ba7f163c4a11628f55a4df523b3ef",
            "0x000000000000000000000000a0e87a70ae6652b5727217b8cca43898cb02f56e",
            "0x0000000000000000000000003ebf287b6141e636e4a29aecd1a83e5e057b4554"
          ],
          "data": "0x00000000000000000000000000000000000000000000152d02c7e14af6800000",
          "blockHash": "0x2c6c9c93f82790d1abbd88db86bee7fc6b8ce990618e2989a2ca7932afb2a373",
          "blockNumber": "0x222b17c",
          "blockTimestamp": "0x6958c1d8",
          "transactionHash": "0x86fcac381dd53d95090208ab02c98a3434bafa0c4e34f7a96916a5efce58b0fe",
          "transactionIndex": "0x13",
          "logIndex": "0xa9",
          "removed": false
        },
        {
          "address": "0x3ebf287b6141e636e4a29aecd1a83e5e057b4554",
          "topics": [
            "0x5d0c5776b8c52477936b6b38d56169ac2da40c92c610d1dde03ed723d8791948",
            "0x83bd38c209257695bfc796761a87e4fa3e5b1e3d813b3691f8afb470d24ee456",
            "0x000000000000000000000000000000000000000000000000000000006958c1d8"
          ],
          "data": "0x",
          "blockHash": "0x2c6c9c93f82790d1abbd88db86bee7fc6b8ce990618e2989a2ca7932afb2a373",
          "blockNumber": "0x222b17c",
          "blockTimestamp": "0x6958c1d8",
          "transactionHash": "0x86fcac381dd53d95090208ab02c98a3434bafa0c4e34f7a96916a5efce58b0fe",
          "transactionIndex": "0x13",
          "logIndex": "0xaa",
          "removed": false
        }
      ],
      "logsBloom": "0x00000000000000000000000000000000000000000100000000000000000000000000000000000000000080000000000000001000000000000000000000004000000000000000000000000008000000208000000000000000000000000020000010000000000000000100000204000000000000000000000000200010000000000000400000000008000000000000000000000000000000000000000000000000200000000000000000000000000000000000000000000000000080000000000000000002000000808000000000200000040000000000000000000000000000000100000000000000000000000000000000000000000000000000000000000000",
      "type": "0x2",
      "transactionHash": "0x86fcac381dd53d95090208ab02c98a3434bafa0c4e34f7a96916a5efce58b0fe",
      "transactionIndex": "0x13",
      "blockHash": "0x2c6c9c93f82790d1abbd88db86bee7fc6b8ce990618e2989a2ca7932afb2a373",
      "blockNumber": "0x222b17c",
      "gasUsed": "0x19a41",
      "effectiveGasPrice": "0x124f80",
      "blobGasUsed": "0xdf08",
      "from": "0xa0e87a70ae6652b5727217b8cca43898cb02f56e",
      "to": "0x3ebf287b6141e636e4a29aecd1a83e5e057b4554",
      "contractAddress": null,
      "daFootprintGasScalar": "0x138",
      "l1BaseFeeScalar": "0x44d",
      "l1BlobBaseFee": "0x1",
      "l1BlobBaseFeeScalar": "0xa118b",
      "l1Fee": "0x95",
      "l1GasPrice": "0x9",
      "l1GasUsed": "0xb74"
    }
  ],
  "libraries": [],
  "pending": [],
  "returns": {},
  "timestamp": 1767424472,
  "chain": 84532,
  "commit": null
}