{
  "transactions": [
    {
      "hash": "0xd3082b06cf98e6c066aa079a44127aca4ee48164035f07ed938fff980d41bc8d",
      "transactionType": "CALL",
      "contractName": null,
      "contractAddress": "0x7c3ce376717e9f2f2f94f66863c43d95626e02e5",
      "function": "updatePool((address,address,address,uint256,uint256,uint256,uint256,uint256,uint256))",
      "arguments": [
        "(0xa0e87A70AE6652B5727217b8CCA43898Cb02f56e, 0xd401F418f15F734e05CC5015DD303e8262F8C368, 0xf75b06eF8c9D77fc838d3903331E3587D2C4aeF6, 20000000000000000000, 30000000000, 1000000000000000000000, 172800, 1000, 0)"
      ],
      "transaction": {
        "from": "0xa0e87a70ae6652b5727217b8cca43898cb02f56e",
        "to": "0x7c3ce376717e9f2f2f94f66863c43d95626e02e5",
        "gas": "0x1546a",
        "value": "0x0",
        "input": "0xe4917e3f000000000000000000000000a0e87a70ae6652b5727217b8cca43898cb02f56e000000000000000000000000d401f418f15f734e05cc5015dd303e8262f8c368000000000000000000000000f75b06ef8c9d77fc838d3903331e3587d2c4aef6000000000000000000000000000000000000000000000001158e460913d0000000000000000000000000000000000000000000000000000000000006fc23ac0000000000000000000000000000000000000000000000003635c9adc5dea00000000000000000000000000000000000000000000000000000000000000002a30000000000000000000000000000000000000000000000000000000000000003e80000000000000000000000000000000000000000000000000000000000000000",
        "nonce": "0x5a",
        "chainId": "0x14a34"
      },
      "additionalContracts": [],
      "isFixedGasLimit": false
    }
  ],
  "receipts": [
    {
      "status": "0x1",
      "cumulativeGasUsed": "0x9de536",
      "logs": [
        {
          "address": "0xd401f418f15f734e05cc5015dd303e8262f8c368",
          "topics": [
            "0xddf252ad1be2c89b69c2b068fc378daa952ba7f163c4a11628f55a4df523b3ef",
            "0x000000000000000000000000a0e87a70ae6652b5727217b8cca43898cb02f56e",
            "0x0000000000000000000000007c3ce376717e9f2f2f94f66863c43d95626e02e5"
          ],
          "data": "0x00000000000000000000000000000000000000000000000000000002540be400",
          "blockHash": "0x7cf837889a90aa998d83418299c6be957ca3dbb91e3d1bcf0b08fe3d0fe1229c",
          "blockNumber": "0x2220fb8",
          "blockTimestamp": "0x69577e50",
          "transactionHash": "0xd3082b06cf98e6c066aa079a44127aca4ee48164035f07ed938fff980d41bc8d",
          "transactionIndex": "0x10",
          "logIndex": "0x26",
          "removed": false
        },
        {
          "address": "0x7c3ce376717e9f2f2f94f66863c43d95626e02e5",
          "topics": [
            "0x5d0c5776b8c52477936b6b38d56169ac2da40c92c610d1dde03ed723d8791948",
            "0x0a5833e7d465669255dd43689326ec557b1371f2bd45bdee2be00b3ae6c384f5",
            "0x0000000000000000000000000000000000000000000000000000000069577e50"
          ],
          "data": "0x",
          "blockHash": "0x7cf837889a90aa998d83418299c6be957ca3dbb91e3d1bcf0b08fe3d0fe1229c",
          "blockNumber": "0x2220fb8",
          "blockTimestamp": "0x69577e50",
          "transactionHash": "0xd3082b06cf98e6c066aa079a44127aca4ee48164035f07ed938fff980d41bc8d",
          "transactionIndex": "0x10",
          "logIndex": "0x27",
          "removed": false
        }
      ],
      "logsBloom": "0x00000000000000040000000000000010000000000000000000000000000000000000000000000000000000000000000000000040000000400000000000000000000000000000000000000208000000000000000000000000000000000000000010000000000000000004000200000000000000800000000000000010020000000000400000000000000000010000000100000000000000000000000000000000000000000000000000000000000000000000000000000000000080000000000000000002000000800100000000200000000000001100000000000000000000000000000000000000000000000000000000000400000000000000000000000000",
      "type": "0x2",
      "transactionHash": "0xd3082b06cf98e6c066aa079a44127aca4ee48164035f07ed938fff980d41bc8d",
      "transactionIndex": "0x10",
      "blockHash": "0x7cf837889a90aa998d83418299c6be957ca3dbb91e3d1bcf0b08fe3d0fe1229c",
      "blockNumber": "0x2220fb8",
      "gasUsed": "0xf675",
      "effectiveGasPrice": "0x124f80",
      "blobGasUsed": "0xd680",
      "from": "0xa0e87a70ae6652b5727217b8cca43898cb02f56e",
      "to": "0x7c3ce376717e9f2f2f94f66863c43d95626e02e5",
      "contractAddress": null,
      "daFootprintGasScalar": "0x138",
      "l1BaseFeeScalar": "0x44d",
      "l1BlobBaseFee": "0x1",
      "l1BlobBaseFeeScalar": "0xa118b",
      "l1Fee": "0x93",
      "l1GasPrice": "0xa",
      "l1GasUsed": "0xb09"
    }
  ],
  "libraries": [],
  "pending": [],
  "returns": {},
  "timestamp": 1767341650,
  "chain": 84532,
  "commit": null
}