{
  "transactions": [
    {
      "hash": "0x7463841f50619de28d856f4e327cfc1eb09272c518e2df2a24251c564093967e",
      "transactionType": "CALL",
      "contractName": null,
      "contractAddress": "0x1627bb547c9ce9a9ddb7010807880ccd46bda91f",
      "function": "mint(address,uint256)",
      "arguments": [
        "0xa0e87A70AE6652B5727217b8CCA43898Cb02f56e",
        "1000000000000000000000000"
      ],
      "transaction": {
        "from": "0xa0e87a70ae6652b5727217b8cca43898cb02f56e",
        "to": "0x1627bb547c9ce9a9ddb7010807880ccd46bda91f",
        "gas": "0xb6f4",
        "value": "0x0",
        "input": "0x40c10f19000000000000000000000000a0e87a70ae6652b5727217b8cca43898cb02f56e00000000000000000000000000000000000000000000d3c21bcecceda1000000",
        "nonce": "0xcb",
        "chainId": "0x14a34"
      },
      "additionalContracts": [],
      "isFixedGasLimit": false
    },
    {
      "hash": "0x786755536eee5e1a5fa7a2b0ce4bc821d7d4f428439c9cbb7b168e2a1ea87c62",
      "transactionType": "CALL",
      "contractName": null,
      "contractAddress": "0x1627bb547c9ce9a9ddb7010807880ccd46bda91f",
      "function": "approve(address,uint256)",
      "arguments": [
        "0x1d5f2De119C1014a22fbF3D962e402FbdaD9b61B",
        "1000000000000000000000000"
      ],
      "transaction": {
        "from": "0xa0e87a70ae6652b5727217b8cca43898cb02f56e",
        "to": "0x1627bb547c9ce9a9ddb7010807880ccd46bda91f",
        "gas": "0x1069d",
        "value": "0x0",
        "input": "0x095ea7b30000000000000000000000001d5f2de119c1014a22fbf3d962e402fbdad9b61b00000000000000000000000000000000000000000000d3c21bcecceda1000000",
        "nonce": "0xcc",
        "chainId": "0x14a34"
      },
      "additionalContracts": [],
      "isFixedGasLimit": false
    },
    {
      "hash": "0x6dba9e79d75e915ac8c63a8aefbc0094583f8e128ccb3637cdd20ab9c778c1ea",
      "transactionType": "CALL",
      "contractName": null,
      "contractAddress": "0x1d5f2de119c1014a22fbf3d962e402fbdad9b61b",
      "function": "createPool((address,address,address,uint256,uint256,uint256,uint256,uint256,uint256))",
      "arguments": [
        "(0xa0e87A70AE6652B5727217b8CCA43898Cb02f56e, 0x1627bb547C9ce9A9DdB7010807880cCd46BDa91F, 0x61e101bA661c151042E96340514AD210D13A541C, 20000000000000000000, 1000000000000000000000000, 1000000000000000000000, 172800, 1000, 0)"
      ],
      "transaction": {
        "from": "0xa0e87a70ae6652b5727217b8cca43898cb02f56e",
        "to": "0x1d5f2de119c1014a22fbf3d962e402fbdad9b61b",
        "gas": "0x532e9",
        "value": "0x0",
        "input": "0x7124c55f000000000000000000000000a0e87a70ae6652b5727217b8cca43898cb02f56e0000000000000000000000001627bb547c9ce9a9ddb7010807880ccd46bda91f00000000000000000000000061e101ba661c151042e96340514ad210d13a541c000000000000000000000000000000000000000000000001158e460913d0000000000000000000000000000000000000000000000000d3c21bcecceda100000000000000000000000000000000000000000000000000003635c9adc5dea00000000000000000000000000000000000000000000000000000000000000002a30000000000000000000000000000000000000000000000000000000000000003e80000000000000000000000000000000000000000000000000000000000000000",
        "nonce": "0xcd",
        "chainId": "0x14a34"
      },
      "additionalContracts": [],
      "isFixedGasLimit": false
    }
  ],
  "receipts": [
    {
      "status": "0x1",
      "cumulativeGasUsed": "0xf3fba",
      "logs": [
        {
          "address": "0x1627bb547c9ce9a9ddb7010807880ccd46bda91f",
          "topics": [
            "0xddf252ad1be2c89b69c2b068fc378daa952ba7f163c4a11628f55a4df523b3ef",
            "0x0000000000000000000000000000000000000000000000000000000000000000",
            "0x000000000000000000000000a0e87a70ae6652b5727217b8cca43898cb02f56e"
          ],
          "data": "0x00000000000000000000000000000000000000000000d3c21bcecceda1000000",
          "blockHash": "0x44856cdbb4dfbee63a8d8e40fc7796de0e70f1dad936c0dd26ba9c4cb90cef2c",
          "blockNumber": "0x222b8f4",
          "blockTimestamp": "0x6958d0c8",
          "transactionHash": "0x7463841f50619de28d856f4e327cfc1eb09272c518e2df2a24251c564093967e",
          "transactionIndex": "0xa",
          "logIndex": "0x28",
          "removed": false
        }
      ],
      "logsBloom": "0x00000000000000000000000000000000000000000000000000000000000000000000000000000000000000000000000000000000000000000000000000000000000000000000000000000008000000200000000000000000000000000000000010000000020000000000000004000800000000000000000000000010000000000000400000000000000000000000000000000000000000000000000000000000000000000000000000000000000000000000000000000000000080000000000000000002000000000000000000000000040000000000000000000000000020000000000000000000000000000000000000000000000000000000000000000000",
      "type": "0x2",
      "transactionHash": "0x7463841f50619de28d856f4e327cfc1eb09272c518e2df2a24251c564093967e",
      "transactionIndex": "0xa",
      "blockHash": "0x44856cdbb4dfbee63a8d8e40fc7796de0e70f1dad936c0dd26ba9c4cb90cef2c",
      "blockNumber": "0x222b8f4",
      "gasUsed": "0x8475",
      "effectiveGasPrice": "0x124f80",
      "blobGasUsed": "0x79e0",
      "from": "0xa0e87a70ae6652b5727217b8cca43898cb02f56e",
      "to": "0x1627bb547c9ce9a9ddb7010807880ccd46bda91f",
      "contractAddress": null,
      "daFootprintGasScalar": "0x138",
      "l1BaseFeeScalar": "0x44d",
      "l1BlobBaseFee": "0x1",
      "l1BlobBaseFeeScalar": "0xa118b",
      "l1Fee": "0x51",
      "l1GasPrice": "0x9",
      "l1GasUsed": "0x640"
    },
    {
      "status": "0x1",
      "cumulativeGasUsed": "0x11d57f",
      "logs": [
        {
          "address": "0x1627bb547c9ce9a9ddb7010807880ccd46bda91f",
          "topics": [
            "0x8c5be1e5ebec7d5bd14f71427d1e84f3dd0314c0f7b2291e5b200ac8c7c3b925",
            "0x000000000000000000000000a0e87a70ae6652b5727217b8cca43898cb02f56e",
            "0x0000000000000000000000001d5f2de119c1014a22fbf3d962e402fbdad9b61b"
          ],
          "data": "0x00000000000000000000000000000000000000000000d3c21bcecceda1000000",
          "blockHash": "0x44856cdbb4dfbee63a8d8e40fc7796de0e70f1dad936c0dd26ba9c4cb90cef2c",
          "blockNumber": "0x222b8f4",
          "blockTimestamp": "0x6958d0c8",
          "transactionHash": "0x786755536eee5e1a5fa7a2b0ce4bc821d7d4f428439c9cbb7b168e2a1ea87c62",
          "transactionIndex": "0xe",
          "logIndex": "0x2c",
          "removed": false
        }
      ],
      "logsBloom": "0x00000000000000000000000000000000000000000000000000000000000000000000000000000000000000000000000000000000000000000000000000200000000000000000000000000000000000200000000000000000000000000000000010000000000000000000000004000000000000000000000000000000000000000000400000000000000000000000000000000000000000000002000000000000020000000000000000000000000000000000000000000000000080000000000000100000000000000000000000000000040000000000000000000000000000000010000000000000000000000000000800000000000000000000000000000000",
      "type": "0x2",
      "transactionHash": "0x786755536eee5e1a5fa7a2b0ce4bc821d7d4f428439c9cbb7b168e2a1ea87c62",
      "transactionIndex": "0xe",
      "blockHash": "0x44856cdbb4dfbee63a8d8e40fc7796de0e70f1dad936c0dd26ba9c4cb90cef2c",
      "blockNumber": "0x222b8f4",
      "gasUsed": "0xb391",
      "effectiveGasPrice": "0x124f80",
      "blobGasUsed": "0x79e0",
      "from": "0xa0e87a70ae6652b5727217b8cca43898cb02f56e",
      "to": "0x1627bb547c9ce9a9ddb7010807880ccd46bda91f",
      "contractAddress": null,
      "daFootprintGasScalar": "0x138",
      "l1BaseFeeScalar": "0x44d",
      "l1BlobBaseFee": "0x1",
      "l1BlobBaseFeeScalar": "0xa118b",
      "l1Fee": "0x51",
      "l1GasPrice": "0x9",
      "l1GasUsed": "0x640"
    },
    {
      "status": "0x1",
      "cumulativeGasUsed": "0x15990e",
      "logs": [
        {
          "address": "0x1627bb547c9ce9a9ddb7010807880ccd46bda91f",
          "topics": [
            "0xddf252ad1be2c89b69c2b068fc378daa952ba7f163c4a11628f55a4df523b3ef",
            "0x000000000000000000000000a0e87a70ae6652b5727217b8cca43898cb02f56e",
            "0x0000000000000000000000001d5f2de119c1014a22fbf3d962e402fbdad9b61b"
          ],
          "data": "0x00000000000000000000000000000000000000000000d3c21bcecceda1000000",
          "blockHash": "0x44856cdbb4dfbee63a8d8e40fc7796de0e70f1dad936c0dd26ba9c4cb90cef2c",
          "blockNumber": "0x222b8f4",
          "blockTimestamp": "0x6958d0c8",
          "transactionHash": "0x6dba9e79d75e915ac8c63a8aefbc0094583f8e128ccb3637cdd20ab9c778c1ea",
          "transactionIndex": "0xf",
          "logIndex": "0x2d",
          "removed": false
        },
        {
          "address": "0x1d5f2de119c1014a22fbf3d962e402fbdad9b61b",
          "topics": [
            "0x3fbefbcbe89a8215cd4eed0234b07327d18e984324c67e8fd568e9894555ac39",
            "0xffb898a7eaf57b7f9d02a79101ec817d642172254fb9699017f2c12ce8172702",
            "0x83bd38c209257695bfc796761a87e4fa3e5b1e3d813b3691f8afb470d24ee456",
            "0x000000000000000000000000000000000000000000000000000000006958d0c8"
          ],
          "data": "0x",
          "blockHash": "0x44856cdbb4dfbee63a8d8e40fc7796de0e70f1dad936c0dd26ba9c4cb90cef2c",
          "blockNumber": "0x222b8f4",
          "blockTimestamp": "0x6958d0c8",
          "transactionHash": "0x6dba9e79d75e915ac8c63a8aefbc0094583f8e128ccb3637cdd20ab9c778c1ea",
          "transactionIndex": "0xf",
          "logIndex": "0x2e",
          "removed": false
        }
      ],
      "logsBloom": "0x00000000000000000000000000000000000000000000000000000000000000000000000000000000000080200000000000000000000000000000000000000000000000000000000000000008000000200000100000000000000000000000000010000000000000000000000004000000000000001000000000200014000000040000400000000000000000000000000000000000000000000002000000000000000000000000000000000000008200000000000000000000000080000000000000100002000000000000020000000000040400000000001000000000000000000100000000000000000000000000000800000000000000010000000000000000",
      "type": "0x2",
      "transactionHash": "0x6dba9e79d75e915ac8c63a8aefbc0094583f8e128ccb3637cdd20ab9c778c1ea",
      "transactionIndex": "0xf",
      "blockHash": "0x44856cdbb4dfbee63a8d8e40fc7796de0e70f1dad936c0dd26ba9c4cb90cef2c",
      "blockNumber": "0x222b8f4",
      "gasUsed": "0x3c38f",
      "effectiveGasPrice": "0x124f80",
      "blobGasUsed": "0xda28",
      "from": "0xa0e87a70ae6652b5727217b8cca43898cb02f56e",
      "to": "0x1d5f2de119c1014a22fbf3d962e402fbdad9b61b",
      "contractAddress": null,
      "daFootprintGasScalar": "0x138",
      "l1BaseFeeScalar": "0x44d",
      "l1BlobBaseFee": "0x1",
      "l1BlobBaseFeeScalar": "0xa118b",
      "l1Fee": "0x93",
      "l1GasPrice": "0x9",
      "l1GasUsed": "0xb3e"
    }
  ],
  "libraries": [],
  "pending": [],
  "returns": {},
  "timestamp": 1767428296,
  "chain": 84532,
  "commit": null
}