{
  "transactions": [
    {
      "hash": "0xa54b51cf996e4fcad130b8103a3245992f35adf041174e7bc59a3939f68d0b01",
      "transactionType": "CALL",
      "contractName": null,
      "contractAddress": "0xd401f418f15f734e05cc5015dd303e8262f8c368",
      "function": "mint(address,uint256)",
      "arguments": [
        "0xa0e87A70AE6652B5727217b8CCA43898Cb02f56e",
        "10000000000"
      ],
      "transaction": {
        "from": "0xa0e87a70ae6652b5727217b8cca43898cb02f56e",
        "to": "0xd401f418f15f734e05cc5015dd303e8262f8c368",
        "gas": "0x11305",
        "value": "0x0",
        "input": "0x40c10f19000000000000000000000000a0e87a70ae6652b5727217b8cca43898cb02f56e00000000000000000000000000000000000000000000000000000002540be400",
        "nonce": "0x51",
        "chainId": "0x14a34"
      },
      "additionalContracts": [],
      "isFixedGasLimit": false
    },
    {
      "hash": "0x0372dadffe700a4ee5f3eeff633f50529aaf9c390a4cba5ce4c2c4f5bf966ca9",
      "transactionType": "CALL",
      "contractName": null,
      "contractAddress": "0xd401f418f15f734e05cc5015dd303e8262f8c368",
      "function": "approve(address,uint256)",
      "arguments": [
        "0x7c3Ce376717E9F2f2f94F66863c43D95626e02E5",
        "10000000000"
      ],
      "transaction": {
        "from": "0xa0e87a70ae6652b5727217b8cca43898cb02f56e",
        "to": "0xd401f418f15f734e05cc5015dd303e8262f8c368",
        "gas": "0xf7d3",
        "value": "0x0",
        "input": "0x095ea7b30000000000000000000000007c3ce376717e9f2f2f94f66863c43d95626e02e500000000000000000000000000000000000000000000000000000002540be400",
        "nonce": "0x52",
        "chainId": "0x14a34"
      },
      "additionalContracts": [],
      "isFixedGasLimit": false
    },
    {
      "hash": "0xb5037c00bf63b142c5928268d19e852cdece30e6dc917d6d35c94a228e58cfa4",
      "transactionType": "CALL",
      "contractName": null,
      "contractAddress": "0x7c3ce376717e9f2f2f94f66863c43d95626e02e5",
      "function": "createPool((address,address,address,uint256,uint256,uint256,uint256,uint256,uint256))",
      "arguments": [
        "(0xa0e87A70AE6652B5727217b8CCA43898Cb02f56e, 0xd401F418f15F734e05CC5015DD303e8262F8C368, 0xf75b06eF8c9D77fc838d3903331E3587D2C4aeF6, 20000000000000000000, 10000000000, 1000000000000000000000, 172800, 1000, 0)"
      ],
      "transaction": {
        "from": "0xa0e87a70ae6652b5727217b8cca43898cb02f56e",
        "to": "0x7c3ce376717e9f2f2f94f66863c43d95626e02e5",
        "gas": "0x56593",
        "value": "0x0",
        "input": "0x7124c55f000000000000000000000000a0e87a70ae6652b5727217b8cca43898cb02f56e000000000000000000000000d401f418f15f734e05cc5015dd303e8262f8c368000000000000000000000000f75b06ef8c9d77fc838d3903331e3587d2c4aef6000000000000000000000000000000000000000000000001158e460913d0000000000000000000000000000000000000000000000000000000000002540be40000000000000000000000000000000000000000000000003635c9adc5dea00000000000000000000000000000000000000000000000000000000000000002a30000000000000000000000000000000000000000000000000000000000000003e80000000000000000000000000000000000000000000000000000000000000000",
        "nonce": "0x53",
        "chainId": "0x14a34"
      },
      "additionalContracts": [],
      "isFixedGasLimit": false
    }
  ],
  "receipts": [
    {
      "status": "0x1",
      "cumulativeGasUsed": "0x17b77",
      "logs": [
        {
          "address": "0xd401f418f15f734e05cc5015dd303e8262f8c368",
          "topics": [
            "0xddf252ad1be2c89b69c2b068fc378daa952ba7f163c4a11628f55a4df523b3ef",
            "0x0000000000000000000000000000000000000000000000000000000000000000",
            "0x000000000000000000000000a0e87a70ae6652b5727217b8cca43898cb02f56e"
          ],
          "data": "0x00000000000000000000000000000000000000000000000000000002540be400",
          "blockHash": "0xd734d12f5bd695c75a84583f524334749a5adfae0ba2a6db2b61f4cb98c75897",
          "blockNumber": "0x2218b20",
          "blockTimestamp": "0x69567520",
          "transactionHash": "0xa54b51cf996e4fcad130b8103a3245992f35adf041174e7bc59a3939f68d0b01",
          "transactionIndex": "0x1",
          "logIndex": "0x0",
          "removed": false
        }
      ],
      "logsBloom": "0x00000000000000000000000000000000000000000000000000000000000000000000000000000000000000000000000000000000000000000000000000000000000000000000000000000008000000000000000000000000000000000000000010000000020000000000000000000800000000800000000000000010000000000000400000000000000000000000000100000000000000000000000000000000000000000000000000000000000000000000000000000000000080000000000000000002000000000000000000000000000000000000000000000000000020000000000000000000000000000000000000000400000000000000000000000000",
      "type": "0x2",
      "transactionHash": "0xa54b51cf996e4fcad130b8103a3245992f35adf041174e7bc59a3939f68d0b01",
      "transactionIndex": "0x1",
      "blockHash": "0xd734d12f5bd695c75a84583f524334749a5adfae0ba2a6db2b61f4cb98c75897",
      "blockNumber": "0x2218b20",
      "gasUsed": "0xc71d",
      "effectiveGasPrice": "0x124f80",
      "blobGasUsed": "0x79e0",
      "from": "0xa0e87a70ae6652b5727217b8cca43898cb02f56e",
      "to": "0xd401f418f15f734e05cc5015dd303e8262f8c368",
      "contractAddress": null,
      "daFootprintGasScalar": "0x138",
      "l1BaseFeeScalar": "0x44d",
      "l1BlobBaseFee": "0x52",
      "l1BlobBaseFeeScalar": "0xa118b",
      "l1Fee": "0x1f61",
      "l1GasPrice": "0x5d1",
      "l1GasUsed": "0x640"
    },
    {
      "status": "0x1",
      "cumulativeGasUsed": "0x22ee4",
      "logs": [
        {
          "address": "0xd401f418f15f734e05cc5015dd303e8262f8c368",
          "topics": [
            "0x8c5be1e5ebec7d5bd14f71427d1e84f3dd0314c0f7b2291e5b200ac8c7c3b925",
            "0x000000000000000000000000a0e87a70ae6652b5727217b8cca43898cb02f56e",
            "0x0000000000000000000000007c3ce376717e9f2f2f94f66863c43d95626e02e5"
          ],
          "data": "0x00000000000000000000000000000000000000000000000000000002540be400",
          "blockHash": "0xd734d12f5bd695c75a84583f524334749a5adfae0ba2a6db2b61f4cb98c75897",
          "blockNumber": "0x2218b20",
          "blockTimestamp": "0x69567520",
          "transactionHash": "0x0372dadffe700a4ee5f3eeff633f50529aaf9c390a4cba5ce4c2c4f5bf966ca9",
          "transactionIndex": "0x2",
          "logIndex": "0x1",
          "removed": false
        }
      ],
      "logsBloom": "0x00000000000000000000000000000000000000000000000000000000000000000000000000000000000000000000000000000000000000400000000000200000000000000000000000000000000000000000000000000000000000000000000010000000000000000000000000000000000000800000000000000000020000000000400000000000000000000000000100000000000000000000000000000000020000000000000000000000000000000000000000000000000080000000000000000000000000000000000000000000000000001000000000000000000000000010000000000000000000000000000000000400000000000000000000000000",
      "type": "0x2",
      "transactionHash": "0x0372dadffe700a4ee5f3eeff633f50529aaf9c390a4cba5ce4c2c4f5bf966ca9",
      "transactionIndex": "0x2",
      "blockHash": "0xd734d12f5bd695c75a84583f524334749a5adfae0ba2a6db2b61f4cb98c75897",
      "blockNumber": "0x2218b20",
      "gasUsed": "0xb36d",
      "effectiveGasPrice": "0x124f80",
      "blobGasUsed": "0x79e0",
      "from": "0xa0e87a70ae6652b5727217b8cca43898cb02f56e",
      "to": "0xd401f418f15f734e05cc5015dd303e8262f8c368",
      "contractAddress": null,
      "daFootprintGasScalar": "0x138",
      "l1BaseFeeScalar": "0x44d",
      "l1BlobBaseFee": "0x52",
      "l1BlobBaseFeeScalar": "0xa118b",
      "l1Fee": "0x1f61",
      "l1GasPrice": "0x5d1",
      "l1GasUsed": "0x640"
    },
    {
      "status": "0x1",
      "cumulativeGasUsed": "0x5df8f",
      "logs": [
        {
          "address": "0xd401f418f15f734e05cc5015dd303e8262f8c368",
          "topics": [
            "0xddf252ad1be2c89b69c2b068fc378daa952ba7f163c4a11628f55a4df523b3ef",
            "0x000000000000000000000000a0e87a70ae6652b5727217b8cca43898cb02f56e",
            "0x0000000000000000000000007c3ce376717e9f2f2f94f66863c43d95626e02e5"
          ],
          "data": "0x00000000000000000000000000000000000000000000000000000002540be400",
          "blockHash": "0xd734d12f5bd695c75a84583f524334749a5adfae0ba2a6db2b61f4cb98c75897",
          "blockNumber": "0x2218b20",
          "blockTimestamp": "0x69567520",
          "transactionHash": "0xb5037c00bf63b142c5928268d19e852cdece30e6dc917d6d35c94a228e58cfa4",
          "transactionIndex": "0x3",
          "logIndex": "0x2",
          "removed": false
        },
        {
          "address": "0x7c3ce376717e9f2f2f94f66863c43d95626e02e5",
          "topics": [
            "0x3fbefbcbe89a8215cd4eed0234b07327d18e984324c67e8fd568e9894555ac39",
            "0xf2b20e30f6af486c9accefd4dc24c3f26299b402cee0a40fbf535fa187ab6bcb",
            "0x0a5833e7d465669255dd43689326ec557b1371f2bd45bdee2be00b3ae6c384f5",
            "0x0000000000000000000000000000000000000000000000000000000069567520"
          ],
          "data": "0x",
          "blockHash": "0xd734d12f5bd695c75a84583f524334749a5adfae0ba2a6db2b61f4cb98c75897",
          "blockNumber": "0x2218b20",
          "blockTimestamp": "0x69567520",
          "transactionHash": "0xb5037c00bf63b142c5928268d19e852cdece30e6dc917d6d35c94a228e58cfa4",
          "transactionIndex": "0x3",
          "logIndex": "0x3",
          "removed": false
        }
      ],
      "logsBloom": "0x00000000000000040000000000000000000000000000000000002000000000000000000000000000020000000000000000000040000000400000000000000008000000000000000000000208000000000000000000000000000000000000000010000000000000000004000000000000000000a01000200000000010020000040000400000000000000000010000000100040000000000000000000000000000000000000000000000000000000000000000000000000000000080000000000000000002000000000000000000000000000000001100000000000000000000000000000000000000000000000000000000000400000000010000000000000000",
      "type": "0x2",
      "transactionHash": "0xb5037c00bf63b142c5928268d19e852cdece30e6dc917d6d35c94a228e58cfa4",
      "transactionIndex": "0x3",
      "blockHash": "0xd734d12f5bd695c75a84583f524334749a5adfae0ba2a6db2b61f4cb98c75897",
      "blockNumber": "0x2218b20",
      "gasUsed": "0x3b0ab",
      "effectiveGasPrice": "0x124f80",
      "blobGasUsed": "0xd680",
      "from": "0xa0e87a70ae6652b5727217b8cca43898cb02f56e",
      "to": "0x7c3ce376717e9f2f2f94f66863c43d95626e02e5",
      "contractAddress": null,
      "daFootprintGasScalar": "0x138",
      "l1BaseFeeScalar": "0x44d",
      "l1BlobBaseFee": "0x52",
      "l1BlobBaseFeeScalar": "0xa118b",
      "l1Fee": "0x3769",
      "l1GasPrice": "0x5d1",
      "l1GasUsed": "0xb09"
    }
  ],
  "libraries": [],
  "pending": [],
  "returns": {},
  "timestamp": 1767273760,
  "chain": 84532,
  "commit": null
}