{
  "transactions": [
    {
      "hash": "0xe8bdd2b4ff809da1e8d64ccc5d1923df81a3260e9b1eb9d74cecaafb349a609e",
      "transactionType": "CALL",
      "contractName": null,
      "contractAddress": "0xf75b06ef8c9d77fc838d3903331e3587d2c4aef6",
      "function": "mint(address,uint256)",
      "arguments": [
        "0xa0e87A70AE6652B5727217b8CCA43898Cb02f56e",
        "400000000"
      ],
      "transaction": {
        "from": "0xa0e87a70ae6652b5727217b8cca43898cb02f56e",
        "to": "0xf75b06ef8c9d77fc838d3903331e3587d2c4aef6",
        "gas": "0x12322",
        "value": "0x0",
        "input": "0x40c10f19000000000000000000000000a0e87a70ae6652b5727217b8cca43898cb02f56e0000000000000000000000000000000000000000000000000000000017d78400",
        "nonce": "0x85",
        "chainId": "0x14a34"
      },
      "additionalContracts": [],
      "isFixedGasLimit": false
    },
    {
      "hash": "0x1e3ef960892154ae0f22fb1f1b3d8dcfb3dc1314ab6d6a3266823f0cf1b31fd2",
      "transactionType": "CALL",
      "contractName": null,
      "contractAddress": "0xf75b06ef8c9d77fc838d3903331e3587d2c4aef6",
      "function": "approve(address,uint256)",
      "arguments": [
        "0x27BFedCdefeD39616428D69964B132Fa94932395",
        "400000000"
      ],
      "transaction": {
        "from": "0xa0e87a70ae6652b5727217b8cca43898cb02f56e",
        "to": "0xf75b06ef8c9d77fc838d3903331e3587d2c4aef6",
        "gas": "0x10657",
        "value": "0x0",
        "input": "0x095ea7b300000000000000000000000027bfedcdefed39616428d69964b132fa949323950000000000000000000000000000000000000000000000000000000017d78400",
        "nonce": "0x86",
        "chainId": "0x14a34"
      },
      "additionalContracts": [],
      "isFixedGasLimit": false
    },
    {
      "hash": "0xf8bb135093d0a65cc76563bb181e161168f0caaa19c3bfe3ba0839d6ee581a35",
      "transactionType": "CALL",
      "contractName": null,
      "contractAddress": "0x27bfedcdefed39616428d69964b132fa94932395",
      "function": "borrow((bytes32,uint256,uint256))",
      "arguments": [
        "(0x8b794ac043f0ad293925b1ac2a32fe5aa67f78ff57955bbb598923c774beed6d, 100000000000000000000, 400000000)"
      ],
      "transaction": {
        "from": "0xa0e87a70ae6652b5727217b8cca43898cb02f56e",
        "to": "0x27bfedcdefed39616428d69964b132fa94932395",
        "gas": "0x73928",
        "value": "0x0",
        "input": "0x136b2eca8b794ac043f0ad293925b1ac2a32fe5aa67f78ff57955bbb598923c774beed6d0000000000000000000000000000000000000000000000056bc75e2d631000000000000000000000000000000000000000000000000000000000000017d78400",
        "nonce": "0x87",
        "chainId": "0x14a34"
      },
      "additionalContracts": [],
      "isFixedGasLimit": false
    }
  ],
  "receipts": [
    {
      "status": "0x1",
      "cumulativeGasUsed": "0x6100e",
      "logs": [
        {
          "address": "0xf75b06ef8c9d77fc838d3903331e3587d2c4aef6",
          "topics": [
            "0xddf252ad1be2c89b69c2b068fc378daa952ba7f163c4a11628f55a4df523b3ef",
            "0x0000000000000000000000000000000000000000000000000000000000000000",
            "0x000000000000000000000000a0e87a70ae6652b5727217b8cca43898cb02f56e"
          ],
          "data": "0x0000000000000000000000000000000000000000000000000000000017d78400",
          "blockHash": "0x2f0f45d73921b06f7c5c4249a0ed81bff06f82bffe7d6600cd42710bed53706e",
          "blockNumber": "0x222285f",
          "blockTimestamp": "0x6957af9e",
          "transactionHash": "0xe8bdd2b4ff809da1e8d64ccc5d1923df81a3260e9b1eb9d74cecaafb349a609e",
          "transactionIndex": "0x4",
          "logIndex": "0x2",
          "removed": false
        }
      ],
      "logsBloom": "0x00000000000000000000000000000000000000000000000000000000000000000000000000000000000000000000000000000000000000000000000000000000000000000000000000000008000000000000000000000008000000000000000050000000020000000000000000000800000000000000000000000010000000000000400000000000000000000000000000000000000000000000000000000000000000000000000000000000000000000000000000000000000080000000000000000002000000000000000000000000000000000000000000000000000020000000000000000000000000000000000000000000004000000000000000000000",
      "type": "0x2",
      "transactionHash": "0xe8bdd2b4ff809da1e8d64ccc5d1923df81a3260e9b1eb9d74cecaafb349a609e",
      "transactionIndex": "0x4",
      "blockHash": "0x2f0f45d73921b06f7c5c4249a0ed81bff06f82bffe7d6600cd42710bed53706e",
      "blockNumber": "0x222285f",
      "gasUsed": "0xc711",
      "effectiveGasPrice": "0x124f80",
      "blobGasUsed": "0x79e0",
      "from": "0xa0e87a70ae6652b5727217b8cca43898cb02f56e",
      "to": "0xf75b06ef8c9d77fc838d3903331e3587d2c4aef6",
      "contractAddress": null,
      "daFootprintGasScalar": "0x138",
      "l1BaseFeeScalar": "0x44d",
      "l1BlobBaseFee": "0x1",
      "l1BlobBaseFeeScalar": "0xa118b",
      "l1Fee": "0x55",
      "l1GasPrice": "0xb",
      "l1GasUsed": "0x640"
    },
    {
      "status": "0x1",
      "cumulativeGasUsed": "0x6c36f",
      "logs": [
        {
          "address": "0xf75b06ef8c9d77fc838d3903331e3587d2c4aef6",
          "topics": [
            "0x8c5be1e5ebec7d5bd14f71427d1e84f3dd0314c0f7b2291e5b200ac8c7c3b925",
            "0x000000000000000000000000a0e87a70ae6652b5727217b8cca43898cb02f56e",
            "0x00000000000000000000000027bfedcdefed39616428d69964b132fa94932395"
          ],
          "data": "0x0000000000000000000000000000000000000000000000000000000017d78400",
          "blockHash": "0x2f0f45d73921b06f7c5c4249a0ed81bff06f82bffe7d6600cd42710bed53706e",
          "blockNumber": "0x222285f",
          "blockTimestamp": "0x6957af9e",
          "transactionHash": "0x1e3ef960892154ae0f22fb1f1b3d8dcfb3dc1314ab6d6a3266823f0cf1b31fd2",
          "transactionIndex": "0x5",
          "logIndex": "0x3",
          "removed": false
        }
      ],
      "logsBloom": "0x00000000000000000000000000000000000000000000000000000000000000000000000000000000000000000000000000000000000000000000000000200000000000000008000000000000000000000000000000000008000000000000000050000000000000000000000000000000000000000000000000000000000000000000400000000000000000000000000000000000000000000000000000000000020000000000000000000000000000000000000000000000000080000000000000000000000000000000000000000000000000000000000000000000000000400010000000000000000000000000000000000001004000000000000000000000",
      "type": "0x2",
      "transactionHash": "0x1e3ef960892154ae0f22fb1f1b3d8dcfb3dc1314ab6d6a3266823f0cf1b31fd2",
      "transactionIndex": "0x5",
      "blockHash": "0x2f0f45d73921b06f7c5c4249a0ed81bff06f82bffe7d6600cd42710bed53706e",
      "blockNumber": "0x222285f",
      "gasUsed": "0xb361",
      "effectiveGasPrice": "0x124f80",
      "blobGasUsed": "0x79e0",
      "from": "0xa0e87a70ae6652b5727217b8cca43898cb02f56e",
      "to": "0xf75b06ef8c9d77fc838d3903331e3587d2c4aef6",
      "contractAddress": null,
      "daFootprintGasScalar": "0x138",
      "l1BaseFeeScalar": "0x44d",
      "l1BlobBaseFee": "0x1",
      "l1BlobBaseFeeScalar": "0xa118b",
      "l1Fee": "0x55",
      "l1GasPrice": "0xb",
      "l1GasUsed": "0x640"
    },
    {
      "status": "0x1",
      "cumulativeGasUsed": "0xbb3d1",
      "logs": [
        {
          "address": "0x27bfedcdefed39616428d69964b132fa94932395",
          "topics": [
            "0x660fdd79247e0a59eeb02dfb39ca4adb6d063c3deed27daada9fb81434005111",
            "0x8b794ac043f0ad293925b1ac2a32fe5aa67f78ff57955bbb598923c774beed6d",
            "0x00000000000000000000000000000000000000000000001043561a8829300000",
            "0x000000000000000000000000000000000000000000000000000000006957af9e"
          ],
          "data": "0x",
          "blockHash": "0x2f0f45d73921b06f7c5c4249a0ed81bff06f82bffe7d6600cd42710bed53706e",
          "blockNumber": "0x222285f",
          "blockTimestamp": "0x6957af9e",
          "transactionHash": "0xf8bb135093d0a65cc76563bb181e161168f0caaa19c3bfe3ba0839d6ee581a35",
          "transactionIndex": "0x6",
          "logIndex": "0x4",
          "removed": false
        },
        {
          "address": "0x27bfedcdefed39616428d69964b132fa94932395",
          "topics": [
            "0x5d0c5776b8c52477936b6b38d56169ac2da40c92c610d1dde03ed723d8791948",
            "0x8b794ac043f0ad293925b1ac2a32fe5aa67f78ff57955bbb598923c774beed6d",
            "0x000000000000000000000000000000000000000000000000000000006957af9e"
          ],
          "data": "0x",
          "blockHash": "0x2f0f45d73921b06f7c5c4249a0ed81bff06f82bffe7d6600cd42710bed53706e",
          "blockNumber": "0x222285f",
          "blockTimestamp": "0x6957af9e",
          "transactionHash": "0xf8bb135093d0a65cc76563bb181e161168f0caaa19c3bfe3ba0839d6ee581a35",
          "transactionIndex": "0x6",
          "logIndex": "0x5",
          "removed": false
        },
        {
          "address": "0xf75b06ef8c9d77fc838d3903331e3587d2c4aef6",
          "topics": [
            "0xddf252ad1be2c89b69c2b068fc378daa952ba7f163c4a11628f55a4df523b3ef",
            "0x000000000000000000000000a0e87a70ae6652b5727217b8cca43898cb02f56e",
            "0x00000000000000000000000027bfedcdefed39616428d69964b132fa94932395"
          ],
          "data": "0x0000000000000000000000000000000000000000000000000000000017d78400",
          "blockHash": "0x2f0f45d73921b06f7c5c4249a0ed81bff06f82bffe7d6600cd42710bed53706e",
          "blockNumber": "0x222285f",
          "blockTimestamp": "0x6957af9e",
          "transactionHash": "0xf8bb135093d0a65cc76563bb181e161168f0caaa19c3bfe3ba0839d6ee581a35",
          "transactionIndex": "0x6",
          "logIndex": "0x6",
          "removed": false
        },
        {
          "address": "0x1627bb547c9ce9a9ddb7010807880ccd46bda91f",
          "topics": [
            "0xddf252ad1be2c89b69c2b068fc378daa952ba7f163c4a11628f55a4df523b3ef",
            "0x00000000000000000000000027bfedcdefed39616428d69964b132fa94932395",
            "0x000000000000000000000000a0e87a70ae6652b5727217b8cca43898cb02f56e"
          ],
          "data": "0x000000000000000000000000000000000000000000000001158e460913d00000",
          "blockHash": "0x2f0f45d73921b06f7c5c4249a0ed81bff06f82bffe7d6600cd42710bed53706e",
          "blockNumber": "0x222285f",
          "blockTimestamp": "0x6957af9e",
          "transactionHash": "0xf8bb135093d0a65cc76563bb181e161168f0caaa19c3bfe3ba0839d6ee581a35",
          "transactionIndex": "0x6",
          "logIndex": "0x7",
          "removed": false
        },
        {
          "address": "0x1627bb547c9ce9a9ddb7010807880ccd46bda91f",
          "topics": [
            "0xddf252ad1be2c89b69c2b068fc378daa952ba7f163c4a11628f55a4df523b3ef",
            "0x00000000000000000000000027bfedcdefed39616428d69964b132fa94932395",
            "0x000000000000000000000000a0e87a70ae6652b5727217b8cca43898cb02f56e"
          ],
          "data": "0x000000000000000000000000000000000000000000000004563918244f400000",
          "blockHash": "0x2f0f45d73921b06f7c5c4249a0ed81bff06f82bffe7d6600cd42710bed53706e",
          "blockNumber": "0x222285f",
          "blockTimestamp": "0x6957af9e",
          "transactionHash": "0xf8bb135093d0a65cc76563bb181e161168f0caaa19c3bfe3ba0839d6ee581a35",
          "transactionIndex": "0x6",
          "logIndex": "0x8",
          "removed": false
        },
        {
          "address": "0x27bfedcdefed39616428d69964b132fa94932395",
          "topics": [
            "0x9eaa3cf31177f1a5ddad8576b63320fb2e319ed06ac0a9c801b82eae6b70f386",
            "0x0e4e78321c0b576614b455ed0081b3818f9024f1b4b302fe1768a76371eb4322",
            "0x000000000000000000000000000000000000000000000000000000006957af9e"
          ],
          "data": "0x8b794ac043f0ad293925b1ac2a32fe5aa67f78ff57955bbb598923c774beed6d",
          "blockHash": "0x2f0f45d73921b06f7c5c4249a0ed81bff06f82bffe7d6600cd42710bed53706e",
          "blockNumber": "0x222285f",
          "blockTimestamp": "0x6957af9e",
          "transactionHash": "0xf8bb135093d0a65cc76563bb181e161168f0caaa19c3bfe3ba0839d6ee581a35",
          "transactionIndex": "0x6",
          "logIndex": "0x9",
          "removed": false
        }
      ],
      "logsBloom": "0x01000000000000000000000000000000000000000000000000000000000010000000000000000000000000000004000000000400000000000000000000000000000000000008000000000008000000200000100000000008040000000020000050000000000000800100000204000040000000008000000000000010000000000000400000000000000000000000000000000000000000000000000000000000000000000020008000000000000000000000000000000000000080000000000081000002000000800000000000300000040000000000000000000200000000400000000000000000000010000000000000000001004002000000000101000000",
      "type": "0x2",
      "transactionHash": "0xf8bb135093d0a65cc76563bb181e161168f0caaa19c3bfe3ba0839d6ee581a35",
      "transactionIndex": "0x6",
      "blockHash": "0x2f0f45d73921b06f7c5c4249a0ed81bff06f82bffe7d6600cd42710bed53706e",
      "blockNumber": "0x222285f",
      "gasUsed": "0x4f062",
      "effectiveGasPrice": "0x124f80",
      "blobGasUsed": "0x7ec0",
      "from": "0xa0e87a70ae6652b5727217b8cca43898cb02f56e",
      "to": "0x27bfedcdefed39616428d69964b132fa94932395",
      "contractAddress": null,
      "daFootprintGasScalar": "0x138",
      "l1BaseFeeScalar": "0x44d",
      "l1BlobBaseFee": "0x1",
      "l1BlobBaseFeeScalar": "0xa118b",
      "l1Fee": "0x59",
      "l1GasPrice": "0xb",
      "l1GasUsed": "0x68a"
    }
  ],
  "libraries": [],
  "pending": [],
  "returns": {},
  "timestamp": 1767354270,
  "chain": 84532,
  "commit": null
}