{
  "transactions": [
    {
      "hash": "0x8719b32c0af0c8e5901f098f5538b6e8c457fa8eb09a4e3b91cbb5dc45e43fc2",
      "transactionType": "CALL",
      "contractName": null,
      "contractAddress": "0x1627bb547c9ce9a9ddb7010807880ccd46bda91f",
      "function": "mint(address,uint256)",
      "arguments": [
        "0xa0e87A70AE6652B5727217b8CCA43898Cb02f56e",
        "100000000000000000000"
      ],
      "transaction": {
        "from": "0xa0e87a70ae6652b5727217b8cca43898cb02f56e",
        "to": "0x1627bb547c9ce9a9ddb7010807880ccd46bda91f",
        "gas": "0xb6f4",
        "value": "0x0",
        "input": "0x40c10f19000000000000000000000000a0e87a70ae6652b5727217b8cca43898cb02f56e0000000000000000000000000000000000000000000000056bc75e2d63100000",
        "nonce": "0xb4",
        "chainId": "0x14a34"
      },
      "additionalContracts": [],
      "isFixedGasLimit": false
    },
    {
      "hash": "0x94080241a9b32486bcec4801640ff3d20962309602f2155d3d5d218ee0fcf19b",
      "transactionType": "CALL",
      "contractName": null,
      "contractAddress": "0x1627bb547c9ce9a9ddb7010807880ccd46bda91f",
      "function": "approve(address,uint256)",
      "arguments": [
        "0x3ebF287b6141E636e4A29aEcD1a83e5E057B4554",
        "100000000000000000000"
      ],
      "transaction": {
        "from": "0xa0e87a70ae6652b5727217b8cca43898cb02f56e",
        "to": "0x1627bb547c9ce9a9ddb7010807880ccd46bda91f",
        "gas": "0x1069d",
        "value": "0x0",
        "input": "0x095ea7b30000000000000000000000003ebf287b6141e636e4a29aecd1a83e5e057b45540000000000000000000000000000000000000000000000056bc75e2d63100000",
        "nonce": "0xb5",
        "chainId": "0x14a34"
      },
      "additionalContracts": [],
      "isFixedGasLimit": false
    },
    {
      "hash": "0x47c76142f1d59e00e0b4999561d0faeccfc1cb443b2c678feb3f26dcf07b80a7",
      "transactionType": "CALL",
      "contractName": null,
      "contractAddress": "0x3ebf287b6141e636e4a29aecd1a83e5e057b4554",
      "function": "createPool((address,address,address,uint256,uint256,uint256,uint256,uint256,uint256))",
      "arguments": [
        "(0xa0e87A70AE6652B5727217b8CCA43898Cb02f56e, 0x1627bb547C9ce9A9DdB7010807880cCd46BDa91F, 0x61e101bA661c151042E96340514AD210D13A541C, 20000000000000000000, 100000000000000000000, 1000000000000000000000, 172800, 1000, 0)"
      ],
      "transaction": {
        "from": "0xa0e87a70ae6652b5727217b8cca43898cb02f56e",
        "to": "0x3ebf287b6141e636e4a29aecd1a83e5e057b4554",
        "gas": "0x532e9",
        "value": "0x0",
        "input": "0x7124c55f000000000000000000000000a0e87a70ae6652b5727217b8cca43898cb02f56e0000000000000000000000001627bb547c9ce9a9ddb7010807880ccd46bda91f00000000000000000000000061e101ba661c151042e96340514ad210d13a541c000000000000000000000000000000000000000000000001158e460913d000000000000000000000000000000000000000000000000000056bc75e2d6310000000000000000000000000000000000000000000000000003635c9adc5dea00000000000000000000000000000000000000000000000000000000000000002a30000000000000000000000000000000000000000000000000000000000000003e80000000000000000000000000000000000000000000000000000000000000000",
        "nonce": "0xb6",
        "chainId": "0x14a34"
      },
      "additionalContracts": [],
      "isFixedGasLimit": false
    }
  ],
  "receipts": [
    {
      "status": "0x1",
      "cumulativeGasUsed": "0x1b0241",
      "logs": [
        {
          "address": "0x1627bb547c9ce9a9ddb7010807880ccd46bda91f",
          "topics": [
            "0xddf252ad1be2c89b69c2b068fc378daa952ba7f163c4a11628f55a4df523b3ef",
            "0x0000000000000000000000000000000000000000000000000000000000000000",
            "0x000000000000000000000000a0e87a70ae6652b5727217b8cca43898cb02f56e"
          ],
          "data": "0x0000000000000000000000000000000000000000000000056bc75e2d63100000",
          "blockHash": "0xd91d0f3a9ea868c75d86b3b7e6927656b0a6b534de85ba4d3a3449fd8ae23d5f",
          "blockNumber": "0x222b121",
          "blockTimestamp": "0x6958c122",
          "transactionHash": "0x8719b32c0af0c8e5901f098f5538b6e8c457fa8eb09a4e3b91cbb5dc45e43fc2",
          "transactionIndex": "0x7",
          "logIndex": "0x58",
          "removed": false
        }
      ],
      "logsBloom": "0x00000000000000000000000000000000000000000000000000000000000000000000000000000000000000000000000000000000000000000000000000000000000000000000000000000008000000200000000000000000000000000000000010000000020000000000000004000800000000000000000000000010000000000000400000000000000000000000000000000000000000000000000000000000000000000000000000000000000000000000000000000000000080000000000000000002000000000000000000000000040000000000000000000000000020000000000000000000000000000000000000000000000000000000000000000000",
      "type": "0x2",
      "transactionHash": "0x8719b32c0af0c8e5901f098f5538b6e8c457fa8eb09a4e3b91cbb5dc45e43fc2",
      "transactionIndex": "0x7",
      "blockHash": "0xd91d0f3a9ea868c75d86b3b7e6927656b0a6b534de85ba4d3a3449fd8ae23d5f",
      "blockNumber": "0x222b121",
      "gasUsed": "0x8475",
      "effectiveGasPrice": "0x124f80",
      "blobGasUsed": "0x79e0",
      "from": "0xa0e87a70ae6652b5727217b8cca43898cb02f56e",
      "to": "0x1627bb547c9ce9a9ddb7010807880ccd46bda91f",
      "contractAddress": null,
      "daFootprintGasScalar": "0x138",
      "l1BaseFeeScalar": "0x44d",
      "l1BlobBaseFee": "0x1",
      "l1BlobBaseFeeScalar": "0xa118b",
      "l1Fee": "0x51",
      "l1GasPrice": "0x9",
      "l1GasUsed": "0x640"
    },
    {
      "status": "0x1",
      "cumulativeGasUsed": "0x1bb5d2",
      "logs": [
        {
          "address": "0x1627bb547c9ce9a9ddb7010807880ccd46bda91f",
          "topics": [
            "0x8c5be1e5ebec7d5bd14f71427d1e84f3dd0314c0f7b2291e5b200ac8c7c3b925",
            "0x000000000000000000000000a0e87a70ae6652b5727217b8cca43898cb02f56e",
            "0x0000000000000000000000003ebf287b6141e636e4a29aecd1a83e5e057b4554"
          ],
          "data": "0x0000000000000000000000000000000000000000000000056bc75e2d63100000",
          "blockHash": "0xd91d0f3a9ea868c75d86b3b7e6927656b0a6b534de85ba4d3a3449fd8ae23d5f",
          "blockNumber": "0x222b121",
          "blockTimestamp": "0x6958c122",
          "transactionHash": "0x94080241a9b32486bcec4801640ff3d20962309602f2155d3d5d218ee0fcf19b",
          "transactionIndex": "0x8",
          "logIndex": "0x59",
          "removed": false
        }
      ],
      "logsBloom": "0x00000000000000000000000000000000000000000000000000000000000000000000000000000000000000000000000000000000000000000000000000204000000000000000000000000000000000200000000000000000000000000000000010000000000000000000000004000000000000000000000000000000000000000000400000000008000000000000000000000000000000000000000000000000220000000000000000000000000000000000000000000000000080000000000000000000000000000000000000000000040000000000000000000000000000000010000000000000000000000000000000000000000000000000000000000000",
      "type": "0x2",
      "transactionHash": "0x94080241a9b32486bcec4801640ff3d20962309602f2155d3d5d218ee0fcf19b",
      "transactionIndex": "0x8",
      "blockHash": "0xd91d0f3a9ea868c75d86b3b7e6927656b0a6b534de85ba4d3a3449fd8ae23d5f",
      "blockNumber": "0x222b121",
      "gasUsed": "0xb391",
      "effectiveGasPrice": "0x124f80",
      "blobGasUsed": "0x79e0",
      "from": "0xa0e87a70ae6652b5727217b8cca43898cb02f56e",
      "to": "0x1627bb547c9ce9a9ddb7010807880ccd46bda91f",
      "contractAddress": null,
      "daFootprintGasScalar": "0x138",
      "l1BaseFeeScalar": "0x44d",
      "l1BlobBaseFee": "0x1",
      "l1BlobBaseFeeScalar": "0xa118b",
      "l1Fee": "0x51",
      "l1GasPrice": "0x9",
      "l1GasUsed": "0x640"
    },
    {
      "status": "0x1",
      "cumulativeGasUsed": "0x1f7961",
      "logs": [
        {
          "address": "0x1627bb547c9ce9a9ddb7010807880ccd46bda91f",
          "topics": [
            "0xddf252ad1be2c89b69c2b068fc378daa952ba7f163c4a11628f55a4df523b3ef",
            "0x000000000000000000000000a0e87a70ae6652b5727217b8cca43898cb02f56e",
            "0x0000000000000000000000003ebf287b6141e636e4a29aecd1a83e5e057b4554"
          ],
          "data": "0x0000000000000000000000000000000000000000000000056bc75e2d63100000",
          "blockHash": "0xd91d0f3a9ea868c75d86b3b7e6927656b0a6b534de85ba4d3a3449fd8ae23d5f",
          "blockNumber": "0x222b121",
          "blockTimestamp": "0x6958c122",
          "transactionHash": "0x47c76142f1d59e00e0b4999561d0faeccfc1cb443b2c678feb3f26dcf07b80a7",
          "transactionIndex": "0x9",
          "logIndex": "0x5a",
          "removed": false
        },
        {
          "address": "0x3ebf287b6141e636e4a29aecd1a83e5e057b4554",
          "topics": [
            "0x3fbefbcbe89a8215cd4eed0234b07327d18e984324c67e8fd568e9894555ac39",
            "0x075f5265ee34ab3f7959e4375c9a4df918662315bb95d09fbe43f98158eaa7ff",
            "0x83bd38c209257695bfc796761a87e4fa3e5b1e3d813b3691f8afb470d24ee456",
            "0x000000000000000000000000000000000000000000000000000000006958c122"
          ],
          "data": "0x",
          "blockHash": "0xd91d0f3a9ea868c75d86b3b7e6927656b0a6b534de85ba4d3a3449fd8ae23d5f",
          "blockNumber": "0x222b121",
          "blockTimestamp": "0x6958c122",
          "transactionHash": "0x47c76142f1d59e00e0b4999561d0faeccfc1cb443b2c678feb3f26dcf07b80a7",
          "transactionIndex": "0x9",
          "logIndex": "0x5b",
          "removed": false
        }
      ],
      "logsBloom": "0x00400000000000000000000000000000000000000100000000000000000000000000000000000000000080000000000000001000000000000000000000004000000000000000000100000008000000200000000000000000000000000000000010000000000000000100000004000000000000001000000000200010000000040000400000000008000000000000000000000000000000000000000000000000200000000000000000000000000000000000000000000000000080000000000040000002000000200000000000000000040000000100000008000000000000000100000000000000000000000000000000000000000000010000000000000000",
      "type": "0x2",
      "transactionHash": "0x47c76142f1d59e00e0b4999561d0faeccfc1cb443b2c678feb3f26dcf07b80a7",
      "transactionIndex": "0x9",
      "blockHash": "0xd91d0f3a9ea868c75d86b3b7e6927656b0a6b534de85ba4d3a3449fd8ae23d5f",
      "blockNumber": "0x222b121",
      "gasUsed": "0x3c38f",
      "effectiveGasPrice": "0x124f80",
      "blobGasUsed": "0xda28",
      "from": "0xa0e87a70ae6652b5727217b8cca43898cb02f56e",
      "to": "0x3ebf287b6141e636e4a29aecd1a83e5e057b4554",
      "contractAddress": null,
      "daFootprintGasScalar": "0x138",
      "l1BaseFeeScalar": "0x44d",
      "l1BlobBaseFee": "0x1",
      "l1BlobBaseFeeScalar": "0xa118b",
      "l1Fee": "0x93",
      "l1GasPrice": "0x9",
      "l1GasUsed": "0xb3e"
    }
  ],
  "libraries": [],
  "pending": [],
  "returns": {},
  "timestamp": 1767424290,
  "chain": 84532,
  "commit": null
}