{
  "transactions": [
    {
      "hash": "0x531e7cc6dcd183141bb4390edd3681288559440925730f9b5f6eaa1630921ef0",
      "transactionType": "CALL",
      "contractName": null,
      "contractAddress": "0x61e101ba661c151042e96340514ad210d13a541c",
      "function": "mint(address,uint256)",
      "arguments": [
        "0x4c9b70b6cC1FcFd2Aaa41d705FbB9BB962BE0245",
        "4000000000000000000"
      ],
      "transaction": {
        "from": "0x4c9b70b6cc1fcfd2aaa41d705fbb9bb962be0245",
        "to": "0x61e101ba661c151042e96340514ad210d13a541c",
        "gas": "0xc1a6",
        "value": "0x0",
        "input": "0x40c10f190000000000000000000000004c9b70b6cc1fcfd2aaa41d705fbb9bb962be02450000000000000000000000000000000000000000000000003782dace9d900000",
        "nonce": "0x1a",
        "chainId": "0x14a34"
      },
      "additionalContracts": [],
      "isFixedGasLimit": false
    },
    {
      "hash": "0x7e5e82462cb9079f62129a69b209642c395622345be8caeb4f9731e7381abb55",
      "transactionType": "CALL",
      "contractName": null,
      "contractAddress": "0x61e101ba661c151042e96340514ad210d13a541c",
      "function": "approve(address,uint256)",
      "arguments": [
        "0x1d5f2De119C1014a22fbF3D962e402FbdaD9b61B",
        "4000000000000000000"
      ],
      "transaction": {
        "from": "0x4c9b70b6cc1fcfd2aaa41d705fbb9bb962be0245",
        "to": "0x61e101ba661c151042e96340514ad210d13a541c",
        "gas": "0xf7f5",
        "value": "0x0",
        "input": "0x095ea7b30000000000000000000000001d5f2de119c1014a22fbf3d962e402fbdad9b61b0000000000000000000000000000000000000000000000003782dace9d900000",
        "nonce": "0x1b",
        "chainId": "0x14a34"
      },
      "additionalContracts": [],
      "isFixedGasLimit": false
    },
    {
      "hash": "0xc345396230b02ba8a6136518b48a61939dbc9d6ba83e16f692d86e9ef836db38",
      "transactionType": "CALL",
      "contractName": null,
      "contractAddress": "0x1d5f2de119c1014a22fbf3d962e402fbdad9b61b",
      "function": "borrow((bytes32,uint256,uint256))",
      "arguments": [
        "(0x83bd38c209257695bfc796761a87e4fa3e5b1e3d813b3691f8afb470d24ee456, 100000000000000000000, 4000000000000000000)"
      ],
      "transaction": {
        "from": "0x4c9b70b6cc1fcfd2aaa41d705fbb9bb962be0245",
        "to": "0x1d5f2de119c1014a22fbf3d962e402fbdad9b61b",
        "gas": "0x878e8",
        "value": "0x0",
        "input": "0x136b2eca83bd38c209257695bfc796761a87e4fa3e5b1e3d813b3691f8afb470d24ee4560000000000000000000000000000000000000000000000056bc75e2d631000000000000000000000000000000000000000000000000000003782dace9d900000",
        "nonce": "0x1c",
        "chainId": "0x14a34"
      },
      "additionalContracts": [],
      "isFixedGasLimit": false
    }
  ],
  "receipts": [
    {
      "status": "0x1",
      "cumulativeGasUsed": "0x1e5f66",
      "logs": [
        {
          "address": "0x61e101ba661c151042e96340514ad210d13a541c",
          "topics": [
            "0xddf252ad1be2c89b69c2b068fc378daa952ba7f163c4a11628f55a4df523b3ef",
            "0x0000000000000000000000000000000000000000000000000000000000000000",
            "0x0000000000000000000000004c9b70b6cc1fcfd2aaa41d705fbb9bb962be0245"
          ],
          "data": "0x0000000000000000000000000000000000000000000000003782dace9d900000",
          "blockHash": "0xd0584acfddd34df2830cb4811d22bbe629e59e6b46e1b6edd3482b7d8048e3ae",
          "blockNumber": "0x222b958",
          "blockTimestamp": "0x6958d190",
          "transactionHash": "0x531e7cc6dcd183141bb4390edd3681288559440925730f9b5f6eaa1630921ef0",
          "transactionIndex": "0xb",
          "logIndex": "0x16",
          "removed": false
        }
      ],
      "logsBloom": "0x00000000080000000000000000000000000000000000000000000000000000000000000000000000000000000000000000000000000000000000000000000000010004000000000000000008000020000000000000000000000000000000000000000000820000000000000000000800000000000000000000000010000000000000000000000000000000000000000000000200000000000000000000000000000000000000000000000000000000000000000000000000000000000000000000000002000000000000000000000000000000000000000000000000000020000000000000000000000000000000000000000000000000000000000000000000",
      "type": "0x2",
      "transactionHash": "0x531e7cc6dcd183141bb4390edd3681288559440925730f9b5f6eaa1630921ef0",
      "transactionIndex": "0xb",
      "blockHash": "0xd0584acfddd34df2830cb4811d22bbe629e59e6b46e1b6edd3482b7d8048e3ae",
      "blockNumber": "0x222b958",
      "gasUsed": "0x8469",
      "effectiveGasPrice": "0x124f80",
      "blobGasUsed": "0x79e0",
      "from": "0x4c9b70b6cc1fcfd2aaa41d705fbb9bb962be0245",
      "to": "0x61e101ba661c151042e96340514ad210d13a541c",
      "contractAddress": null,
      "daFootprintGasScalar": "0x138",
      "l1BaseFeeScalar": "0x44d",
      "l1BlobBaseFee": "0x1",
      "l1BlobBaseFeeScalar": "0xa118b",
      "l1Fee": "0x51",
      "l1GasPrice": "0x9",
      "l1GasUsed": "0x640"
    },
    {
      "status": "0x1",
      "cumulativeGasUsed": "0x2468c1",
      "logs": [
        {
          "address": "0x61e101ba661c151042e96340514ad210d13a541c",
          "topics": [
            "0x8c5be1e5ebec7d5bd14f71427d1e84f3dd0314c0f7b2291e5b200ac8c7c3b925",
            "0x0000000000000000000000004c9b70b6cc1fcfd2aaa41d705fbb9bb962be0245",
            "0x0000000000000000000000001d5f2de119c1014a22fbf3d962e402fbdad9b61b"
          ],
          "data": "0x0000000000000000000000000000000000000000000000003782dace9d900000",
          "blockHash": "0xd0584acfddd34df2830cb4811d22bbe629e59e6b46e1b6edd3482b7d8048e3ae",
          "blockNumber": "0x222b958",
          "blockTimestamp": "0x6958d190",
          "transactionHash": "0x7e5e82462cb9079f62129a69b209642c395622345be8caeb4f9731e7381abb55",
          "transactionIndex": "0xf",
          "logIndex": "0x24",
          "removed": false
        }
      ],
      "logsBloom": "0x00000000080000000000000000000000000000000000000000000000000000000000000000000000000000000000000000000000000000000000000000200000010004000000000000000000000020000000000000000000000000000000000000000000800000000000000000000000000000000000000000000000000000000000000000000000000000000000000000000200000000000002000000000000020000000000000000000000000000000000000000000000000000000000000000100000000000000000000000000000000000000000000000000000000000000010000000000000000000000000000800000000000000000000000000000000",
      "type": "0x2",
      "transactionHash": "0x7e5e82462cb9079f62129a69b209642c395622345be8caeb4f9731e7381abb55",
      "transactionIndex": "0xf",
      "blockHash": "0xd0584acfddd34df2830cb4811d22bbe629e59e6b46e1b6edd3482b7d8048e3ae",
      "blockNumber": "0x222b958",
      "gasUsed": "0xb385",
      "effectiveGasPrice": "0x124f80",
      "blobGasUsed": "0x79e0",
      "from": "0x4c9b70b6cc1fcfd2aaa41d705fbb9bb962be0245",
      "to": "0x61e101ba661c151042e96340514ad210d13a541c",
      "contractAddress": null,
      "daFootprintGasScalar": "0x138",
      "l1BaseFeeScalar": "0x44d",
      "l1BlobBaseFee": "0x1",
      "l1BlobBaseFeeScalar": "0xa118b",
      "l1Fee": "0x51",
      "l1GasPrice": "0x9",
      "l1GasUsed": "0x640"
    },
    {
      "status": "0x1",
      "cumulativeGasUsed": "0x2a8b01",
      "logs": [
        {
          "address": "0x1d5f2de119c1014a22fbf3d962e402fbdad9b61b",
          "topics": [
            "0x660fdd79247e0a59eeb02dfb39ca4adb6d063c3deed27daada9fb81434005111",
            "0x83bd38c209257695bfc796761a87e4fa3e5b1e3d813b3691f8afb470d24ee456",
            "0x00000000000000000000000000000000000000000000d3bcb0076ec03df00000",
            "0x000000000000000000000000000000000000000000000000000000006958d190"
          ],
          "data": "0x",
          "blockHash": "0xd0584acfddd34df2830cb4811d22bbe629e59e6b46e1b6edd3482b7d8048e3ae",
          "blockNumber": "0x222b958",
          "blockTimestamp": "0x6958d190",
          "transactionHash": "0xc345396230b02ba8a6136518b48a61939dbc9d6ba83e16f692d86e9ef836db38",
          "transactionIndex": "0x10",
          "logIndex": "0x25",
          "removed": false
        },
        {
          "address": "0x1d5f2de119c1014a22fbf3d962e402fbdad9b61b",
          "topics": [
            "0x5d0c5776b8c52477936b6b38d56169ac2da40c92c610d1dde03ed723d8791948",
            "0x83bd38c209257695bfc796761a87e4fa3e5b1e3d813b3691f8afb470d24ee456",
            "0x000000000000000000000000000000000000000000000000000000006958d190"
          ],
          "data": "0x",
          "blockHash": "0xd0584acfddd34df2830cb4811d22bbe629e59e6b46e1b6edd3482b7d8048e3ae",
          "blockNumber": "0x222b958",
          "blockTimestamp": "0x6958d190",
          "transactionHash": "0xc345396230b02ba8a6136518b48a61939dbc9d6ba83e16f692d86e9ef836db38",
          "transactionIndex": "0x10",
          "logIndex": "0x26",
          "removed": false
        },
        {
          "address": "0x61e101ba661c151042e96340514ad210d13a541c",
          "topics": [
            "0xddf252ad1be2c89b69c2b068fc378daa952ba7f163c4a11628f55a4df523b3ef",
            "0x0000000000000000000000004c9b70b6cc1fcfd2aaa41d705fbb9bb962be0245",
            "0x0000000000000000000000001d5f2de119c1014a22fbf3d962e402fbdad9b61b"
          ],
          "data": "0x0000000000000000000000000000000000000000000000003782dace9d900000",
          "blockHash": "0xd0584acfddd34df2830cb4811d22bbe629e59e6b46e1b6edd3482b7d8048e3ae",
          "blockNumber": "0x222b958",
          "blockTimestamp": "0x6958d190",
          "transactionHash": "0xc345396230b02ba8a6136518b48a61939dbc9d6ba83e16f692d86e9ef836db38",
          "transactionIndex": "0x10",
          "logIndex": "0x27",
          "removed": false
        },
        {
          "address": "0x1627bb547c9ce9a9ddb7010807880ccd46bda91f",
          "topics": [
            "0xddf252ad1be2c89b69c2b068fc378daa952ba7f163c4a11628f55a4df523b3ef",
            "0x0000000000000000000000001d5f2de119c1014a22fbf3d962e402fbdad9b61b",
            "0x000000000000000000000000a0e87a70ae6652b5727217b8cca43898cb02f56e"
          ],
          "data": "0x000000000000000000000000000000000000000000000001158e460913d00000",
          "blockHash": "0xd0584acfddd34df2830cb4811d22bbe629e59e6b46e1b6edd3482b7d8048e3ae",
          "blockNumber": "0x222b958",
          "blockTimestamp": "0x6958d190",
          "transactionHash": "0xc345396230b02ba8a6136518b48a61939dbc9d6ba83e16f692d86e9ef836db38",
          "transactionIndex": "0x10",
          "logIndex": "0x28",
          "removed": false
        },
        {
          "address": "0x1627bb547c9ce9a9ddb7010807880ccd46bda91f",
          "topics": [
            "0xddf252ad1be2c89b69c2b068fc378daa952ba7f163c4a11628f55a4df523b3ef",
            "0x0000000000000000000000001d5f2de119c1014a22fbf3d962e402fbdad9b61b",
            "0x0000000000000000000000004c9b70b6cc1fcfd2aaa41d705fbb9bb962be0245"
          ],
          "data": "0x000000000000000000000000000000000000000000000004563918244f400000",
          "blockHash": "0xd0584acfddd34df2830cb4811d22bbe629e59e6b46e1b6edd3482b7d8048e3ae",
          "blockNumber": "0x222b958",
          "blockTimestamp": "0x6958d190",
          "transactionHash": "0xc345396230b02ba8a6136518b48a61939dbc9d6ba83e16f692d86e9ef836db38",
          "transactionIndex": "0x10",
          "logIndex": "0x29",
          "removed": false
        },
        {
          "address": "0x1d5f2de119c1014a22fbf3d962e402fbdad9b61b",
          "topics": [
            "0x43f0bb8bb9b6fbee7fc8ea5c87fd8830dc9d4586325918337b3b803e19e7b030",
            "0x3099444de48f8464ce8b484487e0b2cbae6d1f1e9dd4a43d88c82f6222e161bf",
            "0x0000000000000000000000000000000000000000000000000000000000000000"
          ],
          "data": "0x83bd38c209257695bfc796761a87e4fa3e5b1e3d813b3691f8afb470d24ee456000000000000000000000000000000000000000000000000000000006958d190",
          "blockHash": "0xd0584acfddd34df2830cb4811d22bbe629e59e6b46e1b6edd3482b7d8048e3ae",
          "blockNumber": "0x222b958",
          "blockTimestamp": "0x6958d190",
          "transactionHash": "0xc345396230b02ba8a6136518b48a61939dbc9d6ba83e16f692d86e9ef836db38",
          "transactionIndex": "0x10",
          "logIndex": "0x2a",
          "removed": false
        }
      ],
      "logsBloom": "0x00000000080000000000000000000000000000000000000000400000000000000000000008000000200080040000000000000000010000000000000000000000010004000000000000010008000020200000000000000000000000000001000010000000820000000000000204000800004000000000000000200014000000000000400000000000000000000000000000000200000000000002000000000000210000000000000000000000008000000000000000000000000080000000000000100002000000800000020000300000040000000000000000000000000020000104000000001000000010000000000800000000000000000000000001000000",
      "type": "0x2",
      "transactionHash": "0xc345396230b02ba8a6136518b48a61939dbc9d6ba83e16f692d86e9ef836db38",
      "transactionIndex": "0x10",
      "blockHash": "0xd0584acfddd34df2830cb4811d22bbe629e59e6b46e1b6edd3482b7d8048e3ae",
      "blockNumber": "0x222b958",
      "gasUsed": "0x62240",
      "effectiveGasPrice": "0x124f80",
      "blobGasUsed": "0x8268",
      "from": "0x4c9b70b6cc1fcfd2aaa41d705fbb9bb962be0245",
      "to": "0x1d5f2de119c1014a22fbf3d962e402fbdad9b61b",
      "contractAddress": null,
      "daFootprintGasScalar": "0x138",
      "l1BaseFeeScalar": "0x44d",
      "l1BlobBaseFee": "0x1",
      "l1BlobBaseFeeScalar": "0xa118b",
      "l1Fee": "0x57",
      "l1GasPrice": "0x9",
      "l1GasUsed": "0x6b2"
    }
  ],
  "libraries": [],
  "pending": [],
  "returns": {},
  "timestamp": 1767428497,
  "chain": 84532,
  "commit": null
}