{
  "transactions": [
    {
      "hash": "0x94593349e126cc55db4b7c92a0e75b85e482341eac7ba29d04bcb59b1ad13424",
      "transactionType": "CALL",
      "contractName": null,
      "contractAddress": "0x1627bb547c9ce9a9ddb7010807880ccd46bda91f",
      "function": "approve(address,uint256)",
      "arguments": [
        "0x7c3Ce376717E9F2f2f94F66863c43D95626e02E5",
        "200000000000000000000"
      ],
      "transaction": {
        "from": "0xa0e87a70ae6652b5727217b8cca43898cb02f56e",
        "to": "0x1627bb547c9ce9a9ddb7010807880ccd46bda91f",
        "gas": "0x1069d",
        "value": "0x0",
        "input": "0x095ea7b30000000000000000000000007c3ce376717e9f2f2f94f66863c43d95626e02e500000000000000000000000000000000000000000000000ad78ebc5ac6200000",
        "nonce": "0x3d",
        "chainId": "0x14a34"
      },
      "additionalContracts": [],
      "isFixedGasLimit": false
    },
    {
      "hash": "0xeb95fb002140611f007d4e7a7223330684ace2e92037e6992984fb37b3e57195",
      "transactionType": "CALL",
      "contractName": null,
      "contractAddress": "0x7c3ce376717e9f2f2f94f66863c43d95626e02e5",
      "function": "createPool((address,address,address,uint256,uint256,uint256,uint256,uint256,uint256))",
      "arguments": [
        "(0xa0e87A70AE6652B5727217b8CCA43898Cb02f56e, 0x1627bb547C9ce9A9DdB7010807880cCd46BDa91F, 0x61e101bA661c151042E96340514AD210D13A541C, 20000000000000000000, 200000000000000000000, 1000000000000000000000, 172800, 1000, 0)"
      ],
      "transaction": {
        "from": "0xa0e87a70ae6652b5727217b8cca43898cb02f56e",
        "to": "0x7c3ce376717e9f2f2f94f66863c43d95626e02e5",
        "gas": "0x51903",
        "value": "0x0",
        "input": "0x7124c55f000000000000000000000000a0e87a70ae6652b5727217b8cca43898cb02f56e0000000000000000000000001627bb547c9ce9a9ddb7010807880ccd46bda91f00000000000000000000000061e101ba661c151042e96340514ad210d13a541c000000000000000000000000000000000000000000000001158e460913d0000000000000000000000000000000000000000000000000000ad78ebc5ac620000000000000000000000000000000000000000000000000003635c9adc5dea00000000000000000000000000000000000000000000000000000000000000002a30000000000000000000000000000000000000000000000000000000000000003e80000000000000000000000000000000000000000000000000000000000000000",
        "nonce": "0x3e",
        "chainId": "0x14a34"
      },
      "additionalContracts": [],
      "isFixedGasLimit": false
    }
  ],
  "receipts": [
    {
      "status": "0x1",
      "cumulativeGasUsed": "0x3c47a8",
      "logs": [
        {
          "address": "0x1627bb547c9ce9a9ddb7010807880ccd46bda91f",
          "topics": [
            "0x8c5be1e5ebec7d5bd14f71427d1e84f3dd0314c0f7b2291e5b200ac8c7c3b925",
            "0x000000000000000000000000a0e87a70ae6652b5727217b8cca43898cb02f56e",
            "0x0000000000000000000000007c3ce376717e9f2f2f94f66863c43d95626e02e5"
          ],
          "data": "0x00000000000000000000000000000000000000000000000ad78ebc5ac6200000",
          "blockHash": "0x783b6c7d910bf3478888fdddd8cce844609ec5981b117a3abe4284bc0d227d87",
          "blockNumber": "0x2217c6d",
          "blockTimestamp": "0x695657ba",
          "transactionHash": "0x94593349e126cc55db4b7c92a0e75b85e482341eac7ba29d04bcb59b1ad13424",
          "transactionIndex": "0xc",
          "logIndex": "0xad",
          "removed": false
        }
      ],
      "logsBloom": "0x00000000000000000000000000000000000000000000000000000000000000000000000000000000000000000000000000000000000000400000000000200000000000000000000000000000000000200000000000000000000000000000000010000000000000000000000004000000000000000000000000000000020000000000400000000000000000000000000000000000000000000000000000000000020000000000000000000000000000000000000000000000000080000000000000000000000000000000000000000000040000001000000000000000000000000010000000000000000000000000000000000000000000000000000000000000",
      "type": "0x2",
      "transactionHash": "0x94593349e126cc55db4b7c92a0e75b85e482341eac7ba29d04bcb59b1ad13424",
      "transactionIndex": "0xc",
      "blockHash": "0x783b6c7d910bf3478888fdddd8cce844609ec5981b117a3abe4284bc0d227d87",
      "blockNumber": "0x2217c6d",
      "gasUsed": "0xb391",
      "effectiveGasPrice": "0x124f80",
      "blobGasUsed": "0x79e0",
      "from": "0xa0e87a70ae6652b5727217b8cca43898cb02f56e",
      "to": "0x1627bb547c9ce9a9ddb7010807880ccd46bda91f",
      "contractAddress": null,
      "daFootprintGasScalar": "0x138",
      "l1BaseFeeScalar": "0x44d",
      "l1BlobBaseFee": "0x2",
      "l1BlobBaseFeeScalar": "0xa118b",
      "l1Fee": "0x2a47e",
      "l1GasPrice": "0x17fbb",
      "l1GasUsed": "0x640"
    },
    {
      "status": "0x1",
      "cumulativeGasUsed": "0x3ff877",
      "logs": [
        {
          "address": "0x1627bb547c9ce9a9ddb7010807880ccd46bda91f",
          "topics": [
            "0xddf252ad1be2c89b69c2b068fc378daa952ba7f163c4a11628f55a4df523b3ef",
            "0x000000000000000000000000a0e87a70ae6652b5727217b8cca43898cb02f56e",
            "0x0000000000000000000000007c3ce376717e9f2f2f94f66863c43d95626e02e5"
          ],
          "data": "0x00000000000000000000000000000000000000000000000ad78ebc5ac6200000",
          "blockHash": "0x783b6c7d910bf3478888fdddd8cce844609ec5981b117a3abe4284bc0d227d87",
          "blockNumber": "0x2217c6d",
          "blockTimestamp": "0x695657ba",
          "transactionHash": "0xeb95fb002140611f007d4e7a7223330684ace2e92037e6992984fb37b3e57195",
          "transactionIndex": "0xd",
          "logIndex": "0xae",
          "removed": false
        },
        {
          "address": "0x7c3ce376717e9f2f2f94f66863c43d95626e02e5",
          "topics": [
            "0x3fbefbcbe89a8215cd4eed0234b07327d18e984324c67e8fd568e9894555ac39",
            "0xa748416822ac3f9c00d91bdda361edb36c0d630211e27f74fb32da7499c113b2",
            "0x83bd38c209257695bfc796761a87e4fa3e5b1e3d813b3691f8afb470d24ee456",
            "0x00000000000000000000000000000000000000000000000000000000695657ba"
          ],
          "data": "0x",
          "blockHash": "0x783b6c7d910bf3478888fdddd8cce844609ec5981b117a3abe4284bc0d227d87",
          "blockNumber": "0x2217c6d",
          "blockTimestamp": "0x695657ba",
          "transactionHash": "0xeb95fb002140611f007d4e7a7223330684ace2e92037e6992984fb37b3e57195",
          "transactionIndex": "0xd",
          "logIndex": "0xaf",
          "removed": false
        }
      ],
      "logsBloom": "0x00000000000000000000000000000000000000000000000000000000000000000000000000000000000080000000000000000000000000400000000000000000000000000000000000000208000000200000000000001000010000000000000010000000000000000004000004000000200000001000000000200010020000040000400000000000000000000000001000080000000000000000000000000000000000000000000000000000000000000000000000000000000080000000000000000002000000000000000000000000040000001100000000000000000000000100000000000000000000000000000040000000000000010000000000000000",
      "type": "0x2",
      "transactionHash": "0xeb95fb002140611f007d4e7a7223330684ace2e92037e6992984fb37b3e57195",
      "transactionIndex": "0xd",
      "blockHash": "0x783b6c7d910bf3478888fdddd8cce844609ec5981b117a3abe4284bc0d227d87",
      "blockNumber": "0x2217c6d",
      "gasUsed": "0x3b0cf",
      "effectiveGasPrice": "0x124f80",
      "blobGasUsed": "0xda28",
      "from": "0xa0e87a70ae6652b5727217b8cca43898cb02f56e",
      "to": "0x7c3ce376717e9f2f2f94f66863c43d95626e02e5",
      "contractAddress": null,
      "daFootprintGasScalar": "0x138",
      "l1BaseFeeScalar": "0x44d",
      "l1BlobBaseFee": "0x2",
      "l1BlobBaseFeeScalar": "0xa118b",
      "l1Fee": "0x4bb83",
      "l1GasPrice": "0x17fbb",
      "l1GasUsed": "0xb31"
    }
  ],
  "libraries": [],
  "pending": [],
  "returns": {},
  "timestamp": 1767266236,
  "chain": 84532,
  "commit": null
}